{
	"contracts/MintContract.sol": {
		"MintContract": {
			"abi": [
				{
					"inputs": [],
					"stateMutability": "nonpayable",
					"type": "constructor"
				},
				{
					"anonymous": false,
					"inputs": [
						{
							"indexed": true,
							"internalType": "uint256",
							"name": "tokenId",
							"type": "uint256"
						},
						{
							"indexed": true,
							"internalType": "address",
							"name": "manufacturer",
							"type": "address"
						},
						{
							"indexed": false,
							"internalType": "string",
							"name": "medicineName",
							"type": "string"
						},
						{
							"indexed": false,
							"internalType": "string",
							"name": "batchNumber",
							"type": "string"
						},
						{
							"indexed": false,
							"internalType": "uint256",
							"name": "expiryDate",
							"type": "uint256"
						}
					],
					"name": "BatchMinted",
					"type": "event"
				},
				{
					"anonymous": false,
					"inputs": [
						{
							"indexed": true,
							"internalType": "address",
							"name": "manufacturer",
							"type": "address"
						}
					],
					"name": "ManufacturerAuthorised",
					"type": "event"
				},
				{
					"anonymous": false,
					"inputs": [
						{
							"indexed": true,
							"internalType": "address",
							"name": "manufacturer",
							"type": "address"
						}
					],
					"name": "ManufacturerRevoked",
					"type": "event"
				},
				{
					"inputs": [
						{
							"internalType": "address",
							"name": "manufacturer",
							"type": "address"
						}
					],
					"name": "authoriseManufacturer",
					"outputs": [],
					"stateMutability": "nonpayable",
					"type": "function"
				},
				{
					"inputs": [
						{
							"internalType": "address",
							"name": "",
							"type": "address"
						}
					],
					"name": "authorisedManufacturers",
					"outputs": [
						{
							"internalType": "bool",
							"name": "",
							"type": "bool"
						}
					],
					"stateMutability": "view",
					"type": "function"
				},
				{
					"inputs": [
						{
							"internalType": "uint256",
							"name": "tokenId",
							"type": "uint256"
						}
					],
					"name": "batchExists",
					"outputs": [
						{
							"internalType": "bool",
							"name": "",
							"type": "bool"
						}
					],
					"stateMutability": "view",
					"type": "function"
				},
				{
					"inputs": [
						{
							"internalType": "uint256",
							"name": "tokenId",
							"type": "uint256"
						}
					],
					"name": "getBatch",
					"outputs": [
						{
							"components": [
								{
									"internalType": "uint256",
									"name": "tokenId",
									"type": "uint256"
								},
								{
									"internalType": "string",
									"name": "medicineName",
									"type": "string"
								},
								{
									"internalType": "string",
									"name": "batchNumber",
									"type": "string"
								},
								{
									"internalType": "uint256",
									"name": "manufactureDate",
									"type": "uint256"
								},
								{
									"internalType": "uint256",
									"name": "expiryDate",
									"type": "uint256"
								},
								{
									"internalType": "address",
									"name": "manufacturer",
									"type": "address"
								},
								{
									"internalType": "enum BatchStatus",
									"name": "status",
									"type": "uint8"
								}
							],
							"internalType": "struct BatchData",
							"name": "",
							"type": "tuple"
						}
					],
					"stateMutability": "view",
					"type": "function"
				},
				{
					"inputs": [
						{
							"internalType": "string",
							"name": "medicineName",
							"type": "string"
						},
						{
							"internalType": "string",
							"name": "batchNumber",
							"type": "string"
						},
						{
							"internalType": "uint256",
							"name": "expiryDate",
							"type": "uint256"
						}
					],
					"name": "mintBatch",
					"outputs": [
						{
							"internalType": "uint256",
							"name": "tokenId",
							"type": "uint256"
						}
					],
					"stateMutability": "nonpayable",
					"type": "function"
				},
				{
					"inputs": [],
					"name": "owner",
					"outputs": [
						{
							"internalType": "address",
							"name": "",
							"type": "address"
						}
					],
					"stateMutability": "view",
					"type": "function"
				},
				{
					"inputs": [
						{
							"internalType": "address",
							"name": "manufacturer",
							"type": "address"
						}
					],
					"name": "revokeManufacturer",
					"outputs": [],
					"stateMutability": "nonpayable",
					"type": "function"
				},
				{
					"inputs": [
						{
							"internalType": "uint256",
							"name": "tokenId",
							"type": "uint256"
						},
						{
							"internalType": "enum BatchStatus",
							"name": "newStatus",
							"type": "uint8"
						}
					],
					"name": "updateStatus",
					"outputs": [],
					"stateMutability": "nonpayable",
					"type": "function"
				}
			],
			"devdoc": {
				"details": "This is a simplified token registry (not a full ERC-721).      Each batch gets a unique tokenId incremented from 1.      The ControlContract reads from this contract to validate batches.",
				"kind": "dev",
				"methods": {
					"authoriseManufacturer(address)": {
						"params": {
							"manufacturer": "Address to authorise."
						}
					},
					"batchExists(uint256)": {
						"params": {
							"tokenId": "The batch token to check."
						}
					},
					"getBatch(uint256)": {
						"params": {
							"tokenId": "The batch token to look up."
						}
					},
					"mintBatch(string,string,uint256)": {
						"details": "TODO: Add validation:      - expiryDate must be in the future      - medicineName and batchNumber must not be empty strings      - Consider emitting a QR-code-friendly hash of the tokenId",
						"params": {
							"batchNumber": "Manufacturer's internal batch reference.",
							"expiryDate": "Unix timestamp of the batch expiry date.",
							"medicineName": "Human-readable name of the medicine."
						},
						"returns": {
							"tokenId": "     The ID assigned to the newly minted batch."
						}
					},
					"revokeManufacturer(address)": {
						"params": {
							"manufacturer": "Address to revoke."
						}
					},
					"updateStatus(uint256,uint8)": {
						"details": "TODO: Restrict this so only the ControlContract address can call it.      One approach: store the ControlContract address in state and add a modifier.",
						"params": {
							"newStatus": "The new BatchStatus value.",
							"tokenId": "The batch to update."
						}
					}
				},
				"title": "MintContract",
				"version": 1
			},
			"evm": {
				"assembly": "    /* \"contracts/MintContract.sol\":457:6445  contract MintContract {... */\n  mstore(0x40, 0x80)\n    /* \"contracts/MintContract.sol\":2443:2545  constructor() {... */\n  callvalue\n  dup1\n  iszero\n  tag_1\n  jumpi\n  revert(0x00, 0x00)\ntag_1:\n  pop\n    /* \"contracts/MintContract.sol\":2476:2486  msg.sender */\n  caller\n    /* \"contracts/MintContract.sol\":2468:2473  owner */\n  0x00\n  0x00\n    /* \"contracts/MintContract.sol\":2468:2486  owner = msg.sender */\n  0x0100\n  exp\n  dup2\n  sload\n  dup2\n  0xffffffffffffffffffffffffffffffffffffffff\n  mul\n  not\n  and\n  swap1\n  dup4\n  0xffffffffffffffffffffffffffffffffffffffff\n  and\n  mul\n  or\n  swap1\n  sstore\n  pop\n    /* \"contracts/MintContract.sol\":2512:2513  1 */\n  0x01\n    /* \"contracts/MintContract.sol\":2497:2509  _nextTokenId */\n  dup1\n    /* \"contracts/MintContract.sol\":2497:2513  _nextTokenId = 1 */\n  dup2\n  swap1\n  sstore\n  pop\n    /* \"contracts/MintContract.sol\":457:6445  contract MintContract {... */\n  dataSize(sub_0)\n  dup1\n  dataOffset(sub_0)\n  0x00\n  codecopy\n  0x00\n  return\nstop\n\nsub_0: assembly {\n        /* \"contracts/MintContract.sol\":457:6445  contract MintContract {... */\n      mstore(0x40, 0x80)\n      callvalue\n      dup1\n      iszero\n      tag_1\n      jumpi\n      revert(0x00, 0x00)\n    tag_1:\n      pop\n      jumpi(tag_2, lt(calldatasize, 0x04))\n      shr(0xe0, calldataload(0x00))\n      dup1\n      0x8da5cb5b\n      gt\n      tag_11\n      jumpi\n      dup1\n      0x8da5cb5b\n      eq\n      tag_7\n      jumpi\n      dup1\n      0x974a0133\n      eq\n      tag_8\n      jumpi\n      dup1\n      0x9ffaa71e\n      eq\n      tag_9\n      jumpi\n      dup1\n      0xfcafd6a5\n      eq\n      tag_10\n      jumpi\n      jump(tag_2)\n    tag_11:\n      dup1\n      0x18b45238\n      eq\n      tag_3\n      jumpi\n      dup1\n      0x3a1b3d31\n      eq\n      tag_4\n      jumpi\n      dup1\n      0x5ac44282\n      eq\n      tag_5\n      jumpi\n      dup1\n      0x5cd349ef\n      eq\n      tag_6\n      jumpi\n    tag_2:\n      revert(0x00, 0x00)\n        /* \"contracts/MintContract.sol\":3264:3523  function revokeManufacturer(address manufacturer) external onlyOwner {... */\n    tag_3:\n      tag_12\n      0x04\n      dup1\n      calldatasize\n      sub\n      dup2\n      add\n      swap1\n      tag_13\n      swap2\n      swap1\n      tag_14\n      jump\t// in\n    tag_13:\n      tag_15\n      jump\t// in\n    tag_12:\n      stop\n        /* \"contracts/MintContract.sol\":6230:6442  function updateStatus(uint256 tokenId, BatchStatus newStatus) external {... */\n    tag_4:\n      tag_16\n      0x04\n      dup1\n      calldatasize\n      sub\n      dup2\n      add\n      swap1\n      tag_17\n      swap2\n      swap1\n      tag_18\n      jump\t// in\n    tag_17:\n      tag_19\n      jump\t// in\n    tag_16:\n      stop\n        /* \"contracts/MintContract.sol\":5359:5554  function getBatch(uint256 tokenId) external view returns (BatchData memory) {... */\n    tag_5:\n      tag_20\n      0x04\n      dup1\n      calldatasize\n      sub\n      dup2\n      add\n      swap1\n      tag_21\n      swap2\n      swap1\n      tag_22\n      jump\t// in\n    tag_21:\n      tag_23\n      jump\t// in\n    tag_20:\n      mload(0x40)\n      tag_24\n      swap2\n      swap1\n      tag_25\n      jump\t// in\n    tag_24:\n      mload(0x40)\n      dup1\n      swap2\n      sub\n      swap1\n      return\n        /* \"contracts/MintContract.sol\":1092:1147  mapping(address => bool) public authorisedManufacturers */\n    tag_6:\n      tag_26\n      0x04\n      dup1\n      calldatasize\n      sub\n      dup2\n      add\n      swap1\n      tag_27\n      swap2\n      swap1\n      tag_14\n      jump\t// in\n    tag_27:\n      tag_28\n      jump\t// in\n    tag_26:\n      mload(0x40)\n      tag_29\n      swap2\n      swap1\n      tag_30\n      jump\t// in\n    tag_29:\n      mload(0x40)\n      dup1\n      swap2\n      sub\n      swap1\n      return\n        /* \"contracts/MintContract.sol\":795:815  address public owner */\n    tag_7:\n      tag_31\n      tag_32\n      jump\t// in\n    tag_31:\n      mload(0x40)\n      tag_33\n      swap2\n      swap1\n      tag_34\n      jump\t// in\n    tag_33:\n      mload(0x40)\n      dup1\n      swap2\n      sub\n      swap1\n      return\n        /* \"contracts/MintContract.sol\":4330:5010  function mintBatch(... */\n    tag_8:\n      tag_35\n      0x04\n      dup1\n      calldatasize\n      sub\n      dup2\n      add\n      swap1\n      tag_36\n      swap2\n      swap1\n      tag_37\n      jump\t// in\n    tag_36:\n      tag_38\n      jump\t// in\n    tag_35:\n      mload(0x40)\n      tag_39\n      swap2\n      swap1\n      tag_40\n      jump\t// in\n    tag_39:\n      mload(0x40)\n      dup1\n      swap2\n      sub\n      swap1\n      return\n        /* \"contracts/MintContract.sol\":5713:5850  function batchExists(uint256 tokenId) external view returns (bool) {... */\n    tag_9:\n      tag_41\n      0x04\n      dup1\n      calldatasize\n      sub\n      dup2\n      add\n      swap1\n      tag_42\n      swap2\n      swap1\n      tag_22\n      jump\t// in\n    tag_42:\n      tag_43\n      jump\t// in\n    tag_41:\n      mload(0x40)\n      tag_44\n      swap2\n      swap1\n      tag_30\n      jump\t// in\n    tag_44:\n      mload(0x40)\n      dup1\n      swap2\n      sub\n      swap1\n      return\n        /* \"contracts/MintContract.sol\":2876:3132  function authoriseManufacturer(address manufacturer) external onlyOwner {... */\n    tag_10:\n      tag_45\n      0x04\n      dup1\n      calldatasize\n      sub\n      dup2\n      add\n      swap1\n      tag_46\n      swap2\n      swap1\n      tag_14\n      jump\t// in\n    tag_46:\n      tag_47\n      jump\t// in\n    tag_45:\n      stop\n        /* \"contracts/MintContract.sol\":3264:3523  function revokeManufacturer(address manufacturer) external onlyOwner {... */\n    tag_15:\n        /* \"contracts/MintContract.sol\":1959:1964  owner */\n      0x00\n      0x00\n      swap1\n      sload\n      swap1\n      0x0100\n      exp\n      swap1\n      div\n      0xffffffffffffffffffffffffffffffffffffffff\n      and\n        /* \"contracts/MintContract.sol\":1945:1964  msg.sender == owner */\n      0xffffffffffffffffffffffffffffffffffffffff\n      and\n        /* \"contracts/MintContract.sol\":1945:1955  msg.sender */\n      caller\n        /* \"contracts/MintContract.sol\":1945:1964  msg.sender == owner */\n      0xffffffffffffffffffffffffffffffffffffffff\n      and\n      eq\n        /* \"contracts/MintContract.sol\":1937:2002  require(msg.sender == owner, \"MintContract: caller is not owner\") */\n      tag_49\n      jumpi\n      mload(0x40)\n      0x08c379a000000000000000000000000000000000000000000000000000000000\n      dup2\n      mstore\n      0x04\n      add\n      tag_50\n      swap1\n      tag_51\n      jump\t// in\n    tag_50:\n      mload(0x40)\n      dup1\n      swap2\n      sub\n      swap1\n      revert\n    tag_49:\n        /* \"contracts/MintContract.sol\":3461:3466  false */\n      0x00\n        /* \"contracts/MintContract.sol\":3421:3444  authorisedManufacturers */\n      0x03\n        /* \"contracts/MintContract.sol\":3421:3458  authorisedManufacturers[manufacturer] */\n      0x00\n        /* \"contracts/MintContract.sol\":3445:3457  manufacturer */\n      dup4\n        /* \"contracts/MintContract.sol\":3421:3458  authorisedManufacturers[manufacturer] */\n      0xffffffffffffffffffffffffffffffffffffffff\n      and\n      0xffffffffffffffffffffffffffffffffffffffff\n      and\n      dup2\n      mstore\n      0x20\n      add\n      swap1\n      dup2\n      mstore\n      0x20\n      add\n      0x00\n      keccak256\n      0x00\n        /* \"contracts/MintContract.sol\":3421:3466  authorisedManufacturers[manufacturer] = false */\n      0x0100\n      exp\n      dup2\n      sload\n      dup2\n      0xff\n      mul\n      not\n      and\n      swap1\n      dup4\n      iszero\n      iszero\n      mul\n      or\n      swap1\n      sstore\n      pop\n        /* \"contracts/MintContract.sol\":3502:3514  manufacturer */\n      dup1\n        /* \"contracts/MintContract.sol\":3482:3515  ManufacturerRevoked(manufacturer) */\n      0xffffffffffffffffffffffffffffffffffffffff\n      and\n      0xd45d196334d0d06ea301cc8b965da9c0afd7dd9bd61ebcf127f0575c45e7b46b\n      mload(0x40)\n      mload(0x40)\n      dup1\n      swap2\n      sub\n      swap1\n      log2\n        /* \"contracts/MintContract.sol\":3264:3523  function revokeManufacturer(address manufacturer) external onlyOwner {... */\n      pop\n      jump\t// out\n        /* \"contracts/MintContract.sol\":6230:6442  function updateStatus(uint256 tokenId, BatchStatus newStatus) external {... */\n    tag_19:\n        /* \"contracts/MintContract.sol\":6425:6434  newStatus */\n      dup1\n        /* \"contracts/MintContract.sol\":6398:6406  _batches */\n      0x02\n        /* \"contracts/MintContract.sol\":6398:6415  _batches[tokenId] */\n      0x00\n        /* \"contracts/MintContract.sol\":6407:6414  tokenId */\n      dup5\n        /* \"contracts/MintContract.sol\":6398:6415  _batches[tokenId] */\n      dup2\n      mstore\n      0x20\n      add\n      swap1\n      dup2\n      mstore\n      0x20\n      add\n      0x00\n      keccak256\n        /* \"contracts/MintContract.sol\":6398:6422  _batches[tokenId].status */\n      0x05\n      add\n      0x14\n        /* \"contracts/MintContract.sol\":6398:6434  _batches[tokenId].status = newStatus */\n      0x0100\n      exp\n      dup2\n      sload\n      dup2\n      0xff\n      mul\n      not\n      and\n      swap1\n      dup4\n      0x04\n      dup2\n      gt\n      iszero\n      tag_54\n      jumpi\n      tag_55\n      tag_56\n      jump\t// in\n    tag_55:\n    tag_54:\n      mul\n      or\n      swap1\n      sstore\n      pop\n        /* \"contracts/MintContract.sol\":6230:6442  function updateStatus(uint256 tokenId, BatchStatus newStatus) external {... */\n      pop\n      pop\n      jump\t// out\n        /* \"contracts/MintContract.sol\":5359:5554  function getBatch(uint256 tokenId) external view returns (BatchData memory) {... */\n    tag_23:\n        /* \"contracts/MintContract.sol\":5417:5433  BatchData memory */\n      tag_57\n      tag_58\n      jump\t// in\n    tag_57:\n        /* \"contracts/MintContract.sol\":5529:5537  _batches */\n      0x02\n        /* \"contracts/MintContract.sol\":5529:5546  _batches[tokenId] */\n      0x00\n        /* \"contracts/MintContract.sol\":5538:5545  tokenId */\n      dup4\n        /* \"contracts/MintContract.sol\":5529:5546  _batches[tokenId] */\n      dup2\n      mstore\n      0x20\n      add\n      swap1\n      dup2\n      mstore\n      0x20\n      add\n      0x00\n      keccak256\n        /* \"contracts/MintContract.sol\":5522:5546  return _batches[tokenId] */\n      mload(0x40)\n      dup1\n      0xe0\n      add\n      0x40\n      mstore\n      swap1\n      dup2\n      0x00\n      dup3\n      add\n      sload\n      dup2\n      mstore\n      0x20\n      add\n      0x01\n      dup3\n      add\n      dup1\n      sload\n      tag_60\n      swap1\n      tag_61\n      jump\t// in\n    tag_60:\n      dup1\n      0x1f\n      add\n      0x20\n      dup1\n      swap2\n      div\n      mul\n      0x20\n      add\n      mload(0x40)\n      swap1\n      dup2\n      add\n      0x40\n      mstore\n      dup1\n      swap3\n      swap2\n      swap1\n      dup2\n      dup2\n      mstore\n      0x20\n      add\n      dup3\n      dup1\n      sload\n      tag_62\n      swap1\n      tag_61\n      jump\t// in\n    tag_62:\n      dup1\n      iszero\n      tag_63\n      jumpi\n      dup1\n      0x1f\n      lt\n      tag_64\n      jumpi\n      0x0100\n      dup1\n      dup4\n      sload\n      div\n      mul\n      dup4\n      mstore\n      swap2\n      0x20\n      add\n      swap2\n      jump(tag_63)\n    tag_64:\n      dup3\n      add\n      swap2\n      swap1\n      0x00\n      mstore\n      keccak256(0x00, 0x20)\n      swap1\n    tag_65:\n      dup2\n      sload\n      dup2\n      mstore\n      swap1\n      0x01\n      add\n      swap1\n      0x20\n      add\n      dup1\n      dup4\n      gt\n      tag_65\n      jumpi\n      dup3\n      swap1\n      sub\n      0x1f\n      and\n      dup3\n      add\n      swap2\n    tag_63:\n      pop\n      pop\n      pop\n      pop\n      pop\n      dup2\n      mstore\n      0x20\n      add\n      0x02\n      dup3\n      add\n      dup1\n      sload\n      tag_66\n      swap1\n      tag_61\n      jump\t// in\n    tag_66:\n      dup1\n      0x1f\n      add\n      0x20\n      dup1\n      swap2\n      div\n      mul\n      0x20\n      add\n      mload(0x40)\n      swap1\n      dup2\n      add\n      0x40\n      mstore\n      dup1\n      swap3\n      swap2\n      swap1\n      dup2\n      dup2\n      mstore\n      0x20\n      add\n      dup3\n      dup1\n      sload\n      tag_67\n      swap1\n      tag_61\n      jump\t// in\n    tag_67:\n      dup1\n      iszero\n      tag_68\n      jumpi\n      dup1\n      0x1f\n      lt\n      tag_69\n      jumpi\n      0x0100\n      dup1\n      dup4\n      sload\n      div\n      mul\n      dup4\n      mstore\n      swap2\n      0x20\n      add\n      swap2\n      jump(tag_68)\n    tag_69:\n      dup3\n      add\n      swap2\n      swap1\n      0x00\n      mstore\n      keccak256(0x00, 0x20)\n      swap1\n    tag_70:\n      dup2\n      sload\n      dup2\n      mstore\n      swap1\n      0x01\n      add\n      swap1\n      0x20\n      add\n      dup1\n      dup4\n      gt\n      tag_70\n      jumpi\n      dup3\n      swap1\n      sub\n      0x1f\n      and\n      dup3\n      add\n      swap2\n    tag_68:\n      pop\n      pop\n      pop\n      pop\n      pop\n      dup2\n      mstore\n      0x20\n      add\n      0x03\n      dup3\n      add\n      sload\n      dup2\n      mstore\n      0x20\n      add\n      0x04\n      dup3\n      add\n      sload\n      dup2\n      mstore\n      0x20\n      add\n      0x05\n      dup3\n      add\n      0x00\n      swap1\n      sload\n      swap1\n      0x0100\n      exp\n      swap1\n      div\n      0xffffffffffffffffffffffffffffffffffffffff\n      and\n      0xffffffffffffffffffffffffffffffffffffffff\n      and\n      0xffffffffffffffffffffffffffffffffffffffff\n      and\n      dup2\n      mstore\n      0x20\n      add\n      0x05\n      dup3\n      add\n      0x14\n      swap1\n      sload\n      swap1\n      0x0100\n      exp\n      swap1\n      div\n      0xff\n      and\n      0x04\n      dup2\n      gt\n      iszero\n      tag_71\n      jumpi\n      tag_72\n      tag_56\n      jump\t// in\n    tag_72:\n    tag_71:\n      0x04\n      dup2\n      gt\n      iszero\n      tag_73\n      jumpi\n      tag_74\n      tag_56\n      jump\t// in\n    tag_74:\n    tag_73:\n      dup2\n      mstore\n      pop\n      pop\n      swap1\n      pop\n        /* \"contracts/MintContract.sol\":5359:5554  function getBatch(uint256 tokenId) external view returns (BatchData memory) {... */\n      swap2\n      swap1\n      pop\n      jump\t// out\n        /* \"contracts/MintContract.sol\":1092:1147  mapping(address => bool) public authorisedManufacturers */\n    tag_28:\n      mstore(0x20, 0x03)\n      dup1\n      0x00\n      mstore\n      keccak256(0x00, 0x40)\n      0x00\n      swap2\n      pop\n      sload\n      swap1\n      0x0100\n      exp\n      swap1\n      div\n      0xff\n      and\n      dup2\n      jump\t// out\n        /* \"contracts/MintContract.sol\":795:815  address public owner */\n    tag_32:\n      0x00\n      0x00\n      swap1\n      sload\n      swap1\n      0x0100\n      exp\n      swap1\n      div\n      0xffffffffffffffffffffffffffffffffffffffff\n      and\n      dup2\n      jump\t// out\n        /* \"contracts/MintContract.sol\":4330:5010  function mintBatch(... */\n    tag_38:\n        /* \"contracts/MintContract.sol\":4497:4512  uint256 tokenId */\n      0x00\n        /* \"contracts/MintContract.sol\":2091:2114  authorisedManufacturers */\n      0x03\n        /* \"contracts/MintContract.sol\":2091:2126  authorisedManufacturers[msg.sender] */\n      0x00\n        /* \"contracts/MintContract.sol\":2115:2125  msg.sender */\n      caller\n        /* \"contracts/MintContract.sol\":2091:2126  authorisedManufacturers[msg.sender] */\n      0xffffffffffffffffffffffffffffffffffffffff\n      and\n      0xffffffffffffffffffffffffffffffffffffffff\n      and\n      dup2\n      mstore\n      0x20\n      add\n      swap1\n      dup2\n      mstore\n      0x20\n      add\n      0x00\n      keccak256\n      0x00\n      swap1\n      sload\n      swap1\n      0x0100\n      exp\n      swap1\n      div\n      0xff\n      and\n        /* \"contracts/MintContract.sol\":2069:2208  require(... */\n      tag_76\n      jumpi\n      mload(0x40)\n      0x08c379a000000000000000000000000000000000000000000000000000000000\n      dup2\n      mstore\n      0x04\n      add\n      tag_77\n      swap1\n      tag_78\n      jump\t// in\n    tag_77:\n      mload(0x40)\n      dup1\n      swap2\n      sub\n      swap1\n      revert\n    tag_76:\n        /* \"contracts/MintContract.sol\":4535:4547  _nextTokenId */\n      0x01\n      0x00\n        /* \"contracts/MintContract.sol\":4535:4549  _nextTokenId++ */\n      dup2\n      sload\n      dup1\n      swap3\n      swap2\n      swap1\n      tag_80\n      swap1\n      tag_81\n      jump\t// in\n    tag_80:\n      swap2\n      swap1\n      pop\n      sstore\n        /* \"contracts/MintContract.sol\":4525:4549  tokenId = _nextTokenId++ */\n      swap1\n      pop\n        /* \"contracts/MintContract.sol\":4582:4913  BatchData({... */\n      mload(0x40)\n      dup1\n      0xe0\n      add\n      0x40\n      mstore\n      dup1\n        /* \"contracts/MintContract.sol\":4624:4631  tokenId */\n      dup3\n        /* \"contracts/MintContract.sol\":4582:4913  BatchData({... */\n      dup2\n      mstore\n      0x20\n      add\n        /* \"contracts/MintContract.sol\":4663:4675  medicineName */\n      dup8\n      dup8\n        /* \"contracts/MintContract.sol\":4582:4913  BatchData({... */\n      dup1\n      dup1\n      0x1f\n      add\n      0x20\n      dup1\n      swap2\n      div\n      mul\n      0x20\n      add\n      mload(0x40)\n      swap1\n      dup2\n      add\n      0x40\n      mstore\n      dup1\n      swap4\n      swap3\n      swap2\n      swap1\n      dup2\n      dup2\n      mstore\n      0x20\n      add\n      dup4\n      dup4\n      dup1\n      dup3\n      dup5\n      calldatacopy\n      0x00\n      dup2\n      dup5\n      add\n      mstore\n      not(0x1f)\n      0x1f\n      dup3\n      add\n      and\n      swap1\n      pop\n      dup1\n      dup4\n      add\n      swap3\n      pop\n      pop\n      pop\n      pop\n      pop\n      pop\n      pop\n      dup2\n      mstore\n      0x20\n      add\n        /* \"contracts/MintContract.sol\":4707:4718  batchNumber */\n      dup6\n      dup6\n        /* \"contracts/MintContract.sol\":4582:4913  BatchData({... */\n      dup1\n      dup1\n      0x1f\n      add\n      0x20\n      dup1\n      swap2\n      div\n      mul\n      0x20\n      add\n      mload(0x40)\n      swap1\n      dup2\n      add\n      0x40\n      mstore\n      dup1\n      swap4\n      swap3\n      swap2\n      swap1\n      dup2\n      dup2\n      mstore\n      0x20\n      add\n      dup4\n      dup4\n      dup1\n      dup3\n      dup5\n      calldatacopy\n      0x00\n      dup2\n      dup5\n      add\n      mstore\n      not(0x1f)\n      0x1f\n      dup3\n      add\n      and\n      swap1\n      pop\n      dup1\n      dup4\n      add\n      swap3\n      pop\n      pop\n      pop\n      pop\n      pop\n      pop\n      pop\n      dup2\n      mstore\n      0x20\n      add\n        /* \"contracts/MintContract.sol\":4750:4765  block.timestamp */\n      timestamp\n        /* \"contracts/MintContract.sol\":4582:4913  BatchData({... */\n      dup2\n      mstore\n      0x20\n      add\n        /* \"contracts/MintContract.sol\":4797:4807  expiryDate */\n      dup4\n        /* \"contracts/MintContract.sol\":4582:4913  BatchData({... */\n      dup2\n      mstore\n      0x20\n      add\n        /* \"contracts/MintContract.sol\":4839:4849  msg.sender */\n      caller\n        /* \"contracts/MintContract.sol\":4582:4913  BatchData({... */\n      0xffffffffffffffffffffffffffffffffffffffff\n      and\n      dup2\n      mstore\n      0x20\n      add\n        /* \"contracts/MintContract.sol\":4881:4901  BatchStatus.Produced */\n      0x00\n        /* \"contracts/MintContract.sol\":4582:4913  BatchData({... */\n      0x04\n      dup2\n      gt\n      iszero\n      tag_82\n      jumpi\n      tag_83\n      tag_56\n      jump\t// in\n    tag_83:\n    tag_82:\n      dup2\n      mstore\n      pop\n        /* \"contracts/MintContract.sol\":4562:4570  _batches */\n      0x02\n        /* \"contracts/MintContract.sol\":4562:4579  _batches[tokenId] */\n      0x00\n        /* \"contracts/MintContract.sol\":4571:4578  tokenId */\n      dup4\n        /* \"contracts/MintContract.sol\":4562:4579  _batches[tokenId] */\n      dup2\n      mstore\n      0x20\n      add\n      swap1\n      dup2\n      mstore\n      0x20\n      add\n      0x00\n      keccak256\n        /* \"contracts/MintContract.sol\":4562:4913  _batches[tokenId] = BatchData({... */\n      0x00\n      dup3\n      add\n      mload\n      dup2\n      0x00\n      add\n      sstore\n      0x20\n      dup3\n      add\n      mload\n      dup2\n      0x01\n      add\n      swap1\n      dup2\n      tag_84\n      swap2\n      swap1\n      tag_85\n      jump\t// in\n    tag_84:\n      pop\n      0x40\n      dup3\n      add\n      mload\n      dup2\n      0x02\n      add\n      swap1\n      dup2\n      tag_86\n      swap2\n      swap1\n      tag_85\n      jump\t// in\n    tag_86:\n      pop\n      0x60\n      dup3\n      add\n      mload\n      dup2\n      0x03\n      add\n      sstore\n      0x80\n      dup3\n      add\n      mload\n      dup2\n      0x04\n      add\n      sstore\n      0xa0\n      dup3\n      add\n      mload\n      dup2\n      0x05\n      add\n      exp(0x0100, 0x00)\n      dup2\n      sload\n      dup2\n      0xffffffffffffffffffffffffffffffffffffffff\n      mul\n      not\n      and\n      swap1\n      dup4\n      0xffffffffffffffffffffffffffffffffffffffff\n      and\n      mul\n      or\n      swap1\n      sstore\n      pop\n      0xc0\n      dup3\n      add\n      mload\n      dup2\n      0x05\n      add\n      exp(0x0100, 0x14)\n      dup2\n      sload\n      dup2\n      0xff\n      mul\n      not\n      and\n      swap1\n      dup4\n      0x04\n      dup2\n      gt\n      iszero\n      tag_87\n      jumpi\n      tag_88\n      tag_56\n      jump\t// in\n    tag_88:\n    tag_87:\n      mul\n      or\n      swap1\n      sstore\n      pop\n      swap1\n      pop\n      pop\n        /* \"contracts/MintContract.sol\":4952:4962  msg.sender */\n      caller\n        /* \"contracts/MintContract.sol\":4931:5002  BatchMinted(tokenId, msg.sender, medicineName, batchNumber, expiryDate) */\n      0xffffffffffffffffffffffffffffffffffffffff\n      and\n        /* \"contracts/MintContract.sol\":4943:4950  tokenId */\n      dup2\n        /* \"contracts/MintContract.sol\":4931:5002  BatchMinted(tokenId, msg.sender, medicineName, batchNumber, expiryDate) */\n      0x6c37d25be9f3bb0e66fd910d4ac625c47095962a099cdacd7996109ab335eb7e\n        /* \"contracts/MintContract.sol\":4964:4976  medicineName */\n      dup9\n      dup9\n        /* \"contracts/MintContract.sol\":4978:4989  batchNumber */\n      dup9\n      dup9\n        /* \"contracts/MintContract.sol\":4991:5001  expiryDate */\n      dup9\n        /* \"contracts/MintContract.sol\":4931:5002  BatchMinted(tokenId, msg.sender, medicineName, batchNumber, expiryDate) */\n      mload(0x40)\n      tag_89\n      swap6\n      swap5\n      swap4\n      swap3\n      swap2\n      swap1\n      tag_90\n      jump\t// in\n    tag_89:\n      mload(0x40)\n      dup1\n      swap2\n      sub\n      swap1\n      log3\n        /* \"contracts/MintContract.sol\":4330:5010  function mintBatch(... */\n      swap6\n      swap5\n      pop\n      pop\n      pop\n      pop\n      pop\n      jump\t// out\n        /* \"contracts/MintContract.sol\":5713:5850  function batchExists(uint256 tokenId) external view returns (bool) {... */\n    tag_43:\n        /* \"contracts/MintContract.sol\":5774:5778  bool */\n      0x00\n        /* \"contracts/MintContract.sol\":5840:5841  0 */\n      0x00\n        /* \"contracts/MintContract.sol\":5798:5842  _batches[tokenId].manufacturer != address(0) */\n      0xffffffffffffffffffffffffffffffffffffffff\n      and\n        /* \"contracts/MintContract.sol\":5798:5806  _batches */\n      0x02\n        /* \"contracts/MintContract.sol\":5798:5815  _batches[tokenId] */\n      0x00\n        /* \"contracts/MintContract.sol\":5807:5814  tokenId */\n      dup5\n        /* \"contracts/MintContract.sol\":5798:5815  _batches[tokenId] */\n      dup2\n      mstore\n      0x20\n      add\n      swap1\n      dup2\n      mstore\n      0x20\n      add\n      0x00\n      keccak256\n        /* \"contracts/MintContract.sol\":5798:5828  _batches[tokenId].manufacturer */\n      0x05\n      add\n      0x00\n      swap1\n      sload\n      swap1\n      0x0100\n      exp\n      swap1\n      div\n      0xffffffffffffffffffffffffffffffffffffffff\n      and\n        /* \"contracts/MintContract.sol\":5798:5842  _batches[tokenId].manufacturer != address(0) */\n      0xffffffffffffffffffffffffffffffffffffffff\n      and\n      eq\n      iszero\n        /* \"contracts/MintContract.sol\":5791:5842  return _batches[tokenId].manufacturer != address(0) */\n      swap1\n      pop\n        /* \"contracts/MintContract.sol\":5713:5850  function batchExists(uint256 tokenId) external view returns (bool) {... */\n      swap2\n      swap1\n      pop\n      jump\t// out\n        /* \"contracts/MintContract.sol\":2876:3132  function authoriseManufacturer(address manufacturer) external onlyOwner {... */\n    tag_47:\n        /* \"contracts/MintContract.sol\":1959:1964  owner */\n      0x00\n      0x00\n      swap1\n      sload\n      swap1\n      0x0100\n      exp\n      swap1\n      div\n      0xffffffffffffffffffffffffffffffffffffffff\n      and\n        /* \"contracts/MintContract.sol\":1945:1964  msg.sender == owner */\n      0xffffffffffffffffffffffffffffffffffffffff\n      and\n        /* \"contracts/MintContract.sol\":1945:1955  msg.sender */\n      caller\n        /* \"contracts/MintContract.sol\":1945:1964  msg.sender == owner */\n      0xffffffffffffffffffffffffffffffffffffffff\n      and\n      eq\n        /* \"contracts/MintContract.sol\":1937:2002  require(msg.sender == owner, \"MintContract: caller is not owner\") */\n      tag_93\n      jumpi\n      mload(0x40)\n      0x08c379a000000000000000000000000000000000000000000000000000000000\n      dup2\n      mstore\n      0x04\n      add\n      tag_94\n      swap1\n      tag_51\n      jump\t// in\n    tag_94:\n      mload(0x40)\n      dup1\n      swap2\n      sub\n      swap1\n      revert\n    tag_93:\n        /* \"contracts/MintContract.sol\":3068:3072  true */\n      0x01\n        /* \"contracts/MintContract.sol\":3028:3051  authorisedManufacturers */\n      0x03\n        /* \"contracts/MintContract.sol\":3028:3065  authorisedManufacturers[manufacturer] */\n      0x00\n        /* \"contracts/MintContract.sol\":3052:3064  manufacturer */\n      dup4\n        /* \"contracts/MintContract.sol\":3028:3065  authorisedManufacturers[manufacturer] */\n      0xffffffffffffffffffffffffffffffffffffffff\n      and\n      0xffffffffffffffffffffffffffffffffffffffff\n      and\n      dup2\n      mstore\n      0x20\n      add\n      swap1\n      dup2\n      mstore\n      0x20\n      add\n      0x00\n      keccak256\n      0x00\n        /* \"contracts/MintContract.sol\":3028:3072  authorisedManufacturers[manufacturer] = true */\n      0x0100\n      exp\n      dup2\n      sload\n      dup2\n      0xff\n      mul\n      not\n      and\n      swap1\n      dup4\n      iszero\n      iszero\n      mul\n      or\n      swap1\n      sstore\n      pop\n        /* \"contracts/MintContract.sol\":3111:3123  manufacturer */\n      dup1\n        /* \"contracts/MintContract.sol\":3088:3124  ManufacturerAuthorised(manufacturer) */\n      0xffffffffffffffffffffffffffffffffffffffff\n      and\n      0xd0d91e7940ac19a4b21542aa4992ca33fc6a95967a0e9149cea69c18960e95d6\n      mload(0x40)\n      mload(0x40)\n      dup1\n      swap2\n      sub\n      swap1\n      log2\n        /* \"contracts/MintContract.sol\":2876:3132  function authoriseManufacturer(address manufacturer) external onlyOwner {... */\n      pop\n      jump\t// out\n    tag_58:\n      mload(0x40)\n      dup1\n      0xe0\n      add\n      0x40\n      mstore\n      dup1\n      0x00\n      dup2\n      mstore\n      0x20\n      add\n      0x60\n      dup2\n      mstore\n      0x20\n      add\n      0x60\n      dup2\n      mstore\n      0x20\n      add\n      0x00\n      dup2\n      mstore\n      0x20\n      add\n      0x00\n      dup2\n      mstore\n      0x20\n      add\n      and(0xffffffffffffffffffffffffffffffffffffffff, 0x00)\n      dup2\n      mstore\n      0x20\n      add\n      0x00\n      0x04\n      dup2\n      gt\n      iszero\n      tag_96\n      jumpi\n      tag_97\n      tag_56\n      jump\t// in\n    tag_97:\n    tag_96:\n      dup2\n      mstore\n      pop\n      swap1\n      jump\t// out\n        /* \"#utility.yul\":88:205   */\n    tag_99:\n        /* \"#utility.yul\":197:198   */\n      0x00\n        /* \"#utility.yul\":194:195   */\n      0x00\n        /* \"#utility.yul\":187:199   */\n      revert\n        /* \"#utility.yul\":211:328   */\n    tag_100:\n        /* \"#utility.yul\":320:321   */\n      0x00\n        /* \"#utility.yul\":317:318   */\n      0x00\n        /* \"#utility.yul\":310:322   */\n      revert\n        /* \"#utility.yul\":334:460   */\n    tag_101:\n        /* \"#utility.yul\":371:378   */\n      0x00\n        /* \"#utility.yul\":411:453   */\n      0xffffffffffffffffffffffffffffffffffffffff\n        /* \"#utility.yul\":404:409   */\n      dup3\n        /* \"#utility.yul\":400:454   */\n      and\n        /* \"#utility.yul\":389:454   */\n      swap1\n      pop\n        /* \"#utility.yul\":334:460   */\n      swap2\n      swap1\n      pop\n      jump\t// out\n        /* \"#utility.yul\":466:562   */\n    tag_102:\n        /* \"#utility.yul\":503:510   */\n      0x00\n        /* \"#utility.yul\":532:556   */\n      tag_161\n        /* \"#utility.yul\":550:555   */\n      dup3\n        /* \"#utility.yul\":532:556   */\n      tag_101\n      jump\t// in\n    tag_161:\n        /* \"#utility.yul\":521:556   */\n      swap1\n      pop\n        /* \"#utility.yul\":466:562   */\n      swap2\n      swap1\n      pop\n      jump\t// out\n        /* \"#utility.yul\":568:690   */\n    tag_103:\n        /* \"#utility.yul\":641:665   */\n      tag_163\n        /* \"#utility.yul\":659:664   */\n      dup2\n        /* \"#utility.yul\":641:665   */\n      tag_102\n      jump\t// in\n    tag_163:\n        /* \"#utility.yul\":634:639   */\n      dup2\n        /* \"#utility.yul\":631:666   */\n      eq\n        /* \"#utility.yul\":621:684   */\n      tag_164\n      jumpi\n        /* \"#utility.yul\":680:681   */\n      0x00\n        /* \"#utility.yul\":677:678   */\n      0x00\n        /* \"#utility.yul\":670:682   */\n      revert\n        /* \"#utility.yul\":621:684   */\n    tag_164:\n        /* \"#utility.yul\":568:690   */\n      pop\n      jump\t// out\n        /* \"#utility.yul\":696:835   */\n    tag_104:\n        /* \"#utility.yul\":742:747   */\n      0x00\n        /* \"#utility.yul\":780:786   */\n      dup2\n        /* \"#utility.yul\":767:787   */\n      calldataload\n        /* \"#utility.yul\":758:787   */\n      swap1\n      pop\n        /* \"#utility.yul\":796:829   */\n      tag_166\n        /* \"#utility.yul\":823:828   */\n      dup2\n        /* \"#utility.yul\":796:829   */\n      tag_103\n      jump\t// in\n    tag_166:\n        /* \"#utility.yul\":696:835   */\n      swap3\n      swap2\n      pop\n      pop\n      jump\t// out\n        /* \"#utility.yul\":841:1170   */\n    tag_14:\n        /* \"#utility.yul\":900:906   */\n      0x00\n        /* \"#utility.yul\":949:951   */\n      0x20\n        /* \"#utility.yul\":937:946   */\n      dup3\n        /* \"#utility.yul\":928:935   */\n      dup5\n        /* \"#utility.yul\":924:947   */\n      sub\n        /* \"#utility.yul\":920:952   */\n      slt\n        /* \"#utility.yul\":917:1036   */\n      iszero\n      tag_168\n      jumpi\n        /* \"#utility.yul\":955:1034   */\n      tag_169\n      tag_99\n      jump\t// in\n    tag_169:\n        /* \"#utility.yul\":917:1036   */\n    tag_168:\n        /* \"#utility.yul\":1075:1076   */\n      0x00\n        /* \"#utility.yul\":1100:1153   */\n      tag_170\n        /* \"#utility.yul\":1145:1152   */\n      dup5\n        /* \"#utility.yul\":1136:1142   */\n      dup3\n        /* \"#utility.yul\":1125:1134   */\n      dup6\n        /* \"#utility.yul\":1121:1143   */\n      add\n        /* \"#utility.yul\":1100:1153   */\n      tag_104\n      jump\t// in\n    tag_170:\n        /* \"#utility.yul\":1090:1153   */\n      swap2\n      pop\n        /* \"#utility.yul\":1046:1163   */\n      pop\n        /* \"#utility.yul\":841:1170   */\n      swap3\n      swap2\n      pop\n      pop\n      jump\t// out\n        /* \"#utility.yul\":1176:1253   */\n    tag_105:\n        /* \"#utility.yul\":1213:1220   */\n      0x00\n        /* \"#utility.yul\":1242:1247   */\n      dup2\n        /* \"#utility.yul\":1231:1247   */\n      swap1\n      pop\n        /* \"#utility.yul\":1176:1253   */\n      swap2\n      swap1\n      pop\n      jump\t// out\n        /* \"#utility.yul\":1259:1381   */\n    tag_106:\n        /* \"#utility.yul\":1332:1356   */\n      tag_173\n        /* \"#utility.yul\":1350:1355   */\n      dup2\n        /* \"#utility.yul\":1332:1356   */\n      tag_105\n      jump\t// in\n    tag_173:\n        /* \"#utility.yul\":1325:1330   */\n      dup2\n        /* \"#utility.yul\":1322:1357   */\n      eq\n        /* \"#utility.yul\":1312:1375   */\n      tag_174\n      jumpi\n        /* \"#utility.yul\":1371:1372   */\n      0x00\n        /* \"#utility.yul\":1368:1369   */\n      0x00\n        /* \"#utility.yul\":1361:1373   */\n      revert\n        /* \"#utility.yul\":1312:1375   */\n    tag_174:\n        /* \"#utility.yul\":1259:1381   */\n      pop\n      jump\t// out\n        /* \"#utility.yul\":1387:1526   */\n    tag_107:\n        /* \"#utility.yul\":1433:1438   */\n      0x00\n        /* \"#utility.yul\":1471:1477   */\n      dup2\n        /* \"#utility.yul\":1458:1478   */\n      calldataload\n        /* \"#utility.yul\":1449:1478   */\n      swap1\n      pop\n        /* \"#utility.yul\":1487:1520   */\n      tag_176\n        /* \"#utility.yul\":1514:1519   */\n      dup2\n        /* \"#utility.yul\":1487:1520   */\n      tag_106\n      jump\t// in\n    tag_176:\n        /* \"#utility.yul\":1387:1526   */\n      swap3\n      swap2\n      pop\n      pop\n      jump\t// out\n        /* \"#utility.yul\":1532:1644   */\n    tag_108:\n        /* \"#utility.yul\":1618:1619   */\n      0x05\n        /* \"#utility.yul\":1611:1616   */\n      dup2\n        /* \"#utility.yul\":1608:1620   */\n      lt\n        /* \"#utility.yul\":1598:1638   */\n      tag_178\n      jumpi\n        /* \"#utility.yul\":1634:1635   */\n      0x00\n        /* \"#utility.yul\":1631:1632   */\n      0x00\n        /* \"#utility.yul\":1624:1636   */\n      revert\n        /* \"#utility.yul\":1598:1638   */\n    tag_178:\n        /* \"#utility.yul\":1532:1644   */\n      pop\n      jump\t// out\n        /* \"#utility.yul\":1650:1815   */\n    tag_109:\n        /* \"#utility.yul\":1709:1714   */\n      0x00\n        /* \"#utility.yul\":1747:1753   */\n      dup2\n        /* \"#utility.yul\":1734:1754   */\n      calldataload\n        /* \"#utility.yul\":1725:1754   */\n      swap1\n      pop\n        /* \"#utility.yul\":1763:1809   */\n      tag_180\n        /* \"#utility.yul\":1803:1808   */\n      dup2\n        /* \"#utility.yul\":1763:1809   */\n      tag_108\n      jump\t// in\n    tag_180:\n        /* \"#utility.yul\":1650:1815   */\n      swap3\n      swap2\n      pop\n      pop\n      jump\t// out\n        /* \"#utility.yul\":1821:2321   */\n    tag_18:\n        /* \"#utility.yul\":1902:1908   */\n      0x00\n        /* \"#utility.yul\":1910:1916   */\n      0x00\n        /* \"#utility.yul\":1959:1961   */\n      0x40\n        /* \"#utility.yul\":1947:1956   */\n      dup4\n        /* \"#utility.yul\":1938:1945   */\n      dup6\n        /* \"#utility.yul\":1934:1957   */\n      sub\n        /* \"#utility.yul\":1930:1962   */\n      slt\n        /* \"#utility.yul\":1927:2046   */\n      iszero\n      tag_182\n      jumpi\n        /* \"#utility.yul\":1965:2044   */\n      tag_183\n      tag_99\n      jump\t// in\n    tag_183:\n        /* \"#utility.yul\":1927:2046   */\n    tag_182:\n        /* \"#utility.yul\":2085:2086   */\n      0x00\n        /* \"#utility.yul\":2110:2163   */\n      tag_184\n        /* \"#utility.yul\":2155:2162   */\n      dup6\n        /* \"#utility.yul\":2146:2152   */\n      dup3\n        /* \"#utility.yul\":2135:2144   */\n      dup7\n        /* \"#utility.yul\":2131:2153   */\n      add\n        /* \"#utility.yul\":2110:2163   */\n      tag_107\n      jump\t// in\n    tag_184:\n        /* \"#utility.yul\":2100:2163   */\n      swap3\n      pop\n        /* \"#utility.yul\":2056:2173   */\n      pop\n        /* \"#utility.yul\":2212:2214   */\n      0x20\n        /* \"#utility.yul\":2238:2304   */\n      tag_185\n        /* \"#utility.yul\":2296:2303   */\n      dup6\n        /* \"#utility.yul\":2287:2293   */\n      dup3\n        /* \"#utility.yul\":2276:2285   */\n      dup7\n        /* \"#utility.yul\":2272:2294   */\n      add\n        /* \"#utility.yul\":2238:2304   */\n      tag_109\n      jump\t// in\n    tag_185:\n        /* \"#utility.yul\":2228:2304   */\n      swap2\n      pop\n        /* \"#utility.yul\":2183:2314   */\n      pop\n        /* \"#utility.yul\":1821:2321   */\n      swap3\n      pop\n      swap3\n      swap1\n      pop\n      jump\t// out\n        /* \"#utility.yul\":2327:2656   */\n    tag_22:\n        /* \"#utility.yul\":2386:2392   */\n      0x00\n        /* \"#utility.yul\":2435:2437   */\n      0x20\n        /* \"#utility.yul\":2423:2432   */\n      dup3\n        /* \"#utility.yul\":2414:2421   */\n      dup5\n        /* \"#utility.yul\":2410:2433   */\n      sub\n        /* \"#utility.yul\":2406:2438   */\n      slt\n        /* \"#utility.yul\":2403:2522   */\n      iszero\n      tag_187\n      jumpi\n        /* \"#utility.yul\":2441:2520   */\n      tag_188\n      tag_99\n      jump\t// in\n    tag_188:\n        /* \"#utility.yul\":2403:2522   */\n    tag_187:\n        /* \"#utility.yul\":2561:2562   */\n      0x00\n        /* \"#utility.yul\":2586:2639   */\n      tag_189\n        /* \"#utility.yul\":2631:2638   */\n      dup5\n        /* \"#utility.yul\":2622:2628   */\n      dup3\n        /* \"#utility.yul\":2611:2620   */\n      dup6\n        /* \"#utility.yul\":2607:2629   */\n      add\n        /* \"#utility.yul\":2586:2639   */\n      tag_107\n      jump\t// in\n    tag_189:\n        /* \"#utility.yul\":2576:2639   */\n      swap2\n      pop\n        /* \"#utility.yul\":2532:2649   */\n      pop\n        /* \"#utility.yul\":2327:2656   */\n      swap3\n      swap2\n      pop\n      pop\n      jump\t// out\n        /* \"#utility.yul\":2662:2770   */\n    tag_110:\n        /* \"#utility.yul\":2739:2763   */\n      tag_191\n        /* \"#utility.yul\":2757:2762   */\n      dup2\n        /* \"#utility.yul\":2739:2763   */\n      tag_105\n      jump\t// in\n    tag_191:\n        /* \"#utility.yul\":2734:2737   */\n      dup3\n        /* \"#utility.yul\":2727:2764   */\n      mstore\n        /* \"#utility.yul\":2662:2770   */\n      pop\n      pop\n      jump\t// out\n        /* \"#utility.yul\":2776:2875   */\n    tag_111:\n        /* \"#utility.yul\":2828:2834   */\n      0x00\n        /* \"#utility.yul\":2862:2867   */\n      dup2\n        /* \"#utility.yul\":2856:2868   */\n      mload\n        /* \"#utility.yul\":2846:2868   */\n      swap1\n      pop\n        /* \"#utility.yul\":2776:2875   */\n      swap2\n      swap1\n      pop\n      jump\t// out\n        /* \"#utility.yul\":2881:3040   */\n    tag_112:\n        /* \"#utility.yul\":2955:2966   */\n      0x00\n        /* \"#utility.yul\":2989:2995   */\n      dup3\n        /* \"#utility.yul\":2984:2987   */\n      dup3\n        /* \"#utility.yul\":2977:2996   */\n      mstore\n        /* \"#utility.yul\":3029:3033   */\n      0x20\n        /* \"#utility.yul\":3024:3027   */\n      dup3\n        /* \"#utility.yul\":3020:3034   */\n      add\n        /* \"#utility.yul\":3005:3034   */\n      swap1\n      pop\n        /* \"#utility.yul\":2881:3040   */\n      swap3\n      swap2\n      pop\n      pop\n      jump\t// out\n        /* \"#utility.yul\":3046:3185   */\n    tag_113:\n        /* \"#utility.yul\":3135:3141   */\n      dup3\n        /* \"#utility.yul\":3130:3133   */\n      dup2\n        /* \"#utility.yul\":3125:3128   */\n      dup4\n        /* \"#utility.yul\":3119:3142   */\n      mcopy\n        /* \"#utility.yul\":3176:3177   */\n      0x00\n        /* \"#utility.yul\":3167:3173   */\n      dup4\n        /* \"#utility.yul\":3162:3165   */\n      dup4\n        /* \"#utility.yul\":3158:3174   */\n      add\n        /* \"#utility.yul\":3151:3178   */\n      mstore\n        /* \"#utility.yul\":3046:3185   */\n      pop\n      pop\n      pop\n      jump\t// out\n        /* \"#utility.yul\":3191:3293   */\n    tag_114:\n        /* \"#utility.yul\":3232:3238   */\n      0x00\n        /* \"#utility.yul\":3283:3285   */\n      0x1f\n        /* \"#utility.yul\":3279:3286   */\n      not\n        /* \"#utility.yul\":3274:3276   */\n      0x1f\n        /* \"#utility.yul\":3267:3272   */\n      dup4\n        /* \"#utility.yul\":3263:3277   */\n      add\n        /* \"#utility.yul\":3259:3287   */\n      and\n        /* \"#utility.yul\":3249:3287   */\n      swap1\n      pop\n        /* \"#utility.yul\":3191:3293   */\n      swap2\n      swap1\n      pop\n      jump\t// out\n        /* \"#utility.yul\":3299:3656   */\n    tag_115:\n        /* \"#utility.yul\":3377:3380   */\n      0x00\n        /* \"#utility.yul\":3405:3444   */\n      tag_197\n        /* \"#utility.yul\":3438:3443   */\n      dup3\n        /* \"#utility.yul\":3405:3444   */\n      tag_111\n      jump\t// in\n    tag_197:\n        /* \"#utility.yul\":3460:3521   */\n      tag_198\n        /* \"#utility.yul\":3514:3520   */\n      dup2\n        /* \"#utility.yul\":3509:3512   */\n      dup6\n        /* \"#utility.yul\":3460:3521   */\n      tag_112\n      jump\t// in\n    tag_198:\n        /* \"#utility.yul\":3453:3521   */\n      swap4\n      pop\n        /* \"#utility.yul\":3530:3595   */\n      tag_199\n        /* \"#utility.yul\":3588:3594   */\n      dup2\n        /* \"#utility.yul\":3583:3586   */\n      dup6\n        /* \"#utility.yul\":3576:3580   */\n      0x20\n        /* \"#utility.yul\":3569:3574   */\n      dup7\n        /* \"#utility.yul\":3565:3581   */\n      add\n        /* \"#utility.yul\":3530:3595   */\n      tag_113\n      jump\t// in\n    tag_199:\n        /* \"#utility.yul\":3620:3649   */\n      tag_200\n        /* \"#utility.yul\":3642:3648   */\n      dup2\n        /* \"#utility.yul\":3620:3649   */\n      tag_114\n      jump\t// in\n    tag_200:\n        /* \"#utility.yul\":3615:3618   */\n      dup5\n        /* \"#utility.yul\":3611:3650   */\n      add\n        /* \"#utility.yul\":3604:3650   */\n      swap2\n      pop\n        /* \"#utility.yul\":3381:3656   */\n      pop\n        /* \"#utility.yul\":3299:3656   */\n      swap3\n      swap2\n      pop\n      pop\n      jump\t// out\n        /* \"#utility.yul\":3662:3770   */\n    tag_116:\n        /* \"#utility.yul\":3739:3763   */\n      tag_202\n        /* \"#utility.yul\":3757:3762   */\n      dup2\n        /* \"#utility.yul\":3739:3763   */\n      tag_102\n      jump\t// in\n    tag_202:\n        /* \"#utility.yul\":3734:3737   */\n      dup3\n        /* \"#utility.yul\":3727:3764   */\n      mstore\n        /* \"#utility.yul\":3662:3770   */\n      pop\n      pop\n      jump\t// out\n        /* \"#utility.yul\":3776:3956   */\n    tag_56:\n        /* \"#utility.yul\":3824:3901   */\n      0x4e487b7100000000000000000000000000000000000000000000000000000000\n        /* \"#utility.yul\":3821:3822   */\n      0x00\n        /* \"#utility.yul\":3814:3902   */\n      mstore\n        /* \"#utility.yul\":3921:3925   */\n      0x21\n        /* \"#utility.yul\":3918:3919   */\n      0x04\n        /* \"#utility.yul\":3911:3926   */\n      mstore\n        /* \"#utility.yul\":3945:3949   */\n      0x24\n        /* \"#utility.yul\":3942:3943   */\n      0x00\n        /* \"#utility.yul\":3935:3950   */\n      revert\n        /* \"#utility.yul\":3962:4080   */\n    tag_117:\n        /* \"#utility.yul\":4048:4049   */\n      0x05\n        /* \"#utility.yul\":4041:4046   */\n      dup2\n        /* \"#utility.yul\":4038:4050   */\n      lt\n        /* \"#utility.yul\":4028:4074   */\n      tag_205\n      jumpi\n        /* \"#utility.yul\":4054:4072   */\n      tag_206\n      tag_56\n      jump\t// in\n    tag_206:\n        /* \"#utility.yul\":4028:4074   */\n    tag_205:\n        /* \"#utility.yul\":3962:4080   */\n      pop\n      jump\t// out\n        /* \"#utility.yul\":4086:4223   */\n    tag_118:\n        /* \"#utility.yul\":4136:4143   */\n      0x00\n        /* \"#utility.yul\":4165:4170   */\n      dup2\n        /* \"#utility.yul\":4154:4170   */\n      swap1\n      pop\n        /* \"#utility.yul\":4171:4217   */\n      tag_208\n        /* \"#utility.yul\":4211:4216   */\n      dup3\n        /* \"#utility.yul\":4171:4217   */\n      tag_117\n      jump\t// in\n    tag_208:\n        /* \"#utility.yul\":4086:4223   */\n      swap2\n      swap1\n      pop\n      jump\t// out\n        /* \"#utility.yul\":4229:4366   */\n    tag_119:\n        /* \"#utility.yul\":4290:4299   */\n      0x00\n        /* \"#utility.yul\":4323:4360   */\n      tag_210\n        /* \"#utility.yul\":4354:4359   */\n      dup3\n        /* \"#utility.yul\":4323:4360   */\n      tag_118\n      jump\t// in\n    tag_210:\n        /* \"#utility.yul\":4310:4360   */\n      swap1\n      pop\n        /* \"#utility.yul\":4229:4366   */\n      swap2\n      swap1\n      pop\n      jump\t// out\n        /* \"#utility.yul\":4372:4515   */\n    tag_120:\n        /* \"#utility.yul\":4460:4508   */\n      tag_212\n        /* \"#utility.yul\":4502:4507   */\n      dup2\n        /* \"#utility.yul\":4460:4508   */\n      tag_119\n      jump\t// in\n    tag_212:\n        /* \"#utility.yul\":4455:4458   */\n      dup3\n        /* \"#utility.yul\":4448:4509   */\n      mstore\n        /* \"#utility.yul\":4372:4515   */\n      pop\n      pop\n      jump\t// out\n        /* \"#utility.yul\":4565:6168   */\n    tag_121:\n        /* \"#utility.yul\":4684:4687   */\n      0x00\n        /* \"#utility.yul\":4720:4724   */\n      0xe0\n        /* \"#utility.yul\":4715:4718   */\n      dup4\n        /* \"#utility.yul\":4711:4725   */\n      add\n        /* \"#utility.yul\":4810:4814   */\n      0x00\n        /* \"#utility.yul\":4803:4808   */\n      dup4\n        /* \"#utility.yul\":4799:4815   */\n      add\n        /* \"#utility.yul\":4793:4816   */\n      mload\n        /* \"#utility.yul\":4829:4892   */\n      tag_214\n        /* \"#utility.yul\":4886:4890   */\n      0x00\n        /* \"#utility.yul\":4881:4884   */\n      dup7\n        /* \"#utility.yul\":4877:4891   */\n      add\n        /* \"#utility.yul\":4863:4875   */\n      dup3\n        /* \"#utility.yul\":4829:4892   */\n      tag_110\n      jump\t// in\n    tag_214:\n        /* \"#utility.yul\":4735:4902   */\n      pop\n        /* \"#utility.yul\":4992:4996   */\n      0x20\n        /* \"#utility.yul\":4985:4990   */\n      dup4\n        /* \"#utility.yul\":4981:4997   */\n      add\n        /* \"#utility.yul\":4975:4998   */\n      mload\n        /* \"#utility.yul\":5045:5048   */\n      dup5\n        /* \"#utility.yul\":5039:5043   */\n      dup3\n        /* \"#utility.yul\":5035:5049   */\n      sub\n        /* \"#utility.yul\":5028:5032   */\n      0x20\n        /* \"#utility.yul\":5023:5026   */\n      dup7\n        /* \"#utility.yul\":5019:5033   */\n      add\n        /* \"#utility.yul\":5012:5050   */\n      mstore\n        /* \"#utility.yul\":5071:5144   */\n      tag_215\n        /* \"#utility.yul\":5139:5143   */\n      dup3\n        /* \"#utility.yul\":5125:5137   */\n      dup3\n        /* \"#utility.yul\":5071:5144   */\n      tag_115\n      jump\t// in\n    tag_215:\n        /* \"#utility.yul\":5063:5144   */\n      swap2\n      pop\n        /* \"#utility.yul\":4912:5155   */\n      pop\n        /* \"#utility.yul\":5244:5248   */\n      0x40\n        /* \"#utility.yul\":5237:5242   */\n      dup4\n        /* \"#utility.yul\":5233:5249   */\n      add\n        /* \"#utility.yul\":5227:5250   */\n      mload\n        /* \"#utility.yul\":5297:5300   */\n      dup5\n        /* \"#utility.yul\":5291:5295   */\n      dup3\n        /* \"#utility.yul\":5287:5301   */\n      sub\n        /* \"#utility.yul\":5280:5284   */\n      0x40\n        /* \"#utility.yul\":5275:5278   */\n      dup7\n        /* \"#utility.yul\":5271:5285   */\n      add\n        /* \"#utility.yul\":5264:5302   */\n      mstore\n        /* \"#utility.yul\":5323:5396   */\n      tag_216\n        /* \"#utility.yul\":5391:5395   */\n      dup3\n        /* \"#utility.yul\":5377:5389   */\n      dup3\n        /* \"#utility.yul\":5323:5396   */\n      tag_115\n      jump\t// in\n    tag_216:\n        /* \"#utility.yul\":5315:5396   */\n      swap2\n      pop\n        /* \"#utility.yul\":5165:5407   */\n      pop\n        /* \"#utility.yul\":5500:5504   */\n      0x60\n        /* \"#utility.yul\":5493:5498   */\n      dup4\n        /* \"#utility.yul\":5489:5505   */\n      add\n        /* \"#utility.yul\":5483:5506   */\n      mload\n        /* \"#utility.yul\":5519:5582   */\n      tag_217\n        /* \"#utility.yul\":5576:5580   */\n      0x60\n        /* \"#utility.yul\":5571:5574   */\n      dup7\n        /* \"#utility.yul\":5567:5581   */\n      add\n        /* \"#utility.yul\":5553:5565   */\n      dup3\n        /* \"#utility.yul\":5519:5582   */\n      tag_110\n      jump\t// in\n    tag_217:\n        /* \"#utility.yul\":5417:5592   */\n      pop\n        /* \"#utility.yul\":5680:5684   */\n      0x80\n        /* \"#utility.yul\":5673:5678   */\n      dup4\n        /* \"#utility.yul\":5669:5685   */\n      add\n        /* \"#utility.yul\":5663:5686   */\n      mload\n        /* \"#utility.yul\":5699:5762   */\n      tag_218\n        /* \"#utility.yul\":5756:5760   */\n      0x80\n        /* \"#utility.yul\":5751:5754   */\n      dup7\n        /* \"#utility.yul\":5747:5761   */\n      add\n        /* \"#utility.yul\":5733:5745   */\n      dup3\n        /* \"#utility.yul\":5699:5762   */\n      tag_110\n      jump\t// in\n    tag_218:\n        /* \"#utility.yul\":5602:5772   */\n      pop\n        /* \"#utility.yul\":5862:5866   */\n      0xa0\n        /* \"#utility.yul\":5855:5860   */\n      dup4\n        /* \"#utility.yul\":5851:5867   */\n      add\n        /* \"#utility.yul\":5845:5868   */\n      mload\n        /* \"#utility.yul\":5881:5944   */\n      tag_219\n        /* \"#utility.yul\":5938:5942   */\n      0xa0\n        /* \"#utility.yul\":5933:5936   */\n      dup7\n        /* \"#utility.yul\":5929:5943   */\n      add\n        /* \"#utility.yul\":5915:5927   */\n      dup3\n        /* \"#utility.yul\":5881:5944   */\n      tag_116\n      jump\t// in\n    tag_219:\n        /* \"#utility.yul\":5782:5954   */\n      pop\n        /* \"#utility.yul\":6038:6042   */\n      0xc0\n        /* \"#utility.yul\":6031:6036   */\n      dup4\n        /* \"#utility.yul\":6027:6043   */\n      add\n        /* \"#utility.yul\":6021:6044   */\n      mload\n        /* \"#utility.yul\":6057:6131   */\n      tag_220\n        /* \"#utility.yul\":6125:6129   */\n      0xc0\n        /* \"#utility.yul\":6120:6123   */\n      dup7\n        /* \"#utility.yul\":6116:6130   */\n      add\n        /* \"#utility.yul\":6102:6114   */\n      dup3\n        /* \"#utility.yul\":6057:6131   */\n      tag_120\n      jump\t// in\n    tag_220:\n        /* \"#utility.yul\":5964:6141   */\n      pop\n        /* \"#utility.yul\":6158:6162   */\n      dup1\n        /* \"#utility.yul\":6151:6162   */\n      swap2\n      pop\n        /* \"#utility.yul\":4689:6168   */\n      pop\n        /* \"#utility.yul\":4565:6168   */\n      swap3\n      swap2\n      pop\n      pop\n      jump\t// out\n        /* \"#utility.yul\":6174:6547   */\n    tag_25:\n        /* \"#utility.yul\":6317:6321   */\n      0x00\n        /* \"#utility.yul\":6355:6357   */\n      0x20\n        /* \"#utility.yul\":6344:6353   */\n      dup3\n        /* \"#utility.yul\":6340:6358   */\n      add\n        /* \"#utility.yul\":6332:6358   */\n      swap1\n      pop\n        /* \"#utility.yul\":6404:6413   */\n      dup2\n        /* \"#utility.yul\":6398:6402   */\n      dup2\n        /* \"#utility.yul\":6394:6414   */\n      sub\n        /* \"#utility.yul\":6390:6391   */\n      0x00\n        /* \"#utility.yul\":6379:6388   */\n      dup4\n        /* \"#utility.yul\":6375:6392   */\n      add\n        /* \"#utility.yul\":6368:6415   */\n      mstore\n        /* \"#utility.yul\":6432:6540   */\n      tag_222\n        /* \"#utility.yul\":6535:6539   */\n      dup2\n        /* \"#utility.yul\":6526:6532   */\n      dup5\n        /* \"#utility.yul\":6432:6540   */\n      tag_121\n      jump\t// in\n    tag_222:\n        /* \"#utility.yul\":6424:6540   */\n      swap1\n      pop\n        /* \"#utility.yul\":6174:6547   */\n      swap3\n      swap2\n      pop\n      pop\n      jump\t// out\n        /* \"#utility.yul\":6553:6643   */\n    tag_122:\n        /* \"#utility.yul\":6587:6594   */\n      0x00\n        /* \"#utility.yul\":6630:6635   */\n      dup2\n        /* \"#utility.yul\":6623:6636   */\n      iszero\n        /* \"#utility.yul\":6616:6637   */\n      iszero\n        /* \"#utility.yul\":6605:6637   */\n      swap1\n      pop\n        /* \"#utility.yul\":6553:6643   */\n      swap2\n      swap1\n      pop\n      jump\t// out\n        /* \"#utility.yul\":6649:6758   */\n    tag_123:\n        /* \"#utility.yul\":6730:6751   */\n      tag_225\n        /* \"#utility.yul\":6745:6750   */\n      dup2\n        /* \"#utility.yul\":6730:6751   */\n      tag_122\n      jump\t// in\n    tag_225:\n        /* \"#utility.yul\":6725:6728   */\n      dup3\n        /* \"#utility.yul\":6718:6752   */\n      mstore\n        /* \"#utility.yul\":6649:6758   */\n      pop\n      pop\n      jump\t// out\n        /* \"#utility.yul\":6764:6974   */\n    tag_30:\n        /* \"#utility.yul\":6851:6855   */\n      0x00\n        /* \"#utility.yul\":6889:6891   */\n      0x20\n        /* \"#utility.yul\":6878:6887   */\n      dup3\n        /* \"#utility.yul\":6874:6892   */\n      add\n        /* \"#utility.yul\":6866:6892   */\n      swap1\n      pop\n        /* \"#utility.yul\":6902:6967   */\n      tag_227\n        /* \"#utility.yul\":6964:6965   */\n      0x00\n        /* \"#utility.yul\":6953:6962   */\n      dup4\n        /* \"#utility.yul\":6949:6966   */\n      add\n        /* \"#utility.yul\":6940:6946   */\n      dup5\n        /* \"#utility.yul\":6902:6967   */\n      tag_123\n      jump\t// in\n    tag_227:\n        /* \"#utility.yul\":6764:6974   */\n      swap3\n      swap2\n      pop\n      pop\n      jump\t// out\n        /* \"#utility.yul\":6980:7098   */\n    tag_124:\n        /* \"#utility.yul\":7067:7091   */\n      tag_229\n        /* \"#utility.yul\":7085:7090   */\n      dup2\n        /* \"#utility.yul\":7067:7091   */\n      tag_102\n      jump\t// in\n    tag_229:\n        /* \"#utility.yul\":7062:7065   */\n      dup3\n        /* \"#utility.yul\":7055:7092   */\n      mstore\n        /* \"#utility.yul\":6980:7098   */\n      pop\n      pop\n      jump\t// out\n        /* \"#utility.yul\":7104:7326   */\n    tag_34:\n        /* \"#utility.yul\":7197:7201   */\n      0x00\n        /* \"#utility.yul\":7235:7237   */\n      0x20\n        /* \"#utility.yul\":7224:7233   */\n      dup3\n        /* \"#utility.yul\":7220:7238   */\n      add\n        /* \"#utility.yul\":7212:7238   */\n      swap1\n      pop\n        /* \"#utility.yul\":7248:7319   */\n      tag_231\n        /* \"#utility.yul\":7316:7317   */\n      0x00\n        /* \"#utility.yul\":7305:7314   */\n      dup4\n        /* \"#utility.yul\":7301:7318   */\n      add\n        /* \"#utility.yul\":7292:7298   */\n      dup5\n        /* \"#utility.yul\":7248:7319   */\n      tag_124\n      jump\t// in\n    tag_231:\n        /* \"#utility.yul\":7104:7326   */\n      swap3\n      swap2\n      pop\n      pop\n      jump\t// out\n        /* \"#utility.yul\":7332:7449   */\n    tag_125:\n        /* \"#utility.yul\":7441:7442   */\n      0x00\n        /* \"#utility.yul\":7438:7439   */\n      0x00\n        /* \"#utility.yul\":7431:7443   */\n      revert\n        /* \"#utility.yul\":7455:7572   */\n    tag_126:\n        /* \"#utility.yul\":7564:7565   */\n      0x00\n        /* \"#utility.yul\":7561:7562   */\n      0x00\n        /* \"#utility.yul\":7554:7566   */\n      revert\n        /* \"#utility.yul\":7578:7695   */\n    tag_127:\n        /* \"#utility.yul\":7687:7688   */\n      0x00\n        /* \"#utility.yul\":7684:7685   */\n      0x00\n        /* \"#utility.yul\":7677:7689   */\n      revert\n        /* \"#utility.yul\":7715:8268   */\n    tag_128:\n        /* \"#utility.yul\":7773:7781   */\n      0x00\n        /* \"#utility.yul\":7783:7789   */\n      0x00\n        /* \"#utility.yul\":7833:7836   */\n      dup4\n        /* \"#utility.yul\":7826:7830   */\n      0x1f\n        /* \"#utility.yul\":7818:7824   */\n      dup5\n        /* \"#utility.yul\":7814:7831   */\n      add\n        /* \"#utility.yul\":7810:7837   */\n      slt\n        /* \"#utility.yul\":7800:7922   */\n      tag_236\n      jumpi\n        /* \"#utility.yul\":7841:7920   */\n      tag_237\n      tag_125\n      jump\t// in\n    tag_237:\n        /* \"#utility.yul\":7800:7922   */\n    tag_236:\n        /* \"#utility.yul\":7954:7960   */\n      dup3\n        /* \"#utility.yul\":7941:7961   */\n      calldataload\n        /* \"#utility.yul\":7931:7961   */\n      swap1\n      pop\n        /* \"#utility.yul\":7984:8002   */\n      0xffffffffffffffff\n        /* \"#utility.yul\":7976:7982   */\n      dup2\n        /* \"#utility.yul\":7973:8003   */\n      gt\n        /* \"#utility.yul\":7970:8087   */\n      iszero\n      tag_238\n      jumpi\n        /* \"#utility.yul\":8006:8085   */\n      tag_239\n      tag_126\n      jump\t// in\n    tag_239:\n        /* \"#utility.yul\":7970:8087   */\n    tag_238:\n        /* \"#utility.yul\":8120:8124   */\n      0x20\n        /* \"#utility.yul\":8112:8118   */\n      dup4\n        /* \"#utility.yul\":8108:8125   */\n      add\n        /* \"#utility.yul\":8096:8125   */\n      swap2\n      pop\n        /* \"#utility.yul\":8174:8177   */\n      dup4\n        /* \"#utility.yul\":8166:8170   */\n      0x01\n        /* \"#utility.yul\":8158:8164   */\n      dup3\n        /* \"#utility.yul\":8154:8171   */\n      mul\n        /* \"#utility.yul\":8144:8152   */\n      dup4\n        /* \"#utility.yul\":8140:8172   */\n      add\n        /* \"#utility.yul\":8137:8178   */\n      gt\n        /* \"#utility.yul\":8134:8262   */\n      iszero\n      tag_240\n      jumpi\n        /* \"#utility.yul\":8181:8260   */\n      tag_241\n      tag_127\n      jump\t// in\n    tag_241:\n        /* \"#utility.yul\":8134:8262   */\n    tag_240:\n        /* \"#utility.yul\":7715:8268   */\n      swap3\n      pop\n      swap3\n      swap1\n      pop\n      jump\t// out\n        /* \"#utility.yul\":8274:9293   */\n    tag_37:\n        /* \"#utility.yul\":8375:8381   */\n      0x00\n        /* \"#utility.yul\":8383:8389   */\n      0x00\n        /* \"#utility.yul\":8391:8397   */\n      0x00\n        /* \"#utility.yul\":8399:8405   */\n      0x00\n        /* \"#utility.yul\":8407:8413   */\n      0x00\n        /* \"#utility.yul\":8456:8458   */\n      0x60\n        /* \"#utility.yul\":8444:8453   */\n      dup7\n        /* \"#utility.yul\":8435:8442   */\n      dup9\n        /* \"#utility.yul\":8431:8454   */\n      sub\n        /* \"#utility.yul\":8427:8459   */\n      slt\n        /* \"#utility.yul\":8424:8543   */\n      iszero\n      tag_243\n      jumpi\n        /* \"#utility.yul\":8462:8541   */\n      tag_244\n      tag_99\n      jump\t// in\n    tag_244:\n        /* \"#utility.yul\":8424:8543   */\n    tag_243:\n        /* \"#utility.yul\":8610:8611   */\n      0x00\n        /* \"#utility.yul\":8599:8608   */\n      dup7\n        /* \"#utility.yul\":8595:8612   */\n      add\n        /* \"#utility.yul\":8582:8613   */\n      calldataload\n        /* \"#utility.yul\":8640:8658   */\n      0xffffffffffffffff\n        /* \"#utility.yul\":8632:8638   */\n      dup2\n        /* \"#utility.yul\":8629:8659   */\n      gt\n        /* \"#utility.yul\":8626:8743   */\n      iszero\n      tag_245\n      jumpi\n        /* \"#utility.yul\":8662:8741   */\n      tag_246\n      tag_100\n      jump\t// in\n    tag_246:\n        /* \"#utility.yul\":8626:8743   */\n    tag_245:\n        /* \"#utility.yul\":8775:8840   */\n      tag_247\n        /* \"#utility.yul\":8832:8839   */\n      dup9\n        /* \"#utility.yul\":8823:8829   */\n      dup3\n        /* \"#utility.yul\":8812:8821   */\n      dup10\n        /* \"#utility.yul\":8808:8830   */\n      add\n        /* \"#utility.yul\":8775:8840   */\n      tag_128\n      jump\t// in\n    tag_247:\n        /* \"#utility.yul\":8757:8840   */\n      swap6\n      pop\n      swap6\n      pop\n        /* \"#utility.yul\":8553:8850   */\n      pop\n        /* \"#utility.yul\":8917:8919   */\n      0x20\n        /* \"#utility.yul\":8906:8915   */\n      dup7\n        /* \"#utility.yul\":8902:8920   */\n      add\n        /* \"#utility.yul\":8889:8921   */\n      calldataload\n        /* \"#utility.yul\":8948:8966   */\n      0xffffffffffffffff\n        /* \"#utility.yul\":8940:8946   */\n      dup2\n        /* \"#utility.yul\":8937:8967   */\n      gt\n        /* \"#utility.yul\":8934:9051   */\n      iszero\n      tag_248\n      jumpi\n        /* \"#utility.yul\":8970:9049   */\n      tag_249\n      tag_100\n      jump\t// in\n    tag_249:\n        /* \"#utility.yul\":8934:9051   */\n    tag_248:\n        /* \"#utility.yul\":9083:9148   */\n      tag_250\n        /* \"#utility.yul\":9140:9147   */\n      dup9\n        /* \"#utility.yul\":9131:9137   */\n      dup3\n        /* \"#utility.yul\":9120:9129   */\n      dup10\n        /* \"#utility.yul\":9116:9138   */\n      add\n        /* \"#utility.yul\":9083:9148   */\n      tag_128\n      jump\t// in\n    tag_250:\n        /* \"#utility.yul\":9065:9148   */\n      swap4\n      pop\n      swap4\n      pop\n        /* \"#utility.yul\":8860:9158   */\n      pop\n        /* \"#utility.yul\":9197:9199   */\n      0x40\n        /* \"#utility.yul\":9223:9276   */\n      tag_251\n        /* \"#utility.yul\":9268:9275   */\n      dup9\n        /* \"#utility.yul\":9259:9265   */\n      dup3\n        /* \"#utility.yul\":9248:9257   */\n      dup10\n        /* \"#utility.yul\":9244:9266   */\n      add\n        /* \"#utility.yul\":9223:9276   */\n      tag_107\n      jump\t// in\n    tag_251:\n        /* \"#utility.yul\":9213:9276   */\n      swap2\n      pop\n        /* \"#utility.yul\":9168:9286   */\n      pop\n        /* \"#utility.yul\":8274:9293   */\n      swap3\n      swap6\n      pop\n      swap3\n      swap6\n      swap1\n      swap4\n      pop\n      jump\t// out\n        /* \"#utility.yul\":9299:9417   */\n    tag_129:\n        /* \"#utility.yul\":9386:9410   */\n      tag_253\n        /* \"#utility.yul\":9404:9409   */\n      dup2\n        /* \"#utility.yul\":9386:9410   */\n      tag_105\n      jump\t// in\n    tag_253:\n        /* \"#utility.yul\":9381:9384   */\n      dup3\n        /* \"#utility.yul\":9374:9411   */\n      mstore\n        /* \"#utility.yul\":9299:9417   */\n      pop\n      pop\n      jump\t// out\n        /* \"#utility.yul\":9423:9645   */\n    tag_40:\n        /* \"#utility.yul\":9516:9520   */\n      0x00\n        /* \"#utility.yul\":9554:9556   */\n      0x20\n        /* \"#utility.yul\":9543:9552   */\n      dup3\n        /* \"#utility.yul\":9539:9557   */\n      add\n        /* \"#utility.yul\":9531:9557   */\n      swap1\n      pop\n        /* \"#utility.yul\":9567:9638   */\n      tag_255\n        /* \"#utility.yul\":9635:9636   */\n      0x00\n        /* \"#utility.yul\":9624:9633   */\n      dup4\n        /* \"#utility.yul\":9620:9637   */\n      add\n        /* \"#utility.yul\":9611:9617   */\n      dup5\n        /* \"#utility.yul\":9567:9638   */\n      tag_129\n      jump\t// in\n    tag_255:\n        /* \"#utility.yul\":9423:9645   */\n      swap3\n      swap2\n      pop\n      pop\n      jump\t// out\n        /* \"#utility.yul\":9651:9820   */\n    tag_130:\n        /* \"#utility.yul\":9735:9746   */\n      0x00\n        /* \"#utility.yul\":9769:9775   */\n      dup3\n        /* \"#utility.yul\":9764:9767   */\n      dup3\n        /* \"#utility.yul\":9757:9776   */\n      mstore\n        /* \"#utility.yul\":9809:9813   */\n      0x20\n        /* \"#utility.yul\":9804:9807   */\n      dup3\n        /* \"#utility.yul\":9800:9814   */\n      add\n        /* \"#utility.yul\":9785:9814   */\n      swap1\n      pop\n        /* \"#utility.yul\":9651:9820   */\n      swap3\n      swap2\n      pop\n      pop\n      jump\t// out\n        /* \"#utility.yul\":9826:10046   */\n    tag_131:\n        /* \"#utility.yul\":9966:10000   */\n      0x4d696e74436f6e74726163743a2063616c6c6572206973206e6f74206f776e65\n        /* \"#utility.yul\":9962:9963   */\n      0x00\n        /* \"#utility.yul\":9954:9960   */\n      dup3\n        /* \"#utility.yul\":9950:9964   */\n      add\n        /* \"#utility.yul\":9943:10001   */\n      mstore\n        /* \"#utility.yul\":10035:10038   */\n      0x7200000000000000000000000000000000000000000000000000000000000000\n        /* \"#utility.yul\":10030:10032   */\n      0x20\n        /* \"#utility.yul\":10022:10028   */\n      dup3\n        /* \"#utility.yul\":10018:10033   */\n      add\n        /* \"#utility.yul\":10011:10039   */\n      mstore\n        /* \"#utility.yul\":9826:10046   */\n      pop\n      jump\t// out\n        /* \"#utility.yul\":10052:10418   */\n    tag_132:\n        /* \"#utility.yul\":10194:10197   */\n      0x00\n        /* \"#utility.yul\":10215:10282   */\n      tag_259\n        /* \"#utility.yul\":10279:10281   */\n      0x21\n        /* \"#utility.yul\":10274:10277   */\n      dup4\n        /* \"#utility.yul\":10215:10282   */\n      tag_130\n      jump\t// in\n    tag_259:\n        /* \"#utility.yul\":10208:10282   */\n      swap2\n      pop\n        /* \"#utility.yul\":10291:10384   */\n      tag_260\n        /* \"#utility.yul\":10380:10383   */\n      dup3\n        /* \"#utility.yul\":10291:10384   */\n      tag_131\n      jump\t// in\n    tag_260:\n        /* \"#utility.yul\":10409:10411   */\n      0x40\n        /* \"#utility.yul\":10404:10407   */\n      dup3\n        /* \"#utility.yul\":10400:10412   */\n      add\n        /* \"#utility.yul\":10393:10412   */\n      swap1\n      pop\n        /* \"#utility.yul\":10052:10418   */\n      swap2\n      swap1\n      pop\n      jump\t// out\n        /* \"#utility.yul\":10424:10843   */\n    tag_51:\n        /* \"#utility.yul\":10590:10594   */\n      0x00\n        /* \"#utility.yul\":10628:10630   */\n      0x20\n        /* \"#utility.yul\":10617:10626   */\n      dup3\n        /* \"#utility.yul\":10613:10631   */\n      add\n        /* \"#utility.yul\":10605:10631   */\n      swap1\n      pop\n        /* \"#utility.yul\":10677:10686   */\n      dup2\n        /* \"#utility.yul\":10671:10675   */\n      dup2\n        /* \"#utility.yul\":10667:10687   */\n      sub\n        /* \"#utility.yul\":10663:10664   */\n      0x00\n        /* \"#utility.yul\":10652:10661   */\n      dup4\n        /* \"#utility.yul\":10648:10665   */\n      add\n        /* \"#utility.yul\":10641:10688   */\n      mstore\n        /* \"#utility.yul\":10705:10836   */\n      tag_262\n        /* \"#utility.yul\":10831:10835   */\n      dup2\n        /* \"#utility.yul\":10705:10836   */\n      tag_132\n      jump\t// in\n    tag_262:\n        /* \"#utility.yul\":10697:10836   */\n      swap1\n      pop\n        /* \"#utility.yul\":10424:10843   */\n      swap2\n      swap1\n      pop\n      jump\t// out\n        /* \"#utility.yul\":10849:11029   */\n    tag_133:\n        /* \"#utility.yul\":10897:10974   */\n      0x4e487b7100000000000000000000000000000000000000000000000000000000\n        /* \"#utility.yul\":10894:10895   */\n      0x00\n        /* \"#utility.yul\":10887:10975   */\n      mstore\n        /* \"#utility.yul\":10994:10998   */\n      0x22\n        /* \"#utility.yul\":10991:10992   */\n      0x04\n        /* \"#utility.yul\":10984:10999   */\n      mstore\n        /* \"#utility.yul\":11018:11022   */\n      0x24\n        /* \"#utility.yul\":11015:11016   */\n      0x00\n        /* \"#utility.yul\":11008:11023   */\n      revert\n        /* \"#utility.yul\":11035:11355   */\n    tag_61:\n        /* \"#utility.yul\":11079:11085   */\n      0x00\n        /* \"#utility.yul\":11116:11117   */\n      0x02\n        /* \"#utility.yul\":11110:11114   */\n      dup3\n        /* \"#utility.yul\":11106:11118   */\n      div\n        /* \"#utility.yul\":11096:11118   */\n      swap1\n      pop\n        /* \"#utility.yul\":11163:11164   */\n      0x01\n        /* \"#utility.yul\":11157:11161   */\n      dup3\n        /* \"#utility.yul\":11153:11165   */\n      and\n        /* \"#utility.yul\":11184:11202   */\n      dup1\n        /* \"#utility.yul\":11174:11255   */\n      tag_265\n      jumpi\n        /* \"#utility.yul\":11240:11244   */\n      0x7f\n        /* \"#utility.yul\":11232:11238   */\n      dup3\n        /* \"#utility.yul\":11228:11245   */\n      and\n        /* \"#utility.yul\":11218:11245   */\n      swap2\n      pop\n        /* \"#utility.yul\":11174:11255   */\n    tag_265:\n        /* \"#utility.yul\":11302:11304   */\n      0x20\n        /* \"#utility.yul\":11294:11300   */\n      dup3\n        /* \"#utility.yul\":11291:11305   */\n      lt\n        /* \"#utility.yul\":11271:11289   */\n      dup2\n        /* \"#utility.yul\":11268:11306   */\n      sub\n        /* \"#utility.yul\":11265:11349   */\n      tag_266\n      jumpi\n        /* \"#utility.yul\":11321:11339   */\n      tag_267\n      tag_133\n      jump\t// in\n    tag_267:\n        /* \"#utility.yul\":11265:11349   */\n    tag_266:\n        /* \"#utility.yul\":11086:11355   */\n      pop\n        /* \"#utility.yul\":11035:11355   */\n      swap2\n      swap1\n      pop\n      jump\t// out\n        /* \"#utility.yul\":11361:11602   */\n    tag_134:\n        /* \"#utility.yul\":11501:11535   */\n      0x4d696e74436f6e74726163743a2063616c6c6572206973206e6f7420616e2061\n        /* \"#utility.yul\":11497:11498   */\n      0x00\n        /* \"#utility.yul\":11489:11495   */\n      dup3\n        /* \"#utility.yul\":11485:11499   */\n      add\n        /* \"#utility.yul\":11478:11536   */\n      mstore\n        /* \"#utility.yul\":11570:11594   */\n      0x7574686f7269736564206d616e75666163747572657200000000000000000000\n        /* \"#utility.yul\":11565:11567   */\n      0x20\n        /* \"#utility.yul\":11557:11563   */\n      dup3\n        /* \"#utility.yul\":11553:11568   */\n      add\n        /* \"#utility.yul\":11546:11595   */\n      mstore\n        /* \"#utility.yul\":11361:11602   */\n      pop\n      jump\t// out\n        /* \"#utility.yul\":11608:11974   */\n    tag_135:\n        /* \"#utility.yul\":11750:11753   */\n      0x00\n        /* \"#utility.yul\":11771:11838   */\n      tag_270\n        /* \"#utility.yul\":11835:11837   */\n      0x36\n        /* \"#utility.yul\":11830:11833   */\n      dup4\n        /* \"#utility.yul\":11771:11838   */\n      tag_130\n      jump\t// in\n    tag_270:\n        /* \"#utility.yul\":11764:11838   */\n      swap2\n      pop\n        /* \"#utility.yul\":11847:11940   */\n      tag_271\n        /* \"#utility.yul\":11936:11939   */\n      dup3\n        /* \"#utility.yul\":11847:11940   */\n      tag_134\n      jump\t// in\n    tag_271:\n        /* \"#utility.yul\":11965:11967   */\n      0x40\n        /* \"#utility.yul\":11960:11963   */\n      dup3\n        /* \"#utility.yul\":11956:11968   */\n      add\n        /* \"#utility.yul\":11949:11968   */\n      swap1\n      pop\n        /* \"#utility.yul\":11608:11974   */\n      swap2\n      swap1\n      pop\n      jump\t// out\n        /* \"#utility.yul\":11980:12399   */\n    tag_78:\n        /* \"#utility.yul\":12146:12150   */\n      0x00\n        /* \"#utility.yul\":12184:12186   */\n      0x20\n        /* \"#utility.yul\":12173:12182   */\n      dup3\n        /* \"#utility.yul\":12169:12187   */\n      add\n        /* \"#utility.yul\":12161:12187   */\n      swap1\n      pop\n        /* \"#utility.yul\":12233:12242   */\n      dup2\n        /* \"#utility.yul\":12227:12231   */\n      dup2\n        /* \"#utility.yul\":12223:12243   */\n      sub\n        /* \"#utility.yul\":12219:12220   */\n      0x00\n        /* \"#utility.yul\":12208:12217   */\n      dup4\n        /* \"#utility.yul\":12204:12221   */\n      add\n        /* \"#utility.yul\":12197:12244   */\n      mstore\n        /* \"#utility.yul\":12261:12392   */\n      tag_273\n        /* \"#utility.yul\":12387:12391   */\n      dup2\n        /* \"#utility.yul\":12261:12392   */\n      tag_135\n      jump\t// in\n    tag_273:\n        /* \"#utility.yul\":12253:12392   */\n      swap1\n      pop\n        /* \"#utility.yul\":11980:12399   */\n      swap2\n      swap1\n      pop\n      jump\t// out\n        /* \"#utility.yul\":12405:12585   */\n    tag_136:\n        /* \"#utility.yul\":12453:12530   */\n      0x4e487b7100000000000000000000000000000000000000000000000000000000\n        /* \"#utility.yul\":12450:12451   */\n      0x00\n        /* \"#utility.yul\":12443:12531   */\n      mstore\n        /* \"#utility.yul\":12550:12554   */\n      0x11\n        /* \"#utility.yul\":12547:12548   */\n      0x04\n        /* \"#utility.yul\":12540:12555   */\n      mstore\n        /* \"#utility.yul\":12574:12578   */\n      0x24\n        /* \"#utility.yul\":12571:12572   */\n      0x00\n        /* \"#utility.yul\":12564:12579   */\n      revert\n        /* \"#utility.yul\":12591:12824   */\n    tag_81:\n        /* \"#utility.yul\":12630:12633   */\n      0x00\n        /* \"#utility.yul\":12653:12677   */\n      tag_276\n        /* \"#utility.yul\":12671:12676   */\n      dup3\n        /* \"#utility.yul\":12653:12677   */\n      tag_105\n      jump\t// in\n    tag_276:\n        /* \"#utility.yul\":12644:12677   */\n      swap2\n      pop\n        /* \"#utility.yul\":12699:12765   */\n      0xffffffffffffffffffffffffffffffffffffffffffffffffffffffffffffffff\n        /* \"#utility.yul\":12692:12697   */\n      dup3\n        /* \"#utility.yul\":12689:12766   */\n      sub\n        /* \"#utility.yul\":12686:12789   */\n      tag_277\n      jumpi\n        /* \"#utility.yul\":12769:12787   */\n      tag_278\n      tag_136\n      jump\t// in\n    tag_278:\n        /* \"#utility.yul\":12686:12789   */\n    tag_277:\n        /* \"#utility.yul\":12816:12817   */\n      0x01\n        /* \"#utility.yul\":12809:12814   */\n      dup3\n        /* \"#utility.yul\":12805:12818   */\n      add\n        /* \"#utility.yul\":12798:12818   */\n      swap1\n      pop\n        /* \"#utility.yul\":12591:12824   */\n      swap2\n      swap1\n      pop\n      jump\t// out\n        /* \"#utility.yul\":12830:13010   */\n    tag_137:\n        /* \"#utility.yul\":12878:12955   */\n      0x4e487b7100000000000000000000000000000000000000000000000000000000\n        /* \"#utility.yul\":12875:12876   */\n      0x00\n        /* \"#utility.yul\":12868:12956   */\n      mstore\n        /* \"#utility.yul\":12975:12979   */\n      0x41\n        /* \"#utility.yul\":12972:12973   */\n      0x04\n        /* \"#utility.yul\":12965:12980   */\n      mstore\n        /* \"#utility.yul\":12999:13003   */\n      0x24\n        /* \"#utility.yul\":12996:12997   */\n      0x00\n        /* \"#utility.yul\":12989:13004   */\n      revert\n        /* \"#utility.yul\":13016:13157   */\n    tag_138:\n        /* \"#utility.yul\":13065:13069   */\n      0x00\n        /* \"#utility.yul\":13088:13091   */\n      dup2\n        /* \"#utility.yul\":13080:13091   */\n      swap1\n      pop\n        /* \"#utility.yul\":13111:13114   */\n      dup2\n        /* \"#utility.yul\":13108:13109   */\n      0x00\n        /* \"#utility.yul\":13101:13115   */\n      mstore\n        /* \"#utility.yul\":13145:13149   */\n      0x20\n        /* \"#utility.yul\":13142:13143   */\n      0x00\n        /* \"#utility.yul\":13132:13150   */\n      keccak256\n        /* \"#utility.yul\":13124:13150   */\n      swap1\n      pop\n        /* \"#utility.yul\":13016:13157   */\n      swap2\n      swap1\n      pop\n      jump\t// out\n        /* \"#utility.yul\":13163:13256   */\n    tag_139:\n        /* \"#utility.yul\":13200:13206   */\n      0x00\n        /* \"#utility.yul\":13247:13249   */\n      0x20\n        /* \"#utility.yul\":13242:13244   */\n      0x1f\n        /* \"#utility.yul\":13235:13240   */\n      dup4\n        /* \"#utility.yul\":13231:13245   */\n      add\n        /* \"#utility.yul\":13227:13250   */\n      div\n        /* \"#utility.yul\":13217:13250   */\n      swap1\n      pop\n        /* \"#utility.yul\":13163:13256   */\n      swap2\n      swap1\n      pop\n      jump\t// out\n        /* \"#utility.yul\":13262:13369   */\n    tag_140:\n        /* \"#utility.yul\":13306:13314   */\n      0x00\n        /* \"#utility.yul\":13356:13361   */\n      dup3\n        /* \"#utility.yul\":13350:13354   */\n      dup3\n        /* \"#utility.yul\":13346:13362   */\n      shl\n        /* \"#utility.yul\":13325:13362   */\n      swap1\n      pop\n        /* \"#utility.yul\":13262:13369   */\n      swap3\n      swap2\n      pop\n      pop\n      jump\t// out\n        /* \"#utility.yul\":13375:13768   */\n    tag_141:\n        /* \"#utility.yul\":13444:13450   */\n      0x00\n        /* \"#utility.yul\":13494:13495   */\n      0x08\n        /* \"#utility.yul\":13482:13492   */\n      dup4\n        /* \"#utility.yul\":13478:13496   */\n      mul\n        /* \"#utility.yul\":13517:13614   */\n      tag_284\n        /* \"#utility.yul\":13547:13613   */\n      0xffffffffffffffffffffffffffffffffffffffffffffffffffffffffffffffff\n        /* \"#utility.yul\":13536:13545   */\n      dup3\n        /* \"#utility.yul\":13517:13614   */\n      tag_140\n      jump\t// in\n    tag_284:\n        /* \"#utility.yul\":13635:13674   */\n      tag_285\n        /* \"#utility.yul\":13665:13673   */\n      dup7\n        /* \"#utility.yul\":13654:13663   */\n      dup4\n        /* \"#utility.yul\":13635:13674   */\n      tag_140\n      jump\t// in\n    tag_285:\n        /* \"#utility.yul\":13623:13674   */\n      swap6\n      pop\n        /* \"#utility.yul\":13707:13711   */\n      dup1\n        /* \"#utility.yul\":13703:13712   */\n      not\n        /* \"#utility.yul\":13696:13701   */\n      dup5\n        /* \"#utility.yul\":13692:13713   */\n      and\n        /* \"#utility.yul\":13683:13713   */\n      swap4\n      pop\n        /* \"#utility.yul\":13756:13760   */\n      dup1\n        /* \"#utility.yul\":13746:13754   */\n      dup7\n        /* \"#utility.yul\":13742:13761   */\n      and\n        /* \"#utility.yul\":13735:13740   */\n      dup5\n        /* \"#utility.yul\":13732:13762   */\n      or\n        /* \"#utility.yul\":13722:13762   */\n      swap3\n      pop\n        /* \"#utility.yul\":13451:13768   */\n      pop\n      pop\n        /* \"#utility.yul\":13375:13768   */\n      swap4\n      swap3\n      pop\n      pop\n      pop\n      jump\t// out\n        /* \"#utility.yul\":13774:13834   */\n    tag_142:\n        /* \"#utility.yul\":13802:13805   */\n      0x00\n        /* \"#utility.yul\":13823:13828   */\n      dup2\n        /* \"#utility.yul\":13816:13828   */\n      swap1\n      pop\n        /* \"#utility.yul\":13774:13834   */\n      swap2\n      swap1\n      pop\n      jump\t// out\n        /* \"#utility.yul\":13840:13982   */\n    tag_143:\n        /* \"#utility.yul\":13890:13899   */\n      0x00\n        /* \"#utility.yul\":13923:13976   */\n      tag_288\n        /* \"#utility.yul\":13941:13975   */\n      tag_289\n        /* \"#utility.yul\":13950:13974   */\n      tag_290\n        /* \"#utility.yul\":13968:13973   */\n      dup5\n        /* \"#utility.yul\":13950:13974   */\n      tag_105\n      jump\t// in\n    tag_290:\n        /* \"#utility.yul\":13941:13975   */\n      tag_142\n      jump\t// in\n    tag_289:\n        /* \"#utility.yul\":13923:13976   */\n      tag_105\n      jump\t// in\n    tag_288:\n        /* \"#utility.yul\":13910:13976   */\n      swap1\n      pop\n        /* \"#utility.yul\":13840:13982   */\n      swap2\n      swap1\n      pop\n      jump\t// out\n        /* \"#utility.yul\":13988:14063   */\n    tag_144:\n        /* \"#utility.yul\":14031:14034   */\n      0x00\n        /* \"#utility.yul\":14052:14057   */\n      dup2\n        /* \"#utility.yul\":14045:14057   */\n      swap1\n      pop\n        /* \"#utility.yul\":13988:14063   */\n      swap2\n      swap1\n      pop\n      jump\t// out\n        /* \"#utility.yul\":14069:14338   */\n    tag_145:\n        /* \"#utility.yul\":14179:14218   */\n      tag_293\n        /* \"#utility.yul\":14210:14217   */\n      dup4\n        /* \"#utility.yul\":14179:14218   */\n      tag_143\n      jump\t// in\n    tag_293:\n        /* \"#utility.yul\":14240:14331   */\n      tag_294\n        /* \"#utility.yul\":14289:14330   */\n      tag_295\n        /* \"#utility.yul\":14313:14329   */\n      dup3\n        /* \"#utility.yul\":14289:14330   */\n      tag_144\n      jump\t// in\n    tag_295:\n        /* \"#utility.yul\":14281:14287   */\n      dup5\n        /* \"#utility.yul\":14274:14278   */\n      dup5\n        /* \"#utility.yul\":14268:14279   */\n      sload\n        /* \"#utility.yul\":14240:14331   */\n      tag_141\n      jump\t// in\n    tag_294:\n        /* \"#utility.yul\":14234:14238   */\n      dup3\n        /* \"#utility.yul\":14227:14332   */\n      sstore\n        /* \"#utility.yul\":14145:14338   */\n      pop\n        /* \"#utility.yul\":14069:14338   */\n      pop\n      pop\n      pop\n      jump\t// out\n        /* \"#utility.yul\":14344:14417   */\n    tag_146:\n        /* \"#utility.yul\":14389:14392   */\n      0x00\n        /* \"#utility.yul\":14410:14411   */\n      0x00\n        /* \"#utility.yul\":14403:14411   */\n      swap1\n      pop\n        /* \"#utility.yul\":14344:14417   */\n      swap1\n      jump\t// out\n        /* \"#utility.yul\":14423:14612   */\n    tag_147:\n        /* \"#utility.yul\":14500:14532   */\n      tag_298\n      tag_146\n      jump\t// in\n    tag_298:\n        /* \"#utility.yul\":14541:14606   */\n      tag_299\n        /* \"#utility.yul\":14599:14605   */\n      dup2\n        /* \"#utility.yul\":14591:14597   */\n      dup5\n        /* \"#utility.yul\":14585:14589   */\n      dup5\n        /* \"#utility.yul\":14541:14606   */\n      tag_145\n      jump\t// in\n    tag_299:\n        /* \"#utility.yul\":14476:14612   */\n      pop\n        /* \"#utility.yul\":14423:14612   */\n      pop\n      pop\n      jump\t// out\n        /* \"#utility.yul\":14618:14832   */\n    tag_148:\n        /* \"#utility.yul\":14703:14704   */\n      0x00\n        /* \"#utility.yul\":14688:14826   */\n    tag_301:\n        /* \"#utility.yul\":14713:14722   */\n      dup3\n        /* \"#utility.yul\":14710:14711   */\n      dup2\n        /* \"#utility.yul\":14707:14723   */\n      lt\n        /* \"#utility.yul\":14688:14826   */\n      iszero\n      tag_303\n      jumpi\n        /* \"#utility.yul\":14765:14816   */\n      tag_304\n        /* \"#utility.yul\":14814:14815   */\n      0x00\n        /* \"#utility.yul\":14810:14811   */\n      dup3\n        /* \"#utility.yul\":14799:14808   */\n      dup5\n        /* \"#utility.yul\":14795:14812   */\n      add\n        /* \"#utility.yul\":14765:14816   */\n      tag_147\n      jump\t// in\n    tag_304:\n        /* \"#utility.yul\":14738:14739   */\n      0x01\n        /* \"#utility.yul\":14735:14736   */\n      dup2\n        /* \"#utility.yul\":14731:14740   */\n      add\n        /* \"#utility.yul\":14726:14740   */\n      swap1\n      pop\n        /* \"#utility.yul\":14688:14826   */\n      jump(tag_301)\n    tag_303:\n        /* \"#utility.yul\":14692:14706   */\n      pop\n        /* \"#utility.yul\":14618:14832   */\n      pop\n      pop\n      jump\t// out\n        /* \"#utility.yul\":14838:15584   */\n    tag_149:\n        /* \"#utility.yul\":14939:14941   */\n      0x1f\n        /* \"#utility.yul\":14934:14937   */\n      dup3\n        /* \"#utility.yul\":14931:14942   */\n      gt\n        /* \"#utility.yul\":14928:15577   */\n      iszero\n      tag_306\n      jumpi\n        /* \"#utility.yul\":14968:14978   */\n      dup3\n        /* \"#utility.yul\":14963:14966   */\n      dup3\n        /* \"#utility.yul\":14960:14979   */\n      gt\n        /* \"#utility.yul\":14957:15567   */\n      iszero\n      tag_307\n      jumpi\n        /* \"#utility.yul\":15014:15052   */\n      tag_308\n        /* \"#utility.yul\":15046:15051   */\n      dup2\n        /* \"#utility.yul\":15014:15052   */\n      tag_138\n      jump\t// in\n    tag_308:\n        /* \"#utility.yul\":15089:15111   */\n      tag_309\n        /* \"#utility.yul\":15107:15110   */\n      dup4\n        /* \"#utility.yul\":15089:15111   */\n      tag_139\n      jump\t// in\n    tag_309:\n        /* \"#utility.yul\":15148:15177   */\n      tag_310\n        /* \"#utility.yul\":15166:15176   */\n      dup6\n        /* \"#utility.yul\":15148:15177   */\n      tag_139\n      jump\t// in\n    tag_310:\n        /* \"#utility.yul\":15338:15340   */\n      0x20\n        /* \"#utility.yul\":15326:15336   */\n      dup7\n        /* \"#utility.yul\":15323:15341   */\n      lt\n        /* \"#utility.yul\":15320:15399   */\n      iszero\n      tag_311\n      jumpi\n        /* \"#utility.yul\":15380:15381   */\n      0x00\n        /* \"#utility.yul\":15364:15381   */\n      swap1\n      pop\n        /* \"#utility.yul\":15320:15399   */\n    tag_311:\n        /* \"#utility.yul\":15449:15461   */\n      dup1\n        /* \"#utility.yul\":15439:15447   */\n      dup4\n        /* \"#utility.yul\":15435:15462   */\n      add\n        /* \"#utility.yul\":15479:15553   */\n      tag_312\n        /* \"#utility.yul\":15539:15551   */\n      dup3\n        /* \"#utility.yul\":15525:15537   */\n      dup5\n        /* \"#utility.yul\":15521:15552   */\n      sub\n        /* \"#utility.yul\":15508:15519   */\n      dup3\n        /* \"#utility.yul\":15479:15553   */\n      tag_148\n      jump\t// in\n    tag_312:\n        /* \"#utility.yul\":14980:15567   */\n      pop\n      pop\n      pop\n      pop\n        /* \"#utility.yul\":14957:15567   */\n    tag_307:\n        /* \"#utility.yul\":14928:15577   */\n    tag_306:\n        /* \"#utility.yul\":14838:15584   */\n      pop\n      pop\n      pop\n      jump\t// out\n        /* \"#utility.yul\":15590:15707   */\n    tag_150:\n        /* \"#utility.yul\":15644:15652   */\n      0x00\n        /* \"#utility.yul\":15694:15699   */\n      dup3\n        /* \"#utility.yul\":15688:15692   */\n      dup3\n        /* \"#utility.yul\":15684:15700   */\n      shr\n        /* \"#utility.yul\":15663:15700   */\n      swap1\n      pop\n        /* \"#utility.yul\":15590:15707   */\n      swap3\n      swap2\n      pop\n      pop\n      jump\t// out\n        /* \"#utility.yul\":15713:15882   */\n    tag_151:\n        /* \"#utility.yul\":15757:15763   */\n      0x00\n        /* \"#utility.yul\":15790:15841   */\n      tag_315\n        /* \"#utility.yul\":15838:15839   */\n      0x00\n        /* \"#utility.yul\":15834:15840   */\n      not\n        /* \"#utility.yul\":15826:15831   */\n      dup5\n        /* \"#utility.yul\":15823:15824   */\n      0x08\n        /* \"#utility.yul\":15819:15832   */\n      mul\n        /* \"#utility.yul\":15790:15841   */\n      tag_150\n      jump\t// in\n    tag_315:\n        /* \"#utility.yul\":15786:15842   */\n      not\n        /* \"#utility.yul\":15871:15875   */\n      dup1\n        /* \"#utility.yul\":15865:15869   */\n      dup4\n        /* \"#utility.yul\":15861:15876   */\n      and\n        /* \"#utility.yul\":15851:15876   */\n      swap2\n      pop\n        /* \"#utility.yul\":15764:15882   */\n      pop\n        /* \"#utility.yul\":15713:15882   */\n      swap3\n      swap2\n      pop\n      pop\n      jump\t// out\n        /* \"#utility.yul\":15887:16182   */\n    tag_152:\n        /* \"#utility.yul\":15963:15967   */\n      0x00\n        /* \"#utility.yul\":16109:16138   */\n      tag_317\n        /* \"#utility.yul\":16134:16137   */\n      dup4\n        /* \"#utility.yul\":16128:16132   */\n      dup4\n        /* \"#utility.yul\":16109:16138   */\n      tag_151\n      jump\t// in\n    tag_317:\n        /* \"#utility.yul\":16101:16138   */\n      swap2\n      pop\n        /* \"#utility.yul\":16171:16174   */\n      dup3\n        /* \"#utility.yul\":16168:16169   */\n      0x02\n        /* \"#utility.yul\":16164:16175   */\n      mul\n        /* \"#utility.yul\":16158:16162   */\n      dup3\n        /* \"#utility.yul\":16155:16176   */\n      or\n        /* \"#utility.yul\":16147:16176   */\n      swap1\n      pop\n        /* \"#utility.yul\":15887:16182   */\n      swap3\n      swap2\n      pop\n      pop\n      jump\t// out\n        /* \"#utility.yul\":16187:17582   */\n    tag_85:\n        /* \"#utility.yul\":16304:16341   */\n      tag_319\n        /* \"#utility.yul\":16337:16340   */\n      dup3\n        /* \"#utility.yul\":16304:16341   */\n      tag_111\n      jump\t// in\n    tag_319:\n        /* \"#utility.yul\":16406:16424   */\n      0xffffffffffffffff\n        /* \"#utility.yul\":16398:16404   */\n      dup2\n        /* \"#utility.yul\":16395:16425   */\n      gt\n        /* \"#utility.yul\":16392:16448   */\n      iszero\n      tag_320\n      jumpi\n        /* \"#utility.yul\":16428:16446   */\n      tag_321\n      tag_137\n      jump\t// in\n    tag_321:\n        /* \"#utility.yul\":16392:16448   */\n    tag_320:\n        /* \"#utility.yul\":16472:16510   */\n      tag_322\n        /* \"#utility.yul\":16504:16508   */\n      dup3\n        /* \"#utility.yul\":16498:16509   */\n      sload\n        /* \"#utility.yul\":16472:16510   */\n      tag_61\n      jump\t// in\n    tag_322:\n        /* \"#utility.yul\":16557:16624   */\n      tag_323\n        /* \"#utility.yul\":16617:16623   */\n      dup3\n        /* \"#utility.yul\":16609:16615   */\n      dup3\n        /* \"#utility.yul\":16603:16607   */\n      dup6\n        /* \"#utility.yul\":16557:16624   */\n      tag_149\n      jump\t// in\n    tag_323:\n        /* \"#utility.yul\":16651:16652   */\n      0x00\n        /* \"#utility.yul\":16675:16679   */\n      0x20\n        /* \"#utility.yul\":16662:16679   */\n      swap1\n      pop\n        /* \"#utility.yul\":16707:16709   */\n      0x1f\n        /* \"#utility.yul\":16699:16705   */\n      dup4\n        /* \"#utility.yul\":16696:16710   */\n      gt\n        /* \"#utility.yul\":16724:16725   */\n      0x01\n        /* \"#utility.yul\":16719:17337   */\n      dup2\n      eq\n      tag_325\n      jumpi\n        /* \"#utility.yul\":17381:17382   */\n      0x00\n        /* \"#utility.yul\":17398:17404   */\n      dup5\n        /* \"#utility.yul\":17395:17472   */\n      iszero\n      tag_326\n      jumpi\n        /* \"#utility.yul\":17447:17456   */\n      dup3\n        /* \"#utility.yul\":17442:17445   */\n      dup8\n        /* \"#utility.yul\":17438:17457   */\n      add\n        /* \"#utility.yul\":17432:17458   */\n      mload\n        /* \"#utility.yul\":17423:17458   */\n      swap1\n      pop\n        /* \"#utility.yul\":17395:17472   */\n    tag_326:\n        /* \"#utility.yul\":17498:17565   */\n      tag_327\n        /* \"#utility.yul\":17558:17564   */\n      dup6\n        /* \"#utility.yul\":17551:17556   */\n      dup3\n        /* \"#utility.yul\":17498:17565   */\n      tag_152\n      jump\t// in\n    tag_327:\n        /* \"#utility.yul\":17492:17496   */\n      dup7\n        /* \"#utility.yul\":17485:17566   */\n      sstore\n        /* \"#utility.yul\":17354:17576   */\n      pop\n        /* \"#utility.yul\":16689:17576   */\n      jump(tag_324)\n        /* \"#utility.yul\":16719:17337   */\n    tag_325:\n        /* \"#utility.yul\":16771:16775   */\n      0x1f\n        /* \"#utility.yul\":16767:16776   */\n      not\n        /* \"#utility.yul\":16759:16765   */\n      dup5\n        /* \"#utility.yul\":16755:16777   */\n      and\n        /* \"#utility.yul\":16805:16842   */\n      tag_328\n        /* \"#utility.yul\":16837:16841   */\n      dup7\n        /* \"#utility.yul\":16805:16842   */\n      tag_138\n      jump\t// in\n    tag_328:\n        /* \"#utility.yul\":16864:16865   */\n      0x00\n        /* \"#utility.yul\":16878:17086   */\n    tag_329:\n        /* \"#utility.yul\":16892:16899   */\n      dup3\n        /* \"#utility.yul\":16889:16890   */\n      dup2\n        /* \"#utility.yul\":16886:16900   */\n      lt\n        /* \"#utility.yul\":16878:17086   */\n      iszero\n      tag_331\n      jumpi\n        /* \"#utility.yul\":16971:16980   */\n      dup5\n        /* \"#utility.yul\":16966:16969   */\n      dup10\n        /* \"#utility.yul\":16962:16981   */\n      add\n        /* \"#utility.yul\":16956:16982   */\n      mload\n        /* \"#utility.yul\":16948:16954   */\n      dup3\n        /* \"#utility.yul\":16941:16983   */\n      sstore\n        /* \"#utility.yul\":17022:17023   */\n      0x01\n        /* \"#utility.yul\":17014:17020   */\n      dup3\n        /* \"#utility.yul\":17010:17024   */\n      add\n        /* \"#utility.yul\":17000:17024   */\n      swap2\n      pop\n        /* \"#utility.yul\":17069:17071   */\n      0x20\n        /* \"#utility.yul\":17058:17067   */\n      dup6\n        /* \"#utility.yul\":17054:17072   */\n      add\n        /* \"#utility.yul\":17041:17072   */\n      swap5\n      pop\n        /* \"#utility.yul\":16915:16919   */\n      0x20\n        /* \"#utility.yul\":16912:16913   */\n      dup2\n        /* \"#utility.yul\":16908:16920   */\n      add\n        /* \"#utility.yul\":16903:16920   */\n      swap1\n      pop\n        /* \"#utility.yul\":16878:17086   */\n      jump(tag_329)\n    tag_331:\n        /* \"#utility.yul\":17114:17120   */\n      dup7\n        /* \"#utility.yul\":17105:17112   */\n      dup4\n        /* \"#utility.yul\":17102:17121   */\n      lt\n        /* \"#utility.yul\":17099:17278   */\n      iszero\n      tag_332\n      jumpi\n        /* \"#utility.yul\":17172:17181   */\n      dup5\n        /* \"#utility.yul\":17167:17170   */\n      dup10\n        /* \"#utility.yul\":17163:17182   */\n      add\n        /* \"#utility.yul\":17157:17183   */\n      mload\n        /* \"#utility.yul\":17215:17263   */\n      tag_333\n        /* \"#utility.yul\":17257:17261   */\n      0x1f\n        /* \"#utility.yul\":17249:17255   */\n      dup10\n        /* \"#utility.yul\":17245:17262   */\n      and\n        /* \"#utility.yul\":17234:17243   */\n      dup3\n        /* \"#utility.yul\":17215:17263   */\n      tag_151\n      jump\t// in\n    tag_333:\n        /* \"#utility.yul\":17207:17213   */\n      dup4\n        /* \"#utility.yul\":17200:17264   */\n      sstore\n        /* \"#utility.yul\":17122:17278   */\n      pop\n        /* \"#utility.yul\":17099:17278   */\n    tag_332:\n        /* \"#utility.yul\":17324:17325   */\n      0x01\n        /* \"#utility.yul\":17320:17321   */\n      0x02\n        /* \"#utility.yul\":17312:17318   */\n      dup9\n        /* \"#utility.yul\":17308:17322   */\n      mul\n        /* \"#utility.yul\":17304:17326   */\n      add\n        /* \"#utility.yul\":17298:17302   */\n      dup9\n        /* \"#utility.yul\":17291:17327   */\n      sstore\n        /* \"#utility.yul\":16726:17337   */\n      pop\n      pop\n      pop\n        /* \"#utility.yul\":16689:17576   */\n    tag_324:\n      pop\n        /* \"#utility.yul\":16279:17582   */\n      pop\n      pop\n      pop\n        /* \"#utility.yul\":16187:17582   */\n      pop\n      pop\n      jump\t// out\n        /* \"#utility.yul\":17588:17736   */\n    tag_153:\n        /* \"#utility.yul\":17686:17692   */\n      dup3\n        /* \"#utility.yul\":17681:17684   */\n      dup2\n        /* \"#utility.yul\":17676:17679   */\n      dup4\n        /* \"#utility.yul\":17663:17693   */\n      calldatacopy\n        /* \"#utility.yul\":17727:17728   */\n      0x00\n        /* \"#utility.yul\":17718:17724   */\n      dup4\n        /* \"#utility.yul\":17713:17716   */\n      dup4\n        /* \"#utility.yul\":17709:17725   */\n      add\n        /* \"#utility.yul\":17702:17729   */\n      mstore\n        /* \"#utility.yul\":17588:17736   */\n      pop\n      pop\n      pop\n      jump\t// out\n        /* \"#utility.yul\":17766:18083   */\n    tag_154:\n        /* \"#utility.yul\":17864:17867   */\n      0x00\n        /* \"#utility.yul\":17885:17956   */\n      tag_336\n        /* \"#utility.yul\":17949:17955   */\n      dup4\n        /* \"#utility.yul\":17944:17947   */\n      dup6\n        /* \"#utility.yul\":17885:17956   */\n      tag_130\n      jump\t// in\n    tag_336:\n        /* \"#utility.yul\":17878:17956   */\n      swap4\n      pop\n        /* \"#utility.yul\":17966:18022   */\n      tag_337\n        /* \"#utility.yul\":18015:18021   */\n      dup4\n        /* \"#utility.yul\":18010:18013   */\n      dup6\n        /* \"#utility.yul\":18003:18008   */\n      dup5\n        /* \"#utility.yul\":17966:18022   */\n      tag_153\n      jump\t// in\n    tag_337:\n        /* \"#utility.yul\":18047:18076   */\n      tag_338\n        /* \"#utility.yul\":18069:18075   */\n      dup4\n        /* \"#utility.yul\":18047:18076   */\n      tag_114\n      jump\t// in\n    tag_338:\n        /* \"#utility.yul\":18042:18045   */\n      dup5\n        /* \"#utility.yul\":18038:18077   */\n      add\n        /* \"#utility.yul\":18031:18077   */\n      swap1\n      pop\n        /* \"#utility.yul\":17766:18083   */\n      swap4\n      swap3\n      pop\n      pop\n      pop\n      jump\t// out\n        /* \"#utility.yul\":18089:18753   */\n    tag_90:\n        /* \"#utility.yul\":18298:18302   */\n      0x00\n        /* \"#utility.yul\":18336:18338   */\n      0x60\n        /* \"#utility.yul\":18325:18334   */\n      dup3\n        /* \"#utility.yul\":18321:18339   */\n      add\n        /* \"#utility.yul\":18313:18339   */\n      swap1\n      pop\n        /* \"#utility.yul\":18385:18394   */\n      dup2\n        /* \"#utility.yul\":18379:18383   */\n      dup2\n        /* \"#utility.yul\":18375:18395   */\n      sub\n        /* \"#utility.yul\":18371:18372   */\n      0x00\n        /* \"#utility.yul\":18360:18369   */\n      dup4\n        /* \"#utility.yul\":18356:18373   */\n      add\n        /* \"#utility.yul\":18349:18396   */\n      mstore\n        /* \"#utility.yul\":18413:18501   */\n      tag_340\n        /* \"#utility.yul\":18496:18500   */\n      dup2\n        /* \"#utility.yul\":18487:18493   */\n      dup8\n        /* \"#utility.yul\":18479:18485   */\n      dup10\n        /* \"#utility.yul\":18413:18501   */\n      tag_154\n      jump\t// in\n    tag_340:\n        /* \"#utility.yul\":18405:18501   */\n      swap1\n      pop\n        /* \"#utility.yul\":18548:18557   */\n      dup2\n        /* \"#utility.yul\":18542:18546   */\n      dup2\n        /* \"#utility.yul\":18538:18558   */\n      sub\n        /* \"#utility.yul\":18533:18535   */\n      0x20\n        /* \"#utility.yul\":18522:18531   */\n      dup4\n        /* \"#utility.yul\":18518:18536   */\n      add\n        /* \"#utility.yul\":18511:18559   */\n      mstore\n        /* \"#utility.yul\":18576:18664   */\n      tag_341\n        /* \"#utility.yul\":18659:18663   */\n      dup2\n        /* \"#utility.yul\":18650:18656   */\n      dup6\n        /* \"#utility.yul\":18642:18648   */\n      dup8\n        /* \"#utility.yul\":18576:18664   */\n      tag_154\n      jump\t// in\n    tag_341:\n        /* \"#utility.yul\":18568:18664   */\n      swap1\n      pop\n        /* \"#utility.yul\":18674:18746   */\n      tag_342\n        /* \"#utility.yul\":18742:18744   */\n      0x40\n        /* \"#utility.yul\":18731:18740   */\n      dup4\n        /* \"#utility.yul\":18727:18745   */\n      add\n        /* \"#utility.yul\":18718:18724   */\n      dup5\n        /* \"#utility.yul\":18674:18746   */\n      tag_129\n      jump\t// in\n    tag_342:\n        /* \"#utility.yul\":18089:18753   */\n      swap7\n      swap6\n      pop\n      pop\n      pop\n      pop\n      pop\n      pop\n      jump\t// out\n\n    auxdata: 0xa2646970667358221220cf88accc9c0985bfa19588ab7f581821d73c8ab5118069a73c3249c1b939b31164736f6c63430008220033\n}\n",
				"bytecode": {
					"linkReferences": {},
					"object": "6080604052348015600e575f5ffd5b50335f5f6101000a81548173ffffffffffffffffffffffffffffffffffffffff021916908373ffffffffffffffffffffffffffffffffffffffff160217905550600180819055506113e9806100625f395ff3fe608060405234801561000f575f5ffd5b5060043610610086575f3560e01c80638da5cb5b116100595780638da5cb5b14610122578063974a0133146101405780639ffaa71e14610170578063fcafd6a5146101a057610086565b806318b452381461008a5780633a1b3d31146100a65780635ac44282146100c25780635cd349ef146100f2575b5f5ffd5b6100a4600480360381019061009f9190610a68565b6101bc565b005b6100c060048036038101906100bb9190610ae9565b6102e4565b005b6100dc60048036038101906100d79190610b27565b610324565b6040516100e99190610cf3565b60405180910390f35b61010c60048036038101906101079190610a68565b61051c565b6040516101199190610d2d565b60405180910390f35b61012a610539565b6040516101379190610d55565b60405180910390f35b61015a60048036038101906101559190610dcf565b61055d565b6040516101679190610e6f565b60405180910390f35b61018a60048036038101906101859190610b27565b610812565b6040516101979190610d2d565b60405180910390f35b6101ba60048036038101906101b59190610a68565b61087d565b005b5f5f9054906101000a900473ffffffffffffffffffffffffffffffffffffffff1673ffffffffffffffffffffffffffffffffffffffff163373ffffffffffffffffffffffffffffffffffffffff161461024a576040517f08c379a000000000000000000000000000000000000000000000000000000000815260040161024190610f08565b60405180910390fd5b5f60035f8373ffffffffffffffffffffffffffffffffffffffff1673ffffffffffffffffffffffffffffffffffffffff1681526020019081526020015f205f6101000a81548160ff0219169083151502179055508073ffffffffffffffffffffffffffffffffffffffff167fd45d196334d0d06ea301cc8b965da9c0afd7dd9bd61ebcf127f0575c45e7b46b60405160405180910390a250565b8060025f8481526020019081526020015f2060050160146101000a81548160ff0219169083600481111561031b5761031a610be0565b5b02179055505050565b61032c6109a6565b60025f8381526020019081526020015f206040518060e00160405290815f820154815260200160018201805461036190610f53565b80601f016020809104026020016040519081016040528092919081815260200182805461038d90610f53565b80156103d85780601f106103af576101008083540402835291602001916103d8565b820191905f5260205f20905b8154815290600101906020018083116103bb57829003601f168201915b505050505081526020016002820180546103f190610f53565b80601f016020809104026020016040519081016040528092919081815260200182805461041d90610f53565b80156104685780601f1061043f57610100808354040283529160200191610468565b820191905f5260205f20905b81548152906001019060200180831161044b57829003601f168201915b505050505081526020016003820154815260200160048201548152602001600582015f9054906101000a900473ffffffffffffffffffffffffffffffffffffffff1673ffffffffffffffffffffffffffffffffffffffff1673ffffffffffffffffffffffffffffffffffffffff1681526020016005820160149054906101000a900460ff1660048111156104ff576104fe610be0565b5b600481111561051157610510610be0565b5b815250509050919050565b6003602052805f5260405f205f915054906101000a900460ff1681565b5f5f9054906101000a900473ffffffffffffffffffffffffffffffffffffffff1681565b5f60035f3373ffffffffffffffffffffffffffffffffffffffff1673ffffffffffffffffffffffffffffffffffffffff1681526020019081526020015f205f9054906101000a900460ff166105e7576040517f08c379a00000000000000000000000000000000000000000000000000000000081526004016105de90610ff3565b60405180910390fd5b60015f8154809291906105f99061103e565b9190505590506040518060e0016040528082815260200187878080601f0160208091040260200160405190810160405280939291908181526020018383808284375f81840152601f19601f82011690508083019250505050505050815260200185858080601f0160208091040260200160405190810160405280939291908181526020018383808284375f81840152601f19601f8201169050808301925050505050505081526020014281526020018381526020013373ffffffffffffffffffffffffffffffffffffffff1681526020015f60048111156106dd576106dc610be0565b5b81525060025f8381526020019081526020015f205f820151815f0155602082015181600101908161070e9190611263565b5060408201518160020190816107249190611263565b50606082015181600301556080820151816004015560a0820151816005015f6101000a81548173ffffffffffffffffffffffffffffffffffffffff021916908373ffffffffffffffffffffffffffffffffffffffff16021790555060c08201518160050160146101000a81548160ff021916908360048111156107aa576107a9610be0565b5b02179055509050503373ffffffffffffffffffffffffffffffffffffffff16817f6c37d25be9f3bb0e66fd910d4ac625c47095962a099cdacd7996109ab335eb7e888888888860405161080195949392919061136c565b60405180910390a395945050505050565b5f5f73ffffffffffffffffffffffffffffffffffffffff1660025f8481526020019081526020015f206005015f9054906101000a900473ffffffffffffffffffffffffffffffffffffffff1673ffffffffffffffffffffffffffffffffffffffff1614159050919050565b5f5f9054906101000a900473ffffffffffffffffffffffffffffffffffffffff1673ffffffffffffffffffffffffffffffffffffffff163373ffffffffffffffffffffffffffffffffffffffff161461090b576040517f08c379a000000000000000000000000000000000000000000000000000000000815260040161090290610f08565b60405180910390fd5b600160035f8373ffffffffffffffffffffffffffffffffffffffff1673ffffffffffffffffffffffffffffffffffffffff1681526020019081526020015f205f6101000a81548160ff0219169083151502179055508073ffffffffffffffffffffffffffffffffffffffff167fd0d91e7940ac19a4b21542aa4992ca33fc6a95967a0e9149cea69c18960e95d660405160405180910390a250565b6040518060e001604052805f815260200160608152602001606081526020015f81526020015f81526020015f73ffffffffffffffffffffffffffffffffffffffff1681526020015f6004811115610a00576109ff610be0565b5b81525090565b5f5ffd5b5f5ffd5b5f73ffffffffffffffffffffffffffffffffffffffff82169050919050565b5f610a3782610a0e565b9050919050565b610a4781610a2d565b8114610a51575f5ffd5b50565b5f81359050610a6281610a3e565b92915050565b5f60208284031215610a7d57610a7c610a06565b5b5f610a8a84828501610a54565b91505092915050565b5f819050919050565b610aa581610a93565b8114610aaf575f5ffd5b50565b5f81359050610ac081610a9c565b92915050565b60058110610ad2575f5ffd5b50565b5f81359050610ae381610ac6565b92915050565b5f5f60408385031215610aff57610afe610a06565b5b5f610b0c85828601610ab2565b9250506020610b1d85828601610ad5565b9150509250929050565b5f60208284031215610b3c57610b3b610a06565b5b5f610b4984828501610ab2565b91505092915050565b610b5b81610a93565b82525050565b5f81519050919050565b5f82825260208201905092915050565b8281835e5f83830152505050565b5f601f19601f8301169050919050565b5f610ba382610b61565b610bad8185610b6b565b9350610bbd818560208601610b7b565b610bc681610b89565b840191505092915050565b610bda81610a2d565b82525050565b7f4e487b71000000000000000000000000000000000000000000000000000000005f52602160045260245ffd5b60058110610c1e57610c1d610be0565b5b50565b5f819050610c2e82610c0d565b919050565b5f610c3d82610c21565b9050919050565b610c4d81610c33565b82525050565b5f60e083015f830151610c685f860182610b52565b5060208301518482036020860152610c808282610b99565b91505060408301518482036040860152610c9a8282610b99565b9150506060830151610caf6060860182610b52565b506080830151610cc26080860182610b52565b5060a0830151610cd560a0860182610bd1565b5060c0830151610ce860c0860182610c44565b508091505092915050565b5f6020820190508181035f830152610d0b8184610c53565b905092915050565b5f8115159050919050565b610d2781610d13565b82525050565b5f602082019050610d405f830184610d1e565b92915050565b610d4f81610a2d565b82525050565b5f602082019050610d685f830184610d46565b92915050565b5f5ffd5b5f5ffd5b5f5ffd5b5f5f83601f840112610d8f57610d8e610d6e565b5b8235905067ffffffffffffffff811115610dac57610dab610d72565b5b602083019150836001820283011115610dc857610dc7610d76565b5b9250929050565b5f5f5f5f5f60608688031215610de857610de7610a06565b5b5f86013567ffffffffffffffff811115610e0557610e04610a0a565b5b610e1188828901610d7a565b9550955050602086013567ffffffffffffffff811115610e3457610e33610a0a565b5b610e4088828901610d7a565b93509350506040610e5388828901610ab2565b9150509295509295909350565b610e6981610a93565b82525050565b5f602082019050610e825f830184610e60565b92915050565b5f82825260208201905092915050565b7f4d696e74436f6e74726163743a2063616c6c6572206973206e6f74206f776e655f8201527f7200000000000000000000000000000000000000000000000000000000000000602082015250565b5f610ef2602183610e88565b9150610efd82610e98565b604082019050919050565b5f6020820190508181035f830152610f1f81610ee6565b9050919050565b7f4e487b71000000000000000000000000000000000000000000000000000000005f52602260045260245ffd5b5f6002820490506001821680610f6a57607f821691505b602082108103610f7d57610f7c610f26565b5b50919050565b7f4d696e74436f6e74726163743a2063616c6c6572206973206e6f7420616e20615f8201527f7574686f7269736564206d616e75666163747572657200000000000000000000602082015250565b5f610fdd603683610e88565b9150610fe882610f83565b604082019050919050565b5f6020820190508181035f83015261100a81610fd1565b9050919050565b7f4e487b71000000000000000000000000000000000000000000000000000000005f52601160045260245ffd5b5f61104882610a93565b91507fffffffffffffffffffffffffffffffffffffffffffffffffffffffffffffffff820361107a57611079611011565b5b600182019050919050565b7f4e487b71000000000000000000000000000000000000000000000000000000005f52604160045260245ffd5b5f819050815f5260205f209050919050565b5f6020601f8301049050919050565b5f82821b905092915050565b5f6008830261110e7fffffffffffffffffffffffffffffffffffffffffffffffffffffffffffffffff826110d3565b61111886836110d3565b95508019841693508086168417925050509392505050565b5f819050919050565b5f61115361114e61114984610a93565b611130565b610a93565b9050919050565b5f819050919050565b61116c83611139565b6111806111788261115a565b8484546110df565b825550505050565b5f5f905090565b611197611188565b6111a2818484611163565b505050565b5f5b828110156111c8576111bd5f82840161118f565b6001810190506111a9565b505050565b601f82111561121b578282111561121a576111e7816110b2565b6111f0836110c4565b6111f9856110c4565b6020861015611206575f90505b808301611215828403826111a7565b505050505b5b505050565b5f82821c905092915050565b5f61123b5f1984600802611220565b1980831691505092915050565b5f611253838361122c565b9150826002028217905092915050565b61126c82610b61565b67ffffffffffffffff81111561128557611284611085565b5b61128f8254610f53565b61129a8282856111cd565b5f60209050601f8311600181146112cb575f84156112b9578287015190505b6112c38582611248565b86555061132a565b601f1984166112d9866110b2565b5f5b82811015611300578489015182556001820191506020850194506020810190506112db565b8683101561131d5784890151611319601f89168261122c565b8355505b6001600288020188555050505b505050505050565b828183375f83830152505050565b5f61134b8385610e88565b9350611358838584611332565b61136183610b89565b840190509392505050565b5f6060820190508181035f830152611385818789611340565b9050818103602083015261139a818587611340565b90506113a96040830184610e60565b969550505050505056fea2646970667358221220cf88accc9c0985bfa19588ab7f581821d73c8ab5118069a73c3249c1b939b31164736f6c63430008220033",
					"opcodes": "PUSH1 0x80 PUSH1 0x40 MSTORE CALLVALUE DUP1 ISZERO PUSH1 0xE JUMPI PUSH0 PUSH0 REVERT JUMPDEST POP CALLER PUSH0 PUSH0 PUSH2 0x100 EXP DUP2 SLOAD DUP2 PUSH20 0xFFFFFFFFFFFFFFFFFFFFFFFFFFFFFFFFFFFFFFFF MUL NOT AND SWAP1 DUP4 PUSH20 0xFFFFFFFFFFFFFFFFFFFFFFFFFFFFFFFFFFFFFFFF AND MUL OR SWAP1 SSTORE POP PUSH1 0x1 DUP1 DUP2 SWAP1 SSTORE POP PUSH2 0x13E9 DUP1 PUSH2 0x62 PUSH0 CODECOPY PUSH0 RETURN INVALID PUSH1 0x80 PUSH1 0x40 MSTORE CALLVALUE DUP1 ISZERO PUSH2 0xF JUMPI PUSH0 PUSH0 REVERT JUMPDEST POP PUSH1 0x4 CALLDATASIZE LT PUSH2 0x86 JUMPI PUSH0 CALLDATALOAD PUSH1 0xE0 SHR DUP1 PUSH4 0x8DA5CB5B GT PUSH2 0x59 JUMPI DUP1 PUSH4 0x8DA5CB5B EQ PUSH2 0x122 JUMPI DUP1 PUSH4 0x974A0133 EQ PUSH2 0x140 JUMPI DUP1 PUSH4 0x9FFAA71E EQ PUSH2 0x170 JUMPI DUP1 PUSH4 0xFCAFD6A5 EQ PUSH2 0x1A0 JUMPI PUSH2 0x86 JUMP JUMPDEST DUP1 PUSH4 0x18B45238 EQ PUSH2 0x8A JUMPI DUP1 PUSH4 0x3A1B3D31 EQ PUSH2 0xA6 JUMPI DUP1 PUSH4 0x5AC44282 EQ PUSH2 0xC2 JUMPI DUP1 PUSH4 0x5CD349EF EQ PUSH2 0xF2 JUMPI JUMPDEST PUSH0 PUSH0 REVERT JUMPDEST PUSH2 0xA4 PUSH1 0x4 DUP1 CALLDATASIZE SUB DUP2 ADD SWAP1 PUSH2 0x9F SWAP2 SWAP1 PUSH2 0xA68 JUMP JUMPDEST PUSH2 0x1BC JUMP JUMPDEST STOP JUMPDEST PUSH2 0xC0 PUSH1 0x4 DUP1 CALLDATASIZE SUB DUP2 ADD SWAP1 PUSH2 0xBB SWAP2 SWAP1 PUSH2 0xAE9 JUMP JUMPDEST PUSH2 0x2E4 JUMP JUMPDEST STOP JUMPDEST PUSH2 0xDC PUSH1 0x4 DUP1 CALLDATASIZE SUB DUP2 ADD SWAP1 PUSH2 0xD7 SWAP2 SWAP1 PUSH2 0xB27 JUMP JUMPDEST PUSH2 0x324 JUMP JUMPDEST PUSH1 0x40 MLOAD PUSH2 0xE9 SWAP2 SWAP1 PUSH2 0xCF3 JUMP JUMPDEST PUSH1 0x40 MLOAD DUP1 SWAP2 SUB SWAP1 RETURN JUMPDEST PUSH2 0x10C PUSH1 0x4 DUP1 CALLDATASIZE SUB DUP2 ADD SWAP1 PUSH2 0x107 SWAP2 SWAP1 PUSH2 0xA68 JUMP JUMPDEST PUSH2 0x51C JUMP JUMPDEST PUSH1 0x40 MLOAD PUSH2 0x119 SWAP2 SWAP1 PUSH2 0xD2D JUMP JUMPDEST PUSH1 0x40 MLOAD DUP1 SWAP2 SUB SWAP1 RETURN JUMPDEST PUSH2 0x12A PUSH2 0x539 JUMP JUMPDEST PUSH1 0x40 MLOAD PUSH2 0x137 SWAP2 SWAP1 PUSH2 0xD55 JUMP JUMPDEST PUSH1 0x40 MLOAD DUP1 SWAP2 SUB SWAP1 RETURN JUMPDEST PUSH2 0x15A PUSH1 0x4 DUP1 CALLDATASIZE SUB DUP2 ADD SWAP1 PUSH2 0x155 SWAP2 SWAP1 PUSH2 0xDCF JUMP JUMPDEST PUSH2 0x55D JUMP JUMPDEST PUSH1 0x40 MLOAD PUSH2 0x167 SWAP2 SWAP1 PUSH2 0xE6F JUMP JUMPDEST PUSH1 0x40 MLOAD DUP1 SWAP2 SUB SWAP1 RETURN JUMPDEST PUSH2 0x18A PUSH1 0x4 DUP1 CALLDATASIZE SUB DUP2 ADD SWAP1 PUSH2 0x185 SWAP2 SWAP1 PUSH2 0xB27 JUMP JUMPDEST PUSH2 0x812 JUMP JUMPDEST PUSH1 0x40 MLOAD PUSH2 0x197 SWAP2 SWAP1 PUSH2 0xD2D JUMP JUMPDEST PUSH1 0x40 MLOAD DUP1 SWAP2 SUB SWAP1 RETURN JUMPDEST PUSH2 0x1BA PUSH1 0x4 DUP1 CALLDATASIZE SUB DUP2 ADD SWAP1 PUSH2 0x1B5 SWAP2 SWAP1 PUSH2 0xA68 JUMP JUMPDEST PUSH2 0x87D JUMP JUMPDEST STOP JUMPDEST PUSH0 PUSH0 SWAP1 SLOAD SWAP1 PUSH2 0x100 EXP SWAP1 DIV PUSH20 0xFFFFFFFFFFFFFFFFFFFFFFFFFFFFFFFFFFFFFFFF AND PUSH20 0xFFFFFFFFFFFFFFFFFFFFFFFFFFFFFFFFFFFFFFFF AND CALLER PUSH20 0xFFFFFFFFFFFFFFFFFFFFFFFFFFFFFFFFFFFFFFFF AND EQ PUSH2 0x24A JUMPI PUSH1 0x40 MLOAD PUSH32 0x8C379A000000000000000000000000000000000000000000000000000000000 DUP2 MSTORE PUSH1 0x4 ADD PUSH2 0x241 SWAP1 PUSH2 0xF08 JUMP JUMPDEST PUSH1 0x40 MLOAD DUP1 SWAP2 SUB SWAP1 REVERT JUMPDEST PUSH0 PUSH1 0x3 PUSH0 DUP4 PUSH20 0xFFFFFFFFFFFFFFFFFFFFFFFFFFFFFFFFFFFFFFFF AND PUSH20 0xFFFFFFFFFFFFFFFFFFFFFFFFFFFFFFFFFFFFFFFF AND DUP2 MSTORE PUSH1 0x20 ADD SWAP1 DUP2 MSTORE PUSH1 0x20 ADD PUSH0 KECCAK256 PUSH0 PUSH2 0x100 EXP DUP2 SLOAD DUP2 PUSH1 0xFF MUL NOT AND SWAP1 DUP4 ISZERO ISZERO MUL OR SWAP1 SSTORE POP DUP1 PUSH20 0xFFFFFFFFFFFFFFFFFFFFFFFFFFFFFFFFFFFFFFFF AND PUSH32 0xD45D196334D0D06EA301CC8B965DA9C0AFD7DD9BD61EBCF127F0575C45E7B46B PUSH1 0x40 MLOAD PUSH1 0x40 MLOAD DUP1 SWAP2 SUB SWAP1 LOG2 POP JUMP JUMPDEST DUP1 PUSH1 0x2 PUSH0 DUP5 DUP2 MSTORE PUSH1 0x20 ADD SWAP1 DUP2 MSTORE PUSH1 0x20 ADD PUSH0 KECCAK256 PUSH1 0x5 ADD PUSH1 0x14 PUSH2 0x100 EXP DUP2 SLOAD DUP2 PUSH1 0xFF MUL NOT AND SWAP1 DUP4 PUSH1 0x4 DUP2 GT ISZERO PUSH2 0x31B JUMPI PUSH2 0x31A PUSH2 0xBE0 JUMP JUMPDEST JUMPDEST MUL OR SWAP1 SSTORE POP POP POP JUMP JUMPDEST PUSH2 0x32C PUSH2 0x9A6 JUMP JUMPDEST PUSH1 0x2 PUSH0 DUP4 DUP2 MSTORE PUSH1 0x20 ADD SWAP1 DUP2 MSTORE PUSH1 0x20 ADD PUSH0 KECCAK256 PUSH1 0x40 MLOAD DUP1 PUSH1 0xE0 ADD PUSH1 0x40 MSTORE SWAP1 DUP2 PUSH0 DUP3 ADD SLOAD DUP2 MSTORE PUSH1 0x20 ADD PUSH1 0x1 DUP3 ADD DUP1 SLOAD PUSH2 0x361 SWAP1 PUSH2 0xF53 JUMP JUMPDEST DUP1 PUSH1 0x1F ADD PUSH1 0x20 DUP1 SWAP2 DIV MUL PUSH1 0x20 ADD PUSH1 0x40 MLOAD SWAP1 DUP2 ADD PUSH1 0x40 MSTORE DUP1 SWAP3 SWAP2 SWAP1 DUP2 DUP2 MSTORE PUSH1 0x20 ADD DUP3 DUP1 SLOAD PUSH2 0x38D SWAP1 PUSH2 0xF53 JUMP JUMPDEST DUP1 ISZERO PUSH2 0x3D8 JUMPI DUP1 PUSH1 0x1F LT PUSH2 0x3AF JUMPI PUSH2 0x100 DUP1 DUP4 SLOAD DIV MUL DUP4 MSTORE SWAP2 PUSH1 0x20 ADD SWAP2 PUSH2 0x3D8 JUMP JUMPDEST DUP3 ADD SWAP2 SWAP1 PUSH0 MSTORE PUSH1 0x20 PUSH0 KECCAK256 SWAP1 JUMPDEST DUP2 SLOAD DUP2 MSTORE SWAP1 PUSH1 0x1 ADD SWAP1 PUSH1 0x20 ADD DUP1 DUP4 GT PUSH2 0x3BB JUMPI DUP3 SWAP1 SUB PUSH1 0x1F AND DUP3 ADD SWAP2 JUMPDEST POP POP POP POP POP DUP2 MSTORE PUSH1 0x20 ADD PUSH1 0x2 DUP3 ADD DUP1 SLOAD PUSH2 0x3F1 SWAP1 PUSH2 0xF53 JUMP JUMPDEST DUP1 PUSH1 0x1F ADD PUSH1 0x20 DUP1 SWAP2 DIV MUL PUSH1 0x20 ADD PUSH1 0x40 MLOAD SWAP1 DUP2 ADD PUSH1 0x40 MSTORE DUP1 SWAP3 SWAP2 SWAP1 DUP2 DUP2 MSTORE PUSH1 0x20 ADD DUP3 DUP1 SLOAD PUSH2 0x41D SWAP1 PUSH2 0xF53 JUMP JUMPDEST DUP1 ISZERO PUSH2 0x468 JUMPI DUP1 PUSH1 0x1F LT PUSH2 0x43F JUMPI PUSH2 0x100 DUP1 DUP4 SLOAD DIV MUL DUP4 MSTORE SWAP2 PUSH1 0x20 ADD SWAP2 PUSH2 0x468 JUMP JUMPDEST DUP3 ADD SWAP2 SWAP1 PUSH0 MSTORE PUSH1 0x20 PUSH0 KECCAK256 SWAP1 JUMPDEST DUP2 SLOAD DUP2 MSTORE SWAP1 PUSH1 0x1 ADD SWAP1 PUSH1 0x20 ADD DUP1 DUP4 GT PUSH2 0x44B JUMPI DUP3 SWAP1 SUB PUSH1 0x1F AND DUP3 ADD SWAP2 JUMPDEST POP POP POP POP POP DUP2 MSTORE PUSH1 0x20 ADD PUSH1 0x3 DUP3 ADD SLOAD DUP2 MSTORE PUSH1 0x20 ADD PUSH1 0x4 DUP3 ADD SLOAD DUP2 MSTORE PUSH1 0x20 ADD PUSH1 0x5 DUP3 ADD PUSH0 SWAP1 SLOAD SWAP1 PUSH2 0x100 EXP SWAP1 DIV PUSH20 0xFFFFFFFFFFFFFFFFFFFFFFFFFFFFFFFFFFFFFFFF AND PUSH20 0xFFFFFFFFFFFFFFFFFFFFFFFFFFFFFFFFFFFFFFFF AND PUSH20 0xFFFFFFFFFFFFFFFFFFFFFFFFFFFFFFFFFFFFFFFF AND DUP2 MSTORE PUSH1 0x20 ADD PUSH1 0x5 DUP3 ADD PUSH1 0x14 SWAP1 SLOAD SWAP1 PUSH2 0x100 EXP SWAP1 DIV PUSH1 0xFF AND PUSH1 0x4 DUP2 GT ISZERO PUSH2 0x4FF JUMPI PUSH2 0x4FE PUSH2 0xBE0 JUMP JUMPDEST JUMPDEST PUSH1 0x4 DUP2 GT ISZERO PUSH2 0x511 JUMPI PUSH2 0x510 PUSH2 0xBE0 JUMP JUMPDEST JUMPDEST DUP2 MSTORE POP POP SWAP1 POP SWAP2 SWAP1 POP JUMP JUMPDEST PUSH1 0x3 PUSH1 0x20 MSTORE DUP1 PUSH0 MSTORE PUSH1 0x40 PUSH0 KECCAK256 PUSH0 SWAP2 POP SLOAD SWAP1 PUSH2 0x100 EXP SWAP1 DIV PUSH1 0xFF AND DUP2 JUMP JUMPDEST PUSH0 PUSH0 SWAP1 SLOAD SWAP1 PUSH2 0x100 EXP SWAP1 DIV PUSH20 0xFFFFFFFFFFFFFFFFFFFFFFFFFFFFFFFFFFFFFFFF AND DUP2 JUMP JUMPDEST PUSH0 PUSH1 0x3 PUSH0 CALLER PUSH20 0xFFFFFFFFFFFFFFFFFFFFFFFFFFFFFFFFFFFFFFFF AND PUSH20 0xFFFFFFFFFFFFFFFFFFFFFFFFFFFFFFFFFFFFFFFF AND DUP2 MSTORE PUSH1 0x20 ADD SWAP1 DUP2 MSTORE PUSH1 0x20 ADD PUSH0 KECCAK256 PUSH0 SWAP1 SLOAD SWAP1 PUSH2 0x100 EXP SWAP1 DIV PUSH1 0xFF AND PUSH2 0x5E7 JUMPI PUSH1 0x40 MLOAD PUSH32 0x8C379A000000000000000000000000000000000000000000000000000000000 DUP2 MSTORE PUSH1 0x4 ADD PUSH2 0x5DE SWAP1 PUSH2 0xFF3 JUMP JUMPDEST PUSH1 0x40 MLOAD DUP1 SWAP2 SUB SWAP1 REVERT JUMPDEST PUSH1 0x1 PUSH0 DUP2 SLOAD DUP1 SWAP3 SWAP2 SWAP1 PUSH2 0x5F9 SWAP1 PUSH2 0x103E JUMP JUMPDEST SWAP2 SWAP1 POP SSTORE SWAP1 POP PUSH1 0x40 MLOAD DUP1 PUSH1 0xE0 ADD PUSH1 0x40 MSTORE DUP1 DUP3 DUP2 MSTORE PUSH1 0x20 ADD DUP8 DUP8 DUP1 DUP1 PUSH1 0x1F ADD PUSH1 0x20 DUP1 SWAP2 DIV MUL PUSH1 0x20 ADD PUSH1 0x40 MLOAD SWAP1 DUP2 ADD PUSH1 0x40 MSTORE DUP1 SWAP4 SWAP3 SWAP2 SWAP1 DUP2 DUP2 MSTORE PUSH1 0x20 ADD DUP4 DUP4 DUP1 DUP3 DUP5 CALLDATACOPY PUSH0 DUP2 DUP5 ADD MSTORE PUSH1 0x1F NOT PUSH1 0x1F DUP3 ADD AND SWAP1 POP DUP1 DUP4 ADD SWAP3 POP POP POP POP POP POP POP DUP2 MSTORE PUSH1 0x20 ADD DUP6 DUP6 DUP1 DUP1 PUSH1 0x1F ADD PUSH1 0x20 DUP1 SWAP2 DIV MUL PUSH1 0x20 ADD PUSH1 0x40 MLOAD SWAP1 DUP2 ADD PUSH1 0x40 MSTORE DUP1 SWAP4 SWAP3 SWAP2 SWAP1 DUP2 DUP2 MSTORE PUSH1 0x20 ADD DUP4 DUP4 DUP1 DUP3 DUP5 CALLDATACOPY PUSH0 DUP2 DUP5 ADD MSTORE PUSH1 0x1F NOT PUSH1 0x1F DUP3 ADD AND SWAP1 POP DUP1 DUP4 ADD SWAP3 POP POP POP POP POP POP POP DUP2 MSTORE PUSH1 0x20 ADD TIMESTAMP DUP2 MSTORE PUSH1 0x20 ADD DUP4 DUP2 MSTORE PUSH1 0x20 ADD CALLER PUSH20 0xFFFFFFFFFFFFFFFFFFFFFFFFFFFFFFFFFFFFFFFF AND DUP2 MSTORE PUSH1 0x20 ADD PUSH0 PUSH1 0x4 DUP2 GT ISZERO PUSH2 0x6DD JUMPI PUSH2 0x6DC PUSH2 0xBE0 JUMP JUMPDEST JUMPDEST DUP2 MSTORE POP PUSH1 0x2 PUSH0 DUP4 DUP2 MSTORE PUSH1 0x20 ADD SWAP1 DUP2 MSTORE PUSH1 0x20 ADD PUSH0 KECCAK256 PUSH0 DUP3 ADD MLOAD DUP2 PUSH0 ADD SSTORE PUSH1 0x20 DUP3 ADD MLOAD DUP2 PUSH1 0x1 ADD SWAP1 DUP2 PUSH2 0x70E SWAP2 SWAP1 PUSH2 0x1263 JUMP JUMPDEST POP PUSH1 0x40 DUP3 ADD MLOAD DUP2 PUSH1 0x2 ADD SWAP1 DUP2 PUSH2 0x724 SWAP2 SWAP1 PUSH2 0x1263 JUMP JUMPDEST POP PUSH1 0x60 DUP3 ADD MLOAD DUP2 PUSH1 0x3 ADD SSTORE PUSH1 0x80 DUP3 ADD MLOAD DUP2 PUSH1 0x4 ADD SSTORE PUSH1 0xA0 DUP3 ADD MLOAD DUP2 PUSH1 0x5 ADD PUSH0 PUSH2 0x100 EXP DUP2 SLOAD DUP2 PUSH20 0xFFFFFFFFFFFFFFFFFFFFFFFFFFFFFFFFFFFFFFFF MUL NOT AND SWAP1 DUP4 PUSH20 0xFFFFFFFFFFFFFFFFFFFFFFFFFFFFFFFFFFFFFFFF AND MUL OR SWAP1 SSTORE POP PUSH1 0xC0 DUP3 ADD MLOAD DUP2 PUSH1 0x5 ADD PUSH1 0x14 PUSH2 0x100 EXP DUP2 SLOAD DUP2 PUSH1 0xFF MUL NOT AND SWAP1 DUP4 PUSH1 0x4 DUP2 GT ISZERO PUSH2 0x7AA JUMPI PUSH2 0x7A9 PUSH2 0xBE0 JUMP JUMPDEST JUMPDEST MUL OR SWAP1 SSTORE POP SWAP1 POP POP CALLER PUSH20 0xFFFFFFFFFFFFFFFFFFFFFFFFFFFFFFFFFFFFFFFF AND DUP2 PUSH32 0x6C37D25BE9F3BB0E66FD910D4AC625C47095962A099CDACD7996109AB335EB7E DUP9 DUP9 DUP9 DUP9 DUP9 PUSH1 0x40 MLOAD PUSH2 0x801 SWAP6 SWAP5 SWAP4 SWAP3 SWAP2 SWAP1 PUSH2 0x136C JUMP JUMPDEST PUSH1 0x40 MLOAD DUP1 SWAP2 SUB SWAP1 LOG3 SWAP6 SWAP5 POP POP POP POP POP JUMP JUMPDEST PUSH0 PUSH0 PUSH20 0xFFFFFFFFFFFFFFFFFFFFFFFFFFFFFFFFFFFFFFFF AND PUSH1 0x2 PUSH0 DUP5 DUP2 MSTORE PUSH1 0x20 ADD SWAP1 DUP2 MSTORE PUSH1 0x20 ADD PUSH0 KECCAK256 PUSH1 0x5 ADD PUSH0 SWAP1 SLOAD SWAP1 PUSH2 0x100 EXP SWAP1 DIV PUSH20 0xFFFFFFFFFFFFFFFFFFFFFFFFFFFFFFFFFFFFFFFF AND PUSH20 0xFFFFFFFFFFFFFFFFFFFFFFFFFFFFFFFFFFFFFFFF AND EQ ISZERO SWAP1 POP SWAP2 SWAP1 POP JUMP JUMPDEST PUSH0 PUSH0 SWAP1 SLOAD SWAP1 PUSH2 0x100 EXP SWAP1 DIV PUSH20 0xFFFFFFFFFFFFFFFFFFFFFFFFFFFFFFFFFFFFFFFF AND PUSH20 0xFFFFFFFFFFFFFFFFFFFFFFFFFFFFFFFFFFFFFFFF AND CALLER PUSH20 0xFFFFFFFFFFFFFFFFFFFFFFFFFFFFFFFFFFFFFFFF AND EQ PUSH2 0x90B JUMPI PUSH1 0x40 MLOAD PUSH32 0x8C379A000000000000000000000000000000000000000000000000000000000 DUP2 MSTORE PUSH1 0x4 ADD PUSH2 0x902 SWAP1 PUSH2 0xF08 JUMP JUMPDEST PUSH1 0x40 MLOAD DUP1 SWAP2 SUB SWAP1 REVERT JUMPDEST PUSH1 0x1 PUSH1 0x3 PUSH0 DUP4 PUSH20 0xFFFFFFFFFFFFFFFFFFFFFFFFFFFFFFFFFFFFFFFF AND PUSH20 0xFFFFFFFFFFFFFFFFFFFFFFFFFFFFFFFFFFFFFFFF AND DUP2 MSTORE PUSH1 0x20 ADD SWAP1 DUP2 MSTORE PUSH1 0x20 ADD PUSH0 KECCAK256 PUSH0 PUSH2 0x100 EXP DUP2 SLOAD DUP2 PUSH1 0xFF MUL NOT AND SWAP1 DUP4 ISZERO ISZERO MUL OR SWAP1 SSTORE POP DUP1 PUSH20 0xFFFFFFFFFFFFFFFFFFFFFFFFFFFFFFFFFFFFFFFF AND PUSH32 0xD0D91E7940AC19A4B21542AA4992CA33FC6A95967A0E9149CEA69C18960E95D6 PUSH1 0x40 MLOAD PUSH1 0x40 MLOAD DUP1 SWAP2 SUB SWAP1 LOG2 POP JUMP JUMPDEST PUSH1 0x40 MLOAD DUP1 PUSH1 0xE0 ADD PUSH1 0x40 MSTORE DUP1 PUSH0 DUP2 MSTORE PUSH1 0x20 ADD PUSH1 0x60 DUP2 MSTORE PUSH1 0x20 ADD PUSH1 0x60 DUP2 MSTORE PUSH1 0x20 ADD PUSH0 DUP2 MSTORE PUSH1 0x20 ADD PUSH0 DUP2 MSTORE PUSH1 0x20 ADD PUSH0 PUSH20 0xFFFFFFFFFFFFFFFFFFFFFFFFFFFFFFFFFFFFFFFF AND DUP2 MSTORE PUSH1 0x20 ADD PUSH0 PUSH1 0x4 DUP2 GT ISZERO PUSH2 0xA00 JUMPI PUSH2 0x9FF PUSH2 0xBE0 JUMP JUMPDEST JUMPDEST DUP2 MSTORE POP SWAP1 JUMP JUMPDEST PUSH0 PUSH0 REVERT JUMPDEST PUSH0 PUSH0 REVERT JUMPDEST PUSH0 PUSH20 0xFFFFFFFFFFFFFFFFFFFFFFFFFFFFFFFFFFFFFFFF DUP3 AND SWAP1 POP SWAP2 SWAP1 POP JUMP JUMPDEST PUSH0 PUSH2 0xA37 DUP3 PUSH2 0xA0E JUMP JUMPDEST SWAP1 POP SWAP2 SWAP1 POP JUMP JUMPDEST PUSH2 0xA47 DUP2 PUSH2 0xA2D JUMP JUMPDEST DUP2 EQ PUSH2 0xA51 JUMPI PUSH0 PUSH0 REVERT JUMPDEST POP JUMP JUMPDEST PUSH0 DUP2 CALLDATALOAD SWAP1 POP PUSH2 0xA62 DUP2 PUSH2 0xA3E JUMP JUMPDEST SWAP3 SWAP2 POP POP JUMP JUMPDEST PUSH0 PUSH1 0x20 DUP3 DUP5 SUB SLT ISZERO PUSH2 0xA7D JUMPI PUSH2 0xA7C PUSH2 0xA06 JUMP JUMPDEST JUMPDEST PUSH0 PUSH2 0xA8A DUP5 DUP3 DUP6 ADD PUSH2 0xA54 JUMP JUMPDEST SWAP2 POP POP SWAP3 SWAP2 POP POP JUMP JUMPDEST PUSH0 DUP2 SWAP1 POP SWAP2 SWAP1 POP JUMP JUMPDEST PUSH2 0xAA5 DUP2 PUSH2 0xA93 JUMP JUMPDEST DUP2 EQ PUSH2 0xAAF JUMPI PUSH0 PUSH0 REVERT JUMPDEST POP JUMP JUMPDEST PUSH0 DUP2 CALLDATALOAD SWAP1 POP PUSH2 0xAC0 DUP2 PUSH2 0xA9C JUMP JUMPDEST SWAP3 SWAP2 POP POP JUMP JUMPDEST PUSH1 0x5 DUP2 LT PUSH2 0xAD2 JUMPI PUSH0 PUSH0 REVERT JUMPDEST POP JUMP JUMPDEST PUSH0 DUP2 CALLDATALOAD SWAP1 POP PUSH2 0xAE3 DUP2 PUSH2 0xAC6 JUMP JUMPDEST SWAP3 SWAP2 POP POP JUMP JUMPDEST PUSH0 PUSH0 PUSH1 0x40 DUP4 DUP6 SUB SLT ISZERO PUSH2 0xAFF JUMPI PUSH2 0xAFE PUSH2 0xA06 JUMP JUMPDEST JUMPDEST PUSH0 PUSH2 0xB0C DUP6 DUP3 DUP7 ADD PUSH2 0xAB2 JUMP JUMPDEST SWAP3 POP POP PUSH1 0x20 PUSH2 0xB1D DUP6 DUP3 DUP7 ADD PUSH2 0xAD5 JUMP JUMPDEST SWAP2 POP POP SWAP3 POP SWAP3 SWAP1 POP JUMP JUMPDEST PUSH0 PUSH1 0x20 DUP3 DUP5 SUB SLT ISZERO PUSH2 0xB3C JUMPI PUSH2 0xB3B PUSH2 0xA06 JUMP JUMPDEST JUMPDEST PUSH0 PUSH2 0xB49 DUP5 DUP3 DUP6 ADD PUSH2 0xAB2 JUMP JUMPDEST SWAP2 POP POP SWAP3 SWAP2 POP POP JUMP JUMPDEST PUSH2 0xB5B DUP2 PUSH2 0xA93 JUMP JUMPDEST DUP3 MSTORE POP POP JUMP JUMPDEST PUSH0 DUP2 MLOAD SWAP1 POP SWAP2 SWAP1 POP JUMP JUMPDEST PUSH0 DUP3 DUP3 MSTORE PUSH1 0x20 DUP3 ADD SWAP1 POP SWAP3 SWAP2 POP POP JUMP JUMPDEST DUP3 DUP2 DUP4 MCOPY PUSH0 DUP4 DUP4 ADD MSTORE POP POP POP JUMP JUMPDEST PUSH0 PUSH1 0x1F NOT PUSH1 0x1F DUP4 ADD AND SWAP1 POP SWAP2 SWAP1 POP JUMP JUMPDEST PUSH0 PUSH2 0xBA3 DUP3 PUSH2 0xB61 JUMP JUMPDEST PUSH2 0xBAD DUP2 DUP6 PUSH2 0xB6B JUMP JUMPDEST SWAP4 POP PUSH2 0xBBD DUP2 DUP6 PUSH1 0x20 DUP7 ADD PUSH2 0xB7B JUMP JUMPDEST PUSH2 0xBC6 DUP2 PUSH2 0xB89 JUMP JUMPDEST DUP5 ADD SWAP2 POP POP SWAP3 SWAP2 POP POP JUMP JUMPDEST PUSH2 0xBDA DUP2 PUSH2 0xA2D JUMP JUMPDEST DUP3 MSTORE POP POP JUMP JUMPDEST PUSH32 0x4E487B7100000000000000000000000000000000000000000000000000000000 PUSH0 MSTORE PUSH1 0x21 PUSH1 0x4 MSTORE PUSH1 0x24 PUSH0 REVERT JUMPDEST PUSH1 0x5 DUP2 LT PUSH2 0xC1E JUMPI PUSH2 0xC1D PUSH2 0xBE0 JUMP JUMPDEST JUMPDEST POP JUMP JUMPDEST PUSH0 DUP2 SWAP1 POP PUSH2 0xC2E DUP3 PUSH2 0xC0D JUMP JUMPDEST SWAP2 SWAP1 POP JUMP JUMPDEST PUSH0 PUSH2 0xC3D DUP3 PUSH2 0xC21 JUMP JUMPDEST SWAP1 POP SWAP2 SWAP1 POP JUMP JUMPDEST PUSH2 0xC4D DUP2 PUSH2 0xC33 JUMP JUMPDEST DUP3 MSTORE POP POP JUMP JUMPDEST PUSH0 PUSH1 0xE0 DUP4 ADD PUSH0 DUP4 ADD MLOAD PUSH2 0xC68 PUSH0 DUP7 ADD DUP3 PUSH2 0xB52 JUMP JUMPDEST POP PUSH1 0x20 DUP4 ADD MLOAD DUP5 DUP3 SUB PUSH1 0x20 DUP7 ADD MSTORE PUSH2 0xC80 DUP3 DUP3 PUSH2 0xB99 JUMP JUMPDEST SWAP2 POP POP PUSH1 0x40 DUP4 ADD MLOAD DUP5 DUP3 SUB PUSH1 0x40 DUP7 ADD MSTORE PUSH2 0xC9A DUP3 DUP3 PUSH2 0xB99 JUMP JUMPDEST SWAP2 POP POP PUSH1 0x60 DUP4 ADD MLOAD PUSH2 0xCAF PUSH1 0x60 DUP7 ADD DUP3 PUSH2 0xB52 JUMP JUMPDEST POP PUSH1 0x80 DUP4 ADD MLOAD PUSH2 0xCC2 PUSH1 0x80 DUP7 ADD DUP3 PUSH2 0xB52 JUMP JUMPDEST POP PUSH1 0xA0 DUP4 ADD MLOAD PUSH2 0xCD5 PUSH1 0xA0 DUP7 ADD DUP3 PUSH2 0xBD1 JUMP JUMPDEST POP PUSH1 0xC0 DUP4 ADD MLOAD PUSH2 0xCE8 PUSH1 0xC0 DUP7 ADD DUP3 PUSH2 0xC44 JUMP JUMPDEST POP DUP1 SWAP2 POP POP SWAP3 SWAP2 POP POP JUMP JUMPDEST PUSH0 PUSH1 0x20 DUP3 ADD SWAP1 POP DUP2 DUP2 SUB PUSH0 DUP4 ADD MSTORE PUSH2 0xD0B DUP2 DUP5 PUSH2 0xC53 JUMP JUMPDEST SWAP1 POP SWAP3 SWAP2 POP POP JUMP JUMPDEST PUSH0 DUP2 ISZERO ISZERO SWAP1 POP SWAP2 SWAP1 POP JUMP JUMPDEST PUSH2 0xD27 DUP2 PUSH2 0xD13 JUMP JUMPDEST DUP3 MSTORE POP POP JUMP JUMPDEST PUSH0 PUSH1 0x20 DUP3 ADD SWAP1 POP PUSH2 0xD40 PUSH0 DUP4 ADD DUP5 PUSH2 0xD1E JUMP JUMPDEST SWAP3 SWAP2 POP POP JUMP JUMPDEST PUSH2 0xD4F DUP2 PUSH2 0xA2D JUMP JUMPDEST DUP3 MSTORE POP POP JUMP JUMPDEST PUSH0 PUSH1 0x20 DUP3 ADD SWAP1 POP PUSH2 0xD68 PUSH0 DUP4 ADD DUP5 PUSH2 0xD46 JUMP JUMPDEST SWAP3 SWAP2 POP POP JUMP JUMPDEST PUSH0 PUSH0 REVERT JUMPDEST PUSH0 PUSH0 REVERT JUMPDEST PUSH0 PUSH0 REVERT JUMPDEST PUSH0 PUSH0 DUP4 PUSH1 0x1F DUP5 ADD SLT PUSH2 0xD8F JUMPI PUSH2 0xD8E PUSH2 0xD6E JUMP JUMPDEST JUMPDEST DUP3 CALLDATALOAD SWAP1 POP PUSH8 0xFFFFFFFFFFFFFFFF DUP2 GT ISZERO PUSH2 0xDAC JUMPI PUSH2 0xDAB PUSH2 0xD72 JUMP JUMPDEST JUMPDEST PUSH1 0x20 DUP4 ADD SWAP2 POP DUP4 PUSH1 0x1 DUP3 MUL DUP4 ADD GT ISZERO PUSH2 0xDC8 JUMPI PUSH2 0xDC7 PUSH2 0xD76 JUMP JUMPDEST JUMPDEST SWAP3 POP SWAP3 SWAP1 POP JUMP JUMPDEST PUSH0 PUSH0 PUSH0 PUSH0 PUSH0 PUSH1 0x60 DUP7 DUP9 SUB SLT ISZERO PUSH2 0xDE8 JUMPI PUSH2 0xDE7 PUSH2 0xA06 JUMP JUMPDEST JUMPDEST PUSH0 DUP7 ADD CALLDATALOAD PUSH8 0xFFFFFFFFFFFFFFFF DUP2 GT ISZERO PUSH2 0xE05 JUMPI PUSH2 0xE04 PUSH2 0xA0A JUMP JUMPDEST JUMPDEST PUSH2 0xE11 DUP9 DUP3 DUP10 ADD PUSH2 0xD7A JUMP JUMPDEST SWAP6 POP SWAP6 POP POP PUSH1 0x20 DUP7 ADD CALLDATALOAD PUSH8 0xFFFFFFFFFFFFFFFF DUP2 GT ISZERO PUSH2 0xE34 JUMPI PUSH2 0xE33 PUSH2 0xA0A JUMP JUMPDEST JUMPDEST PUSH2 0xE40 DUP9 DUP3 DUP10 ADD PUSH2 0xD7A JUMP JUMPDEST SWAP4 POP SWAP4 POP POP PUSH1 0x40 PUSH2 0xE53 DUP9 DUP3 DUP10 ADD PUSH2 0xAB2 JUMP JUMPDEST SWAP2 POP POP SWAP3 SWAP6 POP SWAP3 SWAP6 SWAP1 SWAP4 POP JUMP JUMPDEST PUSH2 0xE69 DUP2 PUSH2 0xA93 JUMP JUMPDEST DUP3 MSTORE POP POP JUMP JUMPDEST PUSH0 PUSH1 0x20 DUP3 ADD SWAP1 POP PUSH2 0xE82 PUSH0 DUP4 ADD DUP5 PUSH2 0xE60 JUMP JUMPDEST SWAP3 SWAP2 POP POP JUMP JUMPDEST PUSH0 DUP3 DUP3 MSTORE PUSH1 0x20 DUP3 ADD SWAP1 POP SWAP3 SWAP2 POP POP JUMP JUMPDEST PUSH32 0x4D696E74436F6E74726163743A2063616C6C6572206973206E6F74206F776E65 PUSH0 DUP3 ADD MSTORE PUSH32 0x7200000000000000000000000000000000000000000000000000000000000000 PUSH1 0x20 DUP3 ADD MSTORE POP JUMP JUMPDEST PUSH0 PUSH2 0xEF2 PUSH1 0x21 DUP4 PUSH2 0xE88 JUMP JUMPDEST SWAP2 POP PUSH2 0xEFD DUP3 PUSH2 0xE98 JUMP JUMPDEST PUSH1 0x40 DUP3 ADD SWAP1 POP SWAP2 SWAP1 POP JUMP JUMPDEST PUSH0 PUSH1 0x20 DUP3 ADD SWAP1 POP DUP2 DUP2 SUB PUSH0 DUP4 ADD MSTORE PUSH2 0xF1F DUP2 PUSH2 0xEE6 JUMP JUMPDEST SWAP1 POP SWAP2 SWAP1 POP JUMP JUMPDEST PUSH32 0x4E487B7100000000000000000000000000000000000000000000000000000000 PUSH0 MSTORE PUSH1 0x22 PUSH1 0x4 MSTORE PUSH1 0x24 PUSH0 REVERT JUMPDEST PUSH0 PUSH1 0x2 DUP3 DIV SWAP1 POP PUSH1 0x1 DUP3 AND DUP1 PUSH2 0xF6A JUMPI PUSH1 0x7F DUP3 AND SWAP2 POP JUMPDEST PUSH1 0x20 DUP3 LT DUP2 SUB PUSH2 0xF7D JUMPI PUSH2 0xF7C PUSH2 0xF26 JUMP JUMPDEST JUMPDEST POP SWAP2 SWAP1 POP JUMP JUMPDEST PUSH32 0x4D696E74436F6E74726163743A2063616C6C6572206973206E6F7420616E2061 PUSH0 DUP3 ADD MSTORE PUSH32 0x7574686F7269736564206D616E75666163747572657200000000000000000000 PUSH1 0x20 DUP3 ADD MSTORE POP JUMP JUMPDEST PUSH0 PUSH2 0xFDD PUSH1 0x36 DUP4 PUSH2 0xE88 JUMP JUMPDEST SWAP2 POP PUSH2 0xFE8 DUP3 PUSH2 0xF83 JUMP JUMPDEST PUSH1 0x40 DUP3 ADD SWAP1 POP SWAP2 SWAP1 POP JUMP JUMPDEST PUSH0 PUSH1 0x20 DUP3 ADD SWAP1 POP DUP2 DUP2 SUB PUSH0 DUP4 ADD MSTORE PUSH2 0x100A DUP2 PUSH2 0xFD1 JUMP JUMPDEST SWAP1 POP SWAP2 SWAP1 POP JUMP JUMPDEST PUSH32 0x4E487B7100000000000000000000000000000000000000000000000000000000 PUSH0 MSTORE PUSH1 0x11 PUSH1 0x4 MSTORE PUSH1 0x24 PUSH0 REVERT JUMPDEST PUSH0 PUSH2 0x1048 DUP3 PUSH2 0xA93 JUMP JUMPDEST SWAP2 POP PUSH32 0xFFFFFFFFFFFFFFFFFFFFFFFFFFFFFFFFFFFFFFFFFFFFFFFFFFFFFFFFFFFFFFFF DUP3 SUB PUSH2 0x107A JUMPI PUSH2 0x1079 PUSH2 0x1011 JUMP JUMPDEST JUMPDEST PUSH1 0x1 DUP3 ADD SWAP1 POP SWAP2 SWAP1 POP JUMP JUMPDEST PUSH32 0x4E487B7100000000000000000000000000000000000000000000000000000000 PUSH0 MSTORE PUSH1 0x41 PUSH1 0x4 MSTORE PUSH1 0x24 PUSH0 REVERT JUMPDEST PUSH0 DUP2 SWAP1 POP DUP2 PUSH0 MSTORE PUSH1 0x20 PUSH0 KECCAK256 SWAP1 POP SWAP2 SWAP1 POP JUMP JUMPDEST PUSH0 PUSH1 0x20 PUSH1 0x1F DUP4 ADD DIV SWAP1 POP SWAP2 SWAP1 POP JUMP JUMPDEST PUSH0 DUP3 DUP3 SHL SWAP1 POP SWAP3 SWAP2 POP POP JUMP JUMPDEST PUSH0 PUSH1 0x8 DUP4 MUL PUSH2 0x110E PUSH32 0xFFFFFFFFFFFFFFFFFFFFFFFFFFFFFFFFFFFFFFFFFFFFFFFFFFFFFFFFFFFFFFFF DUP3 PUSH2 0x10D3 JUMP JUMPDEST PUSH2 0x1118 DUP7 DUP4 PUSH2 0x10D3 JUMP JUMPDEST SWAP6 POP DUP1 NOT DUP5 AND SWAP4 POP DUP1 DUP7 AND DUP5 OR SWAP3 POP POP POP SWAP4 SWAP3 POP POP POP JUMP JUMPDEST PUSH0 DUP2 SWAP1 POP SWAP2 SWAP1 POP JUMP JUMPDEST PUSH0 PUSH2 0x1153 PUSH2 0x114E PUSH2 0x1149 DUP5 PUSH2 0xA93 JUMP JUMPDEST PUSH2 0x1130 JUMP JUMPDEST PUSH2 0xA93 JUMP JUMPDEST SWAP1 POP SWAP2 SWAP1 POP JUMP JUMPDEST PUSH0 DUP2 SWAP1 POP SWAP2 SWAP1 POP JUMP JUMPDEST PUSH2 0x116C DUP4 PUSH2 0x1139 JUMP JUMPDEST PUSH2 0x1180 PUSH2 0x1178 DUP3 PUSH2 0x115A JUMP JUMPDEST DUP5 DUP5 SLOAD PUSH2 0x10DF JUMP JUMPDEST DUP3 SSTORE POP POP POP POP JUMP JUMPDEST PUSH0 PUSH0 SWAP1 POP SWAP1 JUMP JUMPDEST PUSH2 0x1197 PUSH2 0x1188 JUMP JUMPDEST PUSH2 0x11A2 DUP2 DUP5 DUP5 PUSH2 0x1163 JUMP JUMPDEST POP POP POP JUMP JUMPDEST PUSH0 JUMPDEST DUP3 DUP2 LT ISZERO PUSH2 0x11C8 JUMPI PUSH2 0x11BD PUSH0 DUP3 DUP5 ADD PUSH2 0x118F JUMP JUMPDEST PUSH1 0x1 DUP2 ADD SWAP1 POP PUSH2 0x11A9 JUMP JUMPDEST POP POP POP JUMP JUMPDEST PUSH1 0x1F DUP3 GT ISZERO PUSH2 0x121B JUMPI DUP3 DUP3 GT ISZERO PUSH2 0x121A JUMPI PUSH2 0x11E7 DUP2 PUSH2 0x10B2 JUMP JUMPDEST PUSH2 0x11F0 DUP4 PUSH2 0x10C4 JUMP JUMPDEST PUSH2 0x11F9 DUP6 PUSH2 0x10C4 JUMP JUMPDEST PUSH1 0x20 DUP7 LT ISZERO PUSH2 0x1206 JUMPI PUSH0 SWAP1 POP JUMPDEST DUP1 DUP4 ADD PUSH2 0x1215 DUP3 DUP5 SUB DUP3 PUSH2 0x11A7 JUMP JUMPDEST POP POP POP POP JUMPDEST JUMPDEST POP POP POP JUMP JUMPDEST PUSH0 DUP3 DUP3 SHR SWAP1 POP SWAP3 SWAP2 POP POP JUMP JUMPDEST PUSH0 PUSH2 0x123B PUSH0 NOT DUP5 PUSH1 0x8 MUL PUSH2 0x1220 JUMP JUMPDEST NOT DUP1 DUP4 AND SWAP2 POP POP SWAP3 SWAP2 POP POP JUMP JUMPDEST PUSH0 PUSH2 0x1253 DUP4 DUP4 PUSH2 0x122C JUMP JUMPDEST SWAP2 POP DUP3 PUSH1 0x2 MUL DUP3 OR SWAP1 POP SWAP3 SWAP2 POP POP JUMP JUMPDEST PUSH2 0x126C DUP3 PUSH2 0xB61 JUMP JUMPDEST PUSH8 0xFFFFFFFFFFFFFFFF DUP2 GT ISZERO PUSH2 0x1285 JUMPI PUSH2 0x1284 PUSH2 0x1085 JUMP JUMPDEST JUMPDEST PUSH2 0x128F DUP3 SLOAD PUSH2 0xF53 JUMP JUMPDEST PUSH2 0x129A DUP3 DUP3 DUP6 PUSH2 0x11CD JUMP JUMPDEST PUSH0 PUSH1 0x20 SWAP1 POP PUSH1 0x1F DUP4 GT PUSH1 0x1 DUP2 EQ PUSH2 0x12CB JUMPI PUSH0 DUP5 ISZERO PUSH2 0x12B9 JUMPI DUP3 DUP8 ADD MLOAD SWAP1 POP JUMPDEST PUSH2 0x12C3 DUP6 DUP3 PUSH2 0x1248 JUMP JUMPDEST DUP7 SSTORE POP PUSH2 0x132A JUMP JUMPDEST PUSH1 0x1F NOT DUP5 AND PUSH2 0x12D9 DUP7 PUSH2 0x10B2 JUMP JUMPDEST PUSH0 JUMPDEST DUP3 DUP2 LT ISZERO PUSH2 0x1300 JUMPI DUP5 DUP10 ADD MLOAD DUP3 SSTORE PUSH1 0x1 DUP3 ADD SWAP2 POP PUSH1 0x20 DUP6 ADD SWAP5 POP PUSH1 0x20 DUP2 ADD SWAP1 POP PUSH2 0x12DB JUMP JUMPDEST DUP7 DUP4 LT ISZERO PUSH2 0x131D JUMPI DUP5 DUP10 ADD MLOAD PUSH2 0x1319 PUSH1 0x1F DUP10 AND DUP3 PUSH2 0x122C JUMP JUMPDEST DUP4 SSTORE POP JUMPDEST PUSH1 0x1 PUSH1 0x2 DUP9 MUL ADD DUP9 SSTORE POP POP POP JUMPDEST POP POP POP POP POP POP JUMP JUMPDEST DUP3 DUP2 DUP4 CALLDATACOPY PUSH0 DUP4 DUP4 ADD MSTORE POP POP POP JUMP JUMPDEST PUSH0 PUSH2 0x134B DUP4 DUP6 PUSH2 0xE88 JUMP JUMPDEST SWAP4 POP PUSH2 0x1358 DUP4 DUP6 DUP5 PUSH2 0x1332 JUMP JUMPDEST PUSH2 0x1361 DUP4 PUSH2 0xB89 JUMP JUMPDEST DUP5 ADD SWAP1 POP SWAP4 SWAP3 POP POP POP JUMP JUMPDEST PUSH0 PUSH1 0x60 DUP3 ADD SWAP1 POP DUP2 DUP2 SUB PUSH0 DUP4 ADD MSTORE PUSH2 0x1385 DUP2 DUP8 DUP10 PUSH2 0x1340 JUMP JUMPDEST SWAP1 POP DUP2 DUP2 SUB PUSH1 0x20 DUP4 ADD MSTORE PUSH2 0x139A DUP2 DUP6 DUP8 PUSH2 0x1340 JUMP JUMPDEST SWAP1 POP PUSH2 0x13A9 PUSH1 0x40 DUP4 ADD DUP5 PUSH2 0xE60 JUMP JUMPDEST SWAP7 SWAP6 POP POP POP POP POP POP JUMP INVALID LOG2 PUSH5 0x6970667358 0x22 SLT KECCAK256 0xCF DUP9 0xAC 0xCC SWAP13 MULMOD DUP6 0xBF LOG1 SWAP6 DUP9 0xAB PUSH32 0x581821D73C8AB5118069A73C3249C1B939B31164736F6C634300082200330000 "
				},
				"gasEstimates": {
					"creation": {
						"codeDepositCost": "1019400",
						"executionCost": "47437",
						"totalCost": "1066837"
					},
					"external": {
						"authoriseManufacturer(address)": "28198",
						"authorisedManufacturers(address)": "2900",
						"batchExists(uint256)": "2880",
						"getBatch(uint256)": "infinite",
						"mintBatch(string,string,uint256)": "infinite",
						"owner()": "2507",
						"revokeManufacturer(address)": "28132",
						"updateStatus(uint256,uint8)": "24971"
					}
				},
				"methodIdentifiers": {
					"authoriseManufacturer(address)": "fcafd6a5",
					"authorisedManufacturers(address)": "5cd349ef",
					"batchExists(uint256)": "9ffaa71e",
					"getBatch(uint256)": "5ac44282",
					"mintBatch(string,string,uint256)": "974a0133",
					"owner()": "8da5cb5b",
					"revokeManufacturer(address)": "18b45238",
					"updateStatus(uint256,uint8)": "3a1b3d31"
				}
			},
			"storageLayout": {
				"storage": [
					{
						"astId": 468,
						"contract": "contracts/MintContract.sol:MintContract",
						"label": "owner",
						"offset": 0,
						"slot": "0",
						"type": "t_address"
					},
					{
						"astId": 471,
						"contract": "contracts/MintContract.sol:MintContract",
						"label": "_nextTokenId",
						"offset": 0,
						"slot": "1",
						"type": "t_uint256"
					},
					{
						"astId": 477,
						"contract": "contracts/MintContract.sol:MintContract",
						"label": "_batches",
						"offset": 0,
						"slot": "2",
						"type": "t_mapping(t_uint256,t_struct(BatchData)25_storage)"
					},
					{
						"astId": 482,
						"contract": "contracts/MintContract.sol:MintContract",
						"label": "authorisedManufacturers",
						"offset": 0,
						"slot": "3",
						"type": "t_mapping(t_address,t_bool)"
					}
				],
				"types": {
					"t_address": {
						"encoding": "inplace",
						"label": "address",
						"numberOfBytes": "20"
					},
					"t_bool": {
						"encoding": "inplace",
						"label": "bool",
						"numberOfBytes": "1"
					},
					"t_enum(BatchStatus)8": {
						"encoding": "inplace",
						"label": "enum BatchStatus",
						"numberOfBytes": "1"
					},
					"t_mapping(t_address,t_bool)": {
						"encoding": "mapping",
						"key": "t_address",
						"label": "mapping(address => bool)",
						"numberOfBytes": "32",
						"value": "t_bool"
					},
					"t_mapping(t_uint256,t_struct(BatchData)25_storage)": {
						"encoding": "mapping",
						"key": "t_uint256",
						"label": "mapping(uint256 => struct BatchData)",
						"numberOfBytes": "32",
						"value": "t_struct(BatchData)25_storage"
					},
					"t_string_storage": {
						"encoding": "bytes",
						"label": "string",
						"numberOfBytes": "32"
					},
					"t_struct(BatchData)25_storage": {
						"encoding": "inplace",
						"label": "struct BatchData",
						"members": [
							{
								"astId": 11,
								"contract": "contracts/MintContract.sol:MintContract",
								"label": "tokenId",
								"offset": 0,
								"slot": "0",
								"type": "t_uint256"
							},
							{
								"astId": 13,
								"contract": "contracts/MintContract.sol:MintContract",
								"label": "medicineName",
								"offset": 0,
								"slot": "1",
								"type": "t_string_storage"
							},
							{
								"astId": 15,
								"contract": "contracts/MintContract.sol:MintContract",
								"label": "batchNumber",
								"offset": 0,
								"slot": "2",
								"type": "t_string_storage"
							},
							{
								"astId": 17,
								"contract": "contracts/MintContract.sol:MintContract",
								"label": "manufactureDate",
								"offset": 0,
								"slot": "3",
								"type": "t_uint256"
							},
							{
								"astId": 19,
								"contract": "contracts/MintContract.sol:MintContract",
								"label": "expiryDate",
								"offset": 0,
								"slot": "4",
								"type": "t_uint256"
							},
							{
								"astId": 21,
								"contract": "contracts/MintContract.sol:MintContract",
								"label": "manufacturer",
								"offset": 0,
								"slot": "5",
								"type": "t_address"
							},
							{
								"astId": 24,
								"contract": "contracts/MintContract.sol:MintContract",
								"label": "status",
								"offset": 20,
								"slot": "5",
								"type": "t_enum(BatchStatus)8"
							}
						],
						"numberOfBytes": "192"
					},
					"t_uint256": {
						"encoding": "inplace",
						"label": "uint256",
						"numberOfBytes": "32"
					}
				}
			},
			"userdoc": {
				"kind": "user",
				"methods": {
					"authoriseManufacturer(address)": {
						"notice": "Grants manufacturer role to an address."
					},
					"authorisedManufacturers(address)": {
						"notice": "Tracks which addresses are authorised manufacturers"
					},
					"batchExists(uint256)": {
						"notice": "Returns true if a tokenId has been minted (exists in the registry)."
					},
					"getBatch(uint256)": {
						"notice": "Returns the full BatchData struct for a given tokenId."
					},
					"mintBatch(string,string,uint256)": {
						"notice": "Mints a new batch token representing a pharmaceutical product batch."
					},
					"owner()": {
						"notice": "Contract owner — set in constructor, used to authorise manufacturers"
					},
					"revokeManufacturer(address)": {
						"notice": "Revokes manufacturer role from an address."
					},
					"updateStatus(uint256,uint8)": {
						"notice": "Allows the ControlContract to update the status of a batch."
					}
				},
				"notice": "Handles minting of pharmaceutical batch tokens.         Only authorised manufacturers may mint new batches.",
				"version": 1
			}
		}
	}
}