{
	"contracts/ControlContract.sol": {
		"ControlContract": {
			"abi": [
				{
					"inputs": [
						{
							"internalType": "address",
							"name": "mintContractAddress",
							"type": "address"
						}
					],
					"stateMutability": "nonpayable",
					"type": "constructor"
				},
				{
					"anonymous": false,
					"inputs": [
						{
							"indexed": true,
							"internalType": "uint256",
							"name": "tokenId",
							"type": "uint256"
						},
						{
							"indexed": true,
							"internalType": "address",
							"name": "receiver",
							"type": "address"
						},
						{
							"indexed": false,
							"internalType": "uint256",
							"name": "timestamp",
							"type": "uint256"
						}
					],
					"name": "BatchReceived",
					"type": "event"
				},
				{
					"anonymous": false,
					"inputs": [
						{
							"indexed": true,
							"internalType": "uint256",
							"name": "tokenId",
							"type": "uint256"
						},
						{
							"indexed": true,
							"internalType": "address",
							"name": "manufacturer",
							"type": "address"
						},
						{
							"indexed": true,
							"internalType": "address",
							"name": "distributor",
							"type": "address"
						},
						{
							"indexed": false,
							"internalType": "uint256",
							"name": "timestamp",
							"type": "uint256"
						}
					],
					"name": "BatchReleased",
					"type": "event"
				},
				{
					"anonymous": false,
					"inputs": [
						{
							"indexed": true,
							"internalType": "uint256",
							"name": "tokenId",
							"type": "uint256"
						},
						{
							"indexed": true,
							"internalType": "address",
							"name": "distributor",
							"type": "address"
						},
						{
							"indexed": true,
							"internalType": "address",
							"name": "recipient",
							"type": "address"
						},
						{
							"indexed": false,
							"internalType": "string",
							"name": "notes",
							"type": "string"
						},
						{
							"indexed": false,
							"internalType": "uint256",
							"name": "timestamp",
							"type": "uint256"
						}
					],
					"name": "BatchShipped",
					"type": "event"
				},
				{
					"inputs": [
						{
							"internalType": "address",
							"name": "distributor",
							"type": "address"
						}
					],
					"name": "authoriseDistributor",
					"outputs": [],
					"stateMutability": "nonpayable",
					"type": "function"
				},
				{
					"inputs": [
						{
							"internalType": "address",
							"name": "pharmacy",
							"type": "address"
						}
					],
					"name": "authorisePharmacy",
					"outputs": [],
					"stateMutability": "nonpayable",
					"type": "function"
				},
				{
					"inputs": [
						{
							"internalType": "address",
							"name": "",
							"type": "address"
						}
					],
					"name": "authorisedDistributors",
					"outputs": [
						{
							"internalType": "bool",
							"name": "",
							"type": "bool"
						}
					],
					"stateMutability": "view",
					"type": "function"
				},
				{
					"inputs": [
						{
							"internalType": "address",
							"name": "",
							"type": "address"
						}
					],
					"name": "authorisedPharmacies",
					"outputs": [
						{
							"internalType": "bool",
							"name": "",
							"type": "bool"
						}
					],
					"stateMutability": "view",
					"type": "function"
				},
				{
					"inputs": [
						{
							"internalType": "uint256",
							"name": "",
							"type": "uint256"
						}
					],
					"name": "currentCustodian",
					"outputs": [
						{
							"internalType": "address",
							"name": "",
							"type": "address"
						}
					],
					"stateMutability": "view",
					"type": "function"
				},
				{
					"inputs": [
						{
							"internalType": "uint256",
							"name": "tokenId",
							"type": "uint256"
						}
					],
					"name": "getCustodyHistory",
					"outputs": [
						{
							"components": [
								{
									"internalType": "address",
									"name": "from",
									"type": "address"
								},
								{
									"internalType": "address",
									"name": "to",
									"type": "address"
								},
								{
									"internalType": "enum BatchStatus",
									"name": "status",
									"type": "uint8"
								},
								{
									"internalType": "uint256",
									"name": "timestamp",
									"type": "uint256"
								},
								{
									"internalType": "string",
									"name": "notes",
									"type": "string"
								}
							],
							"internalType": "struct CustodyRecord[]",
							"name": "",
							"type": "tuple[]"
						}
					],
					"stateMutability": "view",
					"type": "function"
				},
				{
					"inputs": [],
					"name": "mintContract",
					"outputs": [
						{
							"internalType": "contract MintContract",
							"name": "",
							"type": "address"
						}
					],
					"stateMutability": "view",
					"type": "function"
				},
				{
					"inputs": [],
					"name": "owner",
					"outputs": [
						{
							"internalType": "address",
							"name": "",
							"type": "address"
						}
					],
					"stateMutability": "view",
					"type": "function"
				},
				{
					"inputs": [
						{
							"internalType": "uint256",
							"name": "tokenId",
							"type": "uint256"
						}
					],
					"name": "receipt",
					"outputs": [],
					"stateMutability": "nonpayable",
					"type": "function"
				},
				{
					"inputs": [
						{
							"internalType": "uint256",
							"name": "tokenId",
							"type": "uint256"
						},
						{
							"internalType": "address",
							"name": "distributor",
							"type": "address"
						}
					],
					"name": "release",
					"outputs": [],
					"stateMutability": "nonpayable",
					"type": "function"
				},
				{
					"inputs": [
						{
							"internalType": "address",
							"name": "distributor",
							"type": "address"
						}
					],
					"name": "revokeDistributor",
					"outputs": [],
					"stateMutability": "nonpayable",
					"type": "function"
				},
				{
					"inputs": [
						{
							"internalType": "address",
							"name": "pharmacy",
							"type": "address"
						}
					],
					"name": "revokePharmacy",
					"outputs": [],
					"stateMutability": "nonpayable",
					"type": "function"
				},
				{
					"inputs": [
						{
							"internalType": "uint256",
							"name": "tokenId",
							"type": "uint256"
						},
						{
							"internalType": "address",
							"name": "recipient",
							"type": "address"
						},
						{
							"internalType": "string",
							"name": "notes",
							"type": "string"
						}
					],
					"name": "shipment",
					"outputs": [],
					"stateMutability": "nonpayable",
					"type": "function"
				}
			],
			"devdoc": {
				"details": "Each state-changing function:      1. Validates the caller's role      2. Validates the batch is in the correct preceding state      3. Updates the batch status via MintContract      4. Appends a CustodyRecord to the batch history      5. Emits an event",
				"kind": "dev",
				"methods": {
					"constructor": {
						"params": {
							"mintContractAddress": "The deployed address of the MintContract."
						}
					},
					"getCustodyHistory(uint256)": {
						"params": {
							"tokenId": "The batch to query."
						}
					},
					"receipt(uint256)": {
						"params": {
							"tokenId": "The batch token being received. TODO: Enforce that msg.sender == currentCustodian[tokenId]."
						}
					},
					"release(uint256,address)": {
						"details": "Preconditions:      - Batch must exist and have status Produced      - msg.sender must be the original manufacturer of the batch      - distributor must be an authorised distributor TODO: Validate that distributor address is authorised before proceeding. TODO: Validate that msg.sender matches batch.manufacturer (not just any manufacturer).",
						"params": {
							"distributor": "The distributor address receiving the batch.",
							"tokenId": "The batch token being released."
						}
					},
					"shipment(uint256,address,string)": {
						"params": {
							"notes": "Optional shipment notes (e.g. carrier ID, temperature log reference). TODO: Enforce that msg.sender == currentCustodian[tokenId]. TODO: Consider allowing multi-hop shipments (InTransit → InTransit).",
							"recipient": "The address of the pharmacy or hospital receiving the batch.",
							"tokenId": "The batch token being shipped."
						}
					}
				},
				"title": "ControlContract",
				"version": 1
			},
			"evm": {
				"assembly": "    /* \"contracts/ControlContract.sol\":758:9056  contract ControlContract {... */\n  mstore(0x40, 0x80)\n    /* \"contracts/ControlContract.sol\":3502:3639  constructor(address mintContractAddress) {... */\n  callvalue\n  dup1\n  iszero\n  tag_1\n  jumpi\n  revert(0x00, 0x00)\ntag_1:\n  pop\n  mload(0x40)\n  sub(codesize, bytecodeSize)\n  dup1\n  bytecodeSize\n  dup4\n  codecopy\n  dup2\n  dup2\n  add\n  0x40\n  mstore\n  dup2\n  add\n  swap1\n  tag_2\n  swap2\n  swap1\n  tag_3\n  jump\t// in\ntag_2:\n    /* \"contracts/ControlContract.sol\":3562:3572  msg.sender */\n  caller\n    /* \"contracts/ControlContract.sol\":3554:3559  owner */\n  0x01\n  0x00\n    /* \"contracts/ControlContract.sol\":3554:3572  owner = msg.sender */\n  0x0100\n  exp\n  dup2\n  sload\n  dup2\n  0xffffffffffffffffffffffffffffffffffffffff\n  mul\n  not\n  and\n  swap1\n  dup4\n  0xffffffffffffffffffffffffffffffffffffffff\n  and\n  mul\n  or\n  swap1\n  sstore\n  pop\n    /* \"contracts/ControlContract.sol\":3611:3630  mintContractAddress */\n  dup1\n    /* \"contracts/ControlContract.sol\":3583:3595  mintContract */\n  0x00\n  0x00\n    /* \"contracts/ControlContract.sol\":3583:3631  mintContract = MintContract(mintContractAddress) */\n  0x0100\n  exp\n  dup2\n  sload\n  dup2\n  0xffffffffffffffffffffffffffffffffffffffff\n  mul\n  not\n  and\n  swap1\n  dup4\n  0xffffffffffffffffffffffffffffffffffffffff\n  and\n  mul\n  or\n  swap1\n  sstore\n  pop\n    /* \"contracts/ControlContract.sol\":3502:3639  constructor(address mintContractAddress) {... */\n  pop\n    /* \"contracts/ControlContract.sol\":758:9056  contract ControlContract {... */\n  jump(tag_6)\n    /* \"#utility.yul\":88:205   */\ntag_8:\n    /* \"#utility.yul\":197:198   */\n  0x00\n    /* \"#utility.yul\":194:195   */\n  0x00\n    /* \"#utility.yul\":187:199   */\n  revert\n    /* \"#utility.yul\":334:460   */\ntag_10:\n    /* \"#utility.yul\":371:378   */\n  0x00\n    /* \"#utility.yul\":411:453   */\n  0xffffffffffffffffffffffffffffffffffffffff\n    /* \"#utility.yul\":404:409   */\n  dup3\n    /* \"#utility.yul\":400:454   */\n  and\n    /* \"#utility.yul\":389:454   */\n  swap1\n  pop\n    /* \"#utility.yul\":334:460   */\n  swap2\n  swap1\n  pop\n  jump\t// out\n    /* \"#utility.yul\":466:562   */\ntag_11:\n    /* \"#utility.yul\":503:510   */\n  0x00\n    /* \"#utility.yul\":532:556   */\n  tag_20\n    /* \"#utility.yul\":550:555   */\n  dup3\n    /* \"#utility.yul\":532:556   */\n  tag_10\n  jump\t// in\ntag_20:\n    /* \"#utility.yul\":521:556   */\n  swap1\n  pop\n    /* \"#utility.yul\":466:562   */\n  swap2\n  swap1\n  pop\n  jump\t// out\n    /* \"#utility.yul\":568:690   */\ntag_12:\n    /* \"#utility.yul\":641:665   */\n  tag_22\n    /* \"#utility.yul\":659:664   */\n  dup2\n    /* \"#utility.yul\":641:665   */\n  tag_11\n  jump\t// in\ntag_22:\n    /* \"#utility.yul\":634:639   */\n  dup2\n    /* \"#utility.yul\":631:666   */\n  eq\n    /* \"#utility.yul\":621:684   */\n  tag_23\n  jumpi\n    /* \"#utility.yul\":680:681   */\n  0x00\n    /* \"#utility.yul\":677:678   */\n  0x00\n    /* \"#utility.yul\":670:682   */\n  revert\n    /* \"#utility.yul\":621:684   */\ntag_23:\n    /* \"#utility.yul\":568:690   */\n  pop\n  jump\t// out\n    /* \"#utility.yul\":696:839   */\ntag_13:\n    /* \"#utility.yul\":753:758   */\n  0x00\n    /* \"#utility.yul\":784:790   */\n  dup2\n    /* \"#utility.yul\":778:791   */\n  mload\n    /* \"#utility.yul\":769:791   */\n  swap1\n  pop\n    /* \"#utility.yul\":800:833   */\n  tag_25\n    /* \"#utility.yul\":827:832   */\n  dup2\n    /* \"#utility.yul\":800:833   */\n  tag_12\n  jump\t// in\ntag_25:\n    /* \"#utility.yul\":696:839   */\n  swap3\n  swap2\n  pop\n  pop\n  jump\t// out\n    /* \"#utility.yul\":845:1196   */\ntag_3:\n    /* \"#utility.yul\":915:921   */\n  0x00\n    /* \"#utility.yul\":964:966   */\n  0x20\n    /* \"#utility.yul\":952:961   */\n  dup3\n    /* \"#utility.yul\":943:950   */\n  dup5\n    /* \"#utility.yul\":939:962   */\n  sub\n    /* \"#utility.yul\":935:967   */\n  slt\n    /* \"#utility.yul\":932:1051   */\n  iszero\n  tag_27\n  jumpi\n    /* \"#utility.yul\":970:1049   */\n  tag_28\n  tag_8\n  jump\t// in\ntag_28:\n    /* \"#utility.yul\":932:1051   */\ntag_27:\n    /* \"#utility.yul\":1090:1091   */\n  0x00\n    /* \"#utility.yul\":1115:1179   */\n  tag_29\n    /* \"#utility.yul\":1171:1178   */\n  dup5\n    /* \"#utility.yul\":1162:1168   */\n  dup3\n    /* \"#utility.yul\":1151:1160   */\n  dup6\n    /* \"#utility.yul\":1147:1169   */\n  add\n    /* \"#utility.yul\":1115:1179   */\n  tag_13\n  jump\t// in\ntag_29:\n    /* \"#utility.yul\":1105:1179   */\n  swap2\n  pop\n    /* \"#utility.yul\":1061:1189   */\n  pop\n    /* \"#utility.yul\":845:1196   */\n  swap3\n  swap2\n  pop\n  pop\n  jump\t// out\n    /* \"contracts/ControlContract.sol\":758:9056  contract ControlContract {... */\ntag_6:\n  dataSize(sub_0)\n  dup1\n  dataOffset(sub_0)\n  0x00\n  codecopy\n  0x00\n  return\nstop\n\nsub_0: assembly {\n        /* \"contracts/ControlContract.sol\":758:9056  contract ControlContract {... */\n      mstore(0x40, 0x80)\n      callvalue\n      dup1\n      iszero\n      tag_1\n      jumpi\n      revert(0x00, 0x00)\n    tag_1:\n      pop\n      jumpi(tag_2, lt(calldatasize, 0x04))\n      shr(0xe0, calldataload(0x00))\n      dup1\n      0x8ede37fa\n      gt\n      tag_16\n      jumpi\n      dup1\n      0xd0b6b6db\n      gt\n      tag_17\n      jumpi\n      dup1\n      0xd0b6b6db\n      eq\n      tag_12\n      jumpi\n      dup1\n      0xd75af31e\n      eq\n      tag_13\n      jumpi\n      dup1\n      0xe33de828\n      eq\n      tag_14\n      jumpi\n      dup1\n      0xf1d4bba9\n      eq\n      tag_15\n      jumpi\n      jump(tag_2)\n    tag_17:\n      dup1\n      0x8ede37fa\n      eq\n      tag_9\n      jumpi\n      dup1\n      0xa2aa4337\n      eq\n      tag_10\n      jumpi\n      dup1\n      0xb9897ce9\n      eq\n      tag_11\n      jumpi\n      jump(tag_2)\n    tag_16:\n      dup1\n      0x028e2b66\n      eq\n      tag_3\n      jumpi\n      dup1\n      0x120b93d3\n      eq\n      tag_4\n      jumpi\n      dup1\n      0x2eecacbf\n      eq\n      tag_5\n      jumpi\n      dup1\n      0x78e494d3\n      eq\n      tag_6\n      jumpi\n      dup1\n      0x8124fea6\n      eq\n      tag_7\n      jumpi\n      dup1\n      0x8da5cb5b\n      eq\n      tag_8\n      jumpi\n    tag_2:\n      revert(0x00, 0x00)\n        /* \"contracts/ControlContract.sol\":4332:4450  function revokePharmacy(address pharmacy) external onlyOwner {... */\n    tag_3:\n      tag_18\n      0x04\n      dup1\n      calldatasize\n      sub\n      dup2\n      add\n      swap1\n      tag_19\n      swap2\n      swap1\n      tag_20\n      jump\t// in\n    tag_19:\n      tag_21\n      jump\t// in\n    tag_18:\n      stop\n        /* \"contracts/ControlContract.sol\":4026:4155  function revokeDistributor(address distributor) external onlyOwner {... */\n    tag_4:\n      tag_22\n      0x04\n      dup1\n      calldatasize\n      sub\n      dup2\n      add\n      swap1\n      tag_23\n      swap2\n      swap1\n      tag_20\n      jump\t// in\n    tag_23:\n      tag_24\n      jump\t// in\n    tag_22:\n      stop\n        /* \"contracts/ControlContract.sol\":6404:7096  function shipment(uint256 tokenId, address recipient, string calldata notes)... */\n    tag_5:\n      tag_25\n      0x04\n      dup1\n      calldatasize\n      sub\n      dup2\n      add\n      swap1\n      tag_26\n      swap2\n      swap1\n      tag_27\n      jump\t// in\n    tag_26:\n      tag_28\n      jump\t// in\n    tag_25:\n      stop\n        /* \"contracts/ControlContract.sol\":1573:1624  mapping(uint256 => address) public currentCustodian */\n    tag_6:\n      tag_29\n      0x04\n      dup1\n      calldatasize\n      sub\n      dup2\n      add\n      swap1\n      tag_30\n      swap2\n      swap1\n      tag_31\n      jump\t// in\n    tag_30:\n      tag_32\n      jump\t// in\n    tag_29:\n      mload(0x40)\n      tag_33\n      swap2\n      swap1\n      tag_34\n      jump\t// in\n    tag_33:\n      mload(0x40)\n      dup1\n      swap2\n      sub\n      swap1\n      return\n        /* \"contracts/ControlContract.sol\":5287:5921  function release(uint256 tokenId, address distributor)... */\n    tag_7:\n      tag_35\n      0x04\n      dup1\n      calldatasize\n      sub\n      dup2\n      add\n      swap1\n      tag_36\n      swap2\n      swap1\n      tag_37\n      jump\t// in\n    tag_36:\n      tag_38\n      jump\t// in\n    tag_35:\n      stop\n        /* \"contracts/ControlContract.sol\":1197:1217  address public owner */\n    tag_8:\n      tag_39\n      tag_40\n      jump\t// in\n    tag_39:\n      mload(0x40)\n      tag_41\n      swap2\n      swap1\n      tag_34\n      jump\t// in\n    tag_41:\n      mload(0x40)\n      dup1\n      swap2\n      sub\n      swap1\n      return\n        /* \"contracts/ControlContract.sol\":1257:1311  mapping(address => bool) public authorisedDistributors */\n    tag_9:\n      tag_42\n      0x04\n      dup1\n      calldatasize\n      sub\n      dup2\n      add\n      swap1\n      tag_43\n      swap2\n      swap1\n      tag_20\n      jump\t// in\n    tag_43:\n      tag_44\n      jump\t// in\n    tag_42:\n      mload(0x40)\n      tag_45\n      swap2\n      swap1\n      tag_46\n      jump\t// in\n    tag_45:\n      mload(0x40)\n      dup1\n      swap2\n      sub\n      swap1\n      return\n        /* \"contracts/ControlContract.sol\":7330:7930  function receipt(uint256 tokenId)... */\n    tag_10:\n      tag_47\n      0x04\n      dup1\n      calldatasize\n      sub\n      dup2\n      add\n      swap1\n      tag_48\n      swap2\n      swap1\n      tag_31\n      jump\t// in\n    tag_48:\n      tag_49\n      jump\t// in\n    tag_47:\n      stop\n        /* \"contracts/ControlContract.sol\":3846:4018  function authoriseDistributor(address distributor) external onlyOwner {... */\n    tag_11:\n      tag_50\n      0x04\n      dup1\n      calldatasize\n      sub\n      dup2\n      add\n      swap1\n      tag_51\n      swap2\n      swap1\n      tag_20\n      jump\t// in\n    tag_51:\n      tag_52\n      jump\t// in\n    tag_50:\n      stop\n        /* \"contracts/ControlContract.sol\":1095:1127  MintContract public mintContract */\n    tag_12:\n      tag_53\n      tag_54\n      jump\t// in\n    tag_53:\n      mload(0x40)\n      tag_55\n      swap2\n      swap1\n      tag_56\n      jump\t// in\n    tag_55:\n      mload(0x40)\n      dup1\n      swap2\n      sub\n      swap1\n      return\n        /* \"contracts/ControlContract.sol\":8880:9053  function getCustodyHistory(uint256 tokenId)... */\n    tag_13:\n      tag_57\n      0x04\n      dup1\n      calldatasize\n      sub\n      dup2\n      add\n      swap1\n      tag_58\n      swap2\n      swap1\n      tag_31\n      jump\t// in\n    tag_58:\n      tag_59\n      jump\t// in\n    tag_57:\n      mload(0x40)\n      tag_60\n      swap2\n      swap1\n      tag_61\n      jump\t// in\n    tag_60:\n      mload(0x40)\n      dup1\n      swap2\n      sub\n      swap1\n      return\n        /* \"contracts/ControlContract.sol\":1318:1370  mapping(address => bool) public authorisedPharmacies */\n    tag_14:\n      tag_62\n      0x04\n      dup1\n      calldatasize\n      sub\n      dup2\n      add\n      swap1\n      tag_63\n      swap2\n      swap1\n      tag_20\n      jump\t// in\n    tag_63:\n      tag_64\n      jump\t// in\n    tag_62:\n      mload(0x40)\n      tag_65\n      swap2\n      swap1\n      tag_46\n      jump\t// in\n    tag_65:\n      mload(0x40)\n      dup1\n      swap2\n      sub\n      swap1\n      return\n        /* \"contracts/ControlContract.sol\":4163:4324  function authorisePharmacy(address pharmacy) external onlyOwner {... */\n    tag_15:\n      tag_66\n      0x04\n      dup1\n      calldatasize\n      sub\n      dup2\n      add\n      swap1\n      tag_67\n      swap2\n      swap1\n      tag_20\n      jump\t// in\n    tag_67:\n      tag_68\n      jump\t// in\n    tag_66:\n      stop\n        /* \"contracts/ControlContract.sol\":4332:4450  function revokePharmacy(address pharmacy) external onlyOwner {... */\n    tag_21:\n        /* \"contracts/ControlContract.sol\":2481:2486  owner */\n      0x01\n      0x00\n      swap1\n      sload\n      swap1\n      0x0100\n      exp\n      swap1\n      div\n      0xffffffffffffffffffffffffffffffffffffffff\n      and\n        /* \"contracts/ControlContract.sol\":2467:2486  msg.sender == owner */\n      0xffffffffffffffffffffffffffffffffffffffff\n      and\n        /* \"contracts/ControlContract.sol\":2467:2477  msg.sender */\n      caller\n        /* \"contracts/ControlContract.sol\":2467:2486  msg.sender == owner */\n      0xffffffffffffffffffffffffffffffffffffffff\n      and\n      eq\n        /* \"contracts/ControlContract.sol\":2459:2527  require(msg.sender == owner, \"ControlContract: caller is not owner\") */\n      tag_70\n      jumpi\n      mload(0x40)\n      0x08c379a000000000000000000000000000000000000000000000000000000000\n      dup2\n      mstore\n      0x04\n      add\n      tag_71\n      swap1\n      tag_72\n      jump\t// in\n    tag_71:\n      mload(0x40)\n      dup1\n      swap2\n      sub\n      swap1\n      revert\n    tag_70:\n        /* \"contracts/ControlContract.sol\":4437:4442  false */\n      0x00\n        /* \"contracts/ControlContract.sol\":4404:4424  authorisedPharmacies */\n      0x03\n        /* \"contracts/ControlContract.sol\":4404:4434  authorisedPharmacies[pharmacy] */\n      0x00\n        /* \"contracts/ControlContract.sol\":4425:4433  pharmacy */\n      dup4\n        /* \"contracts/ControlContract.sol\":4404:4434  authorisedPharmacies[pharmacy] */\n      0xffffffffffffffffffffffffffffffffffffffff\n      and\n      0xffffffffffffffffffffffffffffffffffffffff\n      and\n      dup2\n      mstore\n      0x20\n      add\n      swap1\n      dup2\n      mstore\n      0x20\n      add\n      0x00\n      keccak256\n      0x00\n        /* \"contracts/ControlContract.sol\":4404:4442  authorisedPharmacies[pharmacy] = false */\n      0x0100\n      exp\n      dup2\n      sload\n      dup2\n      0xff\n      mul\n      not\n      and\n      swap1\n      dup4\n      iszero\n      iszero\n      mul\n      or\n      swap1\n      sstore\n      pop\n        /* \"contracts/ControlContract.sol\":4332:4450  function revokePharmacy(address pharmacy) external onlyOwner {... */\n      pop\n      jump\t// out\n        /* \"contracts/ControlContract.sol\":4026:4155  function revokeDistributor(address distributor) external onlyOwner {... */\n    tag_24:\n        /* \"contracts/ControlContract.sol\":2481:2486  owner */\n      0x01\n      0x00\n      swap1\n      sload\n      swap1\n      0x0100\n      exp\n      swap1\n      div\n      0xffffffffffffffffffffffffffffffffffffffff\n      and\n        /* \"contracts/ControlContract.sol\":2467:2486  msg.sender == owner */\n      0xffffffffffffffffffffffffffffffffffffffff\n      and\n        /* \"contracts/ControlContract.sol\":2467:2477  msg.sender */\n      caller\n        /* \"contracts/ControlContract.sol\":2467:2486  msg.sender == owner */\n      0xffffffffffffffffffffffffffffffffffffffff\n      and\n      eq\n        /* \"contracts/ControlContract.sol\":2459:2527  require(msg.sender == owner, \"ControlContract: caller is not owner\") */\n      tag_75\n      jumpi\n      mload(0x40)\n      0x08c379a000000000000000000000000000000000000000000000000000000000\n      dup2\n      mstore\n      0x04\n      add\n      tag_76\n      swap1\n      tag_72\n      jump\t// in\n    tag_76:\n      mload(0x40)\n      dup1\n      swap2\n      sub\n      swap1\n      revert\n    tag_75:\n        /* \"contracts/ControlContract.sol\":4142:4147  false */\n      0x00\n        /* \"contracts/ControlContract.sol\":4104:4126  authorisedDistributors */\n      0x02\n        /* \"contracts/ControlContract.sol\":4104:4139  authorisedDistributors[distributor] */\n      0x00\n        /* \"contracts/ControlContract.sol\":4127:4138  distributor */\n      dup4\n        /* \"contracts/ControlContract.sol\":4104:4139  authorisedDistributors[distributor] */\n      0xffffffffffffffffffffffffffffffffffffffff\n      and\n      0xffffffffffffffffffffffffffffffffffffffff\n      and\n      dup2\n      mstore\n      0x20\n      add\n      swap1\n      dup2\n      mstore\n      0x20\n      add\n      0x00\n      keccak256\n      0x00\n        /* \"contracts/ControlContract.sol\":4104:4147  authorisedDistributors[distributor] = false */\n      0x0100\n      exp\n      dup2\n      sload\n      dup2\n      0xff\n      mul\n      not\n      and\n      swap1\n      dup4\n      iszero\n      iszero\n      mul\n      or\n      swap1\n      sstore\n      pop\n        /* \"contracts/ControlContract.sol\":4026:4155  function revokeDistributor(address distributor) external onlyOwner {... */\n      pop\n      jump\t// out\n        /* \"contracts/ControlContract.sol\":6404:7096  function shipment(uint256 tokenId, address recipient, string calldata notes)... */\n    tag_28:\n        /* \"contracts/ControlContract.sol\":2847:2869  authorisedDistributors */\n      0x02\n        /* \"contracts/ControlContract.sol\":2847:2881  authorisedDistributors[msg.sender] */\n      0x00\n        /* \"contracts/ControlContract.sol\":2870:2880  msg.sender */\n      caller\n        /* \"contracts/ControlContract.sol\":2847:2881  authorisedDistributors[msg.sender] */\n      0xffffffffffffffffffffffffffffffffffffffff\n      and\n      0xffffffffffffffffffffffffffffffffffffffff\n      and\n      dup2\n      mstore\n      0x20\n      add\n      swap1\n      dup2\n      mstore\n      0x20\n      add\n      0x00\n      keccak256\n      0x00\n      swap1\n      sload\n      swap1\n      0x0100\n      exp\n      swap1\n      div\n      0xff\n      and\n        /* \"contracts/ControlContract.sol\":2825:2965  require(... */\n      tag_79\n      jumpi\n      mload(0x40)\n      0x08c379a000000000000000000000000000000000000000000000000000000000\n      dup2\n      mstore\n      0x04\n      add\n      tag_80\n      swap1\n      tag_81\n      jump\t// in\n    tag_80:\n      mload(0x40)\n      dup1\n      swap2\n      sub\n      swap1\n      revert\n    tag_79:\n        /* \"contracts/ControlContract.sol\":6540:6562  BatchData memory batch */\n      0x00\n        /* \"contracts/ControlContract.sol\":6565:6577  mintContract */\n      0x00\n      0x00\n      swap1\n      sload\n      swap1\n      0x0100\n      exp\n      swap1\n      div\n      0xffffffffffffffffffffffffffffffffffffffff\n      and\n        /* \"contracts/ControlContract.sol\":6565:6586  mintContract.getBatch */\n      0xffffffffffffffffffffffffffffffffffffffff\n      and\n      0x5ac44282\n        /* \"contracts/ControlContract.sol\":6587:6594  tokenId */\n      dup7\n        /* \"contracts/ControlContract.sol\":6565:6595  mintContract.getBatch(tokenId) */\n      mload(0x40)\n      dup3\n      0xffffffff\n      and\n      0xe0\n      shl\n      dup2\n      mstore\n      0x04\n      add\n      tag_83\n      swap2\n      swap1\n      tag_84\n      jump\t// in\n    tag_83:\n      0x00\n      mload(0x40)\n      dup1\n      dup4\n      sub\n      dup2\n      dup7\n      gas\n      staticcall\n      iszero\n      dup1\n      iszero\n      tag_86\n      jumpi\n      returndatacopy(0x00, 0x00, returndatasize)\n      revert(0x00, returndatasize)\n    tag_86:\n      pop\n      pop\n      pop\n      pop\n      mload(0x40)\n      returndatasize\n      0x00\n      dup3\n      returndatacopy\n      returndatasize\n      not(0x1f)\n      0x1f\n      dup3\n      add\n      and\n      dup3\n      add\n      dup1\n      0x40\n      mstore\n      pop\n      dup2\n      add\n      swap1\n      tag_87\n      swap2\n      swap1\n      tag_88\n      jump\t// in\n    tag_87:\n        /* \"contracts/ControlContract.sol\":6540:6595  BatchData memory batch = mintContract.getBatch(tokenId) */\n      swap1\n      pop\n        /* \"contracts/ControlContract.sol\":6646:6666  BatchStatus.Released */\n      0x01\n        /* \"contracts/ControlContract.sol\":6630:6666  batch.status == BatchStatus.Released */\n      0x04\n      dup2\n      gt\n      iszero\n      tag_89\n      jumpi\n      tag_90\n      tag_91\n      jump\t// in\n    tag_90:\n    tag_89:\n        /* \"contracts/ControlContract.sol\":6630:6635  batch */\n      dup2\n        /* \"contracts/ControlContract.sol\":6630:6642  batch.status */\n      0xc0\n      add\n      mload\n        /* \"contracts/ControlContract.sol\":6630:6666  batch.status == BatchStatus.Released */\n      0x04\n      dup2\n      gt\n      iszero\n      tag_92\n      jumpi\n      tag_93\n      tag_91\n      jump\t// in\n    tag_93:\n    tag_92:\n      eq\n        /* \"contracts/ControlContract.sol\":6630:6707  batch.status == BatchStatus.Released || batch.status == BatchStatus.InTransit */\n      dup1\n      tag_94\n      jumpi\n      pop\n        /* \"contracts/ControlContract.sol\":6686:6707  BatchStatus.InTransit */\n      0x02\n        /* \"contracts/ControlContract.sol\":6670:6707  batch.status == BatchStatus.InTransit */\n      0x04\n      dup2\n      gt\n      iszero\n      tag_95\n      jumpi\n      tag_96\n      tag_91\n      jump\t// in\n    tag_96:\n    tag_95:\n        /* \"contracts/ControlContract.sol\":6670:6675  batch */\n      dup2\n        /* \"contracts/ControlContract.sol\":6670:6682  batch.status */\n      0xc0\n      add\n      mload\n        /* \"contracts/ControlContract.sol\":6670:6707  batch.status == BatchStatus.InTransit */\n      0x04\n      dup2\n      gt\n      iszero\n      tag_97\n      jumpi\n      tag_98\n      tag_91\n      jump\t// in\n    tag_98:\n    tag_97:\n      eq\n        /* \"contracts/ControlContract.sol\":6630:6707  batch.status == BatchStatus.Released || batch.status == BatchStatus.InTransit */\n    tag_94:\n        /* \"contracts/ControlContract.sol\":6608:6795  require(... */\n      tag_99\n      jumpi\n      mload(0x40)\n      0x08c379a000000000000000000000000000000000000000000000000000000000\n      dup2\n      mstore\n      0x04\n      add\n      tag_100\n      swap1\n      tag_101\n      jump\t// in\n    tag_100:\n      mload(0x40)\n      dup1\n      swap2\n      sub\n      swap1\n      revert\n    tag_99:\n        /* \"contracts/ControlContract.sol\":6808:6820  mintContract */\n      0x00\n      0x00\n      swap1\n      sload\n      swap1\n      0x0100\n      exp\n      swap1\n      div\n      0xffffffffffffffffffffffffffffffffffffffff\n      and\n        /* \"contracts/ControlContract.sol\":6808:6833  mintContract.updateStatus */\n      0xffffffffffffffffffffffffffffffffffffffff\n      and\n      0x3a1b3d31\n        /* \"contracts/ControlContract.sol\":6834:6841  tokenId */\n      dup7\n        /* \"contracts/ControlContract.sol\":6843:6864  BatchStatus.InTransit */\n      0x02\n        /* \"contracts/ControlContract.sol\":6808:6865  mintContract.updateStatus(tokenId, BatchStatus.InTransit) */\n      mload(0x40)\n      dup4\n      0xffffffff\n      and\n      0xe0\n      shl\n      dup2\n      mstore\n      0x04\n      add\n      tag_102\n      swap3\n      swap2\n      swap1\n      tag_103\n      jump\t// in\n    tag_102:\n      0x00\n      mload(0x40)\n      dup1\n      dup4\n      sub\n      dup2\n      0x00\n      dup8\n      dup1\n      extcodesize\n      iszero\n      dup1\n      iszero\n      tag_104\n      jumpi\n      revert(0x00, 0x00)\n    tag_104:\n      pop\n      gas\n      call\n      iszero\n      dup1\n      iszero\n      tag_106\n      jumpi\n      returndatacopy(0x00, 0x00, returndatasize)\n      revert(0x00, returndatasize)\n    tag_106:\n      pop\n      pop\n      pop\n      pop\n        /* \"contracts/ControlContract.sol\":6878:6954  _appendCustody(tokenId, msg.sender, recipient, BatchStatus.InTransit, notes) */\n      tag_107\n        /* \"contracts/ControlContract.sol\":6893:6900  tokenId */\n      dup6\n        /* \"contracts/ControlContract.sol\":6902:6912  msg.sender */\n      caller\n        /* \"contracts/ControlContract.sol\":6914:6923  recipient */\n      dup7\n        /* \"contracts/ControlContract.sol\":6925:6946  BatchStatus.InTransit */\n      0x02\n        /* \"contracts/ControlContract.sol\":6948:6953  notes */\n      dup8\n      dup8\n        /* \"contracts/ControlContract.sol\":6878:6954  _appendCustody(tokenId, msg.sender, recipient, BatchStatus.InTransit, notes) */\n      dup1\n      dup1\n      0x1f\n      add\n      0x20\n      dup1\n      swap2\n      div\n      mul\n      0x20\n      add\n      mload(0x40)\n      swap1\n      dup2\n      add\n      0x40\n      mstore\n      dup1\n      swap4\n      swap3\n      swap2\n      swap1\n      dup2\n      dup2\n      mstore\n      0x20\n      add\n      dup4\n      dup4\n      dup1\n      dup3\n      dup5\n      calldatacopy\n      0x00\n      dup2\n      dup5\n      add\n      mstore\n      not(0x1f)\n      0x1f\n      dup3\n      add\n      and\n      swap1\n      pop\n      dup1\n      dup4\n      add\n      swap3\n      pop\n      pop\n      pop\n      pop\n      pop\n      pop\n      pop\n        /* \"contracts/ControlContract.sol\":6878:6892  _appendCustody */\n      tag_108\n        /* \"contracts/ControlContract.sol\":6878:6954  _appendCustody(tokenId, msg.sender, recipient, BatchStatus.InTransit, notes) */\n      jump\t// in\n    tag_107:\n        /* \"contracts/ControlContract.sol\":6993:7002  recipient */\n      dup4\n        /* \"contracts/ControlContract.sol\":6965:6981  currentCustodian */\n      0x05\n        /* \"contracts/ControlContract.sol\":6965:6990  currentCustodian[tokenId] */\n      0x00\n        /* \"contracts/ControlContract.sol\":6982:6989  tokenId */\n      dup8\n        /* \"contracts/ControlContract.sol\":6965:6990  currentCustodian[tokenId] */\n      dup2\n      mstore\n      0x20\n      add\n      swap1\n      dup2\n      mstore\n      0x20\n      add\n      0x00\n      keccak256\n      0x00\n        /* \"contracts/ControlContract.sol\":6965:7002  currentCustodian[tokenId] = recipient */\n      0x0100\n      exp\n      dup2\n      sload\n      dup2\n      0xffffffffffffffffffffffffffffffffffffffff\n      mul\n      not\n      and\n      swap1\n      dup4\n      0xffffffffffffffffffffffffffffffffffffffff\n      and\n      mul\n      or\n      swap1\n      sstore\n      pop\n        /* \"contracts/ControlContract.sol\":7054:7063  recipient */\n      dup4\n        /* \"contracts/ControlContract.sol\":7020:7088  BatchShipped(tokenId, msg.sender, recipient, notes, block.timestamp) */\n      0xffffffffffffffffffffffffffffffffffffffff\n      and\n        /* \"contracts/ControlContract.sol\":7042:7052  msg.sender */\n      caller\n        /* \"contracts/ControlContract.sol\":7020:7088  BatchShipped(tokenId, msg.sender, recipient, notes, block.timestamp) */\n      0xffffffffffffffffffffffffffffffffffffffff\n      and\n        /* \"contracts/ControlContract.sol\":7033:7040  tokenId */\n      dup7\n        /* \"contracts/ControlContract.sol\":7020:7088  BatchShipped(tokenId, msg.sender, recipient, notes, block.timestamp) */\n      0x90f424f437850dc9bb5a3e6be616a5cf41f5faacd30b1044d84e06d12ddc74be\n        /* \"contracts/ControlContract.sol\":7065:7070  notes */\n      dup7\n      dup7\n        /* \"contracts/ControlContract.sol\":7072:7087  block.timestamp */\n      timestamp\n        /* \"contracts/ControlContract.sol\":7020:7088  BatchShipped(tokenId, msg.sender, recipient, notes, block.timestamp) */\n      mload(0x40)\n      tag_109\n      swap4\n      swap3\n      swap2\n      swap1\n      tag_110\n      jump\t// in\n    tag_109:\n      mload(0x40)\n      dup1\n      swap2\n      sub\n      swap1\n      log4\n        /* \"contracts/ControlContract.sol\":6529:7096  {... */\n      pop\n        /* \"contracts/ControlContract.sol\":6404:7096  function shipment(uint256 tokenId, address recipient, string calldata notes)... */\n      pop\n      pop\n      pop\n      pop\n      jump\t// out\n        /* \"contracts/ControlContract.sol\":1573:1624  mapping(uint256 => address) public currentCustodian */\n    tag_32:\n      mstore(0x20, 0x05)\n      dup1\n      0x00\n      mstore\n      keccak256(0x00, 0x40)\n      0x00\n      swap2\n      pop\n      sload\n      swap1\n      0x0100\n      exp\n      swap1\n      div\n      0xffffffffffffffffffffffffffffffffffffffff\n      and\n      dup2\n      jump\t// out\n        /* \"contracts/ControlContract.sol\":5287:5921  function release(uint256 tokenId, address distributor)... */\n    tag_38:\n        /* \"contracts/ControlContract.sol\":2626:2638  mintContract */\n      0x00\n      0x00\n      swap1\n      sload\n      swap1\n      0x0100\n      exp\n      swap1\n      div\n      0xffffffffffffffffffffffffffffffffffffffff\n      and\n        /* \"contracts/ControlContract.sol\":2626:2662  mintContract.authorisedManufacturers */\n      0xffffffffffffffffffffffffffffffffffffffff\n      and\n      0x5cd349ef\n        /* \"contracts/ControlContract.sol\":2663:2673  msg.sender */\n      caller\n        /* \"contracts/ControlContract.sol\":2626:2674  mintContract.authorisedManufacturers(msg.sender) */\n      mload(0x40)\n      dup3\n      0xffffffff\n      and\n      0xe0\n      shl\n      dup2\n      mstore\n      0x04\n      add\n      tag_112\n      swap2\n      swap1\n      tag_34\n      jump\t// in\n    tag_112:\n      0x20\n      mload(0x40)\n      dup1\n      dup4\n      sub\n      dup2\n      dup7\n      gas\n      staticcall\n      iszero\n      dup1\n      iszero\n      tag_114\n      jumpi\n      returndatacopy(0x00, 0x00, returndatasize)\n      revert(0x00, returndatasize)\n    tag_114:\n      pop\n      pop\n      pop\n      pop\n      mload(0x40)\n      returndatasize\n      not(0x1f)\n      0x1f\n      dup3\n      add\n      and\n      dup3\n      add\n      dup1\n      0x40\n      mstore\n      pop\n      dup2\n      add\n      swap1\n      tag_115\n      swap2\n      swap1\n      tag_116\n      jump\t// in\n    tag_115:\n        /* \"contracts/ControlContract.sol\":2604:2759  require(... */\n      tag_117\n      jumpi\n      mload(0x40)\n      0x08c379a000000000000000000000000000000000000000000000000000000000\n      dup2\n      mstore\n      0x04\n      add\n      tag_118\n      swap1\n      tag_119\n      jump\t// in\n    tag_118:\n      mload(0x40)\n      dup1\n      swap2\n      sub\n      swap1\n      revert\n    tag_117:\n        /* \"contracts/ControlContract.sol\":5412:5434  BatchData memory batch */\n      0x00\n        /* \"contracts/ControlContract.sol\":5437:5449  mintContract */\n      0x00\n      0x00\n      swap1\n      sload\n      swap1\n      0x0100\n      exp\n      swap1\n      div\n      0xffffffffffffffffffffffffffffffffffffffff\n      and\n        /* \"contracts/ControlContract.sol\":5437:5458  mintContract.getBatch */\n      0xffffffffffffffffffffffffffffffffffffffff\n      and\n      0x5ac44282\n        /* \"contracts/ControlContract.sol\":5459:5466  tokenId */\n      dup5\n        /* \"contracts/ControlContract.sol\":5437:5467  mintContract.getBatch(tokenId) */\n      mload(0x40)\n      dup3\n      0xffffffff\n      and\n      0xe0\n      shl\n      dup2\n      mstore\n      0x04\n      add\n      tag_121\n      swap2\n      swap1\n      tag_84\n      jump\t// in\n    tag_121:\n      0x00\n      mload(0x40)\n      dup1\n      dup4\n      sub\n      dup2\n      dup7\n      gas\n      staticcall\n      iszero\n      dup1\n      iszero\n      tag_123\n      jumpi\n      returndatacopy(0x00, 0x00, returndatasize)\n      revert(0x00, returndatasize)\n    tag_123:\n      pop\n      pop\n      pop\n      pop\n      mload(0x40)\n      returndatasize\n      0x00\n      dup3\n      returndatacopy\n      returndatasize\n      not(0x1f)\n      0x1f\n      dup3\n      add\n      and\n      dup3\n      add\n      dup1\n      0x40\n      mstore\n      pop\n      dup2\n      add\n      swap1\n      tag_124\n      swap2\n      swap1\n      tag_88\n      jump\t// in\n    tag_124:\n        /* \"contracts/ControlContract.sol\":5412:5467  BatchData memory batch = mintContract.getBatch(tokenId) */\n      swap1\n      pop\n        /* \"contracts/ControlContract.sol\":5518:5538  BatchStatus.Produced */\n      0x00\n        /* \"contracts/ControlContract.sol\":5502:5538  batch.status == BatchStatus.Produced */\n      0x04\n      dup2\n      gt\n      iszero\n      tag_125\n      jumpi\n      tag_126\n      tag_91\n      jump\t// in\n    tag_126:\n    tag_125:\n        /* \"contracts/ControlContract.sol\":5502:5507  batch */\n      dup2\n        /* \"contracts/ControlContract.sol\":5502:5514  batch.status */\n      0xc0\n      add\n      mload\n        /* \"contracts/ControlContract.sol\":5502:5538  batch.status == BatchStatus.Produced */\n      0x04\n      dup2\n      gt\n      iszero\n      tag_127\n      jumpi\n      tag_128\n      tag_91\n      jump\t// in\n    tag_128:\n    tag_127:\n      eq\n        /* \"contracts/ControlContract.sol\":5480:5625  require(... */\n      tag_129\n      jumpi\n      mload(0x40)\n      0x08c379a000000000000000000000000000000000000000000000000000000000\n      dup2\n      mstore\n      0x04\n      add\n      tag_130\n      swap1\n      tag_131\n      jump\t// in\n    tag_130:\n      mload(0x40)\n      dup1\n      swap2\n      sub\n      swap1\n      revert\n    tag_129:\n        /* \"contracts/ControlContract.sol\":5638:5650  mintContract */\n      0x00\n      0x00\n      swap1\n      sload\n      swap1\n      0x0100\n      exp\n      swap1\n      div\n      0xffffffffffffffffffffffffffffffffffffffff\n      and\n        /* \"contracts/ControlContract.sol\":5638:5663  mintContract.updateStatus */\n      0xffffffffffffffffffffffffffffffffffffffff\n      and\n      0x3a1b3d31\n        /* \"contracts/ControlContract.sol\":5664:5671  tokenId */\n      dup5\n        /* \"contracts/ControlContract.sol\":5673:5693  BatchStatus.Released */\n      0x01\n        /* \"contracts/ControlContract.sol\":5638:5694  mintContract.updateStatus(tokenId, BatchStatus.Released) */\n      mload(0x40)\n      dup4\n      0xffffffff\n      and\n      0xe0\n      shl\n      dup2\n      mstore\n      0x04\n      add\n      tag_132\n      swap3\n      swap2\n      swap1\n      tag_103\n      jump\t// in\n    tag_132:\n      0x00\n      mload(0x40)\n      dup1\n      dup4\n      sub\n      dup2\n      0x00\n      dup8\n      dup1\n      extcodesize\n      iszero\n      dup1\n      iszero\n      tag_133\n      jumpi\n      revert(0x00, 0x00)\n    tag_133:\n      pop\n      gas\n      call\n      iszero\n      dup1\n      iszero\n      tag_135\n      jumpi\n      returndatacopy(0x00, 0x00, returndatasize)\n      revert(0x00, returndatasize)\n    tag_135:\n      pop\n      pop\n      pop\n      pop\n        /* \"contracts/ControlContract.sol\":5707:5781  _appendCustody(tokenId, msg.sender, distributor, BatchStatus.Released, \"\") */\n      tag_136\n        /* \"contracts/ControlContract.sol\":5722:5729  tokenId */\n      dup4\n        /* \"contracts/ControlContract.sol\":5731:5741  msg.sender */\n      caller\n        /* \"contracts/ControlContract.sol\":5743:5754  distributor */\n      dup5\n        /* \"contracts/ControlContract.sol\":5756:5776  BatchStatus.Released */\n      0x01\n        /* \"contracts/ControlContract.sol\":5707:5781  _appendCustody(tokenId, msg.sender, distributor, BatchStatus.Released, \"\") */\n      mload(0x40)\n      dup1\n      0x20\n      add\n      0x40\n      mstore\n      dup1\n      0x00\n      dup2\n      mstore\n      pop\n        /* \"contracts/ControlContract.sol\":5707:5721  _appendCustody */\n      tag_108\n        /* \"contracts/ControlContract.sol\":5707:5781  _appendCustody(tokenId, msg.sender, distributor, BatchStatus.Released, \"\") */\n      jump\t// in\n    tag_136:\n        /* \"contracts/ControlContract.sol\":5820:5831  distributor */\n      dup2\n        /* \"contracts/ControlContract.sol\":5792:5808  currentCustodian */\n      0x05\n        /* \"contracts/ControlContract.sol\":5792:5817  currentCustodian[tokenId] */\n      0x00\n        /* \"contracts/ControlContract.sol\":5809:5816  tokenId */\n      dup6\n        /* \"contracts/ControlContract.sol\":5792:5817  currentCustodian[tokenId] */\n      dup2\n      mstore\n      0x20\n      add\n      swap1\n      dup2\n      mstore\n      0x20\n      add\n      0x00\n      keccak256\n      0x00\n        /* \"contracts/ControlContract.sol\":5792:5831  currentCustodian[tokenId] = distributor */\n      0x0100\n      exp\n      dup2\n      sload\n      dup2\n      0xffffffffffffffffffffffffffffffffffffffff\n      mul\n      not\n      and\n      swap1\n      dup4\n      0xffffffffffffffffffffffffffffffffffffffff\n      and\n      mul\n      or\n      swap1\n      sstore\n      pop\n        /* \"contracts/ControlContract.sol\":5884:5895  distributor */\n      dup2\n        /* \"contracts/ControlContract.sol\":5849:5913  BatchReleased(tokenId, msg.sender, distributor, block.timestamp) */\n      0xffffffffffffffffffffffffffffffffffffffff\n      and\n        /* \"contracts/ControlContract.sol\":5872:5882  msg.sender */\n      caller\n        /* \"contracts/ControlContract.sol\":5849:5913  BatchReleased(tokenId, msg.sender, distributor, block.timestamp) */\n      0xffffffffffffffffffffffffffffffffffffffff\n      and\n        /* \"contracts/ControlContract.sol\":5863:5870  tokenId */\n      dup5\n        /* \"contracts/ControlContract.sol\":5849:5913  BatchReleased(tokenId, msg.sender, distributor, block.timestamp) */\n      0xfa88627e4e732e3f4f50eb49afd20919542d60088603ebe9af4f4eb33cc8ba6d\n        /* \"contracts/ControlContract.sol\":5897:5912  block.timestamp */\n      timestamp\n        /* \"contracts/ControlContract.sol\":5849:5913  BatchReleased(tokenId, msg.sender, distributor, block.timestamp) */\n      mload(0x40)\n      tag_137\n      swap2\n      swap1\n      tag_84\n      jump\t// in\n    tag_137:\n      mload(0x40)\n      dup1\n      swap2\n      sub\n      swap1\n      log4\n        /* \"contracts/ControlContract.sol\":5401:5921  {... */\n      pop\n        /* \"contracts/ControlContract.sol\":5287:5921  function release(uint256 tokenId, address distributor)... */\n      pop\n      pop\n      jump\t// out\n        /* \"contracts/ControlContract.sol\":1197:1217  address public owner */\n    tag_40:\n      0x01\n      0x00\n      swap1\n      sload\n      swap1\n      0x0100\n      exp\n      swap1\n      div\n      0xffffffffffffffffffffffffffffffffffffffff\n      and\n      dup2\n      jump\t// out\n        /* \"contracts/ControlContract.sol\":1257:1311  mapping(address => bool) public authorisedDistributors */\n    tag_44:\n      mstore(0x20, 0x02)\n      dup1\n      0x00\n      mstore\n      keccak256(0x00, 0x40)\n      0x00\n      swap2\n      pop\n      sload\n      swap1\n      0x0100\n      exp\n      swap1\n      div\n      0xff\n      and\n      dup2\n      jump\t// out\n        /* \"contracts/ControlContract.sol\":7330:7930  function receipt(uint256 tokenId)... */\n    tag_49:\n        /* \"contracts/ControlContract.sol\":3050:3070  authorisedPharmacies */\n      0x03\n        /* \"contracts/ControlContract.sol\":3050:3082  authorisedPharmacies[msg.sender] */\n      0x00\n        /* \"contracts/ControlContract.sol\":3071:3081  msg.sender */\n      caller\n        /* \"contracts/ControlContract.sol\":3050:3082  authorisedPharmacies[msg.sender] */\n      0xffffffffffffffffffffffffffffffffffffffff\n      and\n      0xffffffffffffffffffffffffffffffffffffffff\n      and\n      dup2\n      mstore\n      0x20\n      add\n      swap1\n      dup2\n      mstore\n      0x20\n      add\n      0x00\n      keccak256\n      0x00\n      swap1\n      sload\n      swap1\n      0x0100\n      exp\n      swap1\n      div\n      0xff\n      and\n        /* \"contracts/ControlContract.sol\":3028:3172  require(... */\n      tag_139\n      jumpi\n      mload(0x40)\n      0x08c379a000000000000000000000000000000000000000000000000000000000\n      dup2\n      mstore\n      0x04\n      add\n      tag_140\n      swap1\n      tag_141\n      jump\t// in\n    tag_140:\n      mload(0x40)\n      dup1\n      swap2\n      sub\n      swap1\n      revert\n    tag_139:\n        /* \"contracts/ControlContract.sol\":7420:7442  BatchData memory batch */\n      0x00\n        /* \"contracts/ControlContract.sol\":7445:7457  mintContract */\n      0x00\n      0x00\n      swap1\n      sload\n      swap1\n      0x0100\n      exp\n      swap1\n      div\n      0xffffffffffffffffffffffffffffffffffffffff\n      and\n        /* \"contracts/ControlContract.sol\":7445:7466  mintContract.getBatch */\n      0xffffffffffffffffffffffffffffffffffffffff\n      and\n      0x5ac44282\n        /* \"contracts/ControlContract.sol\":7467:7474  tokenId */\n      dup4\n        /* \"contracts/ControlContract.sol\":7445:7475  mintContract.getBatch(tokenId) */\n      mload(0x40)\n      dup3\n      0xffffffff\n      and\n      0xe0\n      shl\n      dup2\n      mstore\n      0x04\n      add\n      tag_143\n      swap2\n      swap1\n      tag_84\n      jump\t// in\n    tag_143:\n      0x00\n      mload(0x40)\n      dup1\n      dup4\n      sub\n      dup2\n      dup7\n      gas\n      staticcall\n      iszero\n      dup1\n      iszero\n      tag_145\n      jumpi\n      returndatacopy(0x00, 0x00, returndatasize)\n      revert(0x00, returndatasize)\n    tag_145:\n      pop\n      pop\n      pop\n      pop\n      mload(0x40)\n      returndatasize\n      0x00\n      dup3\n      returndatacopy\n      returndatasize\n      not(0x1f)\n      0x1f\n      dup3\n      add\n      and\n      dup3\n      add\n      dup1\n      0x40\n      mstore\n      pop\n      dup2\n      add\n      swap1\n      tag_146\n      swap2\n      swap1\n      tag_88\n      jump\t// in\n    tag_146:\n        /* \"contracts/ControlContract.sol\":7420:7475  BatchData memory batch = mintContract.getBatch(tokenId) */\n      swap1\n      pop\n        /* \"contracts/ControlContract.sol\":7526:7547  BatchStatus.InTransit */\n      0x02\n        /* \"contracts/ControlContract.sol\":7510:7547  batch.status == BatchStatus.InTransit */\n      0x04\n      dup2\n      gt\n      iszero\n      tag_147\n      jumpi\n      tag_148\n      tag_91\n      jump\t// in\n    tag_148:\n    tag_147:\n        /* \"contracts/ControlContract.sol\":7510:7515  batch */\n      dup2\n        /* \"contracts/ControlContract.sol\":7510:7522  batch.status */\n      0xc0\n      add\n      mload\n        /* \"contracts/ControlContract.sol\":7510:7547  batch.status == BatchStatus.InTransit */\n      0x04\n      dup2\n      gt\n      iszero\n      tag_149\n      jumpi\n      tag_150\n      tag_91\n      jump\t// in\n    tag_150:\n    tag_149:\n      eq\n        /* \"contracts/ControlContract.sol\":7488:7634  require(... */\n      tag_151\n      jumpi\n      mload(0x40)\n      0x08c379a000000000000000000000000000000000000000000000000000000000\n      dup2\n      mstore\n      0x04\n      add\n      tag_152\n      swap1\n      tag_153\n      jump\t// in\n    tag_152:\n      mload(0x40)\n      dup1\n      swap2\n      sub\n      swap1\n      revert\n    tag_151:\n        /* \"contracts/ControlContract.sol\":7647:7659  mintContract */\n      0x00\n      0x00\n      swap1\n      sload\n      swap1\n      0x0100\n      exp\n      swap1\n      div\n      0xffffffffffffffffffffffffffffffffffffffff\n      and\n        /* \"contracts/ControlContract.sol\":7647:7672  mintContract.updateStatus */\n      0xffffffffffffffffffffffffffffffffffffffff\n      and\n      0x3a1b3d31\n        /* \"contracts/ControlContract.sol\":7673:7680  tokenId */\n      dup4\n        /* \"contracts/ControlContract.sol\":7682:7702  BatchStatus.Received */\n      0x03\n        /* \"contracts/ControlContract.sol\":7647:7703  mintContract.updateStatus(tokenId, BatchStatus.Received) */\n      mload(0x40)\n      dup4\n      0xffffffff\n      and\n      0xe0\n      shl\n      dup2\n      mstore\n      0x04\n      add\n      tag_154\n      swap3\n      swap2\n      swap1\n      tag_103\n      jump\t// in\n    tag_154:\n      0x00\n      mload(0x40)\n      dup1\n      dup4\n      sub\n      dup2\n      0x00\n      dup8\n      dup1\n      extcodesize\n      iszero\n      dup1\n      iszero\n      tag_155\n      jumpi\n      revert(0x00, 0x00)\n    tag_155:\n      pop\n      gas\n      call\n      iszero\n      dup1\n      iszero\n      tag_157\n      jumpi\n      returndatacopy(0x00, 0x00, returndatasize)\n      revert(0x00, returndatasize)\n    tag_157:\n      pop\n      pop\n      pop\n      pop\n        /* \"contracts/ControlContract.sol\":7716:7804  _appendCustody(tokenId, currentCustodian[tokenId], msg.sender, BatchStatus.Received, \"\") */\n      tag_158\n        /* \"contracts/ControlContract.sol\":7731:7738  tokenId */\n      dup3\n        /* \"contracts/ControlContract.sol\":7740:7756  currentCustodian */\n      0x05\n        /* \"contracts/ControlContract.sol\":7740:7765  currentCustodian[tokenId] */\n      0x00\n        /* \"contracts/ControlContract.sol\":7757:7764  tokenId */\n      dup6\n        /* \"contracts/ControlContract.sol\":7740:7765  currentCustodian[tokenId] */\n      dup2\n      mstore\n      0x20\n      add\n      swap1\n      dup2\n      mstore\n      0x20\n      add\n      0x00\n      keccak256\n      0x00\n      swap1\n      sload\n      swap1\n      0x0100\n      exp\n      swap1\n      div\n      0xffffffffffffffffffffffffffffffffffffffff\n      and\n        /* \"contracts/ControlContract.sol\":7767:7777  msg.sender */\n      caller\n        /* \"contracts/ControlContract.sol\":7779:7799  BatchStatus.Received */\n      0x03\n        /* \"contracts/ControlContract.sol\":7716:7804  _appendCustody(tokenId, currentCustodian[tokenId], msg.sender, BatchStatus.Received, \"\") */\n      mload(0x40)\n      dup1\n      0x20\n      add\n      0x40\n      mstore\n      dup1\n      0x00\n      dup2\n      mstore\n      pop\n        /* \"contracts/ControlContract.sol\":7716:7730  _appendCustody */\n      tag_108\n        /* \"contracts/ControlContract.sol\":7716:7804  _appendCustody(tokenId, currentCustodian[tokenId], msg.sender, BatchStatus.Received, \"\") */\n      jump\t// in\n    tag_158:\n        /* \"contracts/ControlContract.sol\":7843:7853  msg.sender */\n      caller\n        /* \"contracts/ControlContract.sol\":7815:7831  currentCustodian */\n      0x05\n        /* \"contracts/ControlContract.sol\":7815:7840  currentCustodian[tokenId] */\n      0x00\n        /* \"contracts/ControlContract.sol\":7832:7839  tokenId */\n      dup5\n        /* \"contracts/ControlContract.sol\":7815:7840  currentCustodian[tokenId] */\n      dup2\n      mstore\n      0x20\n      add\n      swap1\n      dup2\n      mstore\n      0x20\n      add\n      0x00\n      keccak256\n      0x00\n        /* \"contracts/ControlContract.sol\":7815:7853  currentCustodian[tokenId] = msg.sender */\n      0x0100\n      exp\n      dup2\n      sload\n      dup2\n      0xffffffffffffffffffffffffffffffffffffffff\n      mul\n      not\n      and\n      swap1\n      dup4\n      0xffffffffffffffffffffffffffffffffffffffff\n      and\n      mul\n      or\n      swap1\n      sstore\n      pop\n        /* \"contracts/ControlContract.sol\":7894:7904  msg.sender */\n      caller\n        /* \"contracts/ControlContract.sol\":7871:7922  BatchReceived(tokenId, msg.sender, block.timestamp) */\n      0xffffffffffffffffffffffffffffffffffffffff\n      and\n        /* \"contracts/ControlContract.sol\":7885:7892  tokenId */\n      dup3\n        /* \"contracts/ControlContract.sol\":7871:7922  BatchReceived(tokenId, msg.sender, block.timestamp) */\n      0xc05b1107d1bf72ae261838a5b0823760327225f4b8d752559fa509a801beb14e\n        /* \"contracts/ControlContract.sol\":7906:7921  block.timestamp */\n      timestamp\n        /* \"contracts/ControlContract.sol\":7871:7922  BatchReceived(tokenId, msg.sender, block.timestamp) */\n      mload(0x40)\n      tag_159\n      swap2\n      swap1\n      tag_84\n      jump\t// in\n    tag_159:\n      mload(0x40)\n      dup1\n      swap2\n      sub\n      swap1\n      log3\n        /* \"contracts/ControlContract.sol\":7409:7930  {... */\n      pop\n        /* \"contracts/ControlContract.sol\":7330:7930  function receipt(uint256 tokenId)... */\n      pop\n      jump\t// out\n        /* \"contracts/ControlContract.sol\":3846:4018  function authoriseDistributor(address distributor) external onlyOwner {... */\n    tag_52:\n        /* \"contracts/ControlContract.sol\":2481:2486  owner */\n      0x01\n      0x00\n      swap1\n      sload\n      swap1\n      0x0100\n      exp\n      swap1\n      div\n      0xffffffffffffffffffffffffffffffffffffffff\n      and\n        /* \"contracts/ControlContract.sol\":2467:2486  msg.sender == owner */\n      0xffffffffffffffffffffffffffffffffffffffff\n      and\n        /* \"contracts/ControlContract.sol\":2467:2477  msg.sender */\n      caller\n        /* \"contracts/ControlContract.sol\":2467:2486  msg.sender == owner */\n      0xffffffffffffffffffffffffffffffffffffffff\n      and\n      eq\n        /* \"contracts/ControlContract.sol\":2459:2527  require(msg.sender == owner, \"ControlContract: caller is not owner\") */\n      tag_161\n      jumpi\n      mload(0x40)\n      0x08c379a000000000000000000000000000000000000000000000000000000000\n      dup2\n      mstore\n      0x04\n      add\n      tag_162\n      swap1\n      tag_72\n      jump\t// in\n    tag_162:\n      mload(0x40)\n      dup1\n      swap2\n      sub\n      swap1\n      revert\n    tag_161:\n        /* \"contracts/ControlContract.sol\":4006:4010  true */\n      0x01\n        /* \"contracts/ControlContract.sol\":3968:3990  authorisedDistributors */\n      0x02\n        /* \"contracts/ControlContract.sol\":3968:4003  authorisedDistributors[distributor] */\n      0x00\n        /* \"contracts/ControlContract.sol\":3991:4002  distributor */\n      dup4\n        /* \"contracts/ControlContract.sol\":3968:4003  authorisedDistributors[distributor] */\n      0xffffffffffffffffffffffffffffffffffffffff\n      and\n      0xffffffffffffffffffffffffffffffffffffffff\n      and\n      dup2\n      mstore\n      0x20\n      add\n      swap1\n      dup2\n      mstore\n      0x20\n      add\n      0x00\n      keccak256\n      0x00\n        /* \"contracts/ControlContract.sol\":3968:4010  authorisedDistributors[distributor] = true */\n      0x0100\n      exp\n      dup2\n      sload\n      dup2\n      0xff\n      mul\n      not\n      and\n      swap1\n      dup4\n      iszero\n      iszero\n      mul\n      or\n      swap1\n      sstore\n      pop\n        /* \"contracts/ControlContract.sol\":3846:4018  function authoriseDistributor(address distributor) external onlyOwner {... */\n      pop\n      jump\t// out\n        /* \"contracts/ControlContract.sol\":1095:1127  MintContract public mintContract */\n    tag_54:\n      0x00\n      0x00\n      swap1\n      sload\n      swap1\n      0x0100\n      exp\n      swap1\n      div\n      0xffffffffffffffffffffffffffffffffffffffff\n      and\n      dup2\n      jump\t// out\n        /* \"contracts/ControlContract.sol\":8880:9053  function getCustodyHistory(uint256 tokenId)... */\n    tag_59:\n        /* \"contracts/ControlContract.sol\":8974:8996  CustodyRecord[] memory */\n      0x60\n        /* \"contracts/ControlContract.sol\":9021:9036  _custodyHistory */\n      0x04\n        /* \"contracts/ControlContract.sol\":9021:9045  _custodyHistory[tokenId] */\n      0x00\n        /* \"contracts/ControlContract.sol\":9037:9044  tokenId */\n      dup4\n        /* \"contracts/ControlContract.sol\":9021:9045  _custodyHistory[tokenId] */\n      dup2\n      mstore\n      0x20\n      add\n      swap1\n      dup2\n      mstore\n      0x20\n      add\n      0x00\n      keccak256\n        /* \"contracts/ControlContract.sol\":9014:9045  return _custodyHistory[tokenId] */\n      dup1\n      sload\n      dup1\n      0x20\n      mul\n      0x20\n      add\n      mload(0x40)\n      swap1\n      dup2\n      add\n      0x40\n      mstore\n      dup1\n      swap3\n      swap2\n      swap1\n      dup2\n      dup2\n      mstore\n      0x20\n      add\n      0x00\n      swap1\n    tag_165:\n      dup3\n      dup3\n      lt\n      iszero\n      tag_166\n      jumpi\n      dup4\n      dup3\n      swap1\n      0x00\n      mstore\n      keccak256(0x00, 0x20)\n      swap1\n      0x04\n      mul\n      add\n      mload(0x40)\n      dup1\n      0xa0\n      add\n      0x40\n      mstore\n      swap1\n      dup2\n      0x00\n      dup3\n      add\n      0x00\n      swap1\n      sload\n      swap1\n      0x0100\n      exp\n      swap1\n      div\n      0xffffffffffffffffffffffffffffffffffffffff\n      and\n      0xffffffffffffffffffffffffffffffffffffffff\n      and\n      0xffffffffffffffffffffffffffffffffffffffff\n      and\n      dup2\n      mstore\n      0x20\n      add\n      0x01\n      dup3\n      add\n      0x00\n      swap1\n      sload\n      swap1\n      0x0100\n      exp\n      swap1\n      div\n      0xffffffffffffffffffffffffffffffffffffffff\n      and\n      0xffffffffffffffffffffffffffffffffffffffff\n      and\n      0xffffffffffffffffffffffffffffffffffffffff\n      and\n      dup2\n      mstore\n      0x20\n      add\n      0x01\n      dup3\n      add\n      0x14\n      swap1\n      sload\n      swap1\n      0x0100\n      exp\n      swap1\n      div\n      0xff\n      and\n      0x04\n      dup2\n      gt\n      iszero\n      tag_168\n      jumpi\n      tag_169\n      tag_91\n      jump\t// in\n    tag_169:\n    tag_168:\n      0x04\n      dup2\n      gt\n      iszero\n      tag_170\n      jumpi\n      tag_171\n      tag_91\n      jump\t// in\n    tag_171:\n    tag_170:\n      dup2\n      mstore\n      0x20\n      add\n      0x02\n      dup3\n      add\n      sload\n      dup2\n      mstore\n      0x20\n      add\n      0x03\n      dup3\n      add\n      dup1\n      sload\n      tag_172\n      swap1\n      tag_173\n      jump\t// in\n    tag_172:\n      dup1\n      0x1f\n      add\n      0x20\n      dup1\n      swap2\n      div\n      mul\n      0x20\n      add\n      mload(0x40)\n      swap1\n      dup2\n      add\n      0x40\n      mstore\n      dup1\n      swap3\n      swap2\n      swap1\n      dup2\n      dup2\n      mstore\n      0x20\n      add\n      dup3\n      dup1\n      sload\n      tag_174\n      swap1\n      tag_173\n      jump\t// in\n    tag_174:\n      dup1\n      iszero\n      tag_175\n      jumpi\n      dup1\n      0x1f\n      lt\n      tag_176\n      jumpi\n      0x0100\n      dup1\n      dup4\n      sload\n      div\n      mul\n      dup4\n      mstore\n      swap2\n      0x20\n      add\n      swap2\n      jump(tag_175)\n    tag_176:\n      dup3\n      add\n      swap2\n      swap1\n      0x00\n      mstore\n      keccak256(0x00, 0x20)\n      swap1\n    tag_177:\n      dup2\n      sload\n      dup2\n      mstore\n      swap1\n      0x01\n      add\n      swap1\n      0x20\n      add\n      dup1\n      dup4\n      gt\n      tag_177\n      jumpi\n      dup3\n      swap1\n      sub\n      0x1f\n      and\n      dup3\n      add\n      swap2\n    tag_175:\n      pop\n      pop\n      pop\n      pop\n      pop\n      dup2\n      mstore\n      pop\n      pop\n      dup2\n      mstore\n      0x20\n      add\n      swap1\n      0x01\n      add\n      swap1\n      jump(tag_165)\n    tag_166:\n      pop\n      pop\n      pop\n      pop\n      swap1\n      pop\n        /* \"contracts/ControlContract.sol\":8880:9053  function getCustodyHistory(uint256 tokenId)... */\n      swap2\n      swap1\n      pop\n      jump\t// out\n        /* \"contracts/ControlContract.sol\":1318:1370  mapping(address => bool) public authorisedPharmacies */\n    tag_64:\n      mstore(0x20, 0x03)\n      dup1\n      0x00\n      mstore\n      keccak256(0x00, 0x40)\n      0x00\n      swap2\n      pop\n      sload\n      swap1\n      0x0100\n      exp\n      swap1\n      div\n      0xff\n      and\n      dup2\n      jump\t// out\n        /* \"contracts/ControlContract.sol\":4163:4324  function authorisePharmacy(address pharmacy) external onlyOwner {... */\n    tag_68:\n        /* \"contracts/ControlContract.sol\":2481:2486  owner */\n      0x01\n      0x00\n      swap1\n      sload\n      swap1\n      0x0100\n      exp\n      swap1\n      div\n      0xffffffffffffffffffffffffffffffffffffffff\n      and\n        /* \"contracts/ControlContract.sol\":2467:2486  msg.sender == owner */\n      0xffffffffffffffffffffffffffffffffffffffff\n      and\n        /* \"contracts/ControlContract.sol\":2467:2477  msg.sender */\n      caller\n        /* \"contracts/ControlContract.sol\":2467:2486  msg.sender == owner */\n      0xffffffffffffffffffffffffffffffffffffffff\n      and\n      eq\n        /* \"contracts/ControlContract.sol\":2459:2527  require(msg.sender == owner, \"ControlContract: caller is not owner\") */\n      tag_179\n      jumpi\n      mload(0x40)\n      0x08c379a000000000000000000000000000000000000000000000000000000000\n      dup2\n      mstore\n      0x04\n      add\n      tag_180\n      swap1\n      tag_72\n      jump\t// in\n    tag_180:\n      mload(0x40)\n      dup1\n      swap2\n      sub\n      swap1\n      revert\n    tag_179:\n        /* \"contracts/ControlContract.sol\":4312:4316  true */\n      0x01\n        /* \"contracts/ControlContract.sol\":4279:4299  authorisedPharmacies */\n      0x03\n        /* \"contracts/ControlContract.sol\":4279:4309  authorisedPharmacies[pharmacy] */\n      0x00\n        /* \"contracts/ControlContract.sol\":4300:4308  pharmacy */\n      dup4\n        /* \"contracts/ControlContract.sol\":4279:4309  authorisedPharmacies[pharmacy] */\n      0xffffffffffffffffffffffffffffffffffffffff\n      and\n      0xffffffffffffffffffffffffffffffffffffffff\n      and\n      dup2\n      mstore\n      0x20\n      add\n      swap1\n      dup2\n      mstore\n      0x20\n      add\n      0x00\n      keccak256\n      0x00\n        /* \"contracts/ControlContract.sol\":4279:4316  authorisedPharmacies[pharmacy] = true */\n      0x0100\n      exp\n      dup2\n      sload\n      dup2\n      0xff\n      mul\n      not\n      and\n      swap1\n      dup4\n      iszero\n      iszero\n      mul\n      or\n      swap1\n      sstore\n      pop\n        /* \"contracts/ControlContract.sol\":4163:4324  function authorisePharmacy(address pharmacy) external onlyOwner {... */\n      pop\n      jump\t// out\n        /* \"contracts/ControlContract.sol\":8135:8542  function _appendCustody(... */\n    tag_108:\n        /* \"contracts/ControlContract.sol\":8315:8330  _custodyHistory */\n      0x04\n        /* \"contracts/ControlContract.sol\":8315:8339  _custodyHistory[tokenId] */\n      0x00\n        /* \"contracts/ControlContract.sol\":8331:8338  tokenId */\n      dup7\n        /* \"contracts/ControlContract.sol\":8315:8339  _custodyHistory[tokenId] */\n      dup2\n      mstore\n      0x20\n      add\n      swap1\n      dup2\n      mstore\n      0x20\n      add\n      0x00\n      keccak256\n        /* \"contracts/ControlContract.sol\":8345:8533  CustodyRecord({... */\n      mload(0x40)\n      dup1\n      0xa0\n      add\n      0x40\n      mstore\n      dup1\n        /* \"contracts/ControlContract.sol\":8385:8389  from */\n      dup7\n        /* \"contracts/ControlContract.sol\":8345:8533  CustodyRecord({... */\n      0xffffffffffffffffffffffffffffffffffffffff\n      and\n      dup2\n      mstore\n      0x20\n      add\n        /* \"contracts/ControlContract.sol\":8415:8417  to */\n      dup6\n        /* \"contracts/ControlContract.sol\":8345:8533  CustodyRecord({... */\n      0xffffffffffffffffffffffffffffffffffffffff\n      and\n      dup2\n      mstore\n      0x20\n      add\n        /* \"contracts/ControlContract.sol\":8443:8449  status */\n      dup5\n        /* \"contracts/ControlContract.sol\":8345:8533  CustodyRecord({... */\n      0x04\n      dup2\n      gt\n      iszero\n      tag_183\n      jumpi\n      tag_184\n      tag_91\n      jump\t// in\n    tag_184:\n    tag_183:\n      dup2\n      mstore\n      0x20\n      add\n        /* \"contracts/ControlContract.sol\":8475:8490  block.timestamp */\n      timestamp\n        /* \"contracts/ControlContract.sol\":8345:8533  CustodyRecord({... */\n      dup2\n      mstore\n      0x20\n      add\n        /* \"contracts/ControlContract.sol\":8516:8521  notes */\n      dup4\n        /* \"contracts/ControlContract.sol\":8345:8533  CustodyRecord({... */\n      dup2\n      mstore\n      pop\n        /* \"contracts/ControlContract.sol\":8315:8534  _custodyHistory[tokenId].push(CustodyRecord({... */\n      swap1\n      dup1\n      0x01\n      dup2\n      sload\n      add\n      dup1\n      dup3\n      sstore\n      dup1\n      swap2\n      pop\n      pop\n      0x01\n      swap1\n      sub\n      swap1\n      0x00\n      mstore\n      keccak256(0x00, 0x20)\n      swap1\n      0x04\n      mul\n      add\n      0x00\n      swap1\n      swap2\n      swap1\n      swap2\n      swap1\n      swap2\n      pop\n      0x00\n      dup3\n      add\n      mload\n      dup2\n      0x00\n      add\n      exp(0x0100, 0x00)\n      dup2\n      sload\n      dup2\n      0xffffffffffffffffffffffffffffffffffffffff\n      mul\n      not\n      and\n      swap1\n      dup4\n      0xffffffffffffffffffffffffffffffffffffffff\n      and\n      mul\n      or\n      swap1\n      sstore\n      pop\n      0x20\n      dup3\n      add\n      mload\n      dup2\n      0x01\n      add\n      exp(0x0100, 0x00)\n      dup2\n      sload\n      dup2\n      0xffffffffffffffffffffffffffffffffffffffff\n      mul\n      not\n      and\n      swap1\n      dup4\n      0xffffffffffffffffffffffffffffffffffffffff\n      and\n      mul\n      or\n      swap1\n      sstore\n      pop\n      0x40\n      dup3\n      add\n      mload\n      dup2\n      0x01\n      add\n      exp(0x0100, 0x14)\n      dup2\n      sload\n      dup2\n      0xff\n      mul\n      not\n      and\n      swap1\n      dup4\n      0x04\n      dup2\n      gt\n      iszero\n      tag_186\n      jumpi\n      tag_187\n      tag_91\n      jump\t// in\n    tag_187:\n    tag_186:\n      mul\n      or\n      swap1\n      sstore\n      pop\n      0x60\n      dup3\n      add\n      mload\n      dup2\n      0x02\n      add\n      sstore\n      0x80\n      dup3\n      add\n      mload\n      dup2\n      0x03\n      add\n      swap1\n      dup2\n      tag_188\n      swap2\n      swap1\n      tag_189\n      jump\t// in\n    tag_188:\n      pop\n      pop\n      pop\n        /* \"contracts/ControlContract.sol\":8135:8542  function _appendCustody(... */\n      pop\n      pop\n      pop\n      pop\n      pop\n      jump\t// out\n        /* \"#utility.yul\":7:82   */\n    tag_190:\n        /* \"#utility.yul\":40:46   */\n      0x00\n        /* \"#utility.yul\":73:75   */\n      0x40\n        /* \"#utility.yul\":67:76   */\n      mload\n        /* \"#utility.yul\":57:76   */\n      swap1\n      pop\n        /* \"#utility.yul\":7:82   */\n      swap1\n      jump\t// out\n        /* \"#utility.yul\":88:205   */\n    tag_191:\n        /* \"#utility.yul\":197:198   */\n      0x00\n        /* \"#utility.yul\":194:195   */\n      0x00\n        /* \"#utility.yul\":187:199   */\n      revert\n        /* \"#utility.yul\":211:328   */\n    tag_192:\n        /* \"#utility.yul\":320:321   */\n      0x00\n        /* \"#utility.yul\":317:318   */\n      0x00\n        /* \"#utility.yul\":310:322   */\n      revert\n        /* \"#utility.yul\":334:460   */\n    tag_193:\n        /* \"#utility.yul\":371:378   */\n      0x00\n        /* \"#utility.yul\":411:453   */\n      0xffffffffffffffffffffffffffffffffffffffff\n        /* \"#utility.yul\":404:409   */\n      dup3\n        /* \"#utility.yul\":400:454   */\n      and\n        /* \"#utility.yul\":389:454   */\n      swap1\n      pop\n        /* \"#utility.yul\":334:460   */\n      swap2\n      swap1\n      pop\n      jump\t// out\n        /* \"#utility.yul\":466:562   */\n    tag_194:\n        /* \"#utility.yul\":503:510   */\n      0x00\n        /* \"#utility.yul\":532:556   */\n      tag_286\n        /* \"#utility.yul\":550:555   */\n      dup3\n        /* \"#utility.yul\":532:556   */\n      tag_193\n      jump\t// in\n    tag_286:\n        /* \"#utility.yul\":521:556   */\n      swap1\n      pop\n        /* \"#utility.yul\":466:562   */\n      swap2\n      swap1\n      pop\n      jump\t// out\n        /* \"#utility.yul\":568:690   */\n    tag_195:\n        /* \"#utility.yul\":641:665   */\n      tag_288\n        /* \"#utility.yul\":659:664   */\n      dup2\n        /* \"#utility.yul\":641:665   */\n      tag_194\n      jump\t// in\n    tag_288:\n        /* \"#utility.yul\":634:639   */\n      dup2\n        /* \"#utility.yul\":631:666   */\n      eq\n        /* \"#utility.yul\":621:684   */\n      tag_289\n      jumpi\n        /* \"#utility.yul\":680:681   */\n      0x00\n        /* \"#utility.yul\":677:678   */\n      0x00\n        /* \"#utility.yul\":670:682   */\n      revert\n        /* \"#utility.yul\":621:684   */\n    tag_289:\n        /* \"#utility.yul\":568:690   */\n      pop\n      jump\t// out\n        /* \"#utility.yul\":696:835   */\n    tag_196:\n        /* \"#utility.yul\":742:747   */\n      0x00\n        /* \"#utility.yul\":780:786   */\n      dup2\n        /* \"#utility.yul\":767:787   */\n      calldataload\n        /* \"#utility.yul\":758:787   */\n      swap1\n      pop\n        /* \"#utility.yul\":796:829   */\n      tag_291\n        /* \"#utility.yul\":823:828   */\n      dup2\n        /* \"#utility.yul\":796:829   */\n      tag_195\n      jump\t// in\n    tag_291:\n        /* \"#utility.yul\":696:835   */\n      swap3\n      swap2\n      pop\n      pop\n      jump\t// out\n        /* \"#utility.yul\":841:1170   */\n    tag_20:\n        /* \"#utility.yul\":900:906   */\n      0x00\n        /* \"#utility.yul\":949:951   */\n      0x20\n        /* \"#utility.yul\":937:946   */\n      dup3\n        /* \"#utility.yul\":928:935   */\n      dup5\n        /* \"#utility.yul\":924:947   */\n      sub\n        /* \"#utility.yul\":920:952   */\n      slt\n        /* \"#utility.yul\":917:1036   */\n      iszero\n      tag_293\n      jumpi\n        /* \"#utility.yul\":955:1034   */\n      tag_294\n      tag_191\n      jump\t// in\n    tag_294:\n        /* \"#utility.yul\":917:1036   */\n    tag_293:\n        /* \"#utility.yul\":1075:1076   */\n      0x00\n        /* \"#utility.yul\":1100:1153   */\n      tag_295\n        /* \"#utility.yul\":1145:1152   */\n      dup5\n        /* \"#utility.yul\":1136:1142   */\n      dup3\n        /* \"#utility.yul\":1125:1134   */\n      dup6\n        /* \"#utility.yul\":1121:1143   */\n      add\n        /* \"#utility.yul\":1100:1153   */\n      tag_196\n      jump\t// in\n    tag_295:\n        /* \"#utility.yul\":1090:1153   */\n      swap2\n      pop\n        /* \"#utility.yul\":1046:1163   */\n      pop\n        /* \"#utility.yul\":841:1170   */\n      swap3\n      swap2\n      pop\n      pop\n      jump\t// out\n        /* \"#utility.yul\":1176:1253   */\n    tag_197:\n        /* \"#utility.yul\":1213:1220   */\n      0x00\n        /* \"#utility.yul\":1242:1247   */\n      dup2\n        /* \"#utility.yul\":1231:1247   */\n      swap1\n      pop\n        /* \"#utility.yul\":1176:1253   */\n      swap2\n      swap1\n      pop\n      jump\t// out\n        /* \"#utility.yul\":1259:1381   */\n    tag_198:\n        /* \"#utility.yul\":1332:1356   */\n      tag_298\n        /* \"#utility.yul\":1350:1355   */\n      dup2\n        /* \"#utility.yul\":1332:1356   */\n      tag_197\n      jump\t// in\n    tag_298:\n        /* \"#utility.yul\":1325:1330   */\n      dup2\n        /* \"#utility.yul\":1322:1357   */\n      eq\n        /* \"#utility.yul\":1312:1375   */\n      tag_299\n      jumpi\n        /* \"#utility.yul\":1371:1372   */\n      0x00\n        /* \"#utility.yul\":1368:1369   */\n      0x00\n        /* \"#utility.yul\":1361:1373   */\n      revert\n        /* \"#utility.yul\":1312:1375   */\n    tag_299:\n        /* \"#utility.yul\":1259:1381   */\n      pop\n      jump\t// out\n        /* \"#utility.yul\":1387:1526   */\n    tag_199:\n        /* \"#utility.yul\":1433:1438   */\n      0x00\n        /* \"#utility.yul\":1471:1477   */\n      dup2\n        /* \"#utility.yul\":1458:1478   */\n      calldataload\n        /* \"#utility.yul\":1449:1478   */\n      swap1\n      pop\n        /* \"#utility.yul\":1487:1520   */\n      tag_301\n        /* \"#utility.yul\":1514:1519   */\n      dup2\n        /* \"#utility.yul\":1487:1520   */\n      tag_198\n      jump\t// in\n    tag_301:\n        /* \"#utility.yul\":1387:1526   */\n      swap3\n      swap2\n      pop\n      pop\n      jump\t// out\n        /* \"#utility.yul\":1532:1649   */\n    tag_200:\n        /* \"#utility.yul\":1641:1642   */\n      0x00\n        /* \"#utility.yul\":1638:1639   */\n      0x00\n        /* \"#utility.yul\":1631:1643   */\n      revert\n        /* \"#utility.yul\":1655:1772   */\n    tag_201:\n        /* \"#utility.yul\":1764:1765   */\n      0x00\n        /* \"#utility.yul\":1761:1762   */\n      0x00\n        /* \"#utility.yul\":1754:1766   */\n      revert\n        /* \"#utility.yul\":1778:1895   */\n    tag_202:\n        /* \"#utility.yul\":1887:1888   */\n      0x00\n        /* \"#utility.yul\":1884:1885   */\n      0x00\n        /* \"#utility.yul\":1877:1889   */\n      revert\n        /* \"#utility.yul\":1915:2468   */\n    tag_203:\n        /* \"#utility.yul\":1973:1981   */\n      0x00\n        /* \"#utility.yul\":1983:1989   */\n      0x00\n        /* \"#utility.yul\":2033:2036   */\n      dup4\n        /* \"#utility.yul\":2026:2030   */\n      0x1f\n        /* \"#utility.yul\":2018:2024   */\n      dup5\n        /* \"#utility.yul\":2014:2031   */\n      add\n        /* \"#utility.yul\":2010:2037   */\n      slt\n        /* \"#utility.yul\":2000:2122   */\n      tag_306\n      jumpi\n        /* \"#utility.yul\":2041:2120   */\n      tag_307\n      tag_200\n      jump\t// in\n    tag_307:\n        /* \"#utility.yul\":2000:2122   */\n    tag_306:\n        /* \"#utility.yul\":2154:2160   */\n      dup3\n        /* \"#utility.yul\":2141:2161   */\n      calldataload\n        /* \"#utility.yul\":2131:2161   */\n      swap1\n      pop\n        /* \"#utility.yul\":2184:2202   */\n      0xffffffffffffffff\n        /* \"#utility.yul\":2176:2182   */\n      dup2\n        /* \"#utility.yul\":2173:2203   */\n      gt\n        /* \"#utility.yul\":2170:2287   */\n      iszero\n      tag_308\n      jumpi\n        /* \"#utility.yul\":2206:2285   */\n      tag_309\n      tag_201\n      jump\t// in\n    tag_309:\n        /* \"#utility.yul\":2170:2287   */\n    tag_308:\n        /* \"#utility.yul\":2320:2324   */\n      0x20\n        /* \"#utility.yul\":2312:2318   */\n      dup4\n        /* \"#utility.yul\":2308:2325   */\n      add\n        /* \"#utility.yul\":2296:2325   */\n      swap2\n      pop\n        /* \"#utility.yul\":2374:2377   */\n      dup4\n        /* \"#utility.yul\":2366:2370   */\n      0x01\n        /* \"#utility.yul\":2358:2364   */\n      dup3\n        /* \"#utility.yul\":2354:2371   */\n      mul\n        /* \"#utility.yul\":2344:2352   */\n      dup4\n        /* \"#utility.yul\":2340:2372   */\n      add\n        /* \"#utility.yul\":2337:2378   */\n      gt\n        /* \"#utility.yul\":2334:2462   */\n      iszero\n      tag_310\n      jumpi\n        /* \"#utility.yul\":2381:2460   */\n      tag_311\n      tag_202\n      jump\t// in\n    tag_311:\n        /* \"#utility.yul\":2334:2462   */\n    tag_310:\n        /* \"#utility.yul\":1915:2468   */\n      swap3\n      pop\n      swap3\n      swap1\n      pop\n      jump\t// out\n        /* \"#utility.yul\":2474:3293   */\n    tag_27:\n        /* \"#utility.yul\":2563:2569   */\n      0x00\n        /* \"#utility.yul\":2571:2577   */\n      0x00\n        /* \"#utility.yul\":2579:2585   */\n      0x00\n        /* \"#utility.yul\":2587:2593   */\n      0x00\n        /* \"#utility.yul\":2636:2638   */\n      0x60\n        /* \"#utility.yul\":2624:2633   */\n      dup6\n        /* \"#utility.yul\":2615:2622   */\n      dup8\n        /* \"#utility.yul\":2611:2634   */\n      sub\n        /* \"#utility.yul\":2607:2639   */\n      slt\n        /* \"#utility.yul\":2604:2723   */\n      iszero\n      tag_313\n      jumpi\n        /* \"#utility.yul\":2642:2721   */\n      tag_314\n      tag_191\n      jump\t// in\n    tag_314:\n        /* \"#utility.yul\":2604:2723   */\n    tag_313:\n        /* \"#utility.yul\":2762:2763   */\n      0x00\n        /* \"#utility.yul\":2787:2840   */\n      tag_315\n        /* \"#utility.yul\":2832:2839   */\n      dup8\n        /* \"#utility.yul\":2823:2829   */\n      dup3\n        /* \"#utility.yul\":2812:2821   */\n      dup9\n        /* \"#utility.yul\":2808:2830   */\n      add\n        /* \"#utility.yul\":2787:2840   */\n      tag_199\n      jump\t// in\n    tag_315:\n        /* \"#utility.yul\":2777:2840   */\n      swap5\n      pop\n        /* \"#utility.yul\":2733:2850   */\n      pop\n        /* \"#utility.yul\":2889:2891   */\n      0x20\n        /* \"#utility.yul\":2915:2968   */\n      tag_316\n        /* \"#utility.yul\":2960:2967   */\n      dup8\n        /* \"#utility.yul\":2951:2957   */\n      dup3\n        /* \"#utility.yul\":2940:2949   */\n      dup9\n        /* \"#utility.yul\":2936:2958   */\n      add\n        /* \"#utility.yul\":2915:2968   */\n      tag_196\n      jump\t// in\n    tag_316:\n        /* \"#utility.yul\":2905:2968   */\n      swap4\n      pop\n        /* \"#utility.yul\":2860:2978   */\n      pop\n        /* \"#utility.yul\":3045:3047   */\n      0x40\n        /* \"#utility.yul\":3034:3043   */\n      dup6\n        /* \"#utility.yul\":3030:3048   */\n      add\n        /* \"#utility.yul\":3017:3049   */\n      calldataload\n        /* \"#utility.yul\":3076:3094   */\n      0xffffffffffffffff\n        /* \"#utility.yul\":3068:3074   */\n      dup2\n        /* \"#utility.yul\":3065:3095   */\n      gt\n        /* \"#utility.yul\":3062:3179   */\n      iszero\n      tag_317\n      jumpi\n        /* \"#utility.yul\":3098:3177   */\n      tag_318\n      tag_192\n      jump\t// in\n    tag_318:\n        /* \"#utility.yul\":3062:3179   */\n    tag_317:\n        /* \"#utility.yul\":3211:3276   */\n      tag_319\n        /* \"#utility.yul\":3268:3275   */\n      dup8\n        /* \"#utility.yul\":3259:3265   */\n      dup3\n        /* \"#utility.yul\":3248:3257   */\n      dup9\n        /* \"#utility.yul\":3244:3266   */\n      add\n        /* \"#utility.yul\":3211:3276   */\n      tag_203\n      jump\t// in\n    tag_319:\n        /* \"#utility.yul\":3193:3276   */\n      swap3\n      pop\n      swap3\n      pop\n        /* \"#utility.yul\":2988:3286   */\n      pop\n        /* \"#utility.yul\":2474:3293   */\n      swap3\n      swap6\n      swap2\n      swap5\n      pop\n      swap3\n      pop\n      jump\t// out\n        /* \"#utility.yul\":3299:3628   */\n    tag_31:\n        /* \"#utility.yul\":3358:3364   */\n      0x00\n        /* \"#utility.yul\":3407:3409   */\n      0x20\n        /* \"#utility.yul\":3395:3404   */\n      dup3\n        /* \"#utility.yul\":3386:3393   */\n      dup5\n        /* \"#utility.yul\":3382:3405   */\n      sub\n        /* \"#utility.yul\":3378:3410   */\n      slt\n        /* \"#utility.yul\":3375:3494   */\n      iszero\n      tag_321\n      jumpi\n        /* \"#utility.yul\":3413:3492   */\n      tag_322\n      tag_191\n      jump\t// in\n    tag_322:\n        /* \"#utility.yul\":3375:3494   */\n    tag_321:\n        /* \"#utility.yul\":3533:3534   */\n      0x00\n        /* \"#utility.yul\":3558:3611   */\n      tag_323\n        /* \"#utility.yul\":3603:3610   */\n      dup5\n        /* \"#utility.yul\":3594:3600   */\n      dup3\n        /* \"#utility.yul\":3583:3592   */\n      dup6\n        /* \"#utility.yul\":3579:3601   */\n      add\n        /* \"#utility.yul\":3558:3611   */\n      tag_199\n      jump\t// in\n    tag_323:\n        /* \"#utility.yul\":3548:3611   */\n      swap2\n      pop\n        /* \"#utility.yul\":3504:3621   */\n      pop\n        /* \"#utility.yul\":3299:3628   */\n      swap3\n      swap2\n      pop\n      pop\n      jump\t// out\n        /* \"#utility.yul\":3634:3752   */\n    tag_204:\n        /* \"#utility.yul\":3721:3745   */\n      tag_325\n        /* \"#utility.yul\":3739:3744   */\n      dup2\n        /* \"#utility.yul\":3721:3745   */\n      tag_194\n      jump\t// in\n    tag_325:\n        /* \"#utility.yul\":3716:3719   */\n      dup3\n        /* \"#utility.yul\":3709:3746   */\n      mstore\n        /* \"#utility.yul\":3634:3752   */\n      pop\n      pop\n      jump\t// out\n        /* \"#utility.yul\":3758:3980   */\n    tag_34:\n        /* \"#utility.yul\":3851:3855   */\n      0x00\n        /* \"#utility.yul\":3889:3891   */\n      0x20\n        /* \"#utility.yul\":3878:3887   */\n      dup3\n        /* \"#utility.yul\":3874:3892   */\n      add\n        /* \"#utility.yul\":3866:3892   */\n      swap1\n      pop\n        /* \"#utility.yul\":3902:3973   */\n      tag_327\n        /* \"#utility.yul\":3970:3971   */\n      0x00\n        /* \"#utility.yul\":3959:3968   */\n      dup4\n        /* \"#utility.yul\":3955:3972   */\n      add\n        /* \"#utility.yul\":3946:3952   */\n      dup5\n        /* \"#utility.yul\":3902:3973   */\n      tag_204\n      jump\t// in\n    tag_327:\n        /* \"#utility.yul\":3758:3980   */\n      swap3\n      swap2\n      pop\n      pop\n      jump\t// out\n        /* \"#utility.yul\":3986:4460   */\n    tag_37:\n        /* \"#utility.yul\":4054:4060   */\n      0x00\n        /* \"#utility.yul\":4062:4068   */\n      0x00\n        /* \"#utility.yul\":4111:4113   */\n      0x40\n        /* \"#utility.yul\":4099:4108   */\n      dup4\n        /* \"#utility.yul\":4090:4097   */\n      dup6\n        /* \"#utility.yul\":4086:4109   */\n      sub\n        /* \"#utility.yul\":4082:4114   */\n      slt\n        /* \"#utility.yul\":4079:4198   */\n      iszero\n      tag_329\n      jumpi\n        /* \"#utility.yul\":4117:4196   */\n      tag_330\n      tag_191\n      jump\t// in\n    tag_330:\n        /* \"#utility.yul\":4079:4198   */\n    tag_329:\n        /* \"#utility.yul\":4237:4238   */\n      0x00\n        /* \"#utility.yul\":4262:4315   */\n      tag_331\n        /* \"#utility.yul\":4307:4314   */\n      dup6\n        /* \"#utility.yul\":4298:4304   */\n      dup3\n        /* \"#utility.yul\":4287:4296   */\n      dup7\n        /* \"#utility.yul\":4283:4305   */\n      add\n        /* \"#utility.yul\":4262:4315   */\n      tag_199\n      jump\t// in\n    tag_331:\n        /* \"#utility.yul\":4252:4315   */\n      swap3\n      pop\n        /* \"#utility.yul\":4208:4325   */\n      pop\n        /* \"#utility.yul\":4364:4366   */\n      0x20\n        /* \"#utility.yul\":4390:4443   */\n      tag_332\n        /* \"#utility.yul\":4435:4442   */\n      dup6\n        /* \"#utility.yul\":4426:4432   */\n      dup3\n        /* \"#utility.yul\":4415:4424   */\n      dup7\n        /* \"#utility.yul\":4411:4433   */\n      add\n        /* \"#utility.yul\":4390:4443   */\n      tag_196\n      jump\t// in\n    tag_332:\n        /* \"#utility.yul\":4380:4443   */\n      swap2\n      pop\n        /* \"#utility.yul\":4335:4453   */\n      pop\n        /* \"#utility.yul\":3986:4460   */\n      swap3\n      pop\n      swap3\n      swap1\n      pop\n      jump\t// out\n        /* \"#utility.yul\":4466:4556   */\n    tag_205:\n        /* \"#utility.yul\":4500:4507   */\n      0x00\n        /* \"#utility.yul\":4543:4548   */\n      dup2\n        /* \"#utility.yul\":4536:4549   */\n      iszero\n        /* \"#utility.yul\":4529:4550   */\n      iszero\n        /* \"#utility.yul\":4518:4550   */\n      swap1\n      pop\n        /* \"#utility.yul\":4466:4556   */\n      swap2\n      swap1\n      pop\n      jump\t// out\n        /* \"#utility.yul\":4562:4671   */\n    tag_206:\n        /* \"#utility.yul\":4643:4664   */\n      tag_335\n        /* \"#utility.yul\":4658:4663   */\n      dup2\n        /* \"#utility.yul\":4643:4664   */\n      tag_205\n      jump\t// in\n    tag_335:\n        /* \"#utility.yul\":4638:4641   */\n      dup3\n        /* \"#utility.yul\":4631:4665   */\n      mstore\n        /* \"#utility.yul\":4562:4671   */\n      pop\n      pop\n      jump\t// out\n        /* \"#utility.yul\":4677:4887   */\n    tag_46:\n        /* \"#utility.yul\":4764:4768   */\n      0x00\n        /* \"#utility.yul\":4802:4804   */\n      0x20\n        /* \"#utility.yul\":4791:4800   */\n      dup3\n        /* \"#utility.yul\":4787:4805   */\n      add\n        /* \"#utility.yul\":4779:4805   */\n      swap1\n      pop\n        /* \"#utility.yul\":4815:4880   */\n      tag_337\n        /* \"#utility.yul\":4877:4878   */\n      0x00\n        /* \"#utility.yul\":4866:4875   */\n      dup4\n        /* \"#utility.yul\":4862:4879   */\n      add\n        /* \"#utility.yul\":4853:4859   */\n      dup5\n        /* \"#utility.yul\":4815:4880   */\n      tag_206\n      jump\t// in\n    tag_337:\n        /* \"#utility.yul\":4677:4887   */\n      swap3\n      swap2\n      pop\n      pop\n      jump\t// out\n        /* \"#utility.yul\":4893:4953   */\n    tag_207:\n        /* \"#utility.yul\":4921:4924   */\n      0x00\n        /* \"#utility.yul\":4942:4947   */\n      dup2\n        /* \"#utility.yul\":4935:4947   */\n      swap1\n      pop\n        /* \"#utility.yul\":4893:4953   */\n      swap2\n      swap1\n      pop\n      jump\t// out\n        /* \"#utility.yul\":4959:5101   */\n    tag_208:\n        /* \"#utility.yul\":5009:5018   */\n      0x00\n        /* \"#utility.yul\":5042:5095   */\n      tag_340\n        /* \"#utility.yul\":5060:5094   */\n      tag_341\n        /* \"#utility.yul\":5069:5093   */\n      tag_342\n        /* \"#utility.yul\":5087:5092   */\n      dup5\n        /* \"#utility.yul\":5069:5093   */\n      tag_193\n      jump\t// in\n    tag_342:\n        /* \"#utility.yul\":5060:5094   */\n      tag_207\n      jump\t// in\n    tag_341:\n        /* \"#utility.yul\":5042:5095   */\n      tag_193\n      jump\t// in\n    tag_340:\n        /* \"#utility.yul\":5029:5095   */\n      swap1\n      pop\n        /* \"#utility.yul\":4959:5101   */\n      swap2\n      swap1\n      pop\n      jump\t// out\n        /* \"#utility.yul\":5107:5233   */\n    tag_209:\n        /* \"#utility.yul\":5157:5166   */\n      0x00\n        /* \"#utility.yul\":5190:5227   */\n      tag_344\n        /* \"#utility.yul\":5221:5226   */\n      dup3\n        /* \"#utility.yul\":5190:5227   */\n      tag_208\n      jump\t// in\n    tag_344:\n        /* \"#utility.yul\":5177:5227   */\n      swap1\n      pop\n        /* \"#utility.yul\":5107:5233   */\n      swap2\n      swap1\n      pop\n      jump\t// out\n        /* \"#utility.yul\":5239:5385   */\n    tag_210:\n        /* \"#utility.yul\":5309:5318   */\n      0x00\n        /* \"#utility.yul\":5342:5379   */\n      tag_346\n        /* \"#utility.yul\":5373:5378   */\n      dup3\n        /* \"#utility.yul\":5342:5379   */\n      tag_209\n      jump\t// in\n    tag_346:\n        /* \"#utility.yul\":5329:5379   */\n      swap1\n      pop\n        /* \"#utility.yul\":5239:5385   */\n      swap2\n      swap1\n      pop\n      jump\t// out\n        /* \"#utility.yul\":5391:5562   */\n    tag_211:\n        /* \"#utility.yul\":5498:5555   */\n      tag_348\n        /* \"#utility.yul\":5549:5554   */\n      dup2\n        /* \"#utility.yul\":5498:5555   */\n      tag_210\n      jump\t// in\n    tag_348:\n        /* \"#utility.yul\":5493:5496   */\n      dup3\n        /* \"#utility.yul\":5486:5556   */\n      mstore\n        /* \"#utility.yul\":5391:5562   */\n      pop\n      pop\n      jump\t// out\n        /* \"#utility.yul\":5568:5830   */\n    tag_56:\n        /* \"#utility.yul\":5681:5685   */\n      0x00\n        /* \"#utility.yul\":5719:5721   */\n      0x20\n        /* \"#utility.yul\":5708:5717   */\n      dup3\n        /* \"#utility.yul\":5704:5722   */\n      add\n        /* \"#utility.yul\":5696:5722   */\n      swap1\n      pop\n        /* \"#utility.yul\":5732:5823   */\n      tag_350\n        /* \"#utility.yul\":5820:5821   */\n      0x00\n        /* \"#utility.yul\":5809:5818   */\n      dup4\n        /* \"#utility.yul\":5805:5822   */\n      add\n        /* \"#utility.yul\":5796:5802   */\n      dup5\n        /* \"#utility.yul\":5732:5823   */\n      tag_211\n      jump\t// in\n    tag_350:\n        /* \"#utility.yul\":5568:5830   */\n      swap3\n      swap2\n      pop\n      pop\n      jump\t// out\n        /* \"#utility.yul\":5836:5979   */\n    tag_212:\n        /* \"#utility.yul\":5932:5938   */\n      0x00\n        /* \"#utility.yul\":5966:5971   */\n      dup2\n        /* \"#utility.yul\":5960:5972   */\n      mload\n        /* \"#utility.yul\":5950:5972   */\n      swap1\n      pop\n        /* \"#utility.yul\":5836:5979   */\n      swap2\n      swap1\n      pop\n      jump\t// out\n        /* \"#utility.yul\":5985:6198   */\n    tag_213:\n        /* \"#utility.yul\":6113:6124   */\n      0x00\n        /* \"#utility.yul\":6147:6153   */\n      dup3\n        /* \"#utility.yul\":6142:6145   */\n      dup3\n        /* \"#utility.yul\":6135:6154   */\n      mstore\n        /* \"#utility.yul\":6187:6191   */\n      0x20\n        /* \"#utility.yul\":6182:6185   */\n      dup3\n        /* \"#utility.yul\":6178:6192   */\n      add\n        /* \"#utility.yul\":6163:6192   */\n      swap1\n      pop\n        /* \"#utility.yul\":5985:6198   */\n      swap3\n      swap2\n      pop\n      pop\n      jump\t// out\n        /* \"#utility.yul\":6204:6365   */\n    tag_214:\n        /* \"#utility.yul\":6300:6304   */\n      0x00\n        /* \"#utility.yul\":6323:6326   */\n      dup2\n        /* \"#utility.yul\":6315:6326   */\n      swap1\n      pop\n        /* \"#utility.yul\":6353:6357   */\n      0x20\n        /* \"#utility.yul\":6348:6351   */\n      dup3\n        /* \"#utility.yul\":6344:6358   */\n      add\n        /* \"#utility.yul\":6336:6358   */\n      swap1\n      pop\n        /* \"#utility.yul\":6204:6365   */\n      swap2\n      swap1\n      pop\n      jump\t// out\n        /* \"#utility.yul\":6371:6479   */\n    tag_215:\n        /* \"#utility.yul\":6448:6472   */\n      tag_355\n        /* \"#utility.yul\":6466:6471   */\n      dup2\n        /* \"#utility.yul\":6448:6472   */\n      tag_194\n      jump\t// in\n    tag_355:\n        /* \"#utility.yul\":6443:6446   */\n      dup3\n        /* \"#utility.yul\":6436:6473   */\n      mstore\n        /* \"#utility.yul\":6371:6479   */\n      pop\n      pop\n      jump\t// out\n        /* \"#utility.yul\":6485:6665   */\n    tag_91:\n        /* \"#utility.yul\":6533:6610   */\n      0x4e487b7100000000000000000000000000000000000000000000000000000000\n        /* \"#utility.yul\":6530:6531   */\n      0x00\n        /* \"#utility.yul\":6523:6611   */\n      mstore\n        /* \"#utility.yul\":6630:6634   */\n      0x21\n        /* \"#utility.yul\":6627:6628   */\n      0x04\n        /* \"#utility.yul\":6620:6635   */\n      mstore\n        /* \"#utility.yul\":6654:6658   */\n      0x24\n        /* \"#utility.yul\":6651:6652   */\n      0x00\n        /* \"#utility.yul\":6644:6659   */\n      revert\n        /* \"#utility.yul\":6671:6789   */\n    tag_216:\n        /* \"#utility.yul\":6757:6758   */\n      0x05\n        /* \"#utility.yul\":6750:6755   */\n      dup2\n        /* \"#utility.yul\":6747:6759   */\n      lt\n        /* \"#utility.yul\":6737:6783   */\n      tag_358\n      jumpi\n        /* \"#utility.yul\":6763:6781   */\n      tag_359\n      tag_91\n      jump\t// in\n    tag_359:\n        /* \"#utility.yul\":6737:6783   */\n    tag_358:\n        /* \"#utility.yul\":6671:6789   */\n      pop\n      jump\t// out\n        /* \"#utility.yul\":6795:6932   */\n    tag_217:\n        /* \"#utility.yul\":6845:6852   */\n      0x00\n        /* \"#utility.yul\":6874:6879   */\n      dup2\n        /* \"#utility.yul\":6863:6879   */\n      swap1\n      pop\n        /* \"#utility.yul\":6880:6926   */\n      tag_361\n        /* \"#utility.yul\":6920:6925   */\n      dup3\n        /* \"#utility.yul\":6880:6926   */\n      tag_216\n      jump\t// in\n    tag_361:\n        /* \"#utility.yul\":6795:6932   */\n      swap2\n      swap1\n      pop\n      jump\t// out\n        /* \"#utility.yul\":6938:7075   */\n    tag_218:\n        /* \"#utility.yul\":6999:7008   */\n      0x00\n        /* \"#utility.yul\":7032:7069   */\n      tag_363\n        /* \"#utility.yul\":7063:7068   */\n      dup3\n        /* \"#utility.yul\":7032:7069   */\n      tag_217\n      jump\t// in\n    tag_363:\n        /* \"#utility.yul\":7019:7069   */\n      swap1\n      pop\n        /* \"#utility.yul\":6938:7075   */\n      swap2\n      swap1\n      pop\n      jump\t// out\n        /* \"#utility.yul\":7081:7224   */\n    tag_219:\n        /* \"#utility.yul\":7169:7217   */\n      tag_365\n        /* \"#utility.yul\":7211:7216   */\n      dup2\n        /* \"#utility.yul\":7169:7217   */\n      tag_218\n      jump\t// in\n    tag_365:\n        /* \"#utility.yul\":7164:7167   */\n      dup3\n        /* \"#utility.yul\":7157:7218   */\n      mstore\n        /* \"#utility.yul\":7081:7224   */\n      pop\n      pop\n      jump\t// out\n        /* \"#utility.yul\":7230:7338   */\n    tag_220:\n        /* \"#utility.yul\":7307:7331   */\n      tag_367\n        /* \"#utility.yul\":7325:7330   */\n      dup2\n        /* \"#utility.yul\":7307:7331   */\n      tag_197\n      jump\t// in\n    tag_367:\n        /* \"#utility.yul\":7302:7305   */\n      dup3\n        /* \"#utility.yul\":7295:7332   */\n      mstore\n        /* \"#utility.yul\":7230:7338   */\n      pop\n      pop\n      jump\t// out\n        /* \"#utility.yul\":7344:7443   */\n    tag_221:\n        /* \"#utility.yul\":7396:7402   */\n      0x00\n        /* \"#utility.yul\":7430:7435   */\n      dup2\n        /* \"#utility.yul\":7424:7436   */\n      mload\n        /* \"#utility.yul\":7414:7436   */\n      swap1\n      pop\n        /* \"#utility.yul\":7344:7443   */\n      swap2\n      swap1\n      pop\n      jump\t// out\n        /* \"#utility.yul\":7449:7608   */\n    tag_222:\n        /* \"#utility.yul\":7523:7534   */\n      0x00\n        /* \"#utility.yul\":7557:7563   */\n      dup3\n        /* \"#utility.yul\":7552:7555   */\n      dup3\n        /* \"#utility.yul\":7545:7564   */\n      mstore\n        /* \"#utility.yul\":7597:7601   */\n      0x20\n        /* \"#utility.yul\":7592:7595   */\n      dup3\n        /* \"#utility.yul\":7588:7602   */\n      add\n        /* \"#utility.yul\":7573:7602   */\n      swap1\n      pop\n        /* \"#utility.yul\":7449:7608   */\n      swap3\n      swap2\n      pop\n      pop\n      jump\t// out\n        /* \"#utility.yul\":7614:7753   */\n    tag_223:\n        /* \"#utility.yul\":7703:7709   */\n      dup3\n        /* \"#utility.yul\":7698:7701   */\n      dup2\n        /* \"#utility.yul\":7693:7696   */\n      dup4\n        /* \"#utility.yul\":7687:7710   */\n      mcopy\n        /* \"#utility.yul\":7744:7745   */\n      0x00\n        /* \"#utility.yul\":7735:7741   */\n      dup4\n        /* \"#utility.yul\":7730:7733   */\n      dup4\n        /* \"#utility.yul\":7726:7742   */\n      add\n        /* \"#utility.yul\":7719:7746   */\n      mstore\n        /* \"#utility.yul\":7614:7753   */\n      pop\n      pop\n      pop\n      jump\t// out\n        /* \"#utility.yul\":7759:7861   */\n    tag_224:\n        /* \"#utility.yul\":7800:7806   */\n      0x00\n        /* \"#utility.yul\":7851:7853   */\n      0x1f\n        /* \"#utility.yul\":7847:7854   */\n      not\n        /* \"#utility.yul\":7842:7844   */\n      0x1f\n        /* \"#utility.yul\":7835:7840   */\n      dup4\n        /* \"#utility.yul\":7831:7845   */\n      add\n        /* \"#utility.yul\":7827:7855   */\n      and\n        /* \"#utility.yul\":7817:7855   */\n      swap1\n      pop\n        /* \"#utility.yul\":7759:7861   */\n      swap2\n      swap1\n      pop\n      jump\t// out\n        /* \"#utility.yul\":7867:8224   */\n    tag_225:\n        /* \"#utility.yul\":7945:7948   */\n      0x00\n        /* \"#utility.yul\":7973:8012   */\n      tag_373\n        /* \"#utility.yul\":8006:8011   */\n      dup3\n        /* \"#utility.yul\":7973:8012   */\n      tag_221\n      jump\t// in\n    tag_373:\n        /* \"#utility.yul\":8028:8089   */\n      tag_374\n        /* \"#utility.yul\":8082:8088   */\n      dup2\n        /* \"#utility.yul\":8077:8080   */\n      dup6\n        /* \"#utility.yul\":8028:8089   */\n      tag_222\n      jump\t// in\n    tag_374:\n        /* \"#utility.yul\":8021:8089   */\n      swap4\n      pop\n        /* \"#utility.yul\":8098:8163   */\n      tag_375\n        /* \"#utility.yul\":8156:8162   */\n      dup2\n        /* \"#utility.yul\":8151:8154   */\n      dup6\n        /* \"#utility.yul\":8144:8148   */\n      0x20\n        /* \"#utility.yul\":8137:8142   */\n      dup7\n        /* \"#utility.yul\":8133:8149   */\n      add\n        /* \"#utility.yul\":8098:8163   */\n      tag_223\n      jump\t// in\n    tag_375:\n        /* \"#utility.yul\":8188:8217   */\n      tag_376\n        /* \"#utility.yul\":8210:8216   */\n      dup2\n        /* \"#utility.yul\":8188:8217   */\n      tag_224\n      jump\t// in\n    tag_376:\n        /* \"#utility.yul\":8183:8186   */\n      dup5\n        /* \"#utility.yul\":8179:8218   */\n      add\n        /* \"#utility.yul\":8172:8218   */\n      swap2\n      pop\n        /* \"#utility.yul\":7949:8224   */\n      pop\n        /* \"#utility.yul\":7867:8224   */\n      swap3\n      swap2\n      pop\n      pop\n      jump\t// out\n        /* \"#utility.yul\":8282:9425   */\n    tag_226:\n        /* \"#utility.yul\":8399:8402   */\n      0x00\n        /* \"#utility.yul\":8435:8439   */\n      0xa0\n        /* \"#utility.yul\":8430:8433   */\n      dup4\n        /* \"#utility.yul\":8426:8440   */\n      add\n        /* \"#utility.yul\":8522:8526   */\n      0x00\n        /* \"#utility.yul\":8515:8520   */\n      dup4\n        /* \"#utility.yul\":8511:8527   */\n      add\n        /* \"#utility.yul\":8505:8528   */\n      mload\n        /* \"#utility.yul\":8541:8604   */\n      tag_378\n        /* \"#utility.yul\":8598:8602   */\n      0x00\n        /* \"#utility.yul\":8593:8596   */\n      dup7\n        /* \"#utility.yul\":8589:8603   */\n      add\n        /* \"#utility.yul\":8575:8587   */\n      dup3\n        /* \"#utility.yul\":8541:8604   */\n      tag_215\n      jump\t// in\n    tag_378:\n        /* \"#utility.yul\":8450:8614   */\n      pop\n        /* \"#utility.yul\":8694:8698   */\n      0x20\n        /* \"#utility.yul\":8687:8692   */\n      dup4\n        /* \"#utility.yul\":8683:8699   */\n      add\n        /* \"#utility.yul\":8677:8700   */\n      mload\n        /* \"#utility.yul\":8713:8776   */\n      tag_379\n        /* \"#utility.yul\":8770:8774   */\n      0x20\n        /* \"#utility.yul\":8765:8768   */\n      dup7\n        /* \"#utility.yul\":8761:8775   */\n      add\n        /* \"#utility.yul\":8747:8759   */\n      dup3\n        /* \"#utility.yul\":8713:8776   */\n      tag_215\n      jump\t// in\n    tag_379:\n        /* \"#utility.yul\":8624:8786   */\n      pop\n        /* \"#utility.yul\":8870:8874   */\n      0x40\n        /* \"#utility.yul\":8863:8868   */\n      dup4\n        /* \"#utility.yul\":8859:8875   */\n      add\n        /* \"#utility.yul\":8853:8876   */\n      mload\n        /* \"#utility.yul\":8889:8963   */\n      tag_380\n        /* \"#utility.yul\":8957:8961   */\n      0x40\n        /* \"#utility.yul\":8952:8955   */\n      dup7\n        /* \"#utility.yul\":8948:8962   */\n      add\n        /* \"#utility.yul\":8934:8946   */\n      dup3\n        /* \"#utility.yul\":8889:8963   */\n      tag_219\n      jump\t// in\n    tag_380:\n        /* \"#utility.yul\":8796:8973   */\n      pop\n        /* \"#utility.yul\":9060:9064   */\n      0x60\n        /* \"#utility.yul\":9053:9058   */\n      dup4\n        /* \"#utility.yul\":9049:9065   */\n      add\n        /* \"#utility.yul\":9043:9066   */\n      mload\n        /* \"#utility.yul\":9079:9142   */\n      tag_381\n        /* \"#utility.yul\":9136:9140   */\n      0x60\n        /* \"#utility.yul\":9131:9134   */\n      dup7\n        /* \"#utility.yul\":9127:9141   */\n      add\n        /* \"#utility.yul\":9113:9125   */\n      dup3\n        /* \"#utility.yul\":9079:9142   */\n      tag_220\n      jump\t// in\n    tag_381:\n        /* \"#utility.yul\":8983:9152   */\n      pop\n        /* \"#utility.yul\":9235:9239   */\n      0x80\n        /* \"#utility.yul\":9228:9233   */\n      dup4\n        /* \"#utility.yul\":9224:9240   */\n      add\n        /* \"#utility.yul\":9218:9241   */\n      mload\n        /* \"#utility.yul\":9288:9291   */\n      dup5\n        /* \"#utility.yul\":9282:9286   */\n      dup3\n        /* \"#utility.yul\":9278:9292   */\n      sub\n        /* \"#utility.yul\":9271:9275   */\n      0x80\n        /* \"#utility.yul\":9266:9269   */\n      dup7\n        /* \"#utility.yul\":9262:9276   */\n      add\n        /* \"#utility.yul\":9255:9293   */\n      mstore\n        /* \"#utility.yul\":9314:9387   */\n      tag_382\n        /* \"#utility.yul\":9382:9386   */\n      dup3\n        /* \"#utility.yul\":9368:9380   */\n      dup3\n        /* \"#utility.yul\":9314:9387   */\n      tag_225\n      jump\t// in\n    tag_382:\n        /* \"#utility.yul\":9306:9387   */\n      swap2\n      pop\n        /* \"#utility.yul\":9162:9398   */\n      pop\n        /* \"#utility.yul\":9415:9419   */\n      dup1\n        /* \"#utility.yul\":9408:9419   */\n      swap2\n      pop\n        /* \"#utility.yul\":8404:9425   */\n      pop\n        /* \"#utility.yul\":8282:9425   */\n      swap3\n      swap2\n      pop\n      pop\n      jump\t// out\n        /* \"#utility.yul\":9431:9703   */\n    tag_227:\n        /* \"#utility.yul\":9558:9568   */\n      0x00\n        /* \"#utility.yul\":9593:9697   */\n      tag_384\n        /* \"#utility.yul\":9693:9696   */\n      dup4\n        /* \"#utility.yul\":9685:9691   */\n      dup4\n        /* \"#utility.yul\":9593:9697   */\n      tag_226\n      jump\t// in\n    tag_384:\n        /* \"#utility.yul\":9579:9697   */\n      swap1\n      pop\n        /* \"#utility.yul\":9431:9703   */\n      swap3\n      swap2\n      pop\n      pop\n      jump\t// out\n        /* \"#utility.yul\":9709:9851   */\n    tag_228:\n        /* \"#utility.yul\":9808:9812   */\n      0x00\n        /* \"#utility.yul\":9840:9844   */\n      0x20\n        /* \"#utility.yul\":9835:9838   */\n      dup3\n        /* \"#utility.yul\":9831:9845   */\n      add\n        /* \"#utility.yul\":9823:9845   */\n      swap1\n      pop\n        /* \"#utility.yul\":9709:9851   */\n      swap2\n      swap1\n      pop\n      jump\t// out\n        /* \"#utility.yul\":9913:11056   */\n    tag_229:\n        /* \"#utility.yul\":10090:10093   */\n      0x00\n        /* \"#utility.yul\":10119:10202   */\n      tag_387\n        /* \"#utility.yul\":10196:10201   */\n      dup3\n        /* \"#utility.yul\":10119:10202   */\n      tag_212\n      jump\t// in\n    tag_387:\n        /* \"#utility.yul\":10218:10333   */\n      tag_388\n        /* \"#utility.yul\":10326:10332   */\n      dup2\n        /* \"#utility.yul\":10321:10324   */\n      dup6\n        /* \"#utility.yul\":10218:10333   */\n      tag_213\n      jump\t// in\n    tag_388:\n        /* \"#utility.yul\":10211:10333   */\n      swap4\n      pop\n        /* \"#utility.yul\":10359:10362   */\n      dup4\n        /* \"#utility.yul\":10404:10408   */\n      0x20\n        /* \"#utility.yul\":10396:10402   */\n      dup3\n        /* \"#utility.yul\":10392:10409   */\n      mul\n        /* \"#utility.yul\":10387:10390   */\n      dup6\n        /* \"#utility.yul\":10383:10410   */\n      add\n        /* \"#utility.yul\":10434:10519   */\n      tag_389\n        /* \"#utility.yul\":10513:10518   */\n      dup6\n        /* \"#utility.yul\":10434:10519   */\n      tag_214\n      jump\t// in\n    tag_389:\n        /* \"#utility.yul\":10542:10549   */\n      dup1\n        /* \"#utility.yul\":10573:10574   */\n      0x00\n        /* \"#utility.yul\":10558:11011   */\n    tag_390:\n        /* \"#utility.yul\":10583:10589   */\n      dup6\n        /* \"#utility.yul\":10580:10581   */\n      dup2\n        /* \"#utility.yul\":10577:10590   */\n      lt\n        /* \"#utility.yul\":10558:11011   */\n      iszero\n      tag_392\n      jumpi\n        /* \"#utility.yul\":10654:10663   */\n      dup5\n        /* \"#utility.yul\":10648:10652   */\n      dup5\n        /* \"#utility.yul\":10644:10664   */\n      sub\n        /* \"#utility.yul\":10639:10642   */\n      dup10\n        /* \"#utility.yul\":10632:10665   */\n      mstore\n        /* \"#utility.yul\":10705:10711   */\n      dup2\n        /* \"#utility.yul\":10699:10712   */\n      mload\n        /* \"#utility.yul\":10733:10855   */\n      tag_393\n        /* \"#utility.yul\":10850:10854   */\n      dup6\n        /* \"#utility.yul\":10835:10848   */\n      dup3\n        /* \"#utility.yul\":10733:10855   */\n      tag_227\n      jump\t// in\n    tag_393:\n        /* \"#utility.yul\":10725:10855   */\n      swap5\n      pop\n        /* \"#utility.yul\":10878:10967   */\n      tag_394\n        /* \"#utility.yul\":10960:10966   */\n      dup4\n        /* \"#utility.yul\":10878:10967   */\n      tag_228\n      jump\t// in\n    tag_394:\n        /* \"#utility.yul\":10868:10967   */\n      swap3\n      pop\n        /* \"#utility.yul\":10996:11000   */\n      0x20\n        /* \"#utility.yul\":10991:10994   */\n      dup11\n        /* \"#utility.yul\":10987:11001   */\n      add\n        /* \"#utility.yul\":10980:11001   */\n      swap10\n      pop\n        /* \"#utility.yul\":10618:11011   */\n      pop\n        /* \"#utility.yul\":10605:10606   */\n      0x01\n        /* \"#utility.yul\":10602:10603   */\n      dup2\n        /* \"#utility.yul\":10598:10607   */\n      add\n        /* \"#utility.yul\":10593:10607   */\n      swap1\n      pop\n        /* \"#utility.yul\":10558:11011   */\n      jump(tag_390)\n    tag_392:\n        /* \"#utility.yul\":10562:10576   */\n      pop\n        /* \"#utility.yul\":11027:11031   */\n      dup3\n        /* \"#utility.yul\":11020:11031   */\n      swap8\n      pop\n        /* \"#utility.yul\":11047:11050   */\n      dup8\n        /* \"#utility.yul\":11040:11050   */\n      swap6\n      pop\n        /* \"#utility.yul\":10095:11056   */\n      pop\n      pop\n      pop\n      pop\n      pop\n        /* \"#utility.yul\":9913:11056   */\n      swap3\n      swap2\n      pop\n      pop\n      jump\t// out\n        /* \"#utility.yul\":11062:11551   */\n    tag_61:\n        /* \"#utility.yul\":11263:11267   */\n      0x00\n        /* \"#utility.yul\":11301:11303   */\n      0x20\n        /* \"#utility.yul\":11290:11299   */\n      dup3\n        /* \"#utility.yul\":11286:11304   */\n      add\n        /* \"#utility.yul\":11278:11304   */\n      swap1\n      pop\n        /* \"#utility.yul\":11350:11359   */\n      dup2\n        /* \"#utility.yul\":11344:11348   */\n      dup2\n        /* \"#utility.yul\":11340:11360   */\n      sub\n        /* \"#utility.yul\":11336:11337   */\n      0x00\n        /* \"#utility.yul\":11325:11334   */\n      dup4\n        /* \"#utility.yul\":11321:11338   */\n      add\n        /* \"#utility.yul\":11314:11361   */\n      mstore\n        /* \"#utility.yul\":11378:11544   */\n      tag_396\n        /* \"#utility.yul\":11539:11543   */\n      dup2\n        /* \"#utility.yul\":11530:11536   */\n      dup5\n        /* \"#utility.yul\":11378:11544   */\n      tag_229\n      jump\t// in\n    tag_396:\n        /* \"#utility.yul\":11370:11544   */\n      swap1\n      pop\n        /* \"#utility.yul\":11062:11551   */\n      swap3\n      swap2\n      pop\n      pop\n      jump\t// out\n        /* \"#utility.yul\":11557:11726   */\n    tag_230:\n        /* \"#utility.yul\":11641:11652   */\n      0x00\n        /* \"#utility.yul\":11675:11681   */\n      dup3\n        /* \"#utility.yul\":11670:11673   */\n      dup3\n        /* \"#utility.yul\":11663:11682   */\n      mstore\n        /* \"#utility.yul\":11715:11719   */\n      0x20\n        /* \"#utility.yul\":11710:11713   */\n      dup3\n        /* \"#utility.yul\":11706:11720   */\n      add\n        /* \"#utility.yul\":11691:11720   */\n      swap1\n      pop\n        /* \"#utility.yul\":11557:11726   */\n      swap3\n      swap2\n      pop\n      pop\n      jump\t// out\n        /* \"#utility.yul\":11732:11955   */\n    tag_231:\n        /* \"#utility.yul\":11872:11906   */\n      0x436f6e74726f6c436f6e74726163743a2063616c6c6572206973206e6f74206f\n        /* \"#utility.yul\":11868:11869   */\n      0x00\n        /* \"#utility.yul\":11860:11866   */\n      dup3\n        /* \"#utility.yul\":11856:11870   */\n      add\n        /* \"#utility.yul\":11849:11907   */\n      mstore\n        /* \"#utility.yul\":11941:11947   */\n      0x776e657200000000000000000000000000000000000000000000000000000000\n        /* \"#utility.yul\":11936:11938   */\n      0x20\n        /* \"#utility.yul\":11928:11934   */\n      dup3\n        /* \"#utility.yul\":11924:11939   */\n      add\n        /* \"#utility.yul\":11917:11948   */\n      mstore\n        /* \"#utility.yul\":11732:11955   */\n      pop\n      jump\t// out\n        /* \"#utility.yul\":11961:12327   */\n    tag_232:\n        /* \"#utility.yul\":12103:12106   */\n      0x00\n        /* \"#utility.yul\":12124:12191   */\n      tag_400\n        /* \"#utility.yul\":12188:12190   */\n      0x24\n        /* \"#utility.yul\":12183:12186   */\n      dup4\n        /* \"#utility.yul\":12124:12191   */\n      tag_230\n      jump\t// in\n    tag_400:\n        /* \"#utility.yul\":12117:12191   */\n      swap2\n      pop\n        /* \"#utility.yul\":12200:12293   */\n      tag_401\n        /* \"#utility.yul\":12289:12292   */\n      dup3\n        /* \"#utility.yul\":12200:12293   */\n      tag_231\n      jump\t// in\n    tag_401:\n        /* \"#utility.yul\":12318:12320   */\n      0x40\n        /* \"#utility.yul\":12313:12316   */\n      dup3\n        /* \"#utility.yul\":12309:12321   */\n      add\n        /* \"#utility.yul\":12302:12321   */\n      swap1\n      pop\n        /* \"#utility.yul\":11961:12327   */\n      swap2\n      swap1\n      pop\n      jump\t// out\n        /* \"#utility.yul\":12333:12752   */\n    tag_72:\n        /* \"#utility.yul\":12499:12503   */\n      0x00\n        /* \"#utility.yul\":12537:12539   */\n      0x20\n        /* \"#utility.yul\":12526:12535   */\n      dup3\n        /* \"#utility.yul\":12522:12540   */\n      add\n        /* \"#utility.yul\":12514:12540   */\n      swap1\n      pop\n        /* \"#utility.yul\":12586:12595   */\n      dup2\n        /* \"#utility.yul\":12580:12584   */\n      dup2\n        /* \"#utility.yul\":12576:12596   */\n      sub\n        /* \"#utility.yul\":12572:12573   */\n      0x00\n        /* \"#utility.yul\":12561:12570   */\n      dup4\n        /* \"#utility.yul\":12557:12574   */\n      add\n        /* \"#utility.yul\":12550:12597   */\n      mstore\n        /* \"#utility.yul\":12614:12745   */\n      tag_403\n        /* \"#utility.yul\":12740:12744   */\n      dup2\n        /* \"#utility.yul\":12614:12745   */\n      tag_232\n      jump\t// in\n    tag_403:\n        /* \"#utility.yul\":12606:12745   */\n      swap1\n      pop\n        /* \"#utility.yul\":12333:12752   */\n      swap2\n      swap1\n      pop\n      jump\t// out\n        /* \"#utility.yul\":12758:13001   */\n    tag_233:\n        /* \"#utility.yul\":12898:12932   */\n      0x436f6e74726f6c436f6e74726163743a2063616c6c6572206973206e6f742061\n        /* \"#utility.yul\":12894:12895   */\n      0x00\n        /* \"#utility.yul\":12886:12892   */\n      dup3\n        /* \"#utility.yul\":12882:12896   */\n      add\n        /* \"#utility.yul\":12875:12933   */\n      mstore\n        /* \"#utility.yul\":12967:12993   */\n      0x6e20617574686f7269736564206469737472696275746f720000000000000000\n        /* \"#utility.yul\":12962:12964   */\n      0x20\n        /* \"#utility.yul\":12954:12960   */\n      dup3\n        /* \"#utility.yul\":12950:12965   */\n      add\n        /* \"#utility.yul\":12943:12994   */\n      mstore\n        /* \"#utility.yul\":12758:13001   */\n      pop\n      jump\t// out\n        /* \"#utility.yul\":13007:13373   */\n    tag_234:\n        /* \"#utility.yul\":13149:13152   */\n      0x00\n        /* \"#utility.yul\":13170:13237   */\n      tag_406\n        /* \"#utility.yul\":13234:13236   */\n      0x38\n        /* \"#utility.yul\":13229:13232   */\n      dup4\n        /* \"#utility.yul\":13170:13237   */\n      tag_230\n      jump\t// in\n    tag_406:\n        /* \"#utility.yul\":13163:13237   */\n      swap2\n      pop\n        /* \"#utility.yul\":13246:13339   */\n      tag_407\n        /* \"#utility.yul\":13335:13338   */\n      dup3\n        /* \"#utility.yul\":13246:13339   */\n      tag_233\n      jump\t// in\n    tag_407:\n        /* \"#utility.yul\":13364:13366   */\n      0x40\n        /* \"#utility.yul\":13359:13362   */\n      dup3\n        /* \"#utility.yul\":13355:13367   */\n      add\n        /* \"#utility.yul\":13348:13367   */\n      swap1\n      pop\n        /* \"#utility.yul\":13007:13373   */\n      swap2\n      swap1\n      pop\n      jump\t// out\n        /* \"#utility.yul\":13379:13798   */\n    tag_81:\n        /* \"#utility.yul\":13545:13549   */\n      0x00\n        /* \"#utility.yul\":13583:13585   */\n      0x20\n        /* \"#utility.yul\":13572:13581   */\n      dup3\n        /* \"#utility.yul\":13568:13586   */\n      add\n        /* \"#utility.yul\":13560:13586   */\n      swap1\n      pop\n        /* \"#utility.yul\":13632:13641   */\n      dup2\n        /* \"#utility.yul\":13626:13630   */\n      dup2\n        /* \"#utility.yul\":13622:13642   */\n      sub\n        /* \"#utility.yul\":13618:13619   */\n      0x00\n        /* \"#utility.yul\":13607:13616   */\n      dup4\n        /* \"#utility.yul\":13603:13620   */\n      add\n        /* \"#utility.yul\":13596:13643   */\n      mstore\n        /* \"#utility.yul\":13660:13791   */\n      tag_409\n        /* \"#utility.yul\":13786:13790   */\n      dup2\n        /* \"#utility.yul\":13660:13791   */\n      tag_234\n      jump\t// in\n    tag_409:\n        /* \"#utility.yul\":13652:13791   */\n      swap1\n      pop\n        /* \"#utility.yul\":13379:13798   */\n      swap2\n      swap1\n      pop\n      jump\t// out\n        /* \"#utility.yul\":13804:13922   */\n    tag_235:\n        /* \"#utility.yul\":13891:13915   */\n      tag_411\n        /* \"#utility.yul\":13909:13914   */\n      dup2\n        /* \"#utility.yul\":13891:13915   */\n      tag_197\n      jump\t// in\n    tag_411:\n        /* \"#utility.yul\":13886:13889   */\n      dup3\n        /* \"#utility.yul\":13879:13916   */\n      mstore\n        /* \"#utility.yul\":13804:13922   */\n      pop\n      pop\n      jump\t// out\n        /* \"#utility.yul\":13928:14150   */\n    tag_84:\n        /* \"#utility.yul\":14021:14025   */\n      0x00\n        /* \"#utility.yul\":14059:14061   */\n      0x20\n        /* \"#utility.yul\":14048:14057   */\n      dup3\n        /* \"#utility.yul\":14044:14062   */\n      add\n        /* \"#utility.yul\":14036:14062   */\n      swap1\n      pop\n        /* \"#utility.yul\":14072:14143   */\n      tag_413\n        /* \"#utility.yul\":14140:14141   */\n      0x00\n        /* \"#utility.yul\":14129:14138   */\n      dup4\n        /* \"#utility.yul\":14125:14142   */\n      add\n        /* \"#utility.yul\":14116:14122   */\n      dup5\n        /* \"#utility.yul\":14072:14143   */\n      tag_235\n      jump\t// in\n    tag_413:\n        /* \"#utility.yul\":13928:14150   */\n      swap3\n      swap2\n      pop\n      pop\n      jump\t// out\n        /* \"#utility.yul\":14156:14273   */\n    tag_236:\n        /* \"#utility.yul\":14265:14266   */\n      0x00\n        /* \"#utility.yul\":14262:14263   */\n      0x00\n        /* \"#utility.yul\":14255:14267   */\n      revert\n        /* \"#utility.yul\":14279:14459   */\n    tag_237:\n        /* \"#utility.yul\":14327:14404   */\n      0x4e487b7100000000000000000000000000000000000000000000000000000000\n        /* \"#utility.yul\":14324:14325   */\n      0x00\n        /* \"#utility.yul\":14317:14405   */\n      mstore\n        /* \"#utility.yul\":14424:14428   */\n      0x41\n        /* \"#utility.yul\":14421:14422   */\n      0x04\n        /* \"#utility.yul\":14414:14429   */\n      mstore\n        /* \"#utility.yul\":14448:14452   */\n      0x24\n        /* \"#utility.yul\":14445:14446   */\n      0x00\n        /* \"#utility.yul\":14438:14453   */\n      revert\n        /* \"#utility.yul\":14465:14746   */\n    tag_238:\n        /* \"#utility.yul\":14548:14575   */\n      tag_417\n        /* \"#utility.yul\":14570:14574   */\n      dup3\n        /* \"#utility.yul\":14548:14575   */\n      tag_224\n      jump\t// in\n    tag_417:\n        /* \"#utility.yul\":14540:14546   */\n      dup2\n        /* \"#utility.yul\":14536:14576   */\n      add\n        /* \"#utility.yul\":14678:14684   */\n      dup2\n        /* \"#utility.yul\":14666:14676   */\n      dup2\n        /* \"#utility.yul\":14663:14685   */\n      lt\n        /* \"#utility.yul\":14642:14660   */\n      0xffffffffffffffff\n        /* \"#utility.yul\":14630:14640   */\n      dup3\n        /* \"#utility.yul\":14627:14661   */\n      gt\n        /* \"#utility.yul\":14624:14686   */\n      or\n        /* \"#utility.yul\":14621:14709   */\n      iszero\n      tag_418\n      jumpi\n        /* \"#utility.yul\":14689:14707   */\n      tag_419\n      tag_237\n      jump\t// in\n    tag_419:\n        /* \"#utility.yul\":14621:14709   */\n    tag_418:\n        /* \"#utility.yul\":14729:14739   */\n      dup1\n        /* \"#utility.yul\":14725:14727   */\n      0x40\n        /* \"#utility.yul\":14718:14740   */\n      mstore\n        /* \"#utility.yul\":14508:14746   */\n      pop\n        /* \"#utility.yul\":14465:14746   */\n      pop\n      pop\n      jump\t// out\n        /* \"#utility.yul\":14752:14881   */\n    tag_239:\n        /* \"#utility.yul\":14786:14792   */\n      0x00\n        /* \"#utility.yul\":14813:14833   */\n      tag_421\n      tag_190\n      jump\t// in\n    tag_421:\n        /* \"#utility.yul\":14803:14833   */\n      swap1\n      pop\n        /* \"#utility.yul\":14842:14875   */\n      tag_422\n        /* \"#utility.yul\":14870:14874   */\n      dup3\n        /* \"#utility.yul\":14862:14868   */\n      dup3\n        /* \"#utility.yul\":14842:14875   */\n      tag_238\n      jump\t// in\n    tag_422:\n        /* \"#utility.yul\":14752:14881   */\n      swap2\n      swap1\n      pop\n      jump\t// out\n        /* \"#utility.yul\":14887:15004   */\n    tag_240:\n        /* \"#utility.yul\":14996:14997   */\n      0x00\n        /* \"#utility.yul\":14993:14994   */\n      0x00\n        /* \"#utility.yul\":14986:14998   */\n      revert\n        /* \"#utility.yul\":15010:15153   */\n    tag_241:\n        /* \"#utility.yul\":15067:15072   */\n      0x00\n        /* \"#utility.yul\":15098:15104   */\n      dup2\n        /* \"#utility.yul\":15092:15105   */\n      mload\n        /* \"#utility.yul\":15083:15105   */\n      swap1\n      pop\n        /* \"#utility.yul\":15114:15147   */\n      tag_425\n        /* \"#utility.yul\":15141:15146   */\n      dup2\n        /* \"#utility.yul\":15114:15147   */\n      tag_198\n      jump\t// in\n    tag_425:\n        /* \"#utility.yul\":15010:15153   */\n      swap3\n      swap2\n      pop\n      pop\n      jump\t// out\n        /* \"#utility.yul\":15159:15276   */\n    tag_242:\n        /* \"#utility.yul\":15268:15269   */\n      0x00\n        /* \"#utility.yul\":15265:15266   */\n      0x00\n        /* \"#utility.yul\":15258:15270   */\n      revert\n        /* \"#utility.yul\":15282:15590   */\n    tag_243:\n        /* \"#utility.yul\":15344:15348   */\n      0x00\n        /* \"#utility.yul\":15434:15452   */\n      0xffffffffffffffff\n        /* \"#utility.yul\":15426:15432   */\n      dup3\n        /* \"#utility.yul\":15423:15453   */\n      gt\n        /* \"#utility.yul\":15420:15476   */\n      iszero\n      tag_428\n      jumpi\n        /* \"#utility.yul\":15456:15474   */\n      tag_429\n      tag_237\n      jump\t// in\n    tag_429:\n        /* \"#utility.yul\":15420:15476   */\n    tag_428:\n        /* \"#utility.yul\":15494:15523   */\n      tag_430\n        /* \"#utility.yul\":15516:15522   */\n      dup3\n        /* \"#utility.yul\":15494:15523   */\n      tag_224\n      jump\t// in\n    tag_430:\n        /* \"#utility.yul\":15486:15523   */\n      swap1\n      pop\n        /* \"#utility.yul\":15578:15582   */\n      0x20\n        /* \"#utility.yul\":15572:15576   */\n      dup2\n        /* \"#utility.yul\":15568:15583   */\n      add\n        /* \"#utility.yul\":15560:15583   */\n      swap1\n      pop\n        /* \"#utility.yul\":15282:15590   */\n      swap2\n      swap1\n      pop\n      jump\t// out\n        /* \"#utility.yul\":15596:16030   */\n    tag_244:\n        /* \"#utility.yul\":15685:15690   */\n      0x00\n        /* \"#utility.yul\":15710:15776   */\n      tag_432\n        /* \"#utility.yul\":15726:15775   */\n      tag_433\n        /* \"#utility.yul\":15768:15774   */\n      dup5\n        /* \"#utility.yul\":15726:15775   */\n      tag_243\n      jump\t// in\n    tag_433:\n        /* \"#utility.yul\":15710:15776   */\n      tag_239\n      jump\t// in\n    tag_432:\n        /* \"#utility.yul\":15701:15776   */\n      swap1\n      pop\n        /* \"#utility.yul\":15799:15805   */\n      dup3\n        /* \"#utility.yul\":15792:15797   */\n      dup2\n        /* \"#utility.yul\":15785:15806   */\n      mstore\n        /* \"#utility.yul\":15837:15841   */\n      0x20\n        /* \"#utility.yul\":15830:15835   */\n      dup2\n        /* \"#utility.yul\":15826:15842   */\n      add\n        /* \"#utility.yul\":15875:15878   */\n      dup5\n        /* \"#utility.yul\":15866:15872   */\n      dup5\n        /* \"#utility.yul\":15861:15864   */\n      dup5\n        /* \"#utility.yul\":15857:15873   */\n      add\n        /* \"#utility.yul\":15854:15879   */\n      gt\n        /* \"#utility.yul\":15851:15963   */\n      iszero\n      tag_434\n      jumpi\n        /* \"#utility.yul\":15882:15961   */\n      tag_435\n      tag_242\n      jump\t// in\n    tag_435:\n        /* \"#utility.yul\":15851:15963   */\n    tag_434:\n        /* \"#utility.yul\":15972:16024   */\n      tag_436\n        /* \"#utility.yul\":16017:16023   */\n      dup5\n        /* \"#utility.yul\":16012:16015   */\n      dup3\n        /* \"#utility.yul\":16007:16010   */\n      dup6\n        /* \"#utility.yul\":15972:16024   */\n      tag_223\n      jump\t// in\n    tag_436:\n        /* \"#utility.yul\":15691:16030   */\n      pop\n        /* \"#utility.yul\":15596:16030   */\n      swap4\n      swap3\n      pop\n      pop\n      pop\n      jump\t// out\n        /* \"#utility.yul\":16050:16405   */\n    tag_245:\n        /* \"#utility.yul\":16117:16122   */\n      0x00\n        /* \"#utility.yul\":16166:16169   */\n      dup3\n        /* \"#utility.yul\":16159:16163   */\n      0x1f\n        /* \"#utility.yul\":16151:16157   */\n      dup4\n        /* \"#utility.yul\":16147:16164   */\n      add\n        /* \"#utility.yul\":16143:16170   */\n      slt\n        /* \"#utility.yul\":16133:16255   */\n      tag_438\n      jumpi\n        /* \"#utility.yul\":16174:16253   */\n      tag_439\n      tag_200\n      jump\t// in\n    tag_439:\n        /* \"#utility.yul\":16133:16255   */\n    tag_438:\n        /* \"#utility.yul\":16284:16290   */\n      dup2\n        /* \"#utility.yul\":16278:16291   */\n      mload\n        /* \"#utility.yul\":16309:16399   */\n      tag_440\n        /* \"#utility.yul\":16395:16398   */\n      dup5\n        /* \"#utility.yul\":16387:16393   */\n      dup3\n        /* \"#utility.yul\":16380:16384   */\n      0x20\n        /* \"#utility.yul\":16372:16378   */\n      dup7\n        /* \"#utility.yul\":16368:16385   */\n      add\n        /* \"#utility.yul\":16309:16399   */\n      tag_244\n      jump\t// in\n    tag_440:\n        /* \"#utility.yul\":16300:16399   */\n      swap2\n      pop\n        /* \"#utility.yul\":16123:16405   */\n      pop\n        /* \"#utility.yul\":16050:16405   */\n      swap3\n      swap2\n      pop\n      pop\n      jump\t// out\n        /* \"#utility.yul\":16411:16554   */\n    tag_246:\n        /* \"#utility.yul\":16468:16473   */\n      0x00\n        /* \"#utility.yul\":16499:16505   */\n      dup2\n        /* \"#utility.yul\":16493:16506   */\n      mload\n        /* \"#utility.yul\":16484:16506   */\n      swap1\n      pop\n        /* \"#utility.yul\":16515:16548   */\n      tag_442\n        /* \"#utility.yul\":16542:16547   */\n      dup2\n        /* \"#utility.yul\":16515:16548   */\n      tag_195\n      jump\t// in\n    tag_442:\n        /* \"#utility.yul\":16411:16554   */\n      swap3\n      swap2\n      pop\n      pop\n      jump\t// out\n        /* \"#utility.yul\":16560:16672   */\n    tag_247:\n        /* \"#utility.yul\":16646:16647   */\n      0x05\n        /* \"#utility.yul\":16639:16644   */\n      dup2\n        /* \"#utility.yul\":16636:16648   */\n      lt\n        /* \"#utility.yul\":16626:16666   */\n      tag_444\n      jumpi\n        /* \"#utility.yul\":16662:16663   */\n      0x00\n        /* \"#utility.yul\":16659:16660   */\n      0x00\n        /* \"#utility.yul\":16652:16664   */\n      revert\n        /* \"#utility.yul\":16626:16666   */\n    tag_444:\n        /* \"#utility.yul\":16560:16672   */\n      pop\n      jump\t// out\n        /* \"#utility.yul\":16678:16847   */\n    tag_248:\n        /* \"#utility.yul\":16748:16753   */\n      0x00\n        /* \"#utility.yul\":16779:16785   */\n      dup2\n        /* \"#utility.yul\":16773:16786   */\n      mload\n        /* \"#utility.yul\":16764:16786   */\n      swap1\n      pop\n        /* \"#utility.yul\":16795:16841   */\n      tag_446\n        /* \"#utility.yul\":16835:16840   */\n      dup2\n        /* \"#utility.yul\":16795:16841   */\n      tag_247\n      jump\t// in\n    tag_446:\n        /* \"#utility.yul\":16678:16847   */\n      swap3\n      swap2\n      pop\n      pop\n      jump\t// out\n        /* \"#utility.yul\":16877:18731   */\n    tag_249:\n        /* \"#utility.yul\":16962:16967   */\n      0x00\n        /* \"#utility.yul\":17006:17010   */\n      0xe0\n        /* \"#utility.yul\":16994:17003   */\n      dup3\n        /* \"#utility.yul\":16989:16992   */\n      dup5\n        /* \"#utility.yul\":16985:17004   */\n      sub\n        /* \"#utility.yul\":16981:17011   */\n      slt\n        /* \"#utility.yul\":16978:17095   */\n      iszero\n      tag_448\n      jumpi\n        /* \"#utility.yul\":17014:17093   */\n      tag_449\n      tag_236\n      jump\t// in\n    tag_449:\n        /* \"#utility.yul\":16978:17095   */\n    tag_448:\n        /* \"#utility.yul\":17113:17134   */\n      tag_450\n        /* \"#utility.yul\":17129:17133   */\n      0xe0\n        /* \"#utility.yul\":17113:17134   */\n      tag_239\n      jump\t// in\n    tag_450:\n        /* \"#utility.yul\":17104:17134   */\n      swap1\n      pop\n        /* \"#utility.yul\":17196:17197   */\n      0x00\n        /* \"#utility.yul\":17236:17296   */\n      tag_451\n        /* \"#utility.yul\":17292:17295   */\n      dup5\n        /* \"#utility.yul\":17283:17289   */\n      dup3\n        /* \"#utility.yul\":17272:17281   */\n      dup6\n        /* \"#utility.yul\":17268:17290   */\n      add\n        /* \"#utility.yul\":17236:17296   */\n      tag_241\n      jump\t// in\n    tag_451:\n        /* \"#utility.yul\":17229:17233   */\n      0x00\n        /* \"#utility.yul\":17222:17227   */\n      dup4\n        /* \"#utility.yul\":17218:17234   */\n      add\n        /* \"#utility.yul\":17211:17297   */\n      mstore\n        /* \"#utility.yul\":17144:17308   */\n      pop\n        /* \"#utility.yul\":17396:17398   */\n      0x20\n        /* \"#utility.yul\":17385:17394   */\n      dup3\n        /* \"#utility.yul\":17381:17399   */\n      add\n        /* \"#utility.yul\":17375:17400   */\n      mload\n        /* \"#utility.yul\":17427:17445   */\n      0xffffffffffffffff\n        /* \"#utility.yul\":17419:17425   */\n      dup2\n        /* \"#utility.yul\":17416:17446   */\n      gt\n        /* \"#utility.yul\":17413:17530   */\n      iszero\n      tag_452\n      jumpi\n        /* \"#utility.yul\":17449:17528   */\n      tag_453\n      tag_240\n      jump\t// in\n    tag_453:\n        /* \"#utility.yul\":17413:17530   */\n    tag_452:\n        /* \"#utility.yul\":17569:17639   */\n      tag_454\n        /* \"#utility.yul\":17635:17638   */\n      dup5\n        /* \"#utility.yul\":17626:17632   */\n      dup3\n        /* \"#utility.yul\":17615:17624   */\n      dup6\n        /* \"#utility.yul\":17611:17633   */\n      add\n        /* \"#utility.yul\":17569:17639   */\n      tag_245\n      jump\t// in\n    tag_454:\n        /* \"#utility.yul\":17562:17566   */\n      0x20\n        /* \"#utility.yul\":17555:17560   */\n      dup4\n        /* \"#utility.yul\":17551:17567   */\n      add\n        /* \"#utility.yul\":17544:17640   */\n      mstore\n        /* \"#utility.yul\":17318:17651   */\n      pop\n        /* \"#utility.yul\":17738:17740   */\n      0x40\n        /* \"#utility.yul\":17727:17736   */\n      dup3\n        /* \"#utility.yul\":17723:17741   */\n      add\n        /* \"#utility.yul\":17717:17742   */\n      mload\n        /* \"#utility.yul\":17769:17787   */\n      0xffffffffffffffff\n        /* \"#utility.yul\":17761:17767   */\n      dup2\n        /* \"#utility.yul\":17758:17788   */\n      gt\n        /* \"#utility.yul\":17755:17872   */\n      iszero\n      tag_455\n      jumpi\n        /* \"#utility.yul\":17791:17870   */\n      tag_456\n      tag_240\n      jump\t// in\n    tag_456:\n        /* \"#utility.yul\":17755:17872   */\n    tag_455:\n        /* \"#utility.yul\":17911:17981   */\n      tag_457\n        /* \"#utility.yul\":17977:17980   */\n      dup5\n        /* \"#utility.yul\":17968:17974   */\n      dup3\n        /* \"#utility.yul\":17957:17966   */\n      dup6\n        /* \"#utility.yul\":17953:17975   */\n      add\n        /* \"#utility.yul\":17911:17981   */\n      tag_245\n      jump\t// in\n    tag_457:\n        /* \"#utility.yul\":17904:17908   */\n      0x40\n        /* \"#utility.yul\":17897:17902   */\n      dup4\n        /* \"#utility.yul\":17893:17909   */\n      add\n        /* \"#utility.yul\":17886:17982   */\n      mstore\n        /* \"#utility.yul\":17661:17993   */\n      pop\n        /* \"#utility.yul\":18063:18065   */\n      0x60\n        /* \"#utility.yul\":18104:18164   */\n      tag_458\n        /* \"#utility.yul\":18160:18163   */\n      dup5\n        /* \"#utility.yul\":18151:18157   */\n      dup3\n        /* \"#utility.yul\":18140:18149   */\n      dup6\n        /* \"#utility.yul\":18136:18158   */\n      add\n        /* \"#utility.yul\":18104:18164   */\n      tag_241\n      jump\t// in\n    tag_458:\n        /* \"#utility.yul\":18097:18101   */\n      0x60\n        /* \"#utility.yul\":18090:18095   */\n      dup4\n        /* \"#utility.yul\":18086:18102   */\n      add\n        /* \"#utility.yul\":18079:18165   */\n      mstore\n        /* \"#utility.yul\":18003:18176   */\n      pop\n        /* \"#utility.yul\":18241:18244   */\n      0x80\n        /* \"#utility.yul\":18283:18343   */\n      tag_459\n        /* \"#utility.yul\":18339:18342   */\n      dup5\n        /* \"#utility.yul\":18330:18336   */\n      dup3\n        /* \"#utility.yul\":18319:18328   */\n      dup6\n        /* \"#utility.yul\":18315:18337   */\n      add\n        /* \"#utility.yul\":18283:18343   */\n      tag_241\n      jump\t// in\n    tag_459:\n        /* \"#utility.yul\":18276:18280   */\n      0x80\n        /* \"#utility.yul\":18269:18274   */\n      dup4\n        /* \"#utility.yul\":18265:18281   */\n      add\n        /* \"#utility.yul\":18258:18344   */\n      mstore\n        /* \"#utility.yul\":18186:18355   */\n      pop\n        /* \"#utility.yul\":18422:18425   */\n      0xa0\n        /* \"#utility.yul\":18464:18524   */\n      tag_460\n        /* \"#utility.yul\":18520:18523   */\n      dup5\n        /* \"#utility.yul\":18511:18517   */\n      dup3\n        /* \"#utility.yul\":18500:18509   */\n      dup6\n        /* \"#utility.yul\":18496:18518   */\n      add\n        /* \"#utility.yul\":18464:18524   */\n      tag_246\n      jump\t// in\n    tag_460:\n        /* \"#utility.yul\":18457:18461   */\n      0xa0\n        /* \"#utility.yul\":18450:18455   */\n      dup4\n        /* \"#utility.yul\":18446:18462   */\n      add\n        /* \"#utility.yul\":18439:18525   */\n      mstore\n        /* \"#utility.yul\":18365:18536   */\n      pop\n        /* \"#utility.yul\":18597:18600   */\n      0xc0\n        /* \"#utility.yul\":18639:18712   */\n      tag_461\n        /* \"#utility.yul\":18708:18711   */\n      dup5\n        /* \"#utility.yul\":18699:18705   */\n      dup3\n        /* \"#utility.yul\":18688:18697   */\n      dup6\n        /* \"#utility.yul\":18684:18706   */\n      add\n        /* \"#utility.yul\":18639:18712   */\n      tag_248\n      jump\t// in\n    tag_461:\n        /* \"#utility.yul\":18632:18636   */\n      0xc0\n        /* \"#utility.yul\":18625:18630   */\n      dup4\n        /* \"#utility.yul\":18621:18637   */\n      add\n        /* \"#utility.yul\":18614:18713   */\n      mstore\n        /* \"#utility.yul\":18546:18724   */\n      pop\n        /* \"#utility.yul\":16877:18731   */\n      swap3\n      swap2\n      pop\n      pop\n      jump\t// out\n        /* \"#utility.yul\":18737:19291   */\n    tag_88:\n        /* \"#utility.yul\":18832:18838   */\n      0x00\n        /* \"#utility.yul\":18881:18883   */\n      0x20\n        /* \"#utility.yul\":18869:18878   */\n      dup3\n        /* \"#utility.yul\":18860:18867   */\n      dup5\n        /* \"#utility.yul\":18856:18879   */\n      sub\n        /* \"#utility.yul\":18852:18884   */\n      slt\n        /* \"#utility.yul\":18849:18968   */\n      iszero\n      tag_463\n      jumpi\n        /* \"#utility.yul\":18887:18966   */\n      tag_464\n      tag_191\n      jump\t// in\n    tag_464:\n        /* \"#utility.yul\":18849:18968   */\n    tag_463:\n        /* \"#utility.yul\":19028:19029   */\n      0x00\n        /* \"#utility.yul\":19017:19026   */\n      dup3\n        /* \"#utility.yul\":19013:19030   */\n      add\n        /* \"#utility.yul\":19007:19031   */\n      mload\n        /* \"#utility.yul\":19058:19076   */\n      0xffffffffffffffff\n        /* \"#utility.yul\":19050:19056   */\n      dup2\n        /* \"#utility.yul\":19047:19077   */\n      gt\n        /* \"#utility.yul\":19044:19161   */\n      iszero\n      tag_465\n      jumpi\n        /* \"#utility.yul\":19080:19159   */\n      tag_466\n      tag_192\n      jump\t// in\n    tag_466:\n        /* \"#utility.yul\":19044:19161   */\n    tag_465:\n        /* \"#utility.yul\":19185:19274   */\n      tag_467\n        /* \"#utility.yul\":19266:19273   */\n      dup5\n        /* \"#utility.yul\":19257:19263   */\n      dup3\n        /* \"#utility.yul\":19246:19255   */\n      dup6\n        /* \"#utility.yul\":19242:19264   */\n      add\n        /* \"#utility.yul\":19185:19274   */\n      tag_249\n      jump\t// in\n    tag_467:\n        /* \"#utility.yul\":19175:19274   */\n      swap2\n      pop\n        /* \"#utility.yul\":18978:19284   */\n      pop\n        /* \"#utility.yul\":18737:19291   */\n      swap3\n      swap2\n      pop\n      pop\n      jump\t// out\n        /* \"#utility.yul\":19297:19544   */\n    tag_250:\n        /* \"#utility.yul\":19437:19471   */\n      0x436f6e74726f6c436f6e74726163743a206261746368206d7573742062652052\n        /* \"#utility.yul\":19433:19434   */\n      0x00\n        /* \"#utility.yul\":19425:19431   */\n      dup3\n        /* \"#utility.yul\":19421:19435   */\n      add\n        /* \"#utility.yul\":19414:19472   */\n      mstore\n        /* \"#utility.yul\":19506:19536   */\n      0x656c6561736564206f7220496e5472616e73697420746f207368697000000000\n        /* \"#utility.yul\":19501:19503   */\n      0x20\n        /* \"#utility.yul\":19493:19499   */\n      dup3\n        /* \"#utility.yul\":19489:19504   */\n      add\n        /* \"#utility.yul\":19482:19537   */\n      mstore\n        /* \"#utility.yul\":19297:19544   */\n      pop\n      jump\t// out\n        /* \"#utility.yul\":19550:19916   */\n    tag_251:\n        /* \"#utility.yul\":19692:19695   */\n      0x00\n        /* \"#utility.yul\":19713:19780   */\n      tag_470\n        /* \"#utility.yul\":19777:19779   */\n      0x3c\n        /* \"#utility.yul\":19772:19775   */\n      dup4\n        /* \"#utility.yul\":19713:19780   */\n      tag_230\n      jump\t// in\n    tag_470:\n        /* \"#utility.yul\":19706:19780   */\n      swap2\n      pop\n        /* \"#utility.yul\":19789:19882   */\n      tag_471\n        /* \"#utility.yul\":19878:19881   */\n      dup3\n        /* \"#utility.yul\":19789:19882   */\n      tag_250\n      jump\t// in\n    tag_471:\n        /* \"#utility.yul\":19907:19909   */\n      0x40\n        /* \"#utility.yul\":19902:19905   */\n      dup3\n        /* \"#utility.yul\":19898:19910   */\n      add\n        /* \"#utility.yul\":19891:19910   */\n      swap1\n      pop\n        /* \"#utility.yul\":19550:19916   */\n      swap2\n      swap1\n      pop\n      jump\t// out\n        /* \"#utility.yul\":19922:20341   */\n    tag_101:\n        /* \"#utility.yul\":20088:20092   */\n      0x00\n        /* \"#utility.yul\":20126:20128   */\n      0x20\n        /* \"#utility.yul\":20115:20124   */\n      dup3\n        /* \"#utility.yul\":20111:20129   */\n      add\n        /* \"#utility.yul\":20103:20129   */\n      swap1\n      pop\n        /* \"#utility.yul\":20175:20184   */\n      dup2\n        /* \"#utility.yul\":20169:20173   */\n      dup2\n        /* \"#utility.yul\":20165:20185   */\n      sub\n        /* \"#utility.yul\":20161:20162   */\n      0x00\n        /* \"#utility.yul\":20150:20159   */\n      dup4\n        /* \"#utility.yul\":20146:20163   */\n      add\n        /* \"#utility.yul\":20139:20186   */\n      mstore\n        /* \"#utility.yul\":20203:20334   */\n      tag_473\n        /* \"#utility.yul\":20329:20333   */\n      dup2\n        /* \"#utility.yul\":20203:20334   */\n      tag_251\n      jump\t// in\n    tag_473:\n        /* \"#utility.yul\":20195:20334   */\n      swap1\n      pop\n        /* \"#utility.yul\":19922:20341   */\n      swap2\n      swap1\n      pop\n      jump\t// out\n        /* \"#utility.yul\":20347:20500   */\n    tag_252:\n        /* \"#utility.yul\":20445:20493   */\n      tag_475\n        /* \"#utility.yul\":20487:20492   */\n      dup2\n        /* \"#utility.yul\":20445:20493   */\n      tag_218\n      jump\t// in\n    tag_475:\n        /* \"#utility.yul\":20440:20443   */\n      dup3\n        /* \"#utility.yul\":20433:20494   */\n      mstore\n        /* \"#utility.yul\":20347:20500   */\n      pop\n      pop\n      jump\t// out\n        /* \"#utility.yul\":20506:20860   */\n    tag_103:\n        /* \"#utility.yul\":20638:20642   */\n      0x00\n        /* \"#utility.yul\":20676:20678   */\n      0x40\n        /* \"#utility.yul\":20665:20674   */\n      dup3\n        /* \"#utility.yul\":20661:20679   */\n      add\n        /* \"#utility.yul\":20653:20679   */\n      swap1\n      pop\n        /* \"#utility.yul\":20689:20760   */\n      tag_477\n        /* \"#utility.yul\":20757:20758   */\n      0x00\n        /* \"#utility.yul\":20746:20755   */\n      dup4\n        /* \"#utility.yul\":20742:20759   */\n      add\n        /* \"#utility.yul\":20733:20739   */\n      dup6\n        /* \"#utility.yul\":20689:20760   */\n      tag_235\n      jump\t// in\n    tag_477:\n        /* \"#utility.yul\":20770:20853   */\n      tag_478\n        /* \"#utility.yul\":20849:20851   */\n      0x20\n        /* \"#utility.yul\":20838:20847   */\n      dup4\n        /* \"#utility.yul\":20834:20852   */\n      add\n        /* \"#utility.yul\":20825:20831   */\n      dup5\n        /* \"#utility.yul\":20770:20853   */\n      tag_252\n      jump\t// in\n    tag_478:\n        /* \"#utility.yul\":20506:20860   */\n      swap4\n      swap3\n      pop\n      pop\n      pop\n      jump\t// out\n        /* \"#utility.yul\":20866:21014   */\n    tag_253:\n        /* \"#utility.yul\":20964:20970   */\n      dup3\n        /* \"#utility.yul\":20959:20962   */\n      dup2\n        /* \"#utility.yul\":20954:20957   */\n      dup4\n        /* \"#utility.yul\":20941:20971   */\n      calldatacopy\n        /* \"#utility.yul\":21005:21006   */\n      0x00\n        /* \"#utility.yul\":20996:21002   */\n      dup4\n        /* \"#utility.yul\":20991:20994   */\n      dup4\n        /* \"#utility.yul\":20987:21003   */\n      add\n        /* \"#utility.yul\":20980:21007   */\n      mstore\n        /* \"#utility.yul\":20866:21014   */\n      pop\n      pop\n      pop\n      jump\t// out\n        /* \"#utility.yul\":21044:21361   */\n    tag_254:\n        /* \"#utility.yul\":21142:21145   */\n      0x00\n        /* \"#utility.yul\":21163:21234   */\n      tag_481\n        /* \"#utility.yul\":21227:21233   */\n      dup4\n        /* \"#utility.yul\":21222:21225   */\n      dup6\n        /* \"#utility.yul\":21163:21234   */\n      tag_230\n      jump\t// in\n    tag_481:\n        /* \"#utility.yul\":21156:21234   */\n      swap4\n      pop\n        /* \"#utility.yul\":21244:21300   */\n      tag_482\n        /* \"#utility.yul\":21293:21299   */\n      dup4\n        /* \"#utility.yul\":21288:21291   */\n      dup6\n        /* \"#utility.yul\":21281:21286   */\n      dup5\n        /* \"#utility.yul\":21244:21300   */\n      tag_253\n      jump\t// in\n    tag_482:\n        /* \"#utility.yul\":21325:21354   */\n      tag_483\n        /* \"#utility.yul\":21347:21353   */\n      dup4\n        /* \"#utility.yul\":21325:21354   */\n      tag_224\n      jump\t// in\n    tag_483:\n        /* \"#utility.yul\":21320:21323   */\n      dup5\n        /* \"#utility.yul\":21316:21355   */\n      add\n        /* \"#utility.yul\":21309:21355   */\n      swap1\n      pop\n        /* \"#utility.yul\":21044:21361   */\n      swap4\n      swap3\n      pop\n      pop\n      pop\n      jump\t// out\n        /* \"#utility.yul\":21367:21810   */\n    tag_110:\n        /* \"#utility.yul\":21518:21522   */\n      0x00\n        /* \"#utility.yul\":21556:21558   */\n      0x40\n        /* \"#utility.yul\":21545:21554   */\n      dup3\n        /* \"#utility.yul\":21541:21559   */\n      add\n        /* \"#utility.yul\":21533:21559   */\n      swap1\n      pop\n        /* \"#utility.yul\":21605:21614   */\n      dup2\n        /* \"#utility.yul\":21599:21603   */\n      dup2\n        /* \"#utility.yul\":21595:21615   */\n      sub\n        /* \"#utility.yul\":21591:21592   */\n      0x00\n        /* \"#utility.yul\":21580:21589   */\n      dup4\n        /* \"#utility.yul\":21576:21593   */\n      add\n        /* \"#utility.yul\":21569:21616   */\n      mstore\n        /* \"#utility.yul\":21633:21721   */\n      tag_485\n        /* \"#utility.yul\":21716:21720   */\n      dup2\n        /* \"#utility.yul\":21707:21713   */\n      dup6\n        /* \"#utility.yul\":21699:21705   */\n      dup8\n        /* \"#utility.yul\":21633:21721   */\n      tag_254\n      jump\t// in\n    tag_485:\n        /* \"#utility.yul\":21625:21721   */\n      swap1\n      pop\n        /* \"#utility.yul\":21731:21803   */\n      tag_486\n        /* \"#utility.yul\":21799:21801   */\n      0x20\n        /* \"#utility.yul\":21788:21797   */\n      dup4\n        /* \"#utility.yul\":21784:21802   */\n      add\n        /* \"#utility.yul\":21775:21781   */\n      dup5\n        /* \"#utility.yul\":21731:21803   */\n      tag_235\n      jump\t// in\n    tag_486:\n        /* \"#utility.yul\":21367:21810   */\n      swap5\n      swap4\n      pop\n      pop\n      pop\n      pop\n      jump\t// out\n        /* \"#utility.yul\":21816:21932   */\n    tag_255:\n        /* \"#utility.yul\":21886:21907   */\n      tag_488\n        /* \"#utility.yul\":21901:21906   */\n      dup2\n        /* \"#utility.yul\":21886:21907   */\n      tag_205\n      jump\t// in\n    tag_488:\n        /* \"#utility.yul\":21879:21884   */\n      dup2\n        /* \"#utility.yul\":21876:21908   */\n      eq\n        /* \"#utility.yul\":21866:21926   */\n      tag_489\n      jumpi\n        /* \"#utility.yul\":21922:21923   */\n      0x00\n        /* \"#utility.yul\":21919:21920   */\n      0x00\n        /* \"#utility.yul\":21912:21924   */\n      revert\n        /* \"#utility.yul\":21866:21926   */\n    tag_489:\n        /* \"#utility.yul\":21816:21932   */\n      pop\n      jump\t// out\n        /* \"#utility.yul\":21938:22075   */\n    tag_256:\n        /* \"#utility.yul\":21992:21997   */\n      0x00\n        /* \"#utility.yul\":22023:22029   */\n      dup2\n        /* \"#utility.yul\":22017:22030   */\n      mload\n        /* \"#utility.yul\":22008:22030   */\n      swap1\n      pop\n        /* \"#utility.yul\":22039:22069   */\n      tag_491\n        /* \"#utility.yul\":22063:22068   */\n      dup2\n        /* \"#utility.yul\":22039:22069   */\n      tag_255\n      jump\t// in\n    tag_491:\n        /* \"#utility.yul\":21938:22075   */\n      swap3\n      swap2\n      pop\n      pop\n      jump\t// out\n        /* \"#utility.yul\":22081:22426   */\n    tag_116:\n        /* \"#utility.yul\":22148:22154   */\n      0x00\n        /* \"#utility.yul\":22197:22199   */\n      0x20\n        /* \"#utility.yul\":22185:22194   */\n      dup3\n        /* \"#utility.yul\":22176:22183   */\n      dup5\n        /* \"#utility.yul\":22172:22195   */\n      sub\n        /* \"#utility.yul\":22168:22200   */\n      slt\n        /* \"#utility.yul\":22165:22284   */\n      iszero\n      tag_493\n      jumpi\n        /* \"#utility.yul\":22203:22282   */\n      tag_494\n      tag_191\n      jump\t// in\n    tag_494:\n        /* \"#utility.yul\":22165:22284   */\n    tag_493:\n        /* \"#utility.yul\":22323:22324   */\n      0x00\n        /* \"#utility.yul\":22348:22409   */\n      tag_495\n        /* \"#utility.yul\":22401:22408   */\n      dup5\n        /* \"#utility.yul\":22392:22398   */\n      dup3\n        /* \"#utility.yul\":22381:22390   */\n      dup6\n        /* \"#utility.yul\":22377:22399   */\n      add\n        /* \"#utility.yul\":22348:22409   */\n      tag_256\n      jump\t// in\n    tag_495:\n        /* \"#utility.yul\":22338:22409   */\n      swap2\n      pop\n        /* \"#utility.yul\":22294:22419   */\n      pop\n        /* \"#utility.yul\":22081:22426   */\n      swap3\n      swap2\n      pop\n      pop\n      jump\t// out\n        /* \"#utility.yul\":22432:22676   */\n    tag_257:\n        /* \"#utility.yul\":22572:22606   */\n      0x436f6e74726f6c436f6e74726163743a2063616c6c6572206973206e6f742061\n        /* \"#utility.yul\":22568:22569   */\n      0x00\n        /* \"#utility.yul\":22560:22566   */\n      dup3\n        /* \"#utility.yul\":22556:22570   */\n      add\n        /* \"#utility.yul\":22549:22607   */\n      mstore\n        /* \"#utility.yul\":22641:22668   */\n      0x6e20617574686f7269736564206d616e75666163747572657200000000000000\n        /* \"#utility.yul\":22636:22638   */\n      0x20\n        /* \"#utility.yul\":22628:22634   */\n      dup3\n        /* \"#utility.yul\":22624:22639   */\n      add\n        /* \"#utility.yul\":22617:22669   */\n      mstore\n        /* \"#utility.yul\":22432:22676   */\n      pop\n      jump\t// out\n        /* \"#utility.yul\":22682:23048   */\n    tag_258:\n        /* \"#utility.yul\":22824:22827   */\n      0x00\n        /* \"#utility.yul\":22845:22912   */\n      tag_498\n        /* \"#utility.yul\":22909:22911   */\n      0x39\n        /* \"#utility.yul\":22904:22907   */\n      dup4\n        /* \"#utility.yul\":22845:22912   */\n      tag_230\n      jump\t// in\n    tag_498:\n        /* \"#utility.yul\":22838:22912   */\n      swap2\n      pop\n        /* \"#utility.yul\":22921:23014   */\n      tag_499\n        /* \"#utility.yul\":23010:23013   */\n      dup3\n        /* \"#utility.yul\":22921:23014   */\n      tag_257\n      jump\t// in\n    tag_499:\n        /* \"#utility.yul\":23039:23041   */\n      0x40\n        /* \"#utility.yul\":23034:23037   */\n      dup3\n        /* \"#utility.yul\":23030:23042   */\n      add\n        /* \"#utility.yul\":23023:23042   */\n      swap1\n      pop\n        /* \"#utility.yul\":22682:23048   */\n      swap2\n      swap1\n      pop\n      jump\t// out\n        /* \"#utility.yul\":23054:23473   */\n    tag_119:\n        /* \"#utility.yul\":23220:23224   */\n      0x00\n        /* \"#utility.yul\":23258:23260   */\n      0x20\n        /* \"#utility.yul\":23247:23256   */\n      dup3\n        /* \"#utility.yul\":23243:23261   */\n      add\n        /* \"#utility.yul\":23235:23261   */\n      swap1\n      pop\n        /* \"#utility.yul\":23307:23316   */\n      dup2\n        /* \"#utility.yul\":23301:23305   */\n      dup2\n        /* \"#utility.yul\":23297:23317   */\n      sub\n        /* \"#utility.yul\":23293:23294   */\n      0x00\n        /* \"#utility.yul\":23282:23291   */\n      dup4\n        /* \"#utility.yul\":23278:23295   */\n      add\n        /* \"#utility.yul\":23271:23318   */\n      mstore\n        /* \"#utility.yul\":23335:23466   */\n      tag_501\n        /* \"#utility.yul\":23461:23465   */\n      dup2\n        /* \"#utility.yul\":23335:23466   */\n      tag_258\n      jump\t// in\n    tag_501:\n        /* \"#utility.yul\":23327:23466   */\n      swap1\n      pop\n        /* \"#utility.yul\":23054:23473   */\n      swap2\n      swap1\n      pop\n      jump\t// out\n        /* \"#utility.yul\":23479:23725   */\n    tag_259:\n        /* \"#utility.yul\":23619:23653   */\n      0x436f6e74726f6c436f6e74726163743a206261746368206d7573742062652069\n        /* \"#utility.yul\":23615:23616   */\n      0x00\n        /* \"#utility.yul\":23607:23613   */\n      dup3\n        /* \"#utility.yul\":23603:23617   */\n      add\n        /* \"#utility.yul\":23596:23654   */\n      mstore\n        /* \"#utility.yul\":23688:23717   */\n      0x6e2050726f647563656420737461746520746f2072656c656173650000000000\n        /* \"#utility.yul\":23683:23685   */\n      0x20\n        /* \"#utility.yul\":23675:23681   */\n      dup3\n        /* \"#utility.yul\":23671:23686   */\n      add\n        /* \"#utility.yul\":23664:23718   */\n      mstore\n        /* \"#utility.yul\":23479:23725   */\n      pop\n      jump\t// out\n        /* \"#utility.yul\":23731:24097   */\n    tag_260:\n        /* \"#utility.yul\":23873:23876   */\n      0x00\n        /* \"#utility.yul\":23894:23961   */\n      tag_504\n        /* \"#utility.yul\":23958:23960   */\n      0x3b\n        /* \"#utility.yul\":23953:23956   */\n      dup4\n        /* \"#utility.yul\":23894:23961   */\n      tag_230\n      jump\t// in\n    tag_504:\n        /* \"#utility.yul\":23887:23961   */\n      swap2\n      pop\n        /* \"#utility.yul\":23970:24063   */\n      tag_505\n        /* \"#utility.yul\":24059:24062   */\n      dup3\n        /* \"#utility.yul\":23970:24063   */\n      tag_259\n      jump\t// in\n    tag_505:\n        /* \"#utility.yul\":24088:24090   */\n      0x40\n        /* \"#utility.yul\":24083:24086   */\n      dup3\n        /* \"#utility.yul\":24079:24091   */\n      add\n        /* \"#utility.yul\":24072:24091   */\n      swap1\n      pop\n        /* \"#utility.yul\":23731:24097   */\n      swap2\n      swap1\n      pop\n      jump\t// out\n        /* \"#utility.yul\":24103:24522   */\n    tag_131:\n        /* \"#utility.yul\":24269:24273   */\n      0x00\n        /* \"#utility.yul\":24307:24309   */\n      0x20\n        /* \"#utility.yul\":24296:24305   */\n      dup3\n        /* \"#utility.yul\":24292:24310   */\n      add\n        /* \"#utility.yul\":24284:24310   */\n      swap1\n      pop\n        /* \"#utility.yul\":24356:24365   */\n      dup2\n        /* \"#utility.yul\":24350:24354   */\n      dup2\n        /* \"#utility.yul\":24346:24366   */\n      sub\n        /* \"#utility.yul\":24342:24343   */\n      0x00\n        /* \"#utility.yul\":24331:24340   */\n      dup4\n        /* \"#utility.yul\":24327:24344   */\n      add\n        /* \"#utility.yul\":24320:24367   */\n      mstore\n        /* \"#utility.yul\":24384:24515   */\n      tag_507\n        /* \"#utility.yul\":24510:24514   */\n      dup2\n        /* \"#utility.yul\":24384:24515   */\n      tag_260\n      jump\t// in\n    tag_507:\n        /* \"#utility.yul\":24376:24515   */\n      swap1\n      pop\n        /* \"#utility.yul\":24103:24522   */\n      swap2\n      swap1\n      pop\n      jump\t// out\n        /* \"#utility.yul\":24528:24777   */\n    tag_261:\n        /* \"#utility.yul\":24668:24702   */\n      0x436f6e74726f6c436f6e74726163743a2063616c6c6572206973206e6f742061\n        /* \"#utility.yul\":24664:24665   */\n      0x00\n        /* \"#utility.yul\":24656:24662   */\n      dup3\n        /* \"#utility.yul\":24652:24666   */\n      add\n        /* \"#utility.yul\":24645:24703   */\n      mstore\n        /* \"#utility.yul\":24737:24769   */\n      0x6e20617574686f726973656420706861726d6163792f686f73706974616c0000\n        /* \"#utility.yul\":24732:24734   */\n      0x20\n        /* \"#utility.yul\":24724:24730   */\n      dup3\n        /* \"#utility.yul\":24720:24735   */\n      add\n        /* \"#utility.yul\":24713:24770   */\n      mstore\n        /* \"#utility.yul\":24528:24777   */\n      pop\n      jump\t// out\n        /* \"#utility.yul\":24783:25149   */\n    tag_262:\n        /* \"#utility.yul\":24925:24928   */\n      0x00\n        /* \"#utility.yul\":24946:25013   */\n      tag_510\n        /* \"#utility.yul\":25010:25012   */\n      0x3e\n        /* \"#utility.yul\":25005:25008   */\n      dup4\n        /* \"#utility.yul\":24946:25013   */\n      tag_230\n      jump\t// in\n    tag_510:\n        /* \"#utility.yul\":24939:25013   */\n      swap2\n      pop\n        /* \"#utility.yul\":25022:25115   */\n      tag_511\n        /* \"#utility.yul\":25111:25114   */\n      dup3\n        /* \"#utility.yul\":25022:25115   */\n      tag_261\n      jump\t// in\n    tag_511:\n        /* \"#utility.yul\":25140:25142   */\n      0x40\n        /* \"#utility.yul\":25135:25138   */\n      dup3\n        /* \"#utility.yul\":25131:25143   */\n      add\n        /* \"#utility.yul\":25124:25143   */\n      swap1\n      pop\n        /* \"#utility.yul\":24783:25149   */\n      swap2\n      swap1\n      pop\n      jump\t// out\n        /* \"#utility.yul\":25155:25574   */\n    tag_141:\n        /* \"#utility.yul\":25321:25325   */\n      0x00\n        /* \"#utility.yul\":25359:25361   */\n      0x20\n        /* \"#utility.yul\":25348:25357   */\n      dup3\n        /* \"#utility.yul\":25344:25362   */\n      add\n        /* \"#utility.yul\":25336:25362   */\n      swap1\n      pop\n        /* \"#utility.yul\":25408:25417   */\n      dup2\n        /* \"#utility.yul\":25402:25406   */\n      dup2\n        /* \"#utility.yul\":25398:25418   */\n      sub\n        /* \"#utility.yul\":25394:25395   */\n      0x00\n        /* \"#utility.yul\":25383:25392   */\n      dup4\n        /* \"#utility.yul\":25379:25396   */\n      add\n        /* \"#utility.yul\":25372:25419   */\n      mstore\n        /* \"#utility.yul\":25436:25567   */\n      tag_513\n        /* \"#utility.yul\":25562:25566   */\n      dup2\n        /* \"#utility.yul\":25436:25567   */\n      tag_262\n      jump\t// in\n    tag_513:\n        /* \"#utility.yul\":25428:25567   */\n      swap1\n      pop\n        /* \"#utility.yul\":25155:25574   */\n      swap2\n      swap1\n      pop\n      jump\t// out\n        /* \"#utility.yul\":25580:25826   */\n    tag_263:\n        /* \"#utility.yul\":25720:25754   */\n      0x436f6e74726f6c436f6e74726163743a206261746368206d7573742062652049\n        /* \"#utility.yul\":25716:25717   */\n      0x00\n        /* \"#utility.yul\":25708:25714   */\n      dup3\n        /* \"#utility.yul\":25704:25718   */\n      add\n        /* \"#utility.yul\":25697:25755   */\n      mstore\n        /* \"#utility.yul\":25789:25818   */\n      0x6e5472616e73697420746f20636f6e6669726d20726563656970740000000000\n        /* \"#utility.yul\":25784:25786   */\n      0x20\n        /* \"#utility.yul\":25776:25782   */\n      dup3\n        /* \"#utility.yul\":25772:25787   */\n      add\n        /* \"#utility.yul\":25765:25819   */\n      mstore\n        /* \"#utility.yul\":25580:25826   */\n      pop\n      jump\t// out\n        /* \"#utility.yul\":25832:26198   */\n    tag_264:\n        /* \"#utility.yul\":25974:25977   */\n      0x00\n        /* \"#utility.yul\":25995:26062   */\n      tag_516\n        /* \"#utility.yul\":26059:26061   */\n      0x3b\n        /* \"#utility.yul\":26054:26057   */\n      dup4\n        /* \"#utility.yul\":25995:26062   */\n      tag_230\n      jump\t// in\n    tag_516:\n        /* \"#utility.yul\":25988:26062   */\n      swap2\n      pop\n        /* \"#utility.yul\":26071:26164   */\n      tag_517\n        /* \"#utility.yul\":26160:26163   */\n      dup3\n        /* \"#utility.yul\":26071:26164   */\n      tag_263\n      jump\t// in\n    tag_517:\n        /* \"#utility.yul\":26189:26191   */\n      0x40\n        /* \"#utility.yul\":26184:26187   */\n      dup3\n        /* \"#utility.yul\":26180:26192   */\n      add\n        /* \"#utility.yul\":26173:26192   */\n      swap1\n      pop\n        /* \"#utility.yul\":25832:26198   */\n      swap2\n      swap1\n      pop\n      jump\t// out\n        /* \"#utility.yul\":26204:26623   */\n    tag_153:\n        /* \"#utility.yul\":26370:26374   */\n      0x00\n        /* \"#utility.yul\":26408:26410   */\n      0x20\n        /* \"#utility.yul\":26397:26406   */\n      dup3\n        /* \"#utility.yul\":26393:26411   */\n      add\n        /* \"#utility.yul\":26385:26411   */\n      swap1\n      pop\n        /* \"#utility.yul\":26457:26466   */\n      dup2\n        /* \"#utility.yul\":26451:26455   */\n      dup2\n        /* \"#utility.yul\":26447:26467   */\n      sub\n        /* \"#utility.yul\":26443:26444   */\n      0x00\n        /* \"#utility.yul\":26432:26441   */\n      dup4\n        /* \"#utility.yul\":26428:26445   */\n      add\n        /* \"#utility.yul\":26421:26468   */\n      mstore\n        /* \"#utility.yul\":26485:26616   */\n      tag_519\n        /* \"#utility.yul\":26611:26615   */\n      dup2\n        /* \"#utility.yul\":26485:26616   */\n      tag_264\n      jump\t// in\n    tag_519:\n        /* \"#utility.yul\":26477:26616   */\n      swap1\n      pop\n        /* \"#utility.yul\":26204:26623   */\n      swap2\n      swap1\n      pop\n      jump\t// out\n        /* \"#utility.yul\":26629:26809   */\n    tag_265:\n        /* \"#utility.yul\":26677:26754   */\n      0x4e487b7100000000000000000000000000000000000000000000000000000000\n        /* \"#utility.yul\":26674:26675   */\n      0x00\n        /* \"#utility.yul\":26667:26755   */\n      mstore\n        /* \"#utility.yul\":26774:26778   */\n      0x22\n        /* \"#utility.yul\":26771:26772   */\n      0x04\n        /* \"#utility.yul\":26764:26779   */\n      mstore\n        /* \"#utility.yul\":26798:26802   */\n      0x24\n        /* \"#utility.yul\":26795:26796   */\n      0x00\n        /* \"#utility.yul\":26788:26803   */\n      revert\n        /* \"#utility.yul\":26815:27135   */\n    tag_173:\n        /* \"#utility.yul\":26859:26865   */\n      0x00\n        /* \"#utility.yul\":26896:26897   */\n      0x02\n        /* \"#utility.yul\":26890:26894   */\n      dup3\n        /* \"#utility.yul\":26886:26898   */\n      div\n        /* \"#utility.yul\":26876:26898   */\n      swap1\n      pop\n        /* \"#utility.yul\":26943:26944   */\n      0x01\n        /* \"#utility.yul\":26937:26941   */\n      dup3\n        /* \"#utility.yul\":26933:26945   */\n      and\n        /* \"#utility.yul\":26964:26982   */\n      dup1\n        /* \"#utility.yul\":26954:27035   */\n      tag_522\n      jumpi\n        /* \"#utility.yul\":27020:27024   */\n      0x7f\n        /* \"#utility.yul\":27012:27018   */\n      dup3\n        /* \"#utility.yul\":27008:27025   */\n      and\n        /* \"#utility.yul\":26998:27025   */\n      swap2\n      pop\n        /* \"#utility.yul\":26954:27035   */\n    tag_522:\n        /* \"#utility.yul\":27082:27084   */\n      0x20\n        /* \"#utility.yul\":27074:27080   */\n      dup3\n        /* \"#utility.yul\":27071:27085   */\n      lt\n        /* \"#utility.yul\":27051:27069   */\n      dup2\n        /* \"#utility.yul\":27048:27086   */\n      sub\n        /* \"#utility.yul\":27045:27129   */\n      tag_523\n      jumpi\n        /* \"#utility.yul\":27101:27119   */\n      tag_524\n      tag_265\n      jump\t// in\n    tag_524:\n        /* \"#utility.yul\":27045:27129   */\n    tag_523:\n        /* \"#utility.yul\":26866:27135   */\n      pop\n        /* \"#utility.yul\":26815:27135   */\n      swap2\n      swap1\n      pop\n      jump\t// out\n        /* \"#utility.yul\":27141:27282   */\n    tag_266:\n        /* \"#utility.yul\":27190:27194   */\n      0x00\n        /* \"#utility.yul\":27213:27216   */\n      dup2\n        /* \"#utility.yul\":27205:27216   */\n      swap1\n      pop\n        /* \"#utility.yul\":27236:27239   */\n      dup2\n        /* \"#utility.yul\":27233:27234   */\n      0x00\n        /* \"#utility.yul\":27226:27240   */\n      mstore\n        /* \"#utility.yul\":27270:27274   */\n      0x20\n        /* \"#utility.yul\":27267:27268   */\n      0x00\n        /* \"#utility.yul\":27257:27275   */\n      keccak256\n        /* \"#utility.yul\":27249:27275   */\n      swap1\n      pop\n        /* \"#utility.yul\":27141:27282   */\n      swap2\n      swap1\n      pop\n      jump\t// out\n        /* \"#utility.yul\":27288:27381   */\n    tag_267:\n        /* \"#utility.yul\":27325:27331   */\n      0x00\n        /* \"#utility.yul\":27372:27374   */\n      0x20\n        /* \"#utility.yul\":27367:27369   */\n      0x1f\n        /* \"#utility.yul\":27360:27365   */\n      dup4\n        /* \"#utility.yul\":27356:27370   */\n      add\n        /* \"#utility.yul\":27352:27375   */\n      div\n        /* \"#utility.yul\":27342:27375   */\n      swap1\n      pop\n        /* \"#utility.yul\":27288:27381   */\n      swap2\n      swap1\n      pop\n      jump\t// out\n        /* \"#utility.yul\":27387:27494   */\n    tag_268:\n        /* \"#utility.yul\":27431:27439   */\n      0x00\n        /* \"#utility.yul\":27481:27486   */\n      dup3\n        /* \"#utility.yul\":27475:27479   */\n      dup3\n        /* \"#utility.yul\":27471:27487   */\n      shl\n        /* \"#utility.yul\":27450:27487   */\n      swap1\n      pop\n        /* \"#utility.yul\":27387:27494   */\n      swap3\n      swap2\n      pop\n      pop\n      jump\t// out\n        /* \"#utility.yul\":27500:27893   */\n    tag_269:\n        /* \"#utility.yul\":27569:27575   */\n      0x00\n        /* \"#utility.yul\":27619:27620   */\n      0x08\n        /* \"#utility.yul\":27607:27617   */\n      dup4\n        /* \"#utility.yul\":27603:27621   */\n      mul\n        /* \"#utility.yul\":27642:27739   */\n      tag_529\n        /* \"#utility.yul\":27672:27738   */\n      0xffffffffffffffffffffffffffffffffffffffffffffffffffffffffffffffff\n        /* \"#utility.yul\":27661:27670   */\n      dup3\n        /* \"#utility.yul\":27642:27739   */\n      tag_268\n      jump\t// in\n    tag_529:\n        /* \"#utility.yul\":27760:27799   */\n      tag_530\n        /* \"#utility.yul\":27790:27798   */\n      dup7\n        /* \"#utility.yul\":27779:27788   */\n      dup4\n        /* \"#utility.yul\":27760:27799   */\n      tag_268\n      jump\t// in\n    tag_530:\n        /* \"#utility.yul\":27748:27799   */\n      swap6\n      pop\n        /* \"#utility.yul\":27832:27836   */\n      dup1\n        /* \"#utility.yul\":27828:27837   */\n      not\n        /* \"#utility.yul\":27821:27826   */\n      dup5\n        /* \"#utility.yul\":27817:27838   */\n      and\n        /* \"#utility.yul\":27808:27838   */\n      swap4\n      pop\n        /* \"#utility.yul\":27881:27885   */\n      dup1\n        /* \"#utility.yul\":27871:27879   */\n      dup7\n        /* \"#utility.yul\":27867:27886   */\n      and\n        /* \"#utility.yul\":27860:27865   */\n      dup5\n        /* \"#utility.yul\":27857:27887   */\n      or\n        /* \"#utility.yul\":27847:27887   */\n      swap3\n      pop\n        /* \"#utility.yul\":27576:27893   */\n      pop\n      pop\n        /* \"#utility.yul\":27500:27893   */\n      swap4\n      swap3\n      pop\n      pop\n      pop\n      jump\t// out\n        /* \"#utility.yul\":27899:28041   */\n    tag_270:\n        /* \"#utility.yul\":27949:27958   */\n      0x00\n        /* \"#utility.yul\":27982:28035   */\n      tag_532\n        /* \"#utility.yul\":28000:28034   */\n      tag_533\n        /* \"#utility.yul\":28009:28033   */\n      tag_534\n        /* \"#utility.yul\":28027:28032   */\n      dup5\n        /* \"#utility.yul\":28009:28033   */\n      tag_197\n      jump\t// in\n    tag_534:\n        /* \"#utility.yul\":28000:28034   */\n      tag_207\n      jump\t// in\n    tag_533:\n        /* \"#utility.yul\":27982:28035   */\n      tag_197\n      jump\t// in\n    tag_532:\n        /* \"#utility.yul\":27969:28035   */\n      swap1\n      pop\n        /* \"#utility.yul\":27899:28041   */\n      swap2\n      swap1\n      pop\n      jump\t// out\n        /* \"#utility.yul\":28047:28122   */\n    tag_271:\n        /* \"#utility.yul\":28090:28093   */\n      0x00\n        /* \"#utility.yul\":28111:28116   */\n      dup2\n        /* \"#utility.yul\":28104:28116   */\n      swap1\n      pop\n        /* \"#utility.yul\":28047:28122   */\n      swap2\n      swap1\n      pop\n      jump\t// out\n        /* \"#utility.yul\":28128:28397   */\n    tag_272:\n        /* \"#utility.yul\":28238:28277   */\n      tag_537\n        /* \"#utility.yul\":28269:28276   */\n      dup4\n        /* \"#utility.yul\":28238:28277   */\n      tag_270\n      jump\t// in\n    tag_537:\n        /* \"#utility.yul\":28299:28390   */\n      tag_538\n        /* \"#utility.yul\":28348:28389   */\n      tag_539\n        /* \"#utility.yul\":28372:28388   */\n      dup3\n        /* \"#utility.yul\":28348:28389   */\n      tag_271\n      jump\t// in\n    tag_539:\n        /* \"#utility.yul\":28340:28346   */\n      dup5\n        /* \"#utility.yul\":28333:28337   */\n      dup5\n        /* \"#utility.yul\":28327:28338   */\n      sload\n        /* \"#utility.yul\":28299:28390   */\n      tag_269\n      jump\t// in\n    tag_538:\n        /* \"#utility.yul\":28293:28297   */\n      dup3\n        /* \"#utility.yul\":28286:28391   */\n      sstore\n        /* \"#utility.yul\":28204:28397   */\n      pop\n        /* \"#utility.yul\":28128:28397   */\n      pop\n      pop\n      pop\n      jump\t// out\n        /* \"#utility.yul\":28403:28476   */\n    tag_273:\n        /* \"#utility.yul\":28448:28451   */\n      0x00\n        /* \"#utility.yul\":28469:28470   */\n      0x00\n        /* \"#utility.yul\":28462:28470   */\n      swap1\n      pop\n        /* \"#utility.yul\":28403:28476   */\n      swap1\n      jump\t// out\n        /* \"#utility.yul\":28482:28671   */\n    tag_274:\n        /* \"#utility.yul\":28559:28591   */\n      tag_542\n      tag_273\n      jump\t// in\n    tag_542:\n        /* \"#utility.yul\":28600:28665   */\n      tag_543\n        /* \"#utility.yul\":28658:28664   */\n      dup2\n        /* \"#utility.yul\":28650:28656   */\n      dup5\n        /* \"#utility.yul\":28644:28648   */\n      dup5\n        /* \"#utility.yul\":28600:28665   */\n      tag_272\n      jump\t// in\n    tag_543:\n        /* \"#utility.yul\":28535:28671   */\n      pop\n        /* \"#utility.yul\":28482:28671   */\n      pop\n      pop\n      jump\t// out\n        /* \"#utility.yul\":28677:28891   */\n    tag_275:\n        /* \"#utility.yul\":28762:28763   */\n      0x00\n        /* \"#utility.yul\":28747:28885   */\n    tag_545:\n        /* \"#utility.yul\":28772:28781   */\n      dup3\n        /* \"#utility.yul\":28769:28770   */\n      dup2\n        /* \"#utility.yul\":28766:28782   */\n      lt\n        /* \"#utility.yul\":28747:28885   */\n      iszero\n      tag_547\n      jumpi\n        /* \"#utility.yul\":28824:28875   */\n      tag_548\n        /* \"#utility.yul\":28873:28874   */\n      0x00\n        /* \"#utility.yul\":28869:28870   */\n      dup3\n        /* \"#utility.yul\":28858:28867   */\n      dup5\n        /* \"#utility.yul\":28854:28871   */\n      add\n        /* \"#utility.yul\":28824:28875   */\n      tag_274\n      jump\t// in\n    tag_548:\n        /* \"#utility.yul\":28797:28798   */\n      0x01\n        /* \"#utility.yul\":28794:28795   */\n      dup2\n        /* \"#utility.yul\":28790:28799   */\n      add\n        /* \"#utility.yul\":28785:28799   */\n      swap1\n      pop\n        /* \"#utility.yul\":28747:28885   */\n      jump(tag_545)\n    tag_547:\n        /* \"#utility.yul\":28751:28765   */\n      pop\n        /* \"#utility.yul\":28677:28891   */\n      pop\n      pop\n      jump\t// out\n        /* \"#utility.yul\":28897:29643   */\n    tag_276:\n        /* \"#utility.yul\":28998:29000   */\n      0x1f\n        /* \"#utility.yul\":28993:28996   */\n      dup3\n        /* \"#utility.yul\":28990:29001   */\n      gt\n        /* \"#utility.yul\":28987:29636   */\n      iszero\n      tag_550\n      jumpi\n        /* \"#utility.yul\":29027:29037   */\n      dup3\n        /* \"#utility.yul\":29022:29025   */\n      dup3\n        /* \"#utility.yul\":29019:29038   */\n      gt\n        /* \"#utility.yul\":29016:29626   */\n      iszero\n      tag_551\n      jumpi\n        /* \"#utility.yul\":29073:29111   */\n      tag_552\n        /* \"#utility.yul\":29105:29110   */\n      dup2\n        /* \"#utility.yul\":29073:29111   */\n      tag_266\n      jump\t// in\n    tag_552:\n        /* \"#utility.yul\":29148:29170   */\n      tag_553\n        /* \"#utility.yul\":29166:29169   */\n      dup4\n        /* \"#utility.yul\":29148:29170   */\n      tag_267\n      jump\t// in\n    tag_553:\n        /* \"#utility.yul\":29207:29236   */\n      tag_554\n        /* \"#utility.yul\":29225:29235   */\n      dup6\n        /* \"#utility.yul\":29207:29236   */\n      tag_267\n      jump\t// in\n    tag_554:\n        /* \"#utility.yul\":29397:29399   */\n      0x20\n        /* \"#utility.yul\":29385:29395   */\n      dup7\n        /* \"#utility.yul\":29382:29400   */\n      lt\n        /* \"#utility.yul\":29379:29458   */\n      iszero\n      tag_555\n      jumpi\n        /* \"#utility.yul\":29439:29440   */\n      0x00\n        /* \"#utility.yul\":29423:29440   */\n      swap1\n      pop\n        /* \"#utility.yul\":29379:29458   */\n    tag_555:\n        /* \"#utility.yul\":29508:29520   */\n      dup1\n        /* \"#utility.yul\":29498:29506   */\n      dup4\n        /* \"#utility.yul\":29494:29521   */\n      add\n        /* \"#utility.yul\":29538:29612   */\n      tag_556\n        /* \"#utility.yul\":29598:29610   */\n      dup3\n        /* \"#utility.yul\":29584:29596   */\n      dup5\n        /* \"#utility.yul\":29580:29611   */\n      sub\n        /* \"#utility.yul\":29567:29578   */\n      dup3\n        /* \"#utility.yul\":29538:29612   */\n      tag_275\n      jump\t// in\n    tag_556:\n        /* \"#utility.yul\":29039:29626   */\n      pop\n      pop\n      pop\n      pop\n        /* \"#utility.yul\":29016:29626   */\n    tag_551:\n        /* \"#utility.yul\":28987:29636   */\n    tag_550:\n        /* \"#utility.yul\":28897:29643   */\n      pop\n      pop\n      pop\n      jump\t// out\n        /* \"#utility.yul\":29649:29766   */\n    tag_277:\n        /* \"#utility.yul\":29703:29711   */\n      0x00\n        /* \"#utility.yul\":29753:29758   */\n      dup3\n        /* \"#utility.yul\":29747:29751   */\n      dup3\n        /* \"#utility.yul\":29743:29759   */\n      shr\n        /* \"#utility.yul\":29722:29759   */\n      swap1\n      pop\n        /* \"#utility.yul\":29649:29766   */\n      swap3\n      swap2\n      pop\n      pop\n      jump\t// out\n        /* \"#utility.yul\":29772:29941   */\n    tag_278:\n        /* \"#utility.yul\":29816:29822   */\n      0x00\n        /* \"#utility.yul\":29849:29900   */\n      tag_559\n        /* \"#utility.yul\":29897:29898   */\n      0x00\n        /* \"#utility.yul\":29893:29899   */\n      not\n        /* \"#utility.yul\":29885:29890   */\n      dup5\n        /* \"#utility.yul\":29882:29883   */\n      0x08\n        /* \"#utility.yul\":29878:29891   */\n      mul\n        /* \"#utility.yul\":29849:29900   */\n      tag_277\n      jump\t// in\n    tag_559:\n        /* \"#utility.yul\":29845:29901   */\n      not\n        /* \"#utility.yul\":29930:29934   */\n      dup1\n        /* \"#utility.yul\":29924:29928   */\n      dup4\n        /* \"#utility.yul\":29920:29935   */\n      and\n        /* \"#utility.yul\":29910:29935   */\n      swap2\n      pop\n        /* \"#utility.yul\":29823:29941   */\n      pop\n        /* \"#utility.yul\":29772:29941   */\n      swap3\n      swap2\n      pop\n      pop\n      jump\t// out\n        /* \"#utility.yul\":29946:30241   */\n    tag_279:\n        /* \"#utility.yul\":30022:30026   */\n      0x00\n        /* \"#utility.yul\":30168:30197   */\n      tag_561\n        /* \"#utility.yul\":30193:30196   */\n      dup4\n        /* \"#utility.yul\":30187:30191   */\n      dup4\n        /* \"#utility.yul\":30168:30197   */\n      tag_278\n      jump\t// in\n    tag_561:\n        /* \"#utility.yul\":30160:30197   */\n      swap2\n      pop\n        /* \"#utility.yul\":30230:30233   */\n      dup3\n        /* \"#utility.yul\":30227:30228   */\n      0x02\n        /* \"#utility.yul\":30223:30234   */\n      mul\n        /* \"#utility.yul\":30217:30221   */\n      dup3\n        /* \"#utility.yul\":30214:30235   */\n      or\n        /* \"#utility.yul\":30206:30235   */\n      swap1\n      pop\n        /* \"#utility.yul\":29946:30241   */\n      swap3\n      swap2\n      pop\n      pop\n      jump\t// out\n        /* \"#utility.yul\":30246:31641   */\n    tag_189:\n        /* \"#utility.yul\":30363:30400   */\n      tag_563\n        /* \"#utility.yul\":30396:30399   */\n      dup3\n        /* \"#utility.yul\":30363:30400   */\n      tag_221\n      jump\t// in\n    tag_563:\n        /* \"#utility.yul\":30465:30483   */\n      0xffffffffffffffff\n        /* \"#utility.yul\":30457:30463   */\n      dup2\n        /* \"#utility.yul\":30454:30484   */\n      gt\n        /* \"#utility.yul\":30451:30507   */\n      iszero\n      tag_564\n      jumpi\n        /* \"#utility.yul\":30487:30505   */\n      tag_565\n      tag_237\n      jump\t// in\n    tag_565:\n        /* \"#utility.yul\":30451:30507   */\n    tag_564:\n        /* \"#utility.yul\":30531:30569   */\n      tag_566\n        /* \"#utility.yul\":30563:30567   */\n      dup3\n        /* \"#utility.yul\":30557:30568   */\n      sload\n        /* \"#utility.yul\":30531:30569   */\n      tag_173\n      jump\t// in\n    tag_566:\n        /* \"#utility.yul\":30616:30683   */\n      tag_567\n        /* \"#utility.yul\":30676:30682   */\n      dup3\n        /* \"#utility.yul\":30668:30674   */\n      dup3\n        /* \"#utility.yul\":30662:30666   */\n      dup6\n        /* \"#utility.yul\":30616:30683   */\n      tag_276\n      jump\t// in\n    tag_567:\n        /* \"#utility.yul\":30710:30711   */\n      0x00\n        /* \"#utility.yul\":30734:30738   */\n      0x20\n        /* \"#utility.yul\":30721:30738   */\n      swap1\n      pop\n        /* \"#utility.yul\":30766:30768   */\n      0x1f\n        /* \"#utility.yul\":30758:30764   */\n      dup4\n        /* \"#utility.yul\":30755:30769   */\n      gt\n        /* \"#utility.yul\":30783:30784   */\n      0x01\n        /* \"#utility.yul\":30778:31396   */\n      dup2\n      eq\n      tag_569\n      jumpi\n        /* \"#utility.yul\":31440:31441   */\n      0x00\n        /* \"#utility.yul\":31457:31463   */\n      dup5\n        /* \"#utility.yul\":31454:31531   */\n      iszero\n      tag_570\n      jumpi\n        /* \"#utility.yul\":31506:31515   */\n      dup3\n        /* \"#utility.yul\":31501:31504   */\n      dup8\n        /* \"#utility.yul\":31497:31516   */\n      add\n        /* \"#utility.yul\":31491:31517   */\n      mload\n        /* \"#utility.yul\":31482:31517   */\n      swap1\n      pop\n        /* \"#utility.yul\":31454:31531   */\n    tag_570:\n        /* \"#utility.yul\":31557:31624   */\n      tag_571\n        /* \"#utility.yul\":31617:31623   */\n      dup6\n        /* \"#utility.yul\":31610:31615   */\n      dup3\n        /* \"#utility.yul\":31557:31624   */\n      tag_279\n      jump\t// in\n    tag_571:\n        /* \"#utility.yul\":31551:31555   */\n      dup7\n        /* \"#utility.yul\":31544:31625   */\n      sstore\n        /* \"#utility.yul\":31413:31635   */\n      pop\n        /* \"#utility.yul\":30748:31635   */\n      jump(tag_568)\n        /* \"#utility.yul\":30778:31396   */\n    tag_569:\n        /* \"#utility.yul\":30830:30834   */\n      0x1f\n        /* \"#utility.yul\":30826:30835   */\n      not\n        /* \"#utility.yul\":30818:30824   */\n      dup5\n        /* \"#utility.yul\":30814:30836   */\n      and\n        /* \"#utility.yul\":30864:30901   */\n      tag_572\n        /* \"#utility.yul\":30896:30900   */\n      dup7\n        /* \"#utility.yul\":30864:30901   */\n      tag_266\n      jump\t// in\n    tag_572:\n        /* \"#utility.yul\":30923:30924   */\n      0x00\n        /* \"#utility.yul\":30937:31145   */\n    tag_573:\n        /* \"#utility.yul\":30951:30958   */\n      dup3\n        /* \"#utility.yul\":30948:30949   */\n      dup2\n        /* \"#utility.yul\":30945:30959   */\n      lt\n        /* \"#utility.yul\":30937:31145   */\n      iszero\n      tag_575\n      jumpi\n        /* \"#utility.yul\":31030:31039   */\n      dup5\n        /* \"#utility.yul\":31025:31028   */\n      dup10\n        /* \"#utility.yul\":31021:31040   */\n      add\n        /* \"#utility.yul\":31015:31041   */\n      mload\n        /* \"#utility.yul\":31007:31013   */\n      dup3\n        /* \"#utility.yul\":31000:31042   */\n      sstore\n        /* \"#utility.yul\":31081:31082   */\n      0x01\n        /* \"#utility.yul\":31073:31079   */\n      dup3\n        /* \"#utility.yul\":31069:31083   */\n      add\n        /* \"#utility.yul\":31059:31083   */\n      swap2\n      pop\n        /* \"#utility.yul\":31128:31130   */\n      0x20\n        /* \"#utility.yul\":31117:31126   */\n      dup6\n        /* \"#utility.yul\":31113:31131   */\n      add\n        /* \"#utility.yul\":31100:31131   */\n      swap5\n      pop\n        /* \"#utility.yul\":30974:30978   */\n      0x20\n        /* \"#utility.yul\":30971:30972   */\n      dup2\n        /* \"#utility.yul\":30967:30979   */\n      add\n        /* \"#utility.yul\":30962:30979   */\n      swap1\n      pop\n        /* \"#utility.yul\":30937:31145   */\n      jump(tag_573)\n    tag_575:\n        /* \"#utility.yul\":31173:31179   */\n      dup7\n        /* \"#utility.yul\":31164:31171   */\n      dup4\n        /* \"#utility.yul\":31161:31180   */\n      lt\n        /* \"#utility.yul\":31158:31337   */\n      iszero\n      tag_576\n      jumpi\n        /* \"#utility.yul\":31231:31240   */\n      dup5\n        /* \"#utility.yul\":31226:31229   */\n      dup10\n        /* \"#utility.yul\":31222:31241   */\n      add\n        /* \"#utility.yul\":31216:31242   */\n      mload\n        /* \"#utility.yul\":31274:31322   */\n      tag_577\n        /* \"#utility.yul\":31316:31320   */\n      0x1f\n        /* \"#utility.yul\":31308:31314   */\n      dup10\n        /* \"#utility.yul\":31304:31321   */\n      and\n        /* \"#utility.yul\":31293:31302   */\n      dup3\n        /* \"#utility.yul\":31274:31322   */\n      tag_278\n      jump\t// in\n    tag_577:\n        /* \"#utility.yul\":31266:31272   */\n      dup4\n        /* \"#utility.yul\":31259:31323   */\n      sstore\n        /* \"#utility.yul\":31181:31337   */\n      pop\n        /* \"#utility.yul\":31158:31337   */\n    tag_576:\n        /* \"#utility.yul\":31383:31384   */\n      0x01\n        /* \"#utility.yul\":31379:31380   */\n      0x02\n        /* \"#utility.yul\":31371:31377   */\n      dup9\n        /* \"#utility.yul\":31367:31381   */\n      mul\n        /* \"#utility.yul\":31363:31385   */\n      add\n        /* \"#utility.yul\":31357:31361   */\n      dup9\n        /* \"#utility.yul\":31350:31386   */\n      sstore\n        /* \"#utility.yul\":30785:31396   */\n      pop\n      pop\n      pop\n        /* \"#utility.yul\":30748:31635   */\n    tag_568:\n      pop\n        /* \"#utility.yul\":30338:31641   */\n      pop\n      pop\n      pop\n        /* \"#utility.yul\":30246:31641   */\n      pop\n      pop\n      jump\t// out\n\n    auxdata: 0xa264697066735822122025d47d213a57dd0dea8014a8a98e28640e6bf139f7f07dcfedac491745371e5d64736f6c63430008220033\n}\n",
				"bytecode": {
					"linkReferences": {},
					"object": "608060405234801561000f575f5ffd5b5060405161251238038061251283398181016040528101906100319190610114565b3360015f6101000a81548173ffffffffffffffffffffffffffffffffffffffff021916908373ffffffffffffffffffffffffffffffffffffffff160217905550805f5f6101000a81548173ffffffffffffffffffffffffffffffffffffffff021916908373ffffffffffffffffffffffffffffffffffffffff1602179055505061013f565b5f5ffd5b5f73ffffffffffffffffffffffffffffffffffffffff82169050919050565b5f6100e3826100ba565b9050919050565b6100f3816100d9565b81146100fd575f5ffd5b50565b5f8151905061010e816100ea565b92915050565b5f60208284031215610129576101286100b6565b5b5f61013684828501610100565b91505092915050565b6123c68061014c5f395ff3fe608060405234801561000f575f5ffd5b50600436106100cd575f3560e01c80638ede37fa1161008a578063d0b6b6db11610064578063d0b6b6db146101f7578063d75af31e14610215578063e33de82814610245578063f1d4bba914610275576100cd565b80638ede37fa1461018f578063a2aa4337146101bf578063b9897ce9146101db576100cd565b8063028e2b66146100d1578063120b93d3146100ed5780632eecacbf1461010957806378e494d3146101255780638124fea6146101555780638da5cb5b14610171575b5f5ffd5b6100eb60048036038101906100e69190611459565b610291565b005b61010760048036038101906101029190611459565b610377565b005b610123600480360381019061011e9190611518565b61045d565b005b61013f600480360381019061013a9190611589565b6107bc565b60405161014c91906115c3565b60405180910390f35b61016f600480360381019061016a91906115dc565b6107ec565b005b610179610b2a565b60405161018691906115c3565b60405180910390f35b6101a960048036038101906101a49190611459565b610b4f565b6040516101b69190611634565b60405180910390f35b6101d960048036038101906101d49190611589565b610b6c565b005b6101f560048036038101906101f09190611459565b610e75565b005b6101ff610f5c565b60405161020c91906116a8565b60405180910390f35b61022f600480360381019061022a9190611589565b610f80565b60405161023c91906118f0565b60405180910390f35b61025f600480360381019061025a9190611459565b61116b565b60405161026c9190611634565b60405180910390f35b61028f600480360381019061028a9190611459565b611188565b005b60015f9054906101000a900473ffffffffffffffffffffffffffffffffffffffff1673ffffffffffffffffffffffffffffffffffffffff163373ffffffffffffffffffffffffffffffffffffffff1614610320576040517f08c379a000000000000000000000000000000000000000000000000000000000815260040161031790611990565b60405180910390fd5b5f60035f8373ffffffffffffffffffffffffffffffffffffffff1673ffffffffffffffffffffffffffffffffffffffff1681526020019081526020015f205f6101000a81548160ff02191690831515021790555050565b60015f9054906101000a900473ffffffffffffffffffffffffffffffffffffffff1673ffffffffffffffffffffffffffffffffffffffff163373ffffffffffffffffffffffffffffffffffffffff1614610406576040517f08c379a00000000000000000000000000000000000000000000000000000000081526004016103fd90611990565b60405180910390fd5b5f60025f8373ffffffffffffffffffffffffffffffffffffffff1673ffffffffffffffffffffffffffffffffffffffff1681526020019081526020015f205f6101000a81548160ff02191690831515021790555050565b60025f3373ffffffffffffffffffffffffffffffffffffffff1673ffffffffffffffffffffffffffffffffffffffff1681526020019081526020015f205f9054906101000a900460ff166104e6576040517f08c379a00000000000000000000000000000000000000000000000000000000081526004016104dd90611a1e565b60405180910390fd5b5f5f5f9054906101000a900473ffffffffffffffffffffffffffffffffffffffff1673ffffffffffffffffffffffffffffffffffffffff16635ac44282866040518263ffffffff1660e01b81526004016105409190611a4b565b5f60405180830381865afa15801561055a573d5f5f3e3d5ffd5b505050506040513d5f823e3d601f19601f820116820180604052508101906105829190611cba565b905060016004811115610598576105976116f9565b5b8160c0015160048111156105af576105ae6116f9565b5b14806105e35750600260048111156105ca576105c96116f9565b5b8160c0015160048111156105e1576105e06116f9565b5b145b610622576040517f08c379a000000000000000000000000000000000000000000000000000000000815260040161061990611d71565b60405180910390fd5b5f5f9054906101000a900473ffffffffffffffffffffffffffffffffffffffff1673ffffffffffffffffffffffffffffffffffffffff16633a1b3d318660026040518363ffffffff1660e01b815260040161067e929190611d9e565b5f604051808303815f87803b158015610695575f5ffd5b505af11580156106a7573d5f5f3e3d5ffd5b505050506106fc853386600287878080601f0160208091040260200160405190810160405280939291908181526020018383808284375f81840152601f19601f8201169050808301925050505050505061126f565b8360055f8781526020019081526020015f205f6101000a81548173ffffffffffffffffffffffffffffffffffffffff021916908373ffffffffffffffffffffffffffffffffffffffff1602179055508373ffffffffffffffffffffffffffffffffffffffff163373ffffffffffffffffffffffffffffffffffffffff16867f90f424f437850dc9bb5a3e6be616a5cf41f5faacd30b1044d84e06d12ddc74be8686426040516107ad93929190611dff565b60405180910390a45050505050565b6005602052805f5260405f205f915054906101000a900473ffffffffffffffffffffffffffffffffffffffff1681565b5f5f9054906101000a900473ffffffffffffffffffffffffffffffffffffffff1673ffffffffffffffffffffffffffffffffffffffff16635cd349ef336040518263ffffffff1660e01b815260040161084591906115c3565b602060405180830381865afa158015610860573d5f5f3e3d5ffd5b505050506040513d601f19601f820116820180604052508101906108849190611e59565b6108c3576040517f08c379a00000000000000000000000000000000000000000000000000000000081526004016108ba90611ef4565b60405180910390fd5b5f5f5f9054906101000a900473ffffffffffffffffffffffffffffffffffffffff1673ffffffffffffffffffffffffffffffffffffffff16635ac44282846040518263ffffffff1660e01b815260040161091d9190611a4b565b5f60405180830381865afa158015610937573d5f5f3e3d5ffd5b505050506040513d5f823e3d601f19601f8201168201806040525081019061095f9190611cba565b90505f6004811115610974576109736116f9565b5b8160c00151600481111561098b5761098a6116f9565b5b146109cb576040517f08c379a00000000000000000000000000000000000000000000000000000000081526004016109c290611f82565b60405180910390fd5b5f5f9054906101000a900473ffffffffffffffffffffffffffffffffffffffff1673ffffffffffffffffffffffffffffffffffffffff16633a1b3d318460016040518363ffffffff1660e01b8152600401610a27929190611d9e565b5f604051808303815f87803b158015610a3e575f5ffd5b505af1158015610a50573d5f5f3e3d5ffd5b50505050610a70833384600160405180602001604052805f81525061126f565b8160055f8581526020019081526020015f205f6101000a81548173ffffffffffffffffffffffffffffffffffffffff021916908373ffffffffffffffffffffffffffffffffffffffff1602179055508173ffffffffffffffffffffffffffffffffffffffff163373ffffffffffffffffffffffffffffffffffffffff16847ffa88627e4e732e3f4f50eb49afd20919542d60088603ebe9af4f4eb33cc8ba6d42604051610b1d9190611a4b565b60405180910390a4505050565b60015f9054906101000a900473ffffffffffffffffffffffffffffffffffffffff1681565b6002602052805f5260405f205f915054906101000a900460ff1681565b60035f3373ffffffffffffffffffffffffffffffffffffffff1673ffffffffffffffffffffffffffffffffffffffff1681526020019081526020015f205f9054906101000a900460ff16610bf5576040517f08c379a0000000000000000000000000000000000000000000000000000000008152600401610bec90612010565b60405180910390fd5b5f5f5f9054906101000a900473ffffffffffffffffffffffffffffffffffffffff1673ffffffffffffffffffffffffffffffffffffffff16635ac44282836040518263ffffffff1660e01b8152600401610c4f9190611a4b565b5f60405180830381865afa158015610c69573d5f5f3e3d5ffd5b505050506040513d5f823e3d601f19601f82011682018060405250810190610c919190611cba565b905060026004811115610ca757610ca66116f9565b5b8160c001516004811115610cbe57610cbd6116f9565b5b14610cfe576040517f08c379a0000000000000000000000000000000000000000000000000000000008152600401610cf59061209e565b60405180910390fd5b5f5f9054906101000a900473ffffffffffffffffffffffffffffffffffffffff1673ffffffffffffffffffffffffffffffffffffffff16633a1b3d318360036040518363ffffffff1660e01b8152600401610d5a929190611d9e565b5f604051808303815f87803b158015610d71575f5ffd5b505af1158015610d83573d5f5f3e3d5ffd5b50505050610dd38260055f8581526020019081526020015f205f9054906101000a900473ffffffffffffffffffffffffffffffffffffffff1633600360405180602001604052805f81525061126f565b3360055f8481526020019081526020015f205f6101000a81548173ffffffffffffffffffffffffffffffffffffffff021916908373ffffffffffffffffffffffffffffffffffffffff1602179055503373ffffffffffffffffffffffffffffffffffffffff16827fc05b1107d1bf72ae261838a5b0823760327225f4b8d752559fa509a801beb14e42604051610e699190611a4b565b60405180910390a35050565b60015f9054906101000a900473ffffffffffffffffffffffffffffffffffffffff1673ffffffffffffffffffffffffffffffffffffffff163373ffffffffffffffffffffffffffffffffffffffff1614610f04576040517f08c379a0000000000000000000000000000000000000000000000000000000008152600401610efb90611990565b60405180910390fd5b600160025f8373ffffffffffffffffffffffffffffffffffffffff1673ffffffffffffffffffffffffffffffffffffffff1681526020019081526020015f205f6101000a81548160ff02191690831515021790555050565b5f5f9054906101000a900473ffffffffffffffffffffffffffffffffffffffff1681565b606060045f8381526020019081526020015f20805480602002602001604051908101604052809291908181526020015f905b82821015611160578382905f5260205f2090600402016040518060a00160405290815f82015f9054906101000a900473ffffffffffffffffffffffffffffffffffffffff1673ffffffffffffffffffffffffffffffffffffffff1673ffffffffffffffffffffffffffffffffffffffff168152602001600182015f9054906101000a900473ffffffffffffffffffffffffffffffffffffffff1673ffffffffffffffffffffffffffffffffffffffff1673ffffffffffffffffffffffffffffffffffffffff1681526020016001820160149054906101000a900460ff1660048111156110a1576110a06116f9565b5b60048111156110b3576110b26116f9565b5b8152602001600282015481526020016003820180546110d1906120e9565b80601f01602080910402602001604051908101604052809291908181526020018280546110fd906120e9565b80156111485780601f1061111f57610100808354040283529160200191611148565b820191905f5260205f20905b81548152906001019060200180831161112b57829003601f168201915b50505050508152505081526020019060010190610fb2565b505050509050919050565b6003602052805f5260405f205f915054906101000a900460ff1681565b60015f9054906101000a900473ffffffffffffffffffffffffffffffffffffffff1673ffffffffffffffffffffffffffffffffffffffff163373ffffffffffffffffffffffffffffffffffffffff1614611217576040517f08c379a000000000000000000000000000000000000000000000000000000000815260040161120e90611990565b60405180910390fd5b600160035f8373ffffffffffffffffffffffffffffffffffffffff1673ffffffffffffffffffffffffffffffffffffffff1681526020019081526020015f205f6101000a81548160ff02191690831515021790555050565b60045f8681526020019081526020015f206040518060a001604052808673ffffffffffffffffffffffffffffffffffffffff1681526020018573ffffffffffffffffffffffffffffffffffffffff1681526020018460048111156112d6576112d56116f9565b5b815260200142815260200183815250908060018154018082558091505060019003905f5260205f2090600402015f909190919091505f820151815f015f6101000a81548173ffffffffffffffffffffffffffffffffffffffff021916908373ffffffffffffffffffffffffffffffffffffffff1602179055506020820151816001015f6101000a81548173ffffffffffffffffffffffffffffffffffffffff021916908373ffffffffffffffffffffffffffffffffffffffff16021790555060408201518160010160146101000a81548160ff021916908360048111156113c0576113bf6116f9565b5b02179055506060820151816002015560808201518160030190816113e491906122c1565b5050505050505050565b5f604051905090565b5f5ffd5b5f5ffd5b5f73ffffffffffffffffffffffffffffffffffffffff82169050919050565b5f611428826113ff565b9050919050565b6114388161141e565b8114611442575f5ffd5b50565b5f813590506114538161142f565b92915050565b5f6020828403121561146e5761146d6113f7565b5b5f61147b84828501611445565b91505092915050565b5f819050919050565b61149681611484565b81146114a0575f5ffd5b50565b5f813590506114b18161148d565b92915050565b5f5ffd5b5f5ffd5b5f5ffd5b5f5f83601f8401126114d8576114d76114b7565b5b8235905067ffffffffffffffff8111156114f5576114f46114bb565b5b602083019150836001820283011115611511576115106114bf565b5b9250929050565b5f5f5f5f606085870312156115305761152f6113f7565b5b5f61153d878288016114a3565b945050602061154e87828801611445565b935050604085013567ffffffffffffffff81111561156f5761156e6113fb565b5b61157b878288016114c3565b925092505092959194509250565b5f6020828403121561159e5761159d6113f7565b5b5f6115ab848285016114a3565b91505092915050565b6115bd8161141e565b82525050565b5f6020820190506115d65f8301846115b4565b92915050565b5f5f604083850312156115f2576115f16113f7565b5b5f6115ff858286016114a3565b925050602061161085828601611445565b9150509250929050565b5f8115159050919050565b61162e8161161a565b82525050565b5f6020820190506116475f830184611625565b92915050565b5f819050919050565b5f61167061166b611666846113ff565b61164d565b6113ff565b9050919050565b5f61168182611656565b9050919050565b5f61169282611677565b9050919050565b6116a281611688565b82525050565b5f6020820190506116bb5f830184611699565b92915050565b5f81519050919050565b5f82825260208201905092915050565b5f819050602082019050919050565b6116f38161141e565b82525050565b7f4e487b71000000000000000000000000000000000000000000000000000000005f52602160045260245ffd5b60058110611737576117366116f9565b5b50565b5f81905061174782611726565b919050565b5f6117568261173a565b9050919050565b6117668161174c565b82525050565b61177581611484565b82525050565b5f81519050919050565b5f82825260208201905092915050565b8281835e5f83830152505050565b5f601f19601f8301169050919050565b5f6117bd8261177b565b6117c78185611785565b93506117d7818560208601611795565b6117e0816117a3565b840191505092915050565b5f60a083015f8301516118005f8601826116ea565b50602083015161181360208601826116ea565b506040830151611826604086018261175d565b506060830151611839606086018261176c565b506080830151848203608086015261185182826117b3565b9150508091505092915050565b5f61186983836117eb565b905092915050565b5f602082019050919050565b5f611887826116c1565b61189181856116cb565b9350836020820285016118a3856116db565b805f5b858110156118de57848403895281516118bf858261185e565b94506118ca83611871565b925060208a019950506001810190506118a6565b50829750879550505050505092915050565b5f6020820190508181035f830152611908818461187d565b905092915050565b5f82825260208201905092915050565b7f436f6e74726f6c436f6e74726163743a2063616c6c6572206973206e6f74206f5f8201527f776e657200000000000000000000000000000000000000000000000000000000602082015250565b5f61197a602483611910565b915061198582611920565b604082019050919050565b5f6020820190508181035f8301526119a78161196e565b9050919050565b7f436f6e74726f6c436f6e74726163743a2063616c6c6572206973206e6f7420615f8201527f6e20617574686f7269736564206469737472696275746f720000000000000000602082015250565b5f611a08603883611910565b9150611a13826119ae565b604082019050919050565b5f6020820190508181035f830152611a35816119fc565b9050919050565b611a4581611484565b82525050565b5f602082019050611a5e5f830184611a3c565b92915050565b5f5ffd5b7f4e487b71000000000000000000000000000000000000000000000000000000005f52604160045260245ffd5b611a9e826117a3565b810181811067ffffffffffffffff82111715611abd57611abc611a68565b5b80604052505050565b5f611acf6113ee565b9050611adb8282611a95565b919050565b5f5ffd5b5f81519050611af28161148d565b92915050565b5f5ffd5b5f67ffffffffffffffff821115611b1657611b15611a68565b5b611b1f826117a3565b9050602081019050919050565b5f611b3e611b3984611afc565b611ac6565b905082815260208101848484011115611b5a57611b59611af8565b5b611b65848285611795565b509392505050565b5f82601f830112611b8157611b806114b7565b5b8151611b91848260208601611b2c565b91505092915050565b5f81519050611ba88161142f565b92915050565b60058110611bba575f5ffd5b50565b5f81519050611bcb81611bae565b92915050565b5f60e08284031215611be657611be5611a64565b5b611bf060e0611ac6565b90505f611bff84828501611ae4565b5f83015250602082015167ffffffffffffffff811115611c2257611c21611ae0565b5b611c2e84828501611b6d565b602083015250604082015167ffffffffffffffff811115611c5257611c51611ae0565b5b611c5e84828501611b6d565b6040830152506060611c7284828501611ae4565b6060830152506080611c8684828501611ae4565b60808301525060a0611c9a84828501611b9a565b60a08301525060c0611cae84828501611bbd565b60c08301525092915050565b5f60208284031215611ccf57611cce6113f7565b5b5f82015167ffffffffffffffff811115611cec57611ceb6113fb565b5b611cf884828501611bd1565b91505092915050565b7f436f6e74726f6c436f6e74726163743a206261746368206d75737420626520525f8201527f656c6561736564206f7220496e5472616e73697420746f207368697000000000602082015250565b5f611d5b603c83611910565b9150611d6682611d01565b604082019050919050565b5f6020820190508181035f830152611d8881611d4f565b9050919050565b611d988161174c565b82525050565b5f604082019050611db15f830185611a3c565b611dbe6020830184611d8f565b9392505050565b828183375f83830152505050565b5f611dde8385611910565b9350611deb838584611dc5565b611df4836117a3565b840190509392505050565b5f6040820190508181035f830152611e18818587611dd3565b9050611e276020830184611a3c565b949350505050565b611e388161161a565b8114611e42575f5ffd5b50565b5f81519050611e5381611e2f565b92915050565b5f60208284031215611e6e57611e6d6113f7565b5b5f611e7b84828501611e45565b91505092915050565b7f436f6e74726f6c436f6e74726163743a2063616c6c6572206973206e6f7420615f8201527f6e20617574686f7269736564206d616e75666163747572657200000000000000602082015250565b5f611ede603983611910565b9150611ee982611e84565b604082019050919050565b5f6020820190508181035f830152611f0b81611ed2565b9050919050565b7f436f6e74726f6c436f6e74726163743a206261746368206d75737420626520695f8201527f6e2050726f647563656420737461746520746f2072656c656173650000000000602082015250565b5f611f6c603b83611910565b9150611f7782611f12565b604082019050919050565b5f6020820190508181035f830152611f9981611f60565b9050919050565b7f436f6e74726f6c436f6e74726163743a2063616c6c6572206973206e6f7420615f8201527f6e20617574686f726973656420706861726d6163792f686f73706974616c0000602082015250565b5f611ffa603e83611910565b915061200582611fa0565b604082019050919050565b5f6020820190508181035f83015261202781611fee565b9050919050565b7f436f6e74726f6c436f6e74726163743a206261746368206d75737420626520495f8201527f6e5472616e73697420746f20636f6e6669726d20726563656970740000000000602082015250565b5f612088603b83611910565b91506120938261202e565b604082019050919050565b5f6020820190508181035f8301526120b58161207c565b9050919050565b7f4e487b71000000000000000000000000000000000000000000000000000000005f52602260045260245ffd5b5f600282049050600182168061210057607f821691505b602082108103612113576121126120bc565b5b50919050565b5f819050815f5260205f209050919050565b5f6020601f8301049050919050565b5f82821b905092915050565b5f600883026121757fffffffffffffffffffffffffffffffffffffffffffffffffffffffffffffffff8261213a565b61217f868361213a565b95508019841693508086168417925050509392505050565b5f6121b16121ac6121a784611484565b61164d565b611484565b9050919050565b5f819050919050565b6121ca83612197565b6121de6121d6826121b8565b848454612146565b825550505050565b5f5f905090565b6121f56121e6565b6122008184846121c1565b505050565b5f5b828110156122265761221b5f8284016121ed565b600181019050612207565b505050565b601f82111561227957828211156122785761224581612119565b61224e8361212b565b6122578561212b565b6020861015612264575f90505b80830161227382840382612205565b505050505b5b505050565b5f82821c905092915050565b5f6122995f198460080261227e565b1980831691505092915050565b5f6122b1838361228a565b9150826002028217905092915050565b6122ca8261177b565b67ffffffffffffffff8111156122e3576122e2611a68565b5b6122ed82546120e9565b6122f882828561222b565b5f60209050601f831160018114612329575f8415612317578287015190505b61232185826122a6565b865550612388565b601f19841661233786612119565b5f5b8281101561235e57848901518255600182019150602085019450602081019050612339565b8683101561237b5784890151612377601f89168261228a565b8355505b6001600288020188555050505b50505050505056fea264697066735822122025d47d213a57dd0dea8014a8a98e28640e6bf139f7f07dcfedac491745371e5d64736f6c63430008220033",
					"opcodes": "PUSH1 0x80 PUSH1 0x40 MSTORE CALLVALUE DUP1 ISZERO PUSH2 0xF JUMPI PUSH0 PUSH0 REVERT JUMPDEST POP PUSH1 0x40 MLOAD PUSH2 0x2512 CODESIZE SUB DUP1 PUSH2 0x2512 DUP4 CODECOPY DUP2 DUP2 ADD PUSH1 0x40 MSTORE DUP2 ADD SWAP1 PUSH2 0x31 SWAP2 SWAP1 PUSH2 0x114 JUMP JUMPDEST CALLER PUSH1 0x1 PUSH0 PUSH2 0x100 EXP DUP2 SLOAD DUP2 PUSH20 0xFFFFFFFFFFFFFFFFFFFFFFFFFFFFFFFFFFFFFFFF MUL NOT AND SWAP1 DUP4 PUSH20 0xFFFFFFFFFFFFFFFFFFFFFFFFFFFFFFFFFFFFFFFF AND MUL OR SWAP1 SSTORE POP DUP1 PUSH0 PUSH0 PUSH2 0x100 EXP DUP2 SLOAD DUP2 PUSH20 0xFFFFFFFFFFFFFFFFFFFFFFFFFFFFFFFFFFFFFFFF MUL NOT AND SWAP1 DUP4 PUSH20 0xFFFFFFFFFFFFFFFFFFFFFFFFFFFFFFFFFFFFFFFF AND MUL OR SWAP1 SSTORE POP POP PUSH2 0x13F JUMP JUMPDEST PUSH0 PUSH0 REVERT JUMPDEST PUSH0 PUSH20 0xFFFFFFFFFFFFFFFFFFFFFFFFFFFFFFFFFFFFFFFF DUP3 AND SWAP1 POP SWAP2 SWAP1 POP JUMP JUMPDEST PUSH0 PUSH2 0xE3 DUP3 PUSH2 0xBA JUMP JUMPDEST SWAP1 POP SWAP2 SWAP1 POP JUMP JUMPDEST PUSH2 0xF3 DUP2 PUSH2 0xD9 JUMP JUMPDEST DUP2 EQ PUSH2 0xFD JUMPI PUSH0 PUSH0 REVERT JUMPDEST POP JUMP JUMPDEST PUSH0 DUP2 MLOAD SWAP1 POP PUSH2 0x10E DUP2 PUSH2 0xEA JUMP JUMPDEST SWAP3 SWAP2 POP POP JUMP JUMPDEST PUSH0 PUSH1 0x20 DUP3 DUP5 SUB SLT ISZERO PUSH2 0x129 JUMPI PUSH2 0x128 PUSH2 0xB6 JUMP JUMPDEST JUMPDEST PUSH0 PUSH2 0x136 DUP5 DUP3 DUP6 ADD PUSH2 0x100 JUMP JUMPDEST SWAP2 POP POP SWAP3 SWAP2 POP POP JUMP JUMPDEST PUSH2 0x23C6 DUP1 PUSH2 0x14C PUSH0 CODECOPY PUSH0 RETURN INVALID PUSH1 0x80 PUSH1 0x40 MSTORE CALLVALUE DUP1 ISZERO PUSH2 0xF JUMPI PUSH0 PUSH0 REVERT JUMPDEST POP PUSH1 0x4 CALLDATASIZE LT PUSH2 0xCD JUMPI PUSH0 CALLDATALOAD PUSH1 0xE0 SHR DUP1 PUSH4 0x8EDE37FA GT PUSH2 0x8A JUMPI DUP1 PUSH4 0xD0B6B6DB GT PUSH2 0x64 JUMPI DUP1 PUSH4 0xD0B6B6DB EQ PUSH2 0x1F7 JUMPI DUP1 PUSH4 0xD75AF31E EQ PUSH2 0x215 JUMPI DUP1 PUSH4 0xE33DE828 EQ PUSH2 0x245 JUMPI DUP1 PUSH4 0xF1D4BBA9 EQ PUSH2 0x275 JUMPI PUSH2 0xCD JUMP JUMPDEST DUP1 PUSH4 0x8EDE37FA EQ PUSH2 0x18F JUMPI DUP1 PUSH4 0xA2AA4337 EQ PUSH2 0x1BF JUMPI DUP1 PUSH4 0xB9897CE9 EQ PUSH2 0x1DB JUMPI PUSH2 0xCD JUMP JUMPDEST DUP1 PUSH4 0x28E2B66 EQ PUSH2 0xD1 JUMPI DUP1 PUSH4 0x120B93D3 EQ PUSH2 0xED JUMPI DUP1 PUSH4 0x2EECACBF EQ PUSH2 0x109 JUMPI DUP1 PUSH4 0x78E494D3 EQ PUSH2 0x125 JUMPI DUP1 PUSH4 0x8124FEA6 EQ PUSH2 0x155 JUMPI DUP1 PUSH4 0x8DA5CB5B EQ PUSH2 0x171 JUMPI JUMPDEST PUSH0 PUSH0 REVERT JUMPDEST PUSH2 0xEB PUSH1 0x4 DUP1 CALLDATASIZE SUB DUP2 ADD SWAP1 PUSH2 0xE6 SWAP2 SWAP1 PUSH2 0x1459 JUMP JUMPDEST PUSH2 0x291 JUMP JUMPDEST STOP JUMPDEST PUSH2 0x107 PUSH1 0x4 DUP1 CALLDATASIZE SUB DUP2 ADD SWAP1 PUSH2 0x102 SWAP2 SWAP1 PUSH2 0x1459 JUMP JUMPDEST PUSH2 0x377 JUMP JUMPDEST STOP JUMPDEST PUSH2 0x123 PUSH1 0x4 DUP1 CALLDATASIZE SUB DUP2 ADD SWAP1 PUSH2 0x11E SWAP2 SWAP1 PUSH2 0x1518 JUMP JUMPDEST PUSH2 0x45D JUMP JUMPDEST STOP JUMPDEST PUSH2 0x13F PUSH1 0x4 DUP1 CALLDATASIZE SUB DUP2 ADD SWAP1 PUSH2 0x13A SWAP2 SWAP1 PUSH2 0x1589 JUMP JUMPDEST PUSH2 0x7BC JUMP JUMPDEST PUSH1 0x40 MLOAD PUSH2 0x14C SWAP2 SWAP1 PUSH2 0x15C3 JUMP JUMPDEST PUSH1 0x40 MLOAD DUP1 SWAP2 SUB SWAP1 RETURN JUMPDEST PUSH2 0x16F PUSH1 0x4 DUP1 CALLDATASIZE SUB DUP2 ADD SWAP1 PUSH2 0x16A SWAP2 SWAP1 PUSH2 0x15DC JUMP JUMPDEST PUSH2 0x7EC JUMP JUMPDEST STOP JUMPDEST PUSH2 0x179 PUSH2 0xB2A JUMP JUMPDEST PUSH1 0x40 MLOAD PUSH2 0x186 SWAP2 SWAP1 PUSH2 0x15C3 JUMP JUMPDEST PUSH1 0x40 MLOAD DUP1 SWAP2 SUB SWAP1 RETURN JUMPDEST PUSH2 0x1A9 PUSH1 0x4 DUP1 CALLDATASIZE SUB DUP2 ADD SWAP1 PUSH2 0x1A4 SWAP2 SWAP1 PUSH2 0x1459 JUMP JUMPDEST PUSH2 0xB4F JUMP JUMPDEST PUSH1 0x40 MLOAD PUSH2 0x1B6 SWAP2 SWAP1 PUSH2 0x1634 JUMP JUMPDEST PUSH1 0x40 MLOAD DUP1 SWAP2 SUB SWAP1 RETURN JUMPDEST PUSH2 0x1D9 PUSH1 0x4 DUP1 CALLDATASIZE SUB DUP2 ADD SWAP1 PUSH2 0x1D4 SWAP2 SWAP1 PUSH2 0x1589 JUMP JUMPDEST PUSH2 0xB6C JUMP JUMPDEST STOP JUMPDEST PUSH2 0x1F5 PUSH1 0x4 DUP1 CALLDATASIZE SUB DUP2 ADD SWAP1 PUSH2 0x1F0 SWAP2 SWAP1 PUSH2 0x1459 JUMP JUMPDEST PUSH2 0xE75 JUMP JUMPDEST STOP JUMPDEST PUSH2 0x1FF PUSH2 0xF5C JUMP JUMPDEST PUSH1 0x40 MLOAD PUSH2 0x20C SWAP2 SWAP1 PUSH2 0x16A8 JUMP JUMPDEST PUSH1 0x40 MLOAD DUP1 SWAP2 SUB SWAP1 RETURN JUMPDEST PUSH2 0x22F PUSH1 0x4 DUP1 CALLDATASIZE SUB DUP2 ADD SWAP1 PUSH2 0x22A SWAP2 SWAP1 PUSH2 0x1589 JUMP JUMPDEST PUSH2 0xF80 JUMP JUMPDEST PUSH1 0x40 MLOAD PUSH2 0x23C SWAP2 SWAP1 PUSH2 0x18F0 JUMP JUMPDEST PUSH1 0x40 MLOAD DUP1 SWAP2 SUB SWAP1 RETURN JUMPDEST PUSH2 0x25F PUSH1 0x4 DUP1 CALLDATASIZE SUB DUP2 ADD SWAP1 PUSH2 0x25A SWAP2 SWAP1 PUSH2 0x1459 JUMP JUMPDEST PUSH2 0x116B JUMP JUMPDEST PUSH1 0x40 MLOAD PUSH2 0x26C SWAP2 SWAP1 PUSH2 0x1634 JUMP JUMPDEST PUSH1 0x40 MLOAD DUP1 SWAP2 SUB SWAP1 RETURN JUMPDEST PUSH2 0x28F PUSH1 0x4 DUP1 CALLDATASIZE SUB DUP2 ADD SWAP1 PUSH2 0x28A SWAP2 SWAP1 PUSH2 0x1459 JUMP JUMPDEST PUSH2 0x1188 JUMP JUMPDEST STOP JUMPDEST PUSH1 0x1 PUSH0 SWAP1 SLOAD SWAP1 PUSH2 0x100 EXP SWAP1 DIV PUSH20 0xFFFFFFFFFFFFFFFFFFFFFFFFFFFFFFFFFFFFFFFF AND PUSH20 0xFFFFFFFFFFFFFFFFFFFFFFFFFFFFFFFFFFFFFFFF AND CALLER PUSH20 0xFFFFFFFFFFFFFFFFFFFFFFFFFFFFFFFFFFFFFFFF AND EQ PUSH2 0x320 JUMPI PUSH1 0x40 MLOAD PUSH32 0x8C379A000000000000000000000000000000000000000000000000000000000 DUP2 MSTORE PUSH1 0x4 ADD PUSH2 0x317 SWAP1 PUSH2 0x1990 JUMP JUMPDEST PUSH1 0x40 MLOAD DUP1 SWAP2 SUB SWAP1 REVERT JUMPDEST PUSH0 PUSH1 0x3 PUSH0 DUP4 PUSH20 0xFFFFFFFFFFFFFFFFFFFFFFFFFFFFFFFFFFFFFFFF AND PUSH20 0xFFFFFFFFFFFFFFFFFFFFFFFFFFFFFFFFFFFFFFFF AND DUP2 MSTORE PUSH1 0x20 ADD SWAP1 DUP2 MSTORE PUSH1 0x20 ADD PUSH0 KECCAK256 PUSH0 PUSH2 0x100 EXP DUP2 SLOAD DUP2 PUSH1 0xFF MUL NOT AND SWAP1 DUP4 ISZERO ISZERO MUL OR SWAP1 SSTORE POP POP JUMP JUMPDEST PUSH1 0x1 PUSH0 SWAP1 SLOAD SWAP1 PUSH2 0x100 EXP SWAP1 DIV PUSH20 0xFFFFFFFFFFFFFFFFFFFFFFFFFFFFFFFFFFFFFFFF AND PUSH20 0xFFFFFFFFFFFFFFFFFFFFFFFFFFFFFFFFFFFFFFFF AND CALLER PUSH20 0xFFFFFFFFFFFFFFFFFFFFFFFFFFFFFFFFFFFFFFFF AND EQ PUSH2 0x406 JUMPI PUSH1 0x40 MLOAD PUSH32 0x8C379A000000000000000000000000000000000000000000000000000000000 DUP2 MSTORE PUSH1 0x4 ADD PUSH2 0x3FD SWAP1 PUSH2 0x1990 JUMP JUMPDEST PUSH1 0x40 MLOAD DUP1 SWAP2 SUB SWAP1 REVERT JUMPDEST PUSH0 PUSH1 0x2 PUSH0 DUP4 PUSH20 0xFFFFFFFFFFFFFFFFFFFFFFFFFFFFFFFFFFFFFFFF AND PUSH20 0xFFFFFFFFFFFFFFFFFFFFFFFFFFFFFFFFFFFFFFFF AND DUP2 MSTORE PUSH1 0x20 ADD SWAP1 DUP2 MSTORE PUSH1 0x20 ADD PUSH0 KECCAK256 PUSH0 PUSH2 0x100 EXP DUP2 SLOAD DUP2 PUSH1 0xFF MUL NOT AND SWAP1 DUP4 ISZERO ISZERO MUL OR SWAP1 SSTORE POP POP JUMP JUMPDEST PUSH1 0x2 PUSH0 CALLER PUSH20 0xFFFFFFFFFFFFFFFFFFFFFFFFFFFFFFFFFFFFFFFF AND PUSH20 0xFFFFFFFFFFFFFFFFFFFFFFFFFFFFFFFFFFFFFFFF AND DUP2 MSTORE PUSH1 0x20 ADD SWAP1 DUP2 MSTORE PUSH1 0x20 ADD PUSH0 KECCAK256 PUSH0 SWAP1 SLOAD SWAP1 PUSH2 0x100 EXP SWAP1 DIV PUSH1 0xFF AND PUSH2 0x4E6 JUMPI PUSH1 0x40 MLOAD PUSH32 0x8C379A000000000000000000000000000000000000000000000000000000000 DUP2 MSTORE PUSH1 0x4 ADD PUSH2 0x4DD SWAP1 PUSH2 0x1A1E JUMP JUMPDEST PUSH1 0x40 MLOAD DUP1 SWAP2 SUB SWAP1 REVERT JUMPDEST PUSH0 PUSH0 PUSH0 SWAP1 SLOAD SWAP1 PUSH2 0x100 EXP SWAP1 DIV PUSH20 0xFFFFFFFFFFFFFFFFFFFFFFFFFFFFFFFFFFFFFFFF AND PUSH20 0xFFFFFFFFFFFFFFFFFFFFFFFFFFFFFFFFFFFFFFFF AND PUSH4 0x5AC44282 DUP7 PUSH1 0x40 MLOAD DUP3 PUSH4 0xFFFFFFFF AND PUSH1 0xE0 SHL DUP2 MSTORE PUSH1 0x4 ADD PUSH2 0x540 SWAP2 SWAP1 PUSH2 0x1A4B JUMP JUMPDEST PUSH0 PUSH1 0x40 MLOAD DUP1 DUP4 SUB DUP2 DUP7 GAS STATICCALL ISZERO DUP1 ISZERO PUSH2 0x55A JUMPI RETURNDATASIZE PUSH0 PUSH0 RETURNDATACOPY RETURNDATASIZE PUSH0 REVERT JUMPDEST POP POP POP POP PUSH1 0x40 MLOAD RETURNDATASIZE PUSH0 DUP3 RETURNDATACOPY RETURNDATASIZE PUSH1 0x1F NOT PUSH1 0x1F DUP3 ADD AND DUP3 ADD DUP1 PUSH1 0x40 MSTORE POP DUP2 ADD SWAP1 PUSH2 0x582 SWAP2 SWAP1 PUSH2 0x1CBA JUMP JUMPDEST SWAP1 POP PUSH1 0x1 PUSH1 0x4 DUP2 GT ISZERO PUSH2 0x598 JUMPI PUSH2 0x597 PUSH2 0x16F9 JUMP JUMPDEST JUMPDEST DUP2 PUSH1 0xC0 ADD MLOAD PUSH1 0x4 DUP2 GT ISZERO PUSH2 0x5AF JUMPI PUSH2 0x5AE PUSH2 0x16F9 JUMP JUMPDEST JUMPDEST EQ DUP1 PUSH2 0x5E3 JUMPI POP PUSH1 0x2 PUSH1 0x4 DUP2 GT ISZERO PUSH2 0x5CA JUMPI PUSH2 0x5C9 PUSH2 0x16F9 JUMP JUMPDEST JUMPDEST DUP2 PUSH1 0xC0 ADD MLOAD PUSH1 0x4 DUP2 GT ISZERO PUSH2 0x5E1 JUMPI PUSH2 0x5E0 PUSH2 0x16F9 JUMP JUMPDEST JUMPDEST EQ JUMPDEST PUSH2 0x622 JUMPI PUSH1 0x40 MLOAD PUSH32 0x8C379A000000000000000000000000000000000000000000000000000000000 DUP2 MSTORE PUSH1 0x4 ADD PUSH2 0x619 SWAP1 PUSH2 0x1D71 JUMP JUMPDEST PUSH1 0x40 MLOAD DUP1 SWAP2 SUB SWAP1 REVERT JUMPDEST PUSH0 PUSH0 SWAP1 SLOAD SWAP1 PUSH2 0x100 EXP SWAP1 DIV PUSH20 0xFFFFFFFFFFFFFFFFFFFFFFFFFFFFFFFFFFFFFFFF AND PUSH20 0xFFFFFFFFFFFFFFFFFFFFFFFFFFFFFFFFFFFFFFFF AND PUSH4 0x3A1B3D31 DUP7 PUSH1 0x2 PUSH1 0x40 MLOAD DUP4 PUSH4 0xFFFFFFFF AND PUSH1 0xE0 SHL DUP2 MSTORE PUSH1 0x4 ADD PUSH2 0x67E SWAP3 SWAP2 SWAP1 PUSH2 0x1D9E JUMP JUMPDEST PUSH0 PUSH1 0x40 MLOAD DUP1 DUP4 SUB DUP2 PUSH0 DUP8 DUP1 EXTCODESIZE ISZERO DUP1 ISZERO PUSH2 0x695 JUMPI PUSH0 PUSH0 REVERT JUMPDEST POP GAS CALL ISZERO DUP1 ISZERO PUSH2 0x6A7 JUMPI RETURNDATASIZE PUSH0 PUSH0 RETURNDATACOPY RETURNDATASIZE PUSH0 REVERT JUMPDEST POP POP POP POP PUSH2 0x6FC DUP6 CALLER DUP7 PUSH1 0x2 DUP8 DUP8 DUP1 DUP1 PUSH1 0x1F ADD PUSH1 0x20 DUP1 SWAP2 DIV MUL PUSH1 0x20 ADD PUSH1 0x40 MLOAD SWAP1 DUP2 ADD PUSH1 0x40 MSTORE DUP1 SWAP4 SWAP3 SWAP2 SWAP1 DUP2 DUP2 MSTORE PUSH1 0x20 ADD DUP4 DUP4 DUP1 DUP3 DUP5 CALLDATACOPY PUSH0 DUP2 DUP5 ADD MSTORE PUSH1 0x1F NOT PUSH1 0x1F DUP3 ADD AND SWAP1 POP DUP1 DUP4 ADD SWAP3 POP POP POP POP POP POP POP PUSH2 0x126F JUMP JUMPDEST DUP4 PUSH1 0x5 PUSH0 DUP8 DUP2 MSTORE PUSH1 0x20 ADD SWAP1 DUP2 MSTORE PUSH1 0x20 ADD PUSH0 KECCAK256 PUSH0 PUSH2 0x100 EXP DUP2 SLOAD DUP2 PUSH20 0xFFFFFFFFFFFFFFFFFFFFFFFFFFFFFFFFFFFFFFFF MUL NOT AND SWAP1 DUP4 PUSH20 0xFFFFFFFFFFFFFFFFFFFFFFFFFFFFFFFFFFFFFFFF AND MUL OR SWAP1 SSTORE POP DUP4 PUSH20 0xFFFFFFFFFFFFFFFFFFFFFFFFFFFFFFFFFFFFFFFF AND CALLER PUSH20 0xFFFFFFFFFFFFFFFFFFFFFFFFFFFFFFFFFFFFFFFF AND DUP7 PUSH32 0x90F424F437850DC9BB5A3E6BE616A5CF41F5FAACD30B1044D84E06D12DDC74BE DUP7 DUP7 TIMESTAMP PUSH1 0x40 MLOAD PUSH2 0x7AD SWAP4 SWAP3 SWAP2 SWAP1 PUSH2 0x1DFF JUMP JUMPDEST PUSH1 0x40 MLOAD DUP1 SWAP2 SUB SWAP1 LOG4 POP POP POP POP POP JUMP JUMPDEST PUSH1 0x5 PUSH1 0x20 MSTORE DUP1 PUSH0 MSTORE PUSH1 0x40 PUSH0 KECCAK256 PUSH0 SWAP2 POP SLOAD SWAP1 PUSH2 0x100 EXP SWAP1 DIV PUSH20 0xFFFFFFFFFFFFFFFFFFFFFFFFFFFFFFFFFFFFFFFF AND DUP2 JUMP JUMPDEST PUSH0 PUSH0 SWAP1 SLOAD SWAP1 PUSH2 0x100 EXP SWAP1 DIV PUSH20 0xFFFFFFFFFFFFFFFFFFFFFFFFFFFFFFFFFFFFFFFF AND PUSH20 0xFFFFFFFFFFFFFFFFFFFFFFFFFFFFFFFFFFFFFFFF AND PUSH4 0x5CD349EF CALLER PUSH1 0x40 MLOAD DUP3 PUSH4 0xFFFFFFFF AND PUSH1 0xE0 SHL DUP2 MSTORE PUSH1 0x4 ADD PUSH2 0x845 SWAP2 SWAP1 PUSH2 0x15C3 JUMP JUMPDEST PUSH1 0x20 PUSH1 0x40 MLOAD DUP1 DUP4 SUB DUP2 DUP7 GAS STATICCALL ISZERO DUP1 ISZERO PUSH2 0x860 JUMPI RETURNDATASIZE PUSH0 PUSH0 RETURNDATACOPY RETURNDATASIZE PUSH0 REVERT JUMPDEST POP POP POP POP PUSH1 0x40 MLOAD RETURNDATASIZE PUSH1 0x1F NOT PUSH1 0x1F DUP3 ADD AND DUP3 ADD DUP1 PUSH1 0x40 MSTORE POP DUP2 ADD SWAP1 PUSH2 0x884 SWAP2 SWAP1 PUSH2 0x1E59 JUMP JUMPDEST PUSH2 0x8C3 JUMPI PUSH1 0x40 MLOAD PUSH32 0x8C379A000000000000000000000000000000000000000000000000000000000 DUP2 MSTORE PUSH1 0x4 ADD PUSH2 0x8BA SWAP1 PUSH2 0x1EF4 JUMP JUMPDEST PUSH1 0x40 MLOAD DUP1 SWAP2 SUB SWAP1 REVERT JUMPDEST PUSH0 PUSH0 PUSH0 SWAP1 SLOAD SWAP1 PUSH2 0x100 EXP SWAP1 DIV PUSH20 0xFFFFFFFFFFFFFFFFFFFFFFFFFFFFFFFFFFFFFFFF AND PUSH20 0xFFFFFFFFFFFFFFFFFFFFFFFFFFFFFFFFFFFFFFFF AND PUSH4 0x5AC44282 DUP5 PUSH1 0x40 MLOAD DUP3 PUSH4 0xFFFFFFFF AND PUSH1 0xE0 SHL DUP2 MSTORE PUSH1 0x4 ADD PUSH2 0x91D SWAP2 SWAP1 PUSH2 0x1A4B JUMP JUMPDEST PUSH0 PUSH1 0x40 MLOAD DUP1 DUP4 SUB DUP2 DUP7 GAS STATICCALL ISZERO DUP1 ISZERO PUSH2 0x937 JUMPI RETURNDATASIZE PUSH0 PUSH0 RETURNDATACOPY RETURNDATASIZE PUSH0 REVERT JUMPDEST POP POP POP POP PUSH1 0x40 MLOAD RETURNDATASIZE PUSH0 DUP3 RETURNDATACOPY RETURNDATASIZE PUSH1 0x1F NOT PUSH1 0x1F DUP3 ADD AND DUP3 ADD DUP1 PUSH1 0x40 MSTORE POP DUP2 ADD SWAP1 PUSH2 0x95F SWAP2 SWAP1 PUSH2 0x1CBA JUMP JUMPDEST SWAP1 POP PUSH0 PUSH1 0x4 DUP2 GT ISZERO PUSH2 0x974 JUMPI PUSH2 0x973 PUSH2 0x16F9 JUMP JUMPDEST JUMPDEST DUP2 PUSH1 0xC0 ADD MLOAD PUSH1 0x4 DUP2 GT ISZERO PUSH2 0x98B JUMPI PUSH2 0x98A PUSH2 0x16F9 JUMP JUMPDEST JUMPDEST EQ PUSH2 0x9CB JUMPI PUSH1 0x40 MLOAD PUSH32 0x8C379A000000000000000000000000000000000000000000000000000000000 DUP2 MSTORE PUSH1 0x4 ADD PUSH2 0x9C2 SWAP1 PUSH2 0x1F82 JUMP JUMPDEST PUSH1 0x40 MLOAD DUP1 SWAP2 SUB SWAP1 REVERT JUMPDEST PUSH0 PUSH0 SWAP1 SLOAD SWAP1 PUSH2 0x100 EXP SWAP1 DIV PUSH20 0xFFFFFFFFFFFFFFFFFFFFFFFFFFFFFFFFFFFFFFFF AND PUSH20 0xFFFFFFFFFFFFFFFFFFFFFFFFFFFFFFFFFFFFFFFF AND PUSH4 0x3A1B3D31 DUP5 PUSH1 0x1 PUSH1 0x40 MLOAD DUP4 PUSH4 0xFFFFFFFF AND PUSH1 0xE0 SHL DUP2 MSTORE PUSH1 0x4 ADD PUSH2 0xA27 SWAP3 SWAP2 SWAP1 PUSH2 0x1D9E JUMP JUMPDEST PUSH0 PUSH1 0x40 MLOAD DUP1 DUP4 SUB DUP2 PUSH0 DUP8 DUP1 EXTCODESIZE ISZERO DUP1 ISZERO PUSH2 0xA3E JUMPI PUSH0 PUSH0 REVERT JUMPDEST POP GAS CALL ISZERO DUP1 ISZERO PUSH2 0xA50 JUMPI RETURNDATASIZE PUSH0 PUSH0 RETURNDATACOPY RETURNDATASIZE PUSH0 REVERT JUMPDEST POP POP POP POP PUSH2 0xA70 DUP4 CALLER DUP5 PUSH1 0x1 PUSH1 0x40 MLOAD DUP1 PUSH1 0x20 ADD PUSH1 0x40 MSTORE DUP1 PUSH0 DUP2 MSTORE POP PUSH2 0x126F JUMP JUMPDEST DUP2 PUSH1 0x5 PUSH0 DUP6 DUP2 MSTORE PUSH1 0x20 ADD SWAP1 DUP2 MSTORE PUSH1 0x20 ADD PUSH0 KECCAK256 PUSH0 PUSH2 0x100 EXP DUP2 SLOAD DUP2 PUSH20 0xFFFFFFFFFFFFFFFFFFFFFFFFFFFFFFFFFFFFFFFF MUL NOT AND SWAP1 DUP4 PUSH20 0xFFFFFFFFFFFFFFFFFFFFFFFFFFFFFFFFFFFFFFFF AND MUL OR SWAP1 SSTORE POP DUP2 PUSH20 0xFFFFFFFFFFFFFFFFFFFFFFFFFFFFFFFFFFFFFFFF AND CALLER PUSH20 0xFFFFFFFFFFFFFFFFFFFFFFFFFFFFFFFFFFFFFFFF AND DUP5 PUSH32 0xFA88627E4E732E3F4F50EB49AFD20919542D60088603EBE9AF4F4EB33CC8BA6D TIMESTAMP PUSH1 0x40 MLOAD PUSH2 0xB1D SWAP2 SWAP1 PUSH2 0x1A4B JUMP JUMPDEST PUSH1 0x40 MLOAD DUP1 SWAP2 SUB SWAP1 LOG4 POP POP POP JUMP JUMPDEST PUSH1 0x1 PUSH0 SWAP1 SLOAD SWAP1 PUSH2 0x100 EXP SWAP1 DIV PUSH20 0xFFFFFFFFFFFFFFFFFFFFFFFFFFFFFFFFFFFFFFFF AND DUP2 JUMP JUMPDEST PUSH1 0x2 PUSH1 0x20 MSTORE DUP1 PUSH0 MSTORE PUSH1 0x40 PUSH0 KECCAK256 PUSH0 SWAP2 POP SLOAD SWAP1 PUSH2 0x100 EXP SWAP1 DIV PUSH1 0xFF AND DUP2 JUMP JUMPDEST PUSH1 0x3 PUSH0 CALLER PUSH20 0xFFFFFFFFFFFFFFFFFFFFFFFFFFFFFFFFFFFFFFFF AND PUSH20 0xFFFFFFFFFFFFFFFFFFFFFFFFFFFFFFFFFFFFFFFF AND DUP2 MSTORE PUSH1 0x20 ADD SWAP1 DUP2 MSTORE PUSH1 0x20 ADD PUSH0 KECCAK256 PUSH0 SWAP1 SLOAD SWAP1 PUSH2 0x100 EXP SWAP1 DIV PUSH1 0xFF AND PUSH2 0xBF5 JUMPI PUSH1 0x40 MLOAD PUSH32 0x8C379A000000000000000000000000000000000000000000000000000000000 DUP2 MSTORE PUSH1 0x4 ADD PUSH2 0xBEC SWAP1 PUSH2 0x2010 JUMP JUMPDEST PUSH1 0x40 MLOAD DUP1 SWAP2 SUB SWAP1 REVERT JUMPDEST PUSH0 PUSH0 PUSH0 SWAP1 SLOAD SWAP1 PUSH2 0x100 EXP SWAP1 DIV PUSH20 0xFFFFFFFFFFFFFFFFFFFFFFFFFFFFFFFFFFFFFFFF AND PUSH20 0xFFFFFFFFFFFFFFFFFFFFFFFFFFFFFFFFFFFFFFFF AND PUSH4 0x5AC44282 DUP4 PUSH1 0x40 MLOAD DUP3 PUSH4 0xFFFFFFFF AND PUSH1 0xE0 SHL DUP2 MSTORE PUSH1 0x4 ADD PUSH2 0xC4F SWAP2 SWAP1 PUSH2 0x1A4B JUMP JUMPDEST PUSH0 PUSH1 0x40 MLOAD DUP1 DUP4 SUB DUP2 DUP7 GAS STATICCALL ISZERO DUP1 ISZERO PUSH2 0xC69 JUMPI RETURNDATASIZE PUSH0 PUSH0 RETURNDATACOPY RETURNDATASIZE PUSH0 REVERT JUMPDEST POP POP POP POP PUSH1 0x40 MLOAD RETURNDATASIZE PUSH0 DUP3 RETURNDATACOPY RETURNDATASIZE PUSH1 0x1F NOT PUSH1 0x1F DUP3 ADD AND DUP3 ADD DUP1 PUSH1 0x40 MSTORE POP DUP2 ADD SWAP1 PUSH2 0xC91 SWAP2 SWAP1 PUSH2 0x1CBA JUMP JUMPDEST SWAP1 POP PUSH1 0x2 PUSH1 0x4 DUP2 GT ISZERO PUSH2 0xCA7 JUMPI PUSH2 0xCA6 PUSH2 0x16F9 JUMP JUMPDEST JUMPDEST DUP2 PUSH1 0xC0 ADD MLOAD PUSH1 0x4 DUP2 GT ISZERO PUSH2 0xCBE JUMPI PUSH2 0xCBD PUSH2 0x16F9 JUMP JUMPDEST JUMPDEST EQ PUSH2 0xCFE JUMPI PUSH1 0x40 MLOAD PUSH32 0x8C379A000000000000000000000000000000000000000000000000000000000 DUP2 MSTORE PUSH1 0x4 ADD PUSH2 0xCF5 SWAP1 PUSH2 0x209E JUMP JUMPDEST PUSH1 0x40 MLOAD DUP1 SWAP2 SUB SWAP1 REVERT JUMPDEST PUSH0 PUSH0 SWAP1 SLOAD SWAP1 PUSH2 0x100 EXP SWAP1 DIV PUSH20 0xFFFFFFFFFFFFFFFFFFFFFFFFFFFFFFFFFFFFFFFF AND PUSH20 0xFFFFFFFFFFFFFFFFFFFFFFFFFFFFFFFFFFFFFFFF AND PUSH4 0x3A1B3D31 DUP4 PUSH1 0x3 PUSH1 0x40 MLOAD DUP4 PUSH4 0xFFFFFFFF AND PUSH1 0xE0 SHL DUP2 MSTORE PUSH1 0x4 ADD PUSH2 0xD5A SWAP3 SWAP2 SWAP1 PUSH2 0x1D9E JUMP JUMPDEST PUSH0 PUSH1 0x40 MLOAD DUP1 DUP4 SUB DUP2 PUSH0 DUP8 DUP1 EXTCODESIZE ISZERO DUP1 ISZERO PUSH2 0xD71 JUMPI PUSH0 PUSH0 REVERT JUMPDEST POP GAS CALL ISZERO DUP1 ISZERO PUSH2 0xD83 JUMPI RETURNDATASIZE PUSH0 PUSH0 RETURNDATACOPY RETURNDATASIZE PUSH0 REVERT JUMPDEST POP POP POP POP PUSH2 0xDD3 DUP3 PUSH1 0x5 PUSH0 DUP6 DUP2 MSTORE PUSH1 0x20 ADD SWAP1 DUP2 MSTORE PUSH1 0x20 ADD PUSH0 KECCAK256 PUSH0 SWAP1 SLOAD SWAP1 PUSH2 0x100 EXP SWAP1 DIV PUSH20 0xFFFFFFFFFFFFFFFFFFFFFFFFFFFFFFFFFFFFFFFF AND CALLER PUSH1 0x3 PUSH1 0x40 MLOAD DUP1 PUSH1 0x20 ADD PUSH1 0x40 MSTORE DUP1 PUSH0 DUP2 MSTORE POP PUSH2 0x126F JUMP JUMPDEST CALLER PUSH1 0x5 PUSH0 DUP5 DUP2 MSTORE PUSH1 0x20 ADD SWAP1 DUP2 MSTORE PUSH1 0x20 ADD PUSH0 KECCAK256 PUSH0 PUSH2 0x100 EXP DUP2 SLOAD DUP2 PUSH20 0xFFFFFFFFFFFFFFFFFFFFFFFFFFFFFFFFFFFFFFFF MUL NOT AND SWAP1 DUP4 PUSH20 0xFFFFFFFFFFFFFFFFFFFFFFFFFFFFFFFFFFFFFFFF AND MUL OR SWAP1 SSTORE POP CALLER PUSH20 0xFFFFFFFFFFFFFFFFFFFFFFFFFFFFFFFFFFFFFFFF AND DUP3 PUSH32 0xC05B1107D1BF72AE261838A5B0823760327225F4B8D752559FA509A801BEB14E TIMESTAMP PUSH1 0x40 MLOAD PUSH2 0xE69 SWAP2 SWAP1 PUSH2 0x1A4B JUMP JUMPDEST PUSH1 0x40 MLOAD DUP1 SWAP2 SUB SWAP1 LOG3 POP POP JUMP JUMPDEST PUSH1 0x1 PUSH0 SWAP1 SLOAD SWAP1 PUSH2 0x100 EXP SWAP1 DIV PUSH20 0xFFFFFFFFFFFFFFFFFFFFFFFFFFFFFFFFFFFFFFFF AND PUSH20 0xFFFFFFFFFFFFFFFFFFFFFFFFFFFFFFFFFFFFFFFF AND CALLER PUSH20 0xFFFFFFFFFFFFFFFFFFFFFFFFFFFFFFFFFFFFFFFF AND EQ PUSH2 0xF04 JUMPI PUSH1 0x40 MLOAD PUSH32 0x8C379A000000000000000000000000000000000000000000000000000000000 DUP2 MSTORE PUSH1 0x4 ADD PUSH2 0xEFB SWAP1 PUSH2 0x1990 JUMP JUMPDEST PUSH1 0x40 MLOAD DUP1 SWAP2 SUB SWAP1 REVERT JUMPDEST PUSH1 0x1 PUSH1 0x2 PUSH0 DUP4 PUSH20 0xFFFFFFFFFFFFFFFFFFFFFFFFFFFFFFFFFFFFFFFF AND PUSH20 0xFFFFFFFFFFFFFFFFFFFFFFFFFFFFFFFFFFFFFFFF AND DUP2 MSTORE PUSH1 0x20 ADD SWAP1 DUP2 MSTORE PUSH1 0x20 ADD PUSH0 KECCAK256 PUSH0 PUSH2 0x100 EXP DUP2 SLOAD DUP2 PUSH1 0xFF MUL NOT AND SWAP1 DUP4 ISZERO ISZERO MUL OR SWAP1 SSTORE POP POP JUMP JUMPDEST PUSH0 PUSH0 SWAP1 SLOAD SWAP1 PUSH2 0x100 EXP SWAP1 DIV PUSH20 0xFFFFFFFFFFFFFFFFFFFFFFFFFFFFFFFFFFFFFFFF AND DUP2 JUMP JUMPDEST PUSH1 0x60 PUSH1 0x4 PUSH0 DUP4 DUP2 MSTORE PUSH1 0x20 ADD SWAP1 DUP2 MSTORE PUSH1 0x20 ADD PUSH0 KECCAK256 DUP1 SLOAD DUP1 PUSH1 0x20 MUL PUSH1 0x20 ADD PUSH1 0x40 MLOAD SWAP1 DUP2 ADD PUSH1 0x40 MSTORE DUP1 SWAP3 SWAP2 SWAP1 DUP2 DUP2 MSTORE PUSH1 0x20 ADD PUSH0 SWAP1 JUMPDEST DUP3 DUP3 LT ISZERO PUSH2 0x1160 JUMPI DUP4 DUP3 SWAP1 PUSH0 MSTORE PUSH1 0x20 PUSH0 KECCAK256 SWAP1 PUSH1 0x4 MUL ADD PUSH1 0x40 MLOAD DUP1 PUSH1 0xA0 ADD PUSH1 0x40 MSTORE SWAP1 DUP2 PUSH0 DUP3 ADD PUSH0 SWAP1 SLOAD SWAP1 PUSH2 0x100 EXP SWAP1 DIV PUSH20 0xFFFFFFFFFFFFFFFFFFFFFFFFFFFFFFFFFFFFFFFF AND PUSH20 0xFFFFFFFFFFFFFFFFFFFFFFFFFFFFFFFFFFFFFFFF AND PUSH20 0xFFFFFFFFFFFFFFFFFFFFFFFFFFFFFFFFFFFFFFFF AND DUP2 MSTORE PUSH1 0x20 ADD PUSH1 0x1 DUP3 ADD PUSH0 SWAP1 SLOAD SWAP1 PUSH2 0x100 EXP SWAP1 DIV PUSH20 0xFFFFFFFFFFFFFFFFFFFFFFFFFFFFFFFFFFFFFFFF AND PUSH20 0xFFFFFFFFFFFFFFFFFFFFFFFFFFFFFFFFFFFFFFFF AND PUSH20 0xFFFFFFFFFFFFFFFFFFFFFFFFFFFFFFFFFFFFFFFF AND DUP2 MSTORE PUSH1 0x20 ADD PUSH1 0x1 DUP3 ADD PUSH1 0x14 SWAP1 SLOAD SWAP1 PUSH2 0x100 EXP SWAP1 DIV PUSH1 0xFF AND PUSH1 0x4 DUP2 GT ISZERO PUSH2 0x10A1 JUMPI PUSH2 0x10A0 PUSH2 0x16F9 JUMP JUMPDEST JUMPDEST PUSH1 0x4 DUP2 GT ISZERO PUSH2 0x10B3 JUMPI PUSH2 0x10B2 PUSH2 0x16F9 JUMP JUMPDEST JUMPDEST DUP2 MSTORE PUSH1 0x20 ADD PUSH1 0x2 DUP3 ADD SLOAD DUP2 MSTORE PUSH1 0x20 ADD PUSH1 0x3 DUP3 ADD DUP1 SLOAD PUSH2 0x10D1 SWAP1 PUSH2 0x20E9 JUMP JUMPDEST DUP1 PUSH1 0x1F ADD PUSH1 0x20 DUP1 SWAP2 DIV MUL PUSH1 0x20 ADD PUSH1 0x40 MLOAD SWAP1 DUP2 ADD PUSH1 0x40 MSTORE DUP1 SWAP3 SWAP2 SWAP1 DUP2 DUP2 MSTORE PUSH1 0x20 ADD DUP3 DUP1 SLOAD PUSH2 0x10FD SWAP1 PUSH2 0x20E9 JUMP JUMPDEST DUP1 ISZERO PUSH2 0x1148 JUMPI DUP1 PUSH1 0x1F LT PUSH2 0x111F JUMPI PUSH2 0x100 DUP1 DUP4 SLOAD DIV MUL DUP4 MSTORE SWAP2 PUSH1 0x20 ADD SWAP2 PUSH2 0x1148 JUMP JUMPDEST DUP3 ADD SWAP2 SWAP1 PUSH0 MSTORE PUSH1 0x20 PUSH0 KECCAK256 SWAP1 JUMPDEST DUP2 SLOAD DUP2 MSTORE SWAP1 PUSH1 0x1 ADD SWAP1 PUSH1 0x20 ADD DUP1 DUP4 GT PUSH2 0x112B JUMPI DUP3 SWAP1 SUB PUSH1 0x1F AND DUP3 ADD SWAP2 JUMPDEST POP POP POP POP POP DUP2 MSTORE POP POP DUP2 MSTORE PUSH1 0x20 ADD SWAP1 PUSH1 0x1 ADD SWAP1 PUSH2 0xFB2 JUMP JUMPDEST POP POP POP POP SWAP1 POP SWAP2 SWAP1 POP JUMP JUMPDEST PUSH1 0x3 PUSH1 0x20 MSTORE DUP1 PUSH0 MSTORE PUSH1 0x40 PUSH0 KECCAK256 PUSH0 SWAP2 POP SLOAD SWAP1 PUSH2 0x100 EXP SWAP1 DIV PUSH1 0xFF AND DUP2 JUMP JUMPDEST PUSH1 0x1 PUSH0 SWAP1 SLOAD SWAP1 PUSH2 0x100 EXP SWAP1 DIV PUSH20 0xFFFFFFFFFFFFFFFFFFFFFFFFFFFFFFFFFFFFFFFF AND PUSH20 0xFFFFFFFFFFFFFFFFFFFFFFFFFFFFFFFFFFFFFFFF AND CALLER PUSH20 0xFFFFFFFFFFFFFFFFFFFFFFFFFFFFFFFFFFFFFFFF AND EQ PUSH2 0x1217 JUMPI PUSH1 0x40 MLOAD PUSH32 0x8C379A000000000000000000000000000000000000000000000000000000000 DUP2 MSTORE PUSH1 0x4 ADD PUSH2 0x120E SWAP1 PUSH2 0x1990 JUMP JUMPDEST PUSH1 0x40 MLOAD DUP1 SWAP2 SUB SWAP1 REVERT JUMPDEST PUSH1 0x1 PUSH1 0x3 PUSH0 DUP4 PUSH20 0xFFFFFFFFFFFFFFFFFFFFFFFFFFFFFFFFFFFFFFFF AND PUSH20 0xFFFFFFFFFFFFFFFFFFFFFFFFFFFFFFFFFFFFFFFF AND DUP2 MSTORE PUSH1 0x20 ADD SWAP1 DUP2 MSTORE PUSH1 0x20 ADD PUSH0 KECCAK256 PUSH0 PUSH2 0x100 EXP DUP2 SLOAD DUP2 PUSH1 0xFF MUL NOT AND SWAP1 DUP4 ISZERO ISZERO MUL OR SWAP1 SSTORE POP POP JUMP JUMPDEST PUSH1 0x4 PUSH0 DUP7 DUP2 MSTORE PUSH1 0x20 ADD SWAP1 DUP2 MSTORE PUSH1 0x20 ADD PUSH0 KECCAK256 PUSH1 0x40 MLOAD DUP1 PUSH1 0xA0 ADD PUSH1 0x40 MSTORE DUP1 DUP7 PUSH20 0xFFFFFFFFFFFFFFFFFFFFFFFFFFFFFFFFFFFFFFFF AND DUP2 MSTORE PUSH1 0x20 ADD DUP6 PUSH20 0xFFFFFFFFFFFFFFFFFFFFFFFFFFFFFFFFFFFFFFFF AND DUP2 MSTORE PUSH1 0x20 ADD DUP5 PUSH1 0x4 DUP2 GT ISZERO PUSH2 0x12D6 JUMPI PUSH2 0x12D5 PUSH2 0x16F9 JUMP JUMPDEST JUMPDEST DUP2 MSTORE PUSH1 0x20 ADD TIMESTAMP DUP2 MSTORE PUSH1 0x20 ADD DUP4 DUP2 MSTORE POP SWAP1 DUP1 PUSH1 0x1 DUP2 SLOAD ADD DUP1 DUP3 SSTORE DUP1 SWAP2 POP POP PUSH1 0x1 SWAP1 SUB SWAP1 PUSH0 MSTORE PUSH1 0x20 PUSH0 KECCAK256 SWAP1 PUSH1 0x4 MUL ADD PUSH0 SWAP1 SWAP2 SWAP1 SWAP2 SWAP1 SWAP2 POP PUSH0 DUP3 ADD MLOAD DUP2 PUSH0 ADD PUSH0 PUSH2 0x100 EXP DUP2 SLOAD DUP2 PUSH20 0xFFFFFFFFFFFFFFFFFFFFFFFFFFFFFFFFFFFFFFFF MUL NOT AND SWAP1 DUP4 PUSH20 0xFFFFFFFFFFFFFFFFFFFFFFFFFFFFFFFFFFFFFFFF AND MUL OR SWAP1 SSTORE POP PUSH1 0x20 DUP3 ADD MLOAD DUP2 PUSH1 0x1 ADD PUSH0 PUSH2 0x100 EXP DUP2 SLOAD DUP2 PUSH20 0xFFFFFFFFFFFFFFFFFFFFFFFFFFFFFFFFFFFFFFFF MUL NOT AND SWAP1 DUP4 PUSH20 0xFFFFFFFFFFFFFFFFFFFFFFFFFFFFFFFFFFFFFFFF AND MUL OR SWAP1 SSTORE POP PUSH1 0x40 DUP3 ADD MLOAD DUP2 PUSH1 0x1 ADD PUSH1 0x14 PUSH2 0x100 EXP DUP2 SLOAD DUP2 PUSH1 0xFF MUL NOT AND SWAP1 DUP4 PUSH1 0x4 DUP2 GT ISZERO PUSH2 0x13C0 JUMPI PUSH2 0x13BF PUSH2 0x16F9 JUMP JUMPDEST JUMPDEST MUL OR SWAP1 SSTORE POP PUSH1 0x60 DUP3 ADD MLOAD DUP2 PUSH1 0x2 ADD SSTORE PUSH1 0x80 DUP3 ADD MLOAD DUP2 PUSH1 0x3 ADD SWAP1 DUP2 PUSH2 0x13E4 SWAP2 SWAP1 PUSH2 0x22C1 JUMP JUMPDEST POP POP POP POP POP POP POP POP JUMP JUMPDEST PUSH0 PUSH1 0x40 MLOAD SWAP1 POP SWAP1 JUMP JUMPDEST PUSH0 PUSH0 REVERT JUMPDEST PUSH0 PUSH0 REVERT JUMPDEST PUSH0 PUSH20 0xFFFFFFFFFFFFFFFFFFFFFFFFFFFFFFFFFFFFFFFF DUP3 AND SWAP1 POP SWAP2 SWAP1 POP JUMP JUMPDEST PUSH0 PUSH2 0x1428 DUP3 PUSH2 0x13FF JUMP JUMPDEST SWAP1 POP SWAP2 SWAP1 POP JUMP JUMPDEST PUSH2 0x1438 DUP2 PUSH2 0x141E JUMP JUMPDEST DUP2 EQ PUSH2 0x1442 JUMPI PUSH0 PUSH0 REVERT JUMPDEST POP JUMP JUMPDEST PUSH0 DUP2 CALLDATALOAD SWAP1 POP PUSH2 0x1453 DUP2 PUSH2 0x142F JUMP JUMPDEST SWAP3 SWAP2 POP POP JUMP JUMPDEST PUSH0 PUSH1 0x20 DUP3 DUP5 SUB SLT ISZERO PUSH2 0x146E JUMPI PUSH2 0x146D PUSH2 0x13F7 JUMP JUMPDEST JUMPDEST PUSH0 PUSH2 0x147B DUP5 DUP3 DUP6 ADD PUSH2 0x1445 JUMP JUMPDEST SWAP2 POP POP SWAP3 SWAP2 POP POP JUMP JUMPDEST PUSH0 DUP2 SWAP1 POP SWAP2 SWAP1 POP JUMP JUMPDEST PUSH2 0x1496 DUP2 PUSH2 0x1484 JUMP JUMPDEST DUP2 EQ PUSH2 0x14A0 JUMPI PUSH0 PUSH0 REVERT JUMPDEST POP JUMP JUMPDEST PUSH0 DUP2 CALLDATALOAD SWAP1 POP PUSH2 0x14B1 DUP2 PUSH2 0x148D JUMP JUMPDEST SWAP3 SWAP2 POP POP JUMP JUMPDEST PUSH0 PUSH0 REVERT JUMPDEST PUSH0 PUSH0 REVERT JUMPDEST PUSH0 PUSH0 REVERT JUMPDEST PUSH0 PUSH0 DUP4 PUSH1 0x1F DUP5 ADD SLT PUSH2 0x14D8 JUMPI PUSH2 0x14D7 PUSH2 0x14B7 JUMP JUMPDEST JUMPDEST DUP3 CALLDATALOAD SWAP1 POP PUSH8 0xFFFFFFFFFFFFFFFF DUP2 GT ISZERO PUSH2 0x14F5 JUMPI PUSH2 0x14F4 PUSH2 0x14BB JUMP JUMPDEST JUMPDEST PUSH1 0x20 DUP4 ADD SWAP2 POP DUP4 PUSH1 0x1 DUP3 MUL DUP4 ADD GT ISZERO PUSH2 0x1511 JUMPI PUSH2 0x1510 PUSH2 0x14BF JUMP JUMPDEST JUMPDEST SWAP3 POP SWAP3 SWAP1 POP JUMP JUMPDEST PUSH0 PUSH0 PUSH0 PUSH0 PUSH1 0x60 DUP6 DUP8 SUB SLT ISZERO PUSH2 0x1530 JUMPI PUSH2 0x152F PUSH2 0x13F7 JUMP JUMPDEST JUMPDEST PUSH0 PUSH2 0x153D DUP8 DUP3 DUP9 ADD PUSH2 0x14A3 JUMP JUMPDEST SWAP5 POP POP PUSH1 0x20 PUSH2 0x154E DUP8 DUP3 DUP9 ADD PUSH2 0x1445 JUMP JUMPDEST SWAP4 POP POP PUSH1 0x40 DUP6 ADD CALLDATALOAD PUSH8 0xFFFFFFFFFFFFFFFF DUP2 GT ISZERO PUSH2 0x156F JUMPI PUSH2 0x156E PUSH2 0x13FB JUMP JUMPDEST JUMPDEST PUSH2 0x157B DUP8 DUP3 DUP9 ADD PUSH2 0x14C3 JUMP JUMPDEST SWAP3 POP SWAP3 POP POP SWAP3 SWAP6 SWAP2 SWAP5 POP SWAP3 POP JUMP JUMPDEST PUSH0 PUSH1 0x20 DUP3 DUP5 SUB SLT ISZERO PUSH2 0x159E JUMPI PUSH2 0x159D PUSH2 0x13F7 JUMP JUMPDEST JUMPDEST PUSH0 PUSH2 0x15AB DUP5 DUP3 DUP6 ADD PUSH2 0x14A3 JUMP JUMPDEST SWAP2 POP POP SWAP3 SWAP2 POP POP JUMP JUMPDEST PUSH2 0x15BD DUP2 PUSH2 0x141E JUMP JUMPDEST DUP3 MSTORE POP POP JUMP JUMPDEST PUSH0 PUSH1 0x20 DUP3 ADD SWAP1 POP PUSH2 0x15D6 PUSH0 DUP4 ADD DUP5 PUSH2 0x15B4 JUMP JUMPDEST SWAP3 SWAP2 POP POP JUMP JUMPDEST PUSH0 PUSH0 PUSH1 0x40 DUP4 DUP6 SUB SLT ISZERO PUSH2 0x15F2 JUMPI PUSH2 0x15F1 PUSH2 0x13F7 JUMP JUMPDEST JUMPDEST PUSH0 PUSH2 0x15FF DUP6 DUP3 DUP7 ADD PUSH2 0x14A3 JUMP JUMPDEST SWAP3 POP POP PUSH1 0x20 PUSH2 0x1610 DUP6 DUP3 DUP7 ADD PUSH2 0x1445 JUMP JUMPDEST SWAP2 POP POP SWAP3 POP SWAP3 SWAP1 POP JUMP JUMPDEST PUSH0 DUP2 ISZERO ISZERO SWAP1 POP SWAP2 SWAP1 POP JUMP JUMPDEST PUSH2 0x162E DUP2 PUSH2 0x161A JUMP JUMPDEST DUP3 MSTORE POP POP JUMP JUMPDEST PUSH0 PUSH1 0x20 DUP3 ADD SWAP1 POP PUSH2 0x1647 PUSH0 DUP4 ADD DUP5 PUSH2 0x1625 JUMP JUMPDEST SWAP3 SWAP2 POP POP JUMP JUMPDEST PUSH0 DUP2 SWAP1 POP SWAP2 SWAP1 POP JUMP JUMPDEST PUSH0 PUSH2 0x1670 PUSH2 0x166B PUSH2 0x1666 DUP5 PUSH2 0x13FF JUMP JUMPDEST PUSH2 0x164D JUMP JUMPDEST PUSH2 0x13FF JUMP JUMPDEST SWAP1 POP SWAP2 SWAP1 POP JUMP JUMPDEST PUSH0 PUSH2 0x1681 DUP3 PUSH2 0x1656 JUMP JUMPDEST SWAP1 POP SWAP2 SWAP1 POP JUMP JUMPDEST PUSH0 PUSH2 0x1692 DUP3 PUSH2 0x1677 JUMP JUMPDEST SWAP1 POP SWAP2 SWAP1 POP JUMP JUMPDEST PUSH2 0x16A2 DUP2 PUSH2 0x1688 JUMP JUMPDEST DUP3 MSTORE POP POP JUMP JUMPDEST PUSH0 PUSH1 0x20 DUP3 ADD SWAP1 POP PUSH2 0x16BB PUSH0 DUP4 ADD DUP5 PUSH2 0x1699 JUMP JUMPDEST SWAP3 SWAP2 POP POP JUMP JUMPDEST PUSH0 DUP2 MLOAD SWAP1 POP SWAP2 SWAP1 POP JUMP JUMPDEST PUSH0 DUP3 DUP3 MSTORE PUSH1 0x20 DUP3 ADD SWAP1 POP SWAP3 SWAP2 POP POP JUMP JUMPDEST PUSH0 DUP2 SWAP1 POP PUSH1 0x20 DUP3 ADD SWAP1 POP SWAP2 SWAP1 POP JUMP JUMPDEST PUSH2 0x16F3 DUP2 PUSH2 0x141E JUMP JUMPDEST DUP3 MSTORE POP POP JUMP JUMPDEST PUSH32 0x4E487B7100000000000000000000000000000000000000000000000000000000 PUSH0 MSTORE PUSH1 0x21 PUSH1 0x4 MSTORE PUSH1 0x24 PUSH0 REVERT JUMPDEST PUSH1 0x5 DUP2 LT PUSH2 0x1737 JUMPI PUSH2 0x1736 PUSH2 0x16F9 JUMP JUMPDEST JUMPDEST POP JUMP JUMPDEST PUSH0 DUP2 SWAP1 POP PUSH2 0x1747 DUP3 PUSH2 0x1726 JUMP JUMPDEST SWAP2 SWAP1 POP JUMP JUMPDEST PUSH0 PUSH2 0x1756 DUP3 PUSH2 0x173A JUMP JUMPDEST SWAP1 POP SWAP2 SWAP1 POP JUMP JUMPDEST PUSH2 0x1766 DUP2 PUSH2 0x174C JUMP JUMPDEST DUP3 MSTORE POP POP JUMP JUMPDEST PUSH2 0x1775 DUP2 PUSH2 0x1484 JUMP JUMPDEST DUP3 MSTORE POP POP JUMP JUMPDEST PUSH0 DUP2 MLOAD SWAP1 POP SWAP2 SWAP1 POP JUMP JUMPDEST PUSH0 DUP3 DUP3 MSTORE PUSH1 0x20 DUP3 ADD SWAP1 POP SWAP3 SWAP2 POP POP JUMP JUMPDEST DUP3 DUP2 DUP4 MCOPY PUSH0 DUP4 DUP4 ADD MSTORE POP POP POP JUMP JUMPDEST PUSH0 PUSH1 0x1F NOT PUSH1 0x1F DUP4 ADD AND SWAP1 POP SWAP2 SWAP1 POP JUMP JUMPDEST PUSH0 PUSH2 0x17BD DUP3 PUSH2 0x177B JUMP JUMPDEST PUSH2 0x17C7 DUP2 DUP6 PUSH2 0x1785 JUMP JUMPDEST SWAP4 POP PUSH2 0x17D7 DUP2 DUP6 PUSH1 0x20 DUP7 ADD PUSH2 0x1795 JUMP JUMPDEST PUSH2 0x17E0 DUP2 PUSH2 0x17A3 JUMP JUMPDEST DUP5 ADD SWAP2 POP POP SWAP3 SWAP2 POP POP JUMP JUMPDEST PUSH0 PUSH1 0xA0 DUP4 ADD PUSH0 DUP4 ADD MLOAD PUSH2 0x1800 PUSH0 DUP7 ADD DUP3 PUSH2 0x16EA JUMP JUMPDEST POP PUSH1 0x20 DUP4 ADD MLOAD PUSH2 0x1813 PUSH1 0x20 DUP7 ADD DUP3 PUSH2 0x16EA JUMP JUMPDEST POP PUSH1 0x40 DUP4 ADD MLOAD PUSH2 0x1826 PUSH1 0x40 DUP7 ADD DUP3 PUSH2 0x175D JUMP JUMPDEST POP PUSH1 0x60 DUP4 ADD MLOAD PUSH2 0x1839 PUSH1 0x60 DUP7 ADD DUP3 PUSH2 0x176C JUMP JUMPDEST POP PUSH1 0x80 DUP4 ADD MLOAD DUP5 DUP3 SUB PUSH1 0x80 DUP7 ADD MSTORE PUSH2 0x1851 DUP3 DUP3 PUSH2 0x17B3 JUMP JUMPDEST SWAP2 POP POP DUP1 SWAP2 POP POP SWAP3 SWAP2 POP POP JUMP JUMPDEST PUSH0 PUSH2 0x1869 DUP4 DUP4 PUSH2 0x17EB JUMP JUMPDEST SWAP1 POP SWAP3 SWAP2 POP POP JUMP JUMPDEST PUSH0 PUSH1 0x20 DUP3 ADD SWAP1 POP SWAP2 SWAP1 POP JUMP JUMPDEST PUSH0 PUSH2 0x1887 DUP3 PUSH2 0x16C1 JUMP JUMPDEST PUSH2 0x1891 DUP2 DUP6 PUSH2 0x16CB JUMP JUMPDEST SWAP4 POP DUP4 PUSH1 0x20 DUP3 MUL DUP6 ADD PUSH2 0x18A3 DUP6 PUSH2 0x16DB JUMP JUMPDEST DUP1 PUSH0 JUMPDEST DUP6 DUP2 LT ISZERO PUSH2 0x18DE JUMPI DUP5 DUP5 SUB DUP10 MSTORE DUP2 MLOAD PUSH2 0x18BF DUP6 DUP3 PUSH2 0x185E JUMP JUMPDEST SWAP5 POP PUSH2 0x18CA DUP4 PUSH2 0x1871 JUMP JUMPDEST SWAP3 POP PUSH1 0x20 DUP11 ADD SWAP10 POP POP PUSH1 0x1 DUP2 ADD SWAP1 POP PUSH2 0x18A6 JUMP JUMPDEST POP DUP3 SWAP8 POP DUP8 SWAP6 POP POP POP POP POP POP SWAP3 SWAP2 POP POP JUMP JUMPDEST PUSH0 PUSH1 0x20 DUP3 ADD SWAP1 POP DUP2 DUP2 SUB PUSH0 DUP4 ADD MSTORE PUSH2 0x1908 DUP2 DUP5 PUSH2 0x187D JUMP JUMPDEST SWAP1 POP SWAP3 SWAP2 POP POP JUMP JUMPDEST PUSH0 DUP3 DUP3 MSTORE PUSH1 0x20 DUP3 ADD SWAP1 POP SWAP3 SWAP2 POP POP JUMP JUMPDEST PUSH32 0x436F6E74726F6C436F6E74726163743A2063616C6C6572206973206E6F74206F PUSH0 DUP3 ADD MSTORE PUSH32 0x776E657200000000000000000000000000000000000000000000000000000000 PUSH1 0x20 DUP3 ADD MSTORE POP JUMP JUMPDEST PUSH0 PUSH2 0x197A PUSH1 0x24 DUP4 PUSH2 0x1910 JUMP JUMPDEST SWAP2 POP PUSH2 0x1985 DUP3 PUSH2 0x1920 JUMP JUMPDEST PUSH1 0x40 DUP3 ADD SWAP1 POP SWAP2 SWAP1 POP JUMP JUMPDEST PUSH0 PUSH1 0x20 DUP3 ADD SWAP1 POP DUP2 DUP2 SUB PUSH0 DUP4 ADD MSTORE PUSH2 0x19A7 DUP2 PUSH2 0x196E JUMP JUMPDEST SWAP1 POP SWAP2 SWAP1 POP JUMP JUMPDEST PUSH32 0x436F6E74726F6C436F6E74726163743A2063616C6C6572206973206E6F742061 PUSH0 DUP3 ADD MSTORE PUSH32 0x6E20617574686F7269736564206469737472696275746F720000000000000000 PUSH1 0x20 DUP3 ADD MSTORE POP JUMP JUMPDEST PUSH0 PUSH2 0x1A08 PUSH1 0x38 DUP4 PUSH2 0x1910 JUMP JUMPDEST SWAP2 POP PUSH2 0x1A13 DUP3 PUSH2 0x19AE JUMP JUMPDEST PUSH1 0x40 DUP3 ADD SWAP1 POP SWAP2 SWAP1 POP JUMP JUMPDEST PUSH0 PUSH1 0x20 DUP3 ADD SWAP1 POP DUP2 DUP2 SUB PUSH0 DUP4 ADD MSTORE PUSH2 0x1A35 DUP2 PUSH2 0x19FC JUMP JUMPDEST SWAP1 POP SWAP2 SWAP1 POP JUMP JUMPDEST PUSH2 0x1A45 DUP2 PUSH2 0x1484 JUMP JUMPDEST DUP3 MSTORE POP POP JUMP JUMPDEST PUSH0 PUSH1 0x20 DUP3 ADD SWAP1 POP PUSH2 0x1A5E PUSH0 DUP4 ADD DUP5 PUSH2 0x1A3C JUMP JUMPDEST SWAP3 SWAP2 POP POP JUMP JUMPDEST PUSH0 PUSH0 REVERT JUMPDEST PUSH32 0x4E487B7100000000000000000000000000000000000000000000000000000000 PUSH0 MSTORE PUSH1 0x41 PUSH1 0x4 MSTORE PUSH1 0x24 PUSH0 REVERT JUMPDEST PUSH2 0x1A9E DUP3 PUSH2 0x17A3 JUMP JUMPDEST DUP2 ADD DUP2 DUP2 LT PUSH8 0xFFFFFFFFFFFFFFFF DUP3 GT OR ISZERO PUSH2 0x1ABD JUMPI PUSH2 0x1ABC PUSH2 0x1A68 JUMP JUMPDEST JUMPDEST DUP1 PUSH1 0x40 MSTORE POP POP POP JUMP JUMPDEST PUSH0 PUSH2 0x1ACF PUSH2 0x13EE JUMP JUMPDEST SWAP1 POP PUSH2 0x1ADB DUP3 DUP3 PUSH2 0x1A95 JUMP JUMPDEST SWAP2 SWAP1 POP JUMP JUMPDEST PUSH0 PUSH0 REVERT JUMPDEST PUSH0 DUP2 MLOAD SWAP1 POP PUSH2 0x1AF2 DUP2 PUSH2 0x148D JUMP JUMPDEST SWAP3 SWAP2 POP POP JUMP JUMPDEST PUSH0 PUSH0 REVERT JUMPDEST PUSH0 PUSH8 0xFFFFFFFFFFFFFFFF DUP3 GT ISZERO PUSH2 0x1B16 JUMPI PUSH2 0x1B15 PUSH2 0x1A68 JUMP JUMPDEST JUMPDEST PUSH2 0x1B1F DUP3 PUSH2 0x17A3 JUMP JUMPDEST SWAP1 POP PUSH1 0x20 DUP2 ADD SWAP1 POP SWAP2 SWAP1 POP JUMP JUMPDEST PUSH0 PUSH2 0x1B3E PUSH2 0x1B39 DUP5 PUSH2 0x1AFC JUMP JUMPDEST PUSH2 0x1AC6 JUMP JUMPDEST SWAP1 POP DUP3 DUP2 MSTORE PUSH1 0x20 DUP2 ADD DUP5 DUP5 DUP5 ADD GT ISZERO PUSH2 0x1B5A JUMPI PUSH2 0x1B59 PUSH2 0x1AF8 JUMP JUMPDEST JUMPDEST PUSH2 0x1B65 DUP5 DUP3 DUP6 PUSH2 0x1795 JUMP JUMPDEST POP SWAP4 SWAP3 POP POP POP JUMP JUMPDEST PUSH0 DUP3 PUSH1 0x1F DUP4 ADD SLT PUSH2 0x1B81 JUMPI PUSH2 0x1B80 PUSH2 0x14B7 JUMP JUMPDEST JUMPDEST DUP2 MLOAD PUSH2 0x1B91 DUP5 DUP3 PUSH1 0x20 DUP7 ADD PUSH2 0x1B2C JUMP JUMPDEST SWAP2 POP POP SWAP3 SWAP2 POP POP JUMP JUMPDEST PUSH0 DUP2 MLOAD SWAP1 POP PUSH2 0x1BA8 DUP2 PUSH2 0x142F JUMP JUMPDEST SWAP3 SWAP2 POP POP JUMP JUMPDEST PUSH1 0x5 DUP2 LT PUSH2 0x1BBA JUMPI PUSH0 PUSH0 REVERT JUMPDEST POP JUMP JUMPDEST PUSH0 DUP2 MLOAD SWAP1 POP PUSH2 0x1BCB DUP2 PUSH2 0x1BAE JUMP JUMPDEST SWAP3 SWAP2 POP POP JUMP JUMPDEST PUSH0 PUSH1 0xE0 DUP3 DUP5 SUB SLT ISZERO PUSH2 0x1BE6 JUMPI PUSH2 0x1BE5 PUSH2 0x1A64 JUMP JUMPDEST JUMPDEST PUSH2 0x1BF0 PUSH1 0xE0 PUSH2 0x1AC6 JUMP JUMPDEST SWAP1 POP PUSH0 PUSH2 0x1BFF DUP5 DUP3 DUP6 ADD PUSH2 0x1AE4 JUMP JUMPDEST PUSH0 DUP4 ADD MSTORE POP PUSH1 0x20 DUP3 ADD MLOAD PUSH8 0xFFFFFFFFFFFFFFFF DUP2 GT ISZERO PUSH2 0x1C22 JUMPI PUSH2 0x1C21 PUSH2 0x1AE0 JUMP JUMPDEST JUMPDEST PUSH2 0x1C2E DUP5 DUP3 DUP6 ADD PUSH2 0x1B6D JUMP JUMPDEST PUSH1 0x20 DUP4 ADD MSTORE POP PUSH1 0x40 DUP3 ADD MLOAD PUSH8 0xFFFFFFFFFFFFFFFF DUP2 GT ISZERO PUSH2 0x1C52 JUMPI PUSH2 0x1C51 PUSH2 0x1AE0 JUMP JUMPDEST JUMPDEST PUSH2 0x1C5E DUP5 DUP3 DUP6 ADD PUSH2 0x1B6D JUMP JUMPDEST PUSH1 0x40 DUP4 ADD MSTORE POP PUSH1 0x60 PUSH2 0x1C72 DUP5 DUP3 DUP6 ADD PUSH2 0x1AE4 JUMP JUMPDEST PUSH1 0x60 DUP4 ADD MSTORE POP PUSH1 0x80 PUSH2 0x1C86 DUP5 DUP3 DUP6 ADD PUSH2 0x1AE4 JUMP JUMPDEST PUSH1 0x80 DUP4 ADD MSTORE POP PUSH1 0xA0 PUSH2 0x1C9A DUP5 DUP3 DUP6 ADD PUSH2 0x1B9A JUMP JUMPDEST PUSH1 0xA0 DUP4 ADD MSTORE POP PUSH1 0xC0 PUSH2 0x1CAE DUP5 DUP3 DUP6 ADD PUSH2 0x1BBD JUMP JUMPDEST PUSH1 0xC0 DUP4 ADD MSTORE POP SWAP3 SWAP2 POP POP JUMP JUMPDEST PUSH0 PUSH1 0x20 DUP3 DUP5 SUB SLT ISZERO PUSH2 0x1CCF JUMPI PUSH2 0x1CCE PUSH2 0x13F7 JUMP JUMPDEST JUMPDEST PUSH0 DUP3 ADD MLOAD PUSH8 0xFFFFFFFFFFFFFFFF DUP2 GT ISZERO PUSH2 0x1CEC JUMPI PUSH2 0x1CEB PUSH2 0x13FB JUMP JUMPDEST JUMPDEST PUSH2 0x1CF8 DUP5 DUP3 DUP6 ADD PUSH2 0x1BD1 JUMP JUMPDEST SWAP2 POP POP SWAP3 SWAP2 POP POP JUMP JUMPDEST PUSH32 0x436F6E74726F6C436F6E74726163743A206261746368206D7573742062652052 PUSH0 DUP3 ADD MSTORE PUSH32 0x656C6561736564206F7220496E5472616E73697420746F207368697000000000 PUSH1 0x20 DUP3 ADD MSTORE POP JUMP JUMPDEST PUSH0 PUSH2 0x1D5B PUSH1 0x3C DUP4 PUSH2 0x1910 JUMP JUMPDEST SWAP2 POP PUSH2 0x1D66 DUP3 PUSH2 0x1D01 JUMP JUMPDEST PUSH1 0x40 DUP3 ADD SWAP1 POP SWAP2 SWAP1 POP JUMP JUMPDEST PUSH0 PUSH1 0x20 DUP3 ADD SWAP1 POP DUP2 DUP2 SUB PUSH0 DUP4 ADD MSTORE PUSH2 0x1D88 DUP2 PUSH2 0x1D4F JUMP JUMPDEST SWAP1 POP SWAP2 SWAP1 POP JUMP JUMPDEST PUSH2 0x1D98 DUP2 PUSH2 0x174C JUMP JUMPDEST DUP3 MSTORE POP POP JUMP JUMPDEST PUSH0 PUSH1 0x40 DUP3 ADD SWAP1 POP PUSH2 0x1DB1 PUSH0 DUP4 ADD DUP6 PUSH2 0x1A3C JUMP JUMPDEST PUSH2 0x1DBE PUSH1 0x20 DUP4 ADD DUP5 PUSH2 0x1D8F JUMP JUMPDEST SWAP4 SWAP3 POP POP POP JUMP JUMPDEST DUP3 DUP2 DUP4 CALLDATACOPY PUSH0 DUP4 DUP4 ADD MSTORE POP POP POP JUMP JUMPDEST PUSH0 PUSH2 0x1DDE DUP4 DUP6 PUSH2 0x1910 JUMP JUMPDEST SWAP4 POP PUSH2 0x1DEB DUP4 DUP6 DUP5 PUSH2 0x1DC5 JUMP JUMPDEST PUSH2 0x1DF4 DUP4 PUSH2 0x17A3 JUMP JUMPDEST DUP5 ADD SWAP1 POP SWAP4 SWAP3 POP POP POP JUMP JUMPDEST PUSH0 PUSH1 0x40 DUP3 ADD SWAP1 POP DUP2 DUP2 SUB PUSH0 DUP4 ADD MSTORE PUSH2 0x1E18 DUP2 DUP6 DUP8 PUSH2 0x1DD3 JUMP JUMPDEST SWAP1 POP PUSH2 0x1E27 PUSH1 0x20 DUP4 ADD DUP5 PUSH2 0x1A3C JUMP JUMPDEST SWAP5 SWAP4 POP POP POP POP JUMP JUMPDEST PUSH2 0x1E38 DUP2 PUSH2 0x161A JUMP JUMPDEST DUP2 EQ PUSH2 0x1E42 JUMPI PUSH0 PUSH0 REVERT JUMPDEST POP JUMP JUMPDEST PUSH0 DUP2 MLOAD SWAP1 POP PUSH2 0x1E53 DUP2 PUSH2 0x1E2F JUMP JUMPDEST SWAP3 SWAP2 POP POP JUMP JUMPDEST PUSH0 PUSH1 0x20 DUP3 DUP5 SUB SLT ISZERO PUSH2 0x1E6E JUMPI PUSH2 0x1E6D PUSH2 0x13F7 JUMP JUMPDEST JUMPDEST PUSH0 PUSH2 0x1E7B DUP5 DUP3 DUP6 ADD PUSH2 0x1E45 JUMP JUMPDEST SWAP2 POP POP SWAP3 SWAP2 POP POP JUMP JUMPDEST PUSH32 0x436F6E74726F6C436F6E74726163743A2063616C6C6572206973206E6F742061 PUSH0 DUP3 ADD MSTORE PUSH32 0x6E20617574686F7269736564206D616E75666163747572657200000000000000 PUSH1 0x20 DUP3 ADD MSTORE POP JUMP JUMPDEST PUSH0 PUSH2 0x1EDE PUSH1 0x39 DUP4 PUSH2 0x1910 JUMP JUMPDEST SWAP2 POP PUSH2 0x1EE9 DUP3 PUSH2 0x1E84 JUMP JUMPDEST PUSH1 0x40 DUP3 ADD SWAP1 POP SWAP2 SWAP1 POP JUMP JUMPDEST PUSH0 PUSH1 0x20 DUP3 ADD SWAP1 POP DUP2 DUP2 SUB PUSH0 DUP4 ADD MSTORE PUSH2 0x1F0B DUP2 PUSH2 0x1ED2 JUMP JUMPDEST SWAP1 POP SWAP2 SWAP1 POP JUMP JUMPDEST PUSH32 0x436F6E74726F6C436F6E74726163743A206261746368206D7573742062652069 PUSH0 DUP3 ADD MSTORE PUSH32 0x6E2050726F647563656420737461746520746F2072656C656173650000000000 PUSH1 0x20 DUP3 ADD MSTORE POP JUMP JUMPDEST PUSH0 PUSH2 0x1F6C PUSH1 0x3B DUP4 PUSH2 0x1910 JUMP JUMPDEST SWAP2 POP PUSH2 0x1F77 DUP3 PUSH2 0x1F12 JUMP JUMPDEST PUSH1 0x40 DUP3 ADD SWAP1 POP SWAP2 SWAP1 POP JUMP JUMPDEST PUSH0 PUSH1 0x20 DUP3 ADD SWAP1 POP DUP2 DUP2 SUB PUSH0 DUP4 ADD MSTORE PUSH2 0x1F99 DUP2 PUSH2 0x1F60 JUMP JUMPDEST SWAP1 POP SWAP2 SWAP1 POP JUMP JUMPDEST PUSH32 0x436F6E74726F6C436F6E74726163743A2063616C6C6572206973206E6F742061 PUSH0 DUP3 ADD MSTORE PUSH32 0x6E20617574686F726973656420706861726D6163792F686F73706974616C0000 PUSH1 0x20 DUP3 ADD MSTORE POP JUMP JUMPDEST PUSH0 PUSH2 0x1FFA PUSH1 0x3E DUP4 PUSH2 0x1910 JUMP JUMPDEST SWAP2 POP PUSH2 0x2005 DUP3 PUSH2 0x1FA0 JUMP JUMPDEST PUSH1 0x40 DUP3 ADD SWAP1 POP SWAP2 SWAP1 POP JUMP JUMPDEST PUSH0 PUSH1 0x20 DUP3 ADD SWAP1 POP DUP2 DUP2 SUB PUSH0 DUP4 ADD MSTORE PUSH2 0x2027 DUP2 PUSH2 0x1FEE JUMP JUMPDEST SWAP1 POP SWAP2 SWAP1 POP JUMP JUMPDEST PUSH32 0x436F6E74726F6C436F6E74726163743A206261746368206D7573742062652049 PUSH0 DUP3 ADD MSTORE PUSH32 0x6E5472616E73697420746F20636F6E6669726D20726563656970740000000000 PUSH1 0x20 DUP3 ADD MSTORE POP JUMP JUMPDEST PUSH0 PUSH2 0x2088 PUSH1 0x3B DUP4 PUSH2 0x1910 JUMP JUMPDEST SWAP2 POP PUSH2 0x2093 DUP3 PUSH2 0x202E JUMP JUMPDEST PUSH1 0x40 DUP3 ADD SWAP1 POP SWAP2 SWAP1 POP JUMP JUMPDEST PUSH0 PUSH1 0x20 DUP3 ADD SWAP1 POP DUP2 DUP2 SUB PUSH0 DUP4 ADD MSTORE PUSH2 0x20B5 DUP2 PUSH2 0x207C JUMP JUMPDEST SWAP1 POP SWAP2 SWAP1 POP JUMP JUMPDEST PUSH32 0x4E487B7100000000000000000000000000000000000000000000000000000000 PUSH0 MSTORE PUSH1 0x22 PUSH1 0x4 MSTORE PUSH1 0x24 PUSH0 REVERT JUMPDEST PUSH0 PUSH1 0x2 DUP3 DIV SWAP1 POP PUSH1 0x1 DUP3 AND DUP1 PUSH2 0x2100 JUMPI PUSH1 0x7F DUP3 AND SWAP2 POP JUMPDEST PUSH1 0x20 DUP3 LT DUP2 SUB PUSH2 0x2113 JUMPI PUSH2 0x2112 PUSH2 0x20BC JUMP JUMPDEST JUMPDEST POP SWAP2 SWAP1 POP JUMP JUMPDEST PUSH0 DUP2 SWAP1 POP DUP2 PUSH0 MSTORE PUSH1 0x20 PUSH0 KECCAK256 SWAP1 POP SWAP2 SWAP1 POP JUMP JUMPDEST PUSH0 PUSH1 0x20 PUSH1 0x1F DUP4 ADD DIV SWAP1 POP SWAP2 SWAP1 POP JUMP JUMPDEST PUSH0 DUP3 DUP3 SHL SWAP1 POP SWAP3 SWAP2 POP POP JUMP JUMPDEST PUSH0 PUSH1 0x8 DUP4 MUL PUSH2 0x2175 PUSH32 0xFFFFFFFFFFFFFFFFFFFFFFFFFFFFFFFFFFFFFFFFFFFFFFFFFFFFFFFFFFFFFFFF DUP3 PUSH2 0x213A JUMP JUMPDEST PUSH2 0x217F DUP7 DUP4 PUSH2 0x213A JUMP JUMPDEST SWAP6 POP DUP1 NOT DUP5 AND SWAP4 POP DUP1 DUP7 AND DUP5 OR SWAP3 POP POP POP SWAP4 SWAP3 POP POP POP JUMP JUMPDEST PUSH0 PUSH2 0x21B1 PUSH2 0x21AC PUSH2 0x21A7 DUP5 PUSH2 0x1484 JUMP JUMPDEST PUSH2 0x164D JUMP JUMPDEST PUSH2 0x1484 JUMP JUMPDEST SWAP1 POP SWAP2 SWAP1 POP JUMP JUMPDEST PUSH0 DUP2 SWAP1 POP SWAP2 SWAP1 POP JUMP JUMPDEST PUSH2 0x21CA DUP4 PUSH2 0x2197 JUMP JUMPDEST PUSH2 0x21DE PUSH2 0x21D6 DUP3 PUSH2 0x21B8 JUMP JUMPDEST DUP5 DUP5 SLOAD PUSH2 0x2146 JUMP JUMPDEST DUP3 SSTORE POP POP POP POP JUMP JUMPDEST PUSH0 PUSH0 SWAP1 POP SWAP1 JUMP JUMPDEST PUSH2 0x21F5 PUSH2 0x21E6 JUMP JUMPDEST PUSH2 0x2200 DUP2 DUP5 DUP5 PUSH2 0x21C1 JUMP JUMPDEST POP POP POP JUMP JUMPDEST PUSH0 JUMPDEST DUP3 DUP2 LT ISZERO PUSH2 0x2226 JUMPI PUSH2 0x221B PUSH0 DUP3 DUP5 ADD PUSH2 0x21ED JUMP JUMPDEST PUSH1 0x1 DUP2 ADD SWAP1 POP PUSH2 0x2207 JUMP JUMPDEST POP POP POP JUMP JUMPDEST PUSH1 0x1F DUP3 GT ISZERO PUSH2 0x2279 JUMPI DUP3 DUP3 GT ISZERO PUSH2 0x2278 JUMPI PUSH2 0x2245 DUP2 PUSH2 0x2119 JUMP JUMPDEST PUSH2 0x224E DUP4 PUSH2 0x212B JUMP JUMPDEST PUSH2 0x2257 DUP6 PUSH2 0x212B JUMP JUMPDEST PUSH1 0x20 DUP7 LT ISZERO PUSH2 0x2264 JUMPI PUSH0 SWAP1 POP JUMPDEST DUP1 DUP4 ADD PUSH2 0x2273 DUP3 DUP5 SUB DUP3 PUSH2 0x2205 JUMP JUMPDEST POP POP POP POP JUMPDEST JUMPDEST POP POP POP JUMP JUMPDEST PUSH0 DUP3 DUP3 SHR SWAP1 POP SWAP3 SWAP2 POP POP JUMP JUMPDEST PUSH0 PUSH2 0x2299 PUSH0 NOT DUP5 PUSH1 0x8 MUL PUSH2 0x227E JUMP JUMPDEST NOT DUP1 DUP4 AND SWAP2 POP POP SWAP3 SWAP2 POP POP JUMP JUMPDEST PUSH0 PUSH2 0x22B1 DUP4 DUP4 PUSH2 0x228A JUMP JUMPDEST SWAP2 POP DUP3 PUSH1 0x2 MUL DUP3 OR SWAP1 POP SWAP3 SWAP2 POP POP JUMP JUMPDEST PUSH2 0x22CA DUP3 PUSH2 0x177B JUMP JUMPDEST PUSH8 0xFFFFFFFFFFFFFFFF DUP2 GT ISZERO PUSH2 0x22E3 JUMPI PUSH2 0x22E2 PUSH2 0x1A68 JUMP JUMPDEST JUMPDEST PUSH2 0x22ED DUP3 SLOAD PUSH2 0x20E9 JUMP JUMPDEST PUSH2 0x22F8 DUP3 DUP3 DUP6 PUSH2 0x222B JUMP JUMPDEST PUSH0 PUSH1 0x20 SWAP1 POP PUSH1 0x1F DUP4 GT PUSH1 0x1 DUP2 EQ PUSH2 0x2329 JUMPI PUSH0 DUP5 ISZERO PUSH2 0x2317 JUMPI DUP3 DUP8 ADD MLOAD SWAP1 POP JUMPDEST PUSH2 0x2321 DUP6 DUP3 PUSH2 0x22A6 JUMP JUMPDEST DUP7 SSTORE POP PUSH2 0x2388 JUMP JUMPDEST PUSH1 0x1F NOT DUP5 AND PUSH2 0x2337 DUP7 PUSH2 0x2119 JUMP JUMPDEST PUSH0 JUMPDEST DUP3 DUP2 LT ISZERO PUSH2 0x235E JUMPI DUP5 DUP10 ADD MLOAD DUP3 SSTORE PUSH1 0x1 DUP3 ADD SWAP2 POP PUSH1 0x20 DUP6 ADD SWAP5 POP PUSH1 0x20 DUP2 ADD SWAP1 POP PUSH2 0x2339 JUMP JUMPDEST DUP7 DUP4 LT ISZERO PUSH2 0x237B JUMPI DUP5 DUP10 ADD MLOAD PUSH2 0x2377 PUSH1 0x1F DUP10 AND DUP3 PUSH2 0x228A JUMP JUMPDEST DUP4 SSTORE POP JUMPDEST PUSH1 0x1 PUSH1 0x2 DUP9 MUL ADD DUP9 SSTORE POP POP POP JUMPDEST POP POP POP POP POP POP JUMP INVALID LOG2 PUSH5 0x6970667358 0x22 SLT KECCAK256 0x25 0xD4 PUSH30 0x213A57DD0DEA8014A8A98E28640E6BF139F7F07DCFEDAC491745371E5D64 PUSH20 0x6F6C634300082200330000000000000000000000 "
				},
				"gasEstimates": {
					"creation": {
						"codeDepositCost": "1831600",
						"executionCost": "infinite",
						"totalCost": "infinite"
					},
					"external": {
						"authoriseDistributor(address)": "27039",
						"authorisePharmacy(address)": "27060",
						"authorisedDistributors(address)": "2856",
						"authorisedPharmacies(address)": "2899",
						"currentCustodian(uint256)": "2894",
						"getCustodyHistory(uint256)": "infinite",
						"mintContract()": "infinite",
						"owner()": "2619",
						"receipt(uint256)": "infinite",
						"release(uint256,address)": "infinite",
						"revokeDistributor(address)": "26994",
						"revokePharmacy(address)": "26972",
						"shipment(uint256,address,string)": "infinite"
					},
					"internal": {
						"_appendCustody(uint256,address,address,enum BatchStatus,string memory)": "infinite"
					}
				},
				"methodIdentifiers": {
					"authoriseDistributor(address)": "b9897ce9",
					"authorisePharmacy(address)": "f1d4bba9",
					"authorisedDistributors(address)": "8ede37fa",
					"authorisedPharmacies(address)": "e33de828",
					"currentCustodian(uint256)": "78e494d3",
					"getCustodyHistory(uint256)": "d75af31e",
					"mintContract()": "d0b6b6db",
					"owner()": "8da5cb5b",
					"receipt(uint256)": "a2aa4337",
					"release(uint256,address)": "8124fea6",
					"revokeDistributor(address)": "120b93d3",
					"revokePharmacy(address)": "028e2b66",
					"shipment(uint256,address,string)": "2eecacbf"
				}
			},
			"storageLayout": {
				"storage": [
					{
						"astId": 47,
						"contract": "contracts/ControlContract.sol:ControlContract",
						"label": "mintContract",
						"offset": 0,
						"slot": "0",
						"type": "t_contract(MintContract)674"
					},
					{
						"astId": 50,
						"contract": "contracts/ControlContract.sol:ControlContract",
						"label": "owner",
						"offset": 0,
						"slot": "1",
						"type": "t_address"
					},
					{
						"astId": 55,
						"contract": "contracts/ControlContract.sol:ControlContract",
						"label": "authorisedDistributors",
						"offset": 0,
						"slot": "2",
						"type": "t_mapping(t_address,t_bool)"
					},
					{
						"astId": 59,
						"contract": "contracts/ControlContract.sol:ControlContract",
						"label": "authorisedPharmacies",
						"offset": 0,
						"slot": "3",
						"type": "t_mapping(t_address,t_bool)"
					},
					{
						"astId": 66,
						"contract": "contracts/ControlContract.sol:ControlContract",
						"label": "_custodyHistory",
						"offset": 0,
						"slot": "4",
						"type": "t_mapping(t_uint256,t_array(t_struct(CustodyRecord)38_storage)dyn_storage)"
					},
					{
						"astId": 71,
						"contract": "contracts/ControlContract.sol:ControlContract",
						"label": "currentCustodian",
						"offset": 0,
						"slot": "5",
						"type": "t_mapping(t_uint256,t_address)"
					}
				],
				"types": {
					"t_address": {
						"encoding": "inplace",
						"label": "address",
						"numberOfBytes": "20"
					},
					"t_array(t_struct(CustodyRecord)38_storage)dyn_storage": {
						"base": "t_struct(CustodyRecord)38_storage",
						"encoding": "dynamic_array",
						"label": "struct CustodyRecord[]",
						"numberOfBytes": "32"
					},
					"t_bool": {
						"encoding": "inplace",
						"label": "bool",
						"numberOfBytes": "1"
					},
					"t_contract(MintContract)674": {
						"encoding": "inplace",
						"label": "contract MintContract",
						"numberOfBytes": "20"
					},
					"t_enum(BatchStatus)8": {
						"encoding": "inplace",
						"label": "enum BatchStatus",
						"numberOfBytes": "1"
					},
					"t_mapping(t_address,t_bool)": {
						"encoding": "mapping",
						"key": "t_address",
						"label": "mapping(address => bool)",
						"numberOfBytes": "32",
						"value": "t_bool"
					},
					"t_mapping(t_uint256,t_address)": {
						"encoding": "mapping",
						"key": "t_uint256",
						"label": "mapping(uint256 => address)",
						"numberOfBytes": "32",
						"value": "t_address"
					},
					"t_mapping(t_uint256,t_array(t_struct(CustodyRecord)38_storage)dyn_storage)": {
						"encoding": "mapping",
						"key": "t_uint256",
						"label": "mapping(uint256 => struct CustodyRecord[])",
						"numberOfBytes": "32",
						"value": "t_array(t_struct(CustodyRecord)38_storage)dyn_storage"
					},
					"t_string_storage": {
						"encoding": "bytes",
						"label": "string",
						"numberOfBytes": "32"
					},
					"t_struct(CustodyRecord)38_storage": {
						"encoding": "inplace",
						"label": "struct CustodyRecord",
						"members": [
							{
								"astId": 28,
								"contract": "contracts/ControlContract.sol:ControlContract",
								"label": "from",
								"offset": 0,
								"slot": "0",
								"type": "t_address"
							},
							{
								"astId": 30,
								"contract": "contracts/ControlContract.sol:ControlContract",
								"label": "to",
								"offset": 0,
								"slot": "1",
								"type": "t_address"
							},
							{
								"astId": 33,
								"contract": "contracts/ControlContract.sol:ControlContract",
								"label": "status",
								"offset": 20,
								"slot": "1",
								"type": "t_enum(BatchStatus)8"
							},
							{
								"astId": 35,
								"contract": "contracts/ControlContract.sol:ControlContract",
								"label": "timestamp",
								"offset": 0,
								"slot": "2",
								"type": "t_uint256"
							},
							{
								"astId": 37,
								"contract": "contracts/ControlContract.sol:ControlContract",
								"label": "notes",
								"offset": 0,
								"slot": "3",
								"type": "t_string_storage"
							}
						],
						"numberOfBytes": "128"
					},
					"t_uint256": {
						"encoding": "inplace",
						"label": "uint256",
						"numberOfBytes": "32"
					}
				}
			},
			"userdoc": {
				"kind": "user",
				"methods": {
					"authorisedDistributors(address)": {
						"notice": "Role mappings"
					},
					"currentCustodian(uint256)": {
						"notice": "Maps tokenId → current custodian address"
					},
					"getCustodyHistory(uint256)": {
						"notice": "Returns the full custody history array for a batch."
					},
					"mintContract()": {
						"notice": "Reference to the MintContract for batch lookups and status updates"
					},
					"owner()": {
						"notice": "Contract owner — manages role assignments"
					},
					"receipt(uint256)": {
						"notice": "Step 3 — Pharmacy or hospital confirms receipt of a batch."
					},
					"release(uint256,address)": {
						"notice": "Step 1 — Manufacturer releases a produced batch to a distributor."
					},
					"shipment(uint256,address,string)": {
						"notice": "Step 2 — Distributor records a shipment event."
					}
				},
				"notice": "Manages the internal supply chain pipeline for pharmaceutical batches.         Handles custody transfers: Manufacturer → Distributor → Pharmacy/Hospital. Permitted actions per role:   Manufacturer  → release()   Distributor   → shipment()   Pharmacy      → receipt()",
				"version": 1
			}
		}
	}
}